{
  "contracts/LeagueFactory.sol": {
    "LeagueFactory": {
      "abi": [
        {
          "inputs": [
            {
              "internalType": "address",
              "name": "_userPlayerManager",
              "type": "address"
            }
          ],
          "stateMutability": "nonpayable",
          "type": "constructor"
        },
        {
          "anonymous": false,
          "inputs": [
            {
              "indexed": true,
              "internalType": "uint256",
              "name": "leagueId",
              "type": "uint256"
            },
            {
              "indexed": false,
              "internalType": "address",
              "name": "leagueAddress",
              "type": "address"
            },
            {
              "indexed": false,
              "internalType": "string",
              "name": "name",
              "type": "string"
            },
            {
              "indexed": false,
              "internalType": "address",
              "name": "owner",
              "type": "address"
            }
          ],
          "name": "LeagueCreated",
          "type": "event"
        },
        {
          "inputs": [],
          "name": "admin",
          "outputs": [
            {
              "internalType": "address",
              "name": "",
              "type": "address"
            }
          ],
          "stateMutability": "view",
          "type": "function"
        },
        {
          "inputs": [
            {
              "internalType": "string",
              "name": "name",
              "type": "string"
            },
            {
              "internalType": "uint256",
              "name": "entryFee",
              "type": "uint256"
            },
            {
              "internalType": "uint256",
              "name": "maxTeams",
              "type": "uint256"
            },
            {
              "internalType": "uint256",
              "name": "startTime",
              "type": "uint256"
            },
            {
              "internalType": "uint256",
              "name": "endTime",
              "type": "uint256"
            }
          ],
          "name": "createLeague",
          "outputs": [
            {
              "internalType": "address",
              "name": "",
              "type": "address"
            }
          ],
          "stateMutability": "nonpayable",
          "type": "function"
        },
        {
          "inputs": [],
          "name": "getCurrentLeagueId",
          "outputs": [
            {
              "internalType": "uint256",
              "name": "",
              "type": "uint256"
            }
          ],
          "stateMutability": "view",
          "type": "function"
        },
        {
          "inputs": [
            {
              "internalType": "uint256",
              "name": "leagueId",
              "type": "uint256"
            }
          ],
          "name": "getLeague",
          "outputs": [
            {
              "internalType": "address",
              "name": "",
              "type": "address"
            }
          ],
          "stateMutability": "view",
          "type": "function"
        },
        {
          "inputs": [
            {
              "internalType": "uint256",
              "name": "",
              "type": "uint256"
            }
          ],
          "name": "leagues",
          "outputs": [
            {
              "internalType": "address",
              "name": "",
              "type": "address"
            }
          ],
          "stateMutability": "view",
          "type": "function"
        },
        {
          "inputs": [],
          "name": "userPlayerManager",
          "outputs": [
            {
              "internalType": "contract UserPlayerManager",
              "name": "",
              "type": "address"
            }
          ],
          "stateMutability": "view",
          "type": "function"
        }
      ],
      "evm": {
        "bytecode": {
          "linkReferences": {},
          "object": "608060405234801561001057600080fd5b50604051613a49380380613a498339818101604052810190610032919061018b565b600073ffffffffffffffffffffffffffffffffffffffff168173ffffffffffffffffffffffffffffffffffffffff16036100a1576040517f08c379a000000000000000000000000000000000000000000000000000000000815260040161009890610215565b60405180910390fd5b806000806101000a81548173ffffffffffffffffffffffffffffffffffffffff021916908373ffffffffffffffffffffffffffffffffffffffff16021790555033600160006101000a81548173ffffffffffffffffffffffffffffffffffffffff021916908373ffffffffffffffffffffffffffffffffffffffff16021790555050610235565b600080fd5b600073ffffffffffffffffffffffffffffffffffffffff82169050919050565b60006101588261012d565b9050919050565b6101688161014d565b811461017357600080fd5b50565b6000815190506101858161015f565b92915050565b6000602082840312156101a1576101a0610128565b5b60006101af84828501610176565b91505092915050565b600082825260208201905092915050565b7f496e76616c69642055736572506c617965724d616e6167657200000000000000600082015250565b60006101ff6019836101b8565b915061020a826101c9565b602082019050919050565b6000602082019050818103600083015261022e816101f2565b9050919050565b613805806102446000396000f3fe608060405234801561001057600080fd5b50600436106100625760003560e01c806345516aaa146100675780635858f1ce146100975780638a1af815146100c7578063c648fefe146100e5578063f851a44014610115578063f983afd214610133575b600080fd5b610081600480360381019061007c91906104ed565b610151565b60405161008e919061055b565b60405180910390f35b6100b160048036038101906100ac91906106bc565b6101de565b6040516100be919061055b565b60405180910390f35b6100cf61040f565b6040516100dc91906107b2565b60405180910390f35b6100ff60048036038101906100fa91906104ed565b610433565b60405161010c919061055b565b60405180910390f35b61011d610466565b60405161012a919061055b565b60405180910390f35b61013b61048c565b60405161014891906107dc565b60405180910390f35b6000808211801561016457506002548211155b6101a3576040517f08c379a000000000000000000000000000000000000000000000000000000000815260040161019a90610854565b60405180910390fd5b6003600083815260200190815260200160002060009054906101000a900473ffffffffffffffffffffffffffffffffffffffff169050919050565b600080865111610223576040517f08c379a000000000000000000000000000000000000000000000000000000000815260040161021a906108c0565b60405180910390fd5b428311610265576040517f08c379a000000000000000000000000000000000000000000000000000000000815260040161025c9061092c565b60405180910390fd5b8282116102a7576040517f08c379a000000000000000000000000000000000000000000000000000000000815260040161029e90610998565b60405180910390fd5b600084116102ea576040517f08c379a00000000000000000000000000000000000000000000000000000000081526004016102e190610a04565b60405180910390fd5b600260008154809291906102fd90610a53565b9190505550600060025487338888888860008054906101000a900473ffffffffffffffffffffffffffffffffffffffff1660405161033a90610496565b61034b989796959493929190610b09565b604051809103906000f080158015610367573d6000803e3d6000fd5b50905060008190508060036000600254815260200190815260200160002060006101000a81548173ffffffffffffffffffffffffffffffffffffffff021916908373ffffffffffffffffffffffffffffffffffffffff1602179055506002547f34ef2f18b56ed366b97f4893496a42bda57019393602c6d97b9a44545aa17243828a336040516103f993929190610b8e565b60405180910390a2809250505095945050505050565b60008054906101000a900473ffffffffffffffffffffffffffffffffffffffff1681565b60036020528060005260406000206000915054906101000a900473ffffffffffffffffffffffffffffffffffffffff1681565b600160009054906101000a900473ffffffffffffffffffffffffffffffffffffffff1681565b6000600254905090565b612c0380610bcd83390190565b6000604051905090565b600080fd5b600080fd5b6000819050919050565b6104ca816104b7565b81146104d557600080fd5b50565b6000813590506104e7816104c1565b92915050565b600060208284031215610503576105026104ad565b5b6000610511848285016104d8565b91505092915050565b600073ffffffffffffffffffffffffffffffffffffffff82169050919050565b60006105458261051a565b9050919050565b6105558161053a565b82525050565b6000602082019050610570600083018461054c565b92915050565b600080fd5b600080fd5b6000601f19601f8301169050919050565b7f4e487b7100000000000000000000000000000000000000000000000000000000600052604160045260246000fd5b6105c982610580565b810181811067ffffffffffffffff821117156105e8576105e7610591565b5b80604052505050565b60006105fb6104a3565b905061060782826105c0565b919050565b600067ffffffffffffffff82111561062757610626610591565b5b61063082610580565b9050602081019050919050565b82818337600083830152505050565b600061065f61065a8461060c565b6105f1565b90508281526020810184848401111561067b5761067a61057b565b5b61068684828561063d565b509392505050565b600082601f8301126106a3576106a2610576565b5b81356106b384826020860161064c565b91505092915050565b600080600080600060a086880312156106d8576106d76104ad565b5b600086013567ffffffffffffffff8111156106f6576106f56104b2565b5b6107028882890161068e565b9550506020610713888289016104d8565b9450506040610724888289016104d8565b9350506060610735888289016104d8565b9250506080610746888289016104d8565b9150509295509295909350565b6000819050919050565b600061077861077361076e8461051a565b610753565b61051a565b9050919050565b600061078a8261075d565b9050919050565b600061079c8261077f565b9050919050565b6107ac81610791565b82525050565b60006020820190506107c760008301846107a3565b92915050565b6107d6816104b7565b82525050565b60006020820190506107f160008301846107cd565b92915050565b600082825260208201905092915050565b7f496e76616c6964206c6561677565204944000000000000000000000000000000600082015250565b600061083e6011836107f7565b915061084982610808565b602082019050919050565b6000602082019050818103600083015261086d81610831565b9050919050565b7f456d707479206e616d6500000000000000000000000000000000000000000000600082015250565b60006108aa600a836107f7565b91506108b582610874565b602082019050919050565b600060208201905081810360008301526108d98161089d565b9050919050565b7f53746172742074696d65206d7573742062652066757475726500000000000000600082015250565b60006109166019836107f7565b9150610921826108e0565b602082019050919050565b6000602082019050818103600083015261094581610909565b9050919050565b7f456e642074696d65206d75737420626520616674657220737461727400000000600082015250565b6000610982601c836107f7565b915061098d8261094c565b602082019050919050565b600060208201905081810360008301526109b181610975565b9050919050565b7f496e76616c6964206d6178207465616d73000000000000000000000000000000600082015250565b60006109ee6011836107f7565b91506109f9826109b8565b602082019050919050565b60006020820190508181036000830152610a1d816109e1565b9050919050565b7f4e487b7100000000000000000000000000000000000000000000000000000000600052601160045260246000fd5b6000610a5e826104b7565b91507fffffffffffffffffffffffffffffffffffffffffffffffffffffffffffffffff8203610a9057610a8f610a24565b5b600182019050919050565b600081519050919050565b60005b83811015610ac4578082015181840152602081019050610aa9565b60008484015250505050565b6000610adb82610a9b565b610ae581856107f7565b9350610af5818560208601610aa6565b610afe81610580565b840191505092915050565b600061010082019050610b1f600083018b6107cd565b8181036020830152610b31818a610ad0565b9050610b40604083018961054c565b610b4d60608301886107cd565b610b5a60808301876107cd565b610b6760a08301866107cd565b610b7460c08301856107cd565b610b8160e083018461054c565b9998505050505050505050565b6000606082019050610ba3600083018661054c565b8181036020830152610bb58185610ad0565b9050610bc4604083018461054c565b94935050505056fe608060405234801561001057600080fd5b50604051612c03380380612c0383398181016040528101906100329190610320565b8760008190555086600190816100489190610609565b5085600260006101000a81548173ffffffffffffffffffffffffffffffffffffffff021916908373ffffffffffffffffffffffffffffffffffffffff160217905550846003819055508360048190555082600581905550816006819055506001600860006101000a81548160ff02191690831515021790555080600860016101000a81548173ffffffffffffffffffffffffffffffffffffffff021916908373ffffffffffffffffffffffffffffffffffffffff1602179055506001600e8190555050505050505050506106db565b6000604051905090565b600080fd5b600080fd5b6000819050919050565b61013e8161012b565b811461014957600080fd5b50565b60008151905061015b81610135565b92915050565b600080fd5b600080fd5b6000601f19601f8301169050919050565b7f4e487b7100000000000000000000000000000000000000000000000000000000600052604160045260246000fd5b6101b48261016b565b810181811067ffffffffffffffff821117156101d3576101d261017c565b5b80604052505050565b60006101e6610117565b90506101f282826101ab565b919050565b600067ffffffffffffffff8211156102125761021161017c565b5b61021b8261016b565b9050602081019050919050565b60005b8381101561024657808201518184015260208101905061022b565b60008484015250505050565b6000610265610260846101f7565b6101dc565b90508281526020810184848401111561028157610280610166565b5b61028c848285610228565b509392505050565b600082601f8301126102a9576102a8610161565b5b81516102b9848260208601610252565b91505092915050565b600073ffffffffffffffffffffffffffffffffffffffff82169050919050565b60006102ed826102c2565b9050919050565b6102fd816102e2565b811461030857600080fd5b50565b60008151905061031a816102f4565b92915050565b600080600080600080600080610100898b03121561034157610340610121565b5b600061034f8b828c0161014c565b985050602089015167ffffffffffffffff8111156103705761036f610126565b5b61037c8b828c01610294565b975050604061038d8b828c0161030b565b965050606061039e8b828c0161014c565b95505060806103af8b828c0161014c565b94505060a06103c08b828c0161014c565b93505060c06103d18b828c0161014c565b92505060e06103e28b828c0161030b565b9150509295985092959890939650565b600081519050919050565b7f4e487b7100000000000000000000000000000000000000000000000000000000600052602260045260246000fd5b6000600282049050600182168061044457607f821691505b602082108103610457576104566103fd565b5b50919050565b60008190508160005260206000209050919050565b60006020601f8301049050919050565b600082821b905092915050565b6000600883026104bf7fffffffffffffffffffffffffffffffffffffffffffffffffffffffffffffffff82610482565b6104c98683610482565b95508019841693508086168417925050509392505050565b6000819050919050565b60006105066105016104fc8461012b565b6104e1565b61012b565b9050919050565b6000819050919050565b610520836104eb565b61053461052c8261050d565b84845461048f565b825550505050565b600090565b61054961053c565b610554818484610517565b505050565b5b818110156105785761056d600082610541565b60018101905061055a565b5050565b601f8211156105bd5761058e8161045d565b61059784610472565b810160208510156105a6578190505b6105ba6105b285610472565b830182610559565b50505b505050565b600082821c905092915050565b60006105e0600019846008026105c2565b1980831691505092915050565b60006105f983836105cf565b9150826002028217905092915050565b610612826103f2565b67ffffffffffffffff81111561062b5761062a61017c565b5b610635825461042c565b61064082828561057c565b600060209050601f8311600181146106735760008415610661578287015190505b61066b85826105ed565b8655506106d3565b601f1984166106818661045d565b60005b828110156106a957848901518255600182019150602085019450602081019050610684565b868310156106c657848901516106c2601f8916826105cf565b8355505b6001600288020188555050505b505050505050565b612519806106ea6000396000f3fe6080604052600436106101355760003560e01c8063464800af116100ab57806378e979251161006f57806378e979251461041f5780638a1af8151461044a5780638da5cb5b146104755780639a7c1fd1146104a0578063c4583240146104dd578063f93d81241461051c57610135565b8063464800af146103455780634861df70146103705780634e39c22c1461038c5780636eb227ce146103c957806376f5f700146103f457610135565b80630a3f5a42116100fd5780630a3f5a4214610221578063224404d31461024a578063287e4a5f146102755780633197cbb6146102b257806335c1d349146102dd578063398ab9a71461031a57610135565b806302fb0c5e1461013a578063061a2f501461016557806306fdde03146101a2578063072ea61c146101cd57806309648b26146101f8575b600080fd5b34801561014657600080fd5b5061014f610545565b60405161015c919061177f565b60405180910390f35b34801561017157600080fd5b5061018c60048036038101906101879190611838565b610558565b6040516101999190611887565b60405180910390f35b3480156101ae57600080fd5b506101b7610769565b6040516101c49190611932565b60405180910390f35b3480156101d957600080fd5b506101e26107f7565b6040516101ef9190611887565b60405180910390f35b34801561020457600080fd5b5061021f600480360381019061021a9190611954565b6107fd565b005b34801561022d57600080fd5b5061024860048036038101906102439190611954565b6109f4565b005b34801561025657600080fd5b5061025f610c56565b60405161026c9190611887565b60405180910390f35b34801561028157600080fd5b5061029c60048036038101906102979190611954565b610c5c565b6040516102a99190611887565b60405180910390f35b3480156102be57600080fd5b506102c7610c74565b6040516102d49190611887565b60405180910390f35b3480156102e957600080fd5b5061030460048036038101906102ff9190611954565b610c7a565b6040516103119190611990565b60405180910390f35b34801561032657600080fd5b5061032f610cb9565b60405161033c9190611887565b60405180910390f35b34801561035157600080fd5b5061035a610cbf565b6040516103679190611887565b60405180910390f35b61038a60048036038101906103859190611a10565b610cc5565b005b34801561039857600080fd5b506103b360048036038101906103ae9190611954565b61123a565b6040516103c09190611990565b60405180910390f35b3480156103d557600080fd5b506103de61126d565b6040516103eb9190611887565b60405180910390f35b34801561040057600080fd5b506104096112a4565b6040516104169190611887565b60405180910390f35b34801561042b57600080fd5b506104346112ab565b6040516104419190611887565b60405180910390f35b34801561045657600080fd5b5061045f6112b1565b60405161046c9190611abc565b60405180910390f35b34801561048157600080fd5b5061048a6112d7565b6040516104979190611990565b60405180910390f35b3480156104ac57600080fd5b506104c760048036038101906104c29190611954565b6112fd565b6040516104d4919061177f565b60405180910390f35b3480156104e957600080fd5b5061050460048036038101906104ff9190611ad7565b61131d565b60405161051393929190611b04565b60405180910390f35b34801561052857600080fd5b50610543600480360381019061053e9190611954565b611374565b005b600860009054906101000a900460ff1681565b6000600960008473ffffffffffffffffffffffffffffffffffffffff1673ffffffffffffffffffffffffffffffffffffffff16815260200190815260200160002060030160009054906101000a900460ff166105e9576040517f08c379a00000000000000000000000000000000000000000000000000000000081526004016105e090611b87565b60405180910390fd5b600080600960008673ffffffffffffffffffffffffffffffffffffffff1673ffffffffffffffffffffffffffffffffffffffff16815260200190815260200160002060010180548060200260200160405190810160405280929190818152602001828054801561067857602002820191906000526020600020905b815481526020019060010190808311610664575b5050505050905060005b815181101561075d57600860019054906101000a900473ffffffffffffffffffffffffffffffffffffffff1673ffffffffffffffffffffffffffffffffffffffff1663de03fd358383815181106106dc576106db611ba7565b5b6020026020010151876040518363ffffffff1660e01b8152600401610702929190611bd6565b602060405180830381865afa15801561071f573d6000803e3d6000fd5b505050506040513d601f19601f820116820180604052508101906107439190611c14565b8361074e9190611c70565b92508080600101915050610682565b50819250505092915050565b6001805461077690611cd3565b80601f01602080910402602001604051908101604052809291908181526020018280546107a290611cd3565b80156107ef5780601f106107c4576101008083540402835291602001916107ef565b820191906000526020600020905b8154815290600101906020018083116107d257829003601f168201915b505050505081565b60035481565b600260009054906101000a900473ffffffffffffffffffffffffffffffffffffffff1673ffffffffffffffffffffffffffffffffffffffff163373ffffffffffffffffffffffffffffffffffffffff161461088d576040517f08c379a000000000000000000000000000000000000000000000000000000000815260040161088490611d50565b60405180910390fd5b62093a808161089c9190611d70565b6005546108a99190611c70565b4210156108eb576040517f08c379a00000000000000000000000000000000000000000000000000000000081526004016108e290611dfe565b60405180910390fd5b60005b600a805490508110156109f0576000600a828154811061091157610910611ba7565b5b9060005260206000200160009054906101000a900473ffffffffffffffffffffffffffffffffffffffff169050600061094a8285610558565b905080600960008473ffffffffffffffffffffffffffffffffffffffff1673ffffffffffffffffffffffffffffffffffffffff168152602001908152602001600020600201819055508173ffffffffffffffffffffffffffffffffffffffff167fa05f39e6d8d4e060324edb900f0f5909de621fd93f19ccf65ba74e5965c98c36826040516109d99190611887565b60405180910390a2505080806001019150506108ee565b5050565b6002600e5403610a39576040517f08c379a0000000000000000000000000000000000000000000000000000000008152600401610a3090611e6a565b60405180910390fd5b6002600e81905550600c600082815260200190815260200160002060009054906101000a900460ff16610aa1576040517f08c379a0000000000000000000000000000000000000000000000000000000008152600401610a9890611ed6565b60405180910390fd5b3373ffffffffffffffffffffffffffffffffffffffff16600b600083815260200190815260200160002060009054906101000a900473ffffffffffffffffffffffffffffffffffffffff1673ffffffffffffffffffffffffffffffffffffffff1614610b42576040517f08c379a0000000000000000000000000000000000000000000000000000000008152600401610b3990611f42565b60405180910390fd5b6000600d60008381526020019081526020016000205411610b98576040517f08c379a0000000000000000000000000000000000000000000000000000000008152600401610b8f90611fae565b60405180910390fd5b6000600d60008381526020019081526020016000205490506000600d6000848152602001908152602001600020819055503373ffffffffffffffffffffffffffffffffffffffff166108fc829081150290604051600060405180830381858888f19350505050158015610c0f573d6000803e3d6000fd5b50817f24b5efa61dd1cfc659205a97fb8ed868f3cb8c81922bab2b96423e5de1de2cb73383604051610c42929190611fce565b60405180910390a2506001600e8190555050565b60045481565b600d6020528060005260406000206000915090505481565b60065481565b600a8181548110610c8a57600080fd5b906000526020600020016000915054906101000a900473ffffffffffffffffffffffffffffffffffffffff1681565b60075481565b60005481565b6002600e5403610d0a576040517f08c379a0000000000000000000000000000000000000000000000000000000008152600401610d0190611e6a565b60405180910390fd5b6002600e81905550600860009054906101000a900460ff16610d61576040517f08c379a0000000000000000000000000000000000000000000000000000000008152600401610d5890612043565b60405180910390fd5b6005544210610da5576040517f08c379a0000000000000000000000000000000000000000000000000000000008152600401610d9c906120af565b60405180910390fd5b6003543414610de9576040517f08c379a0000000000000000000000000000000000000000000000000000000008152600401610de09061211b565b60405180910390fd5b600454600a8054905010610e32576040517f08c379a0000000000000000000000000000000000000000000000000000000008152600401610e2990612187565b60405180910390fd5b600960003373ffffffffffffffffffffffffffffffffffffffff1673ffffffffffffffffffffffffffffffffffffffff16815260200190815260200160002060030160009054906101000a900460ff1615610ec2576040517f08c379a0000000000000000000000000000000000000000000000000000000008152600401610eb9906121f3565b60405180910390fd5b600860019054906101000a900473ffffffffffffffffffffffffffffffffffffffff1673ffffffffffffffffffffffffffffffffffffffff1663c40717f683836040518363ffffffff1660e01b8152600401610f1f92919061228e565b602060405180830381865afa158015610f3c573d6000803e3d6000fd5b505050506040513d601f19601f82011682018060405250810190610f6091906122de565b610f9f576040517f08c379a0000000000000000000000000000000000000000000000000000000008152600401610f9690612357565b60405180910390fd5b60405180608001604052803373ffffffffffffffffffffffffffffffffffffffff168152602001838380806020026020016040519081016040528093929190818152602001838360200280828437600081840152601f19601f8201169050808301925050505050505081526020016000815260200160011515815250600960003373ffffffffffffffffffffffffffffffffffffffff1673ffffffffffffffffffffffffffffffffffffffff16815260200190815260200160002060008201518160000160006101000a81548173ffffffffffffffffffffffffffffffffffffffff021916908373ffffffffffffffffffffffffffffffffffffffff16021790555060208201518160010190805190602001906110bd9291906116fa565b506040820151816002015560608201518160030160006101000a81548160ff021916908315150217905550905050600a339080600181540180825580915050600190039060005260206000200160009091909190916101000a81548173ffffffffffffffffffffffffffffffffffffffff021916908373ffffffffffffffffffffffffffffffffffffffff16021790555034600760008282546111609190611c70565b92505081905550600062093a8060055460065461117d9190612377565b61118791906123da565b90506000814761119791906123da565b905060005b828110156111db5781600d600083815260200190815260200160002060008282546111c79190611c70565b92505081905550808060010191505061119c565b503373ffffffffffffffffffffffffffffffffffffffff167f06f957774f9db1179719c2fe74b52ae0dc4e6829120a3b65cf4cce07edfbd3b9858560405161122492919061228e565b60405180910390a250506001600e819055505050565b600b6020528060005260406000206000915054906101000a900473ffffffffffffffffffffffffffffffffffffffff1681565b600060055442101561128257600090506112a1565b62093a80600554426112949190612377565b61129e91906123da565b90505b90565b62093a8081565b60055481565b600860019054906101000a900473ffffffffffffffffffffffffffffffffffffffff1681565b600260009054906101000a900473ffffffffffffffffffffffffffffffffffffffff1681565b600c6020528060005260406000206000915054906101000a900460ff1681565b60096020528060005260406000206000915090508060000160009054906101000a900473ffffffffffffffffffffffffffffffffffffffff16908060020154908060030160009054906101000a900460ff16905083565b600260009054906101000a900473ffffffffffffffffffffffffffffffffffffffff1673ffffffffffffffffffffffffffffffffffffffff163373ffffffffffffffffffffffffffffffffffffffff1614611404576040517f08c379a00000000000000000000000000000000000000000000000000000000081526004016113fb90611d50565b60405180910390fd5b62093a80816114139190611d70565b6005546114209190611c70565b421015611462576040517f08c379a000000000000000000000000000000000000000000000000000000000815260040161145990611dfe565b60405180910390fd5b600c600082815260200190815260200160002060009054906101000a900460ff16156114c3576040517f08c379a00000000000000000000000000000000000000000000000000000000081526004016114ba90612457565b60405180910390fd5b60008060005b600a805490508110156115ba576000600a82815481106114ec576114eb611ba7565b5b9060005260206000200160009054906101000a900473ffffffffffffffffffffffffffffffffffffffff16905082600960008373ffffffffffffffffffffffffffffffffffffffff1673ffffffffffffffffffffffffffffffffffffffff1681526020019081526020016000206002015411156115ac57600960008273ffffffffffffffffffffffffffffffffffffffff1673ffffffffffffffffffffffffffffffffffffffff1681526020019081526020016000206002015492508093505b5080806001019150506114c9565b50600073ffffffffffffffffffffffffffffffffffffffff168273ffffffffffffffffffffffffffffffffffffffff160361162a576040517f08c379a0000000000000000000000000000000000000000000000000000000008152600401611621906124c3565b60405180910390fd5b81600b600085815260200190815260200160002060006101000a81548173ffffffffffffffffffffffffffffffffffffffff021916908373ffffffffffffffffffffffffffffffffffffffff1602179055506001600c600085815260200190815260200160002060006101000a81548160ff021916908315150217905550827f9e8a46942c293ec4ea2406e2a6e4316c256cb47656af7d5b260188d95b7de74983600d6000878152602001908152602001600020546040516116ed929190611fce565b60405180910390a2505050565b828054828255906000526020600020908101928215611736579160200282015b8281111561173557825182559160200191906001019061171a565b5b5090506117439190611747565b5090565b5b80821115611760576000816000905550600101611748565b5090565b60008115159050919050565b61177981611764565b82525050565b60006020820190506117946000830184611770565b92915050565b600080fd5b600080fd5b600073ffffffffffffffffffffffffffffffffffffffff82169050919050565b60006117cf826117a4565b9050919050565b6117df816117c4565b81146117ea57600080fd5b50565b6000813590506117fc816117d6565b92915050565b6000819050919050565b61181581611802565b811461182057600080fd5b50565b6000813590506118328161180c565b92915050565b6000806040838503121561184f5761184e61179a565b5b600061185d858286016117ed565b925050602061186e85828601611823565b9150509250929050565b61188181611802565b82525050565b600060208201905061189c6000830184611878565b92915050565b600081519050919050565b600082825260208201905092915050565b60005b838110156118dc5780820151818401526020810190506118c1565b60008484015250505050565b6000601f19601f8301169050919050565b6000611904826118a2565b61190e81856118ad565b935061191e8185602086016118be565b611927816118e8565b840191505092915050565b6000602082019050818103600083015261194c81846118f9565b905092915050565b60006020828403121561196a5761196961179a565b5b600061197884828501611823565b91505092915050565b61198a816117c4565b82525050565b60006020820190506119a56000830184611981565b92915050565b600080fd5b600080fd5b600080fd5b60008083601f8401126119d0576119cf6119ab565b5b8235905067ffffffffffffffff8111156119ed576119ec6119b0565b5b602083019150836020820283011115611a0957611a086119b5565b5b9250929050565b60008060208385031215611a2757611a2661179a565b5b600083013567ffffffffffffffff811115611a4557611a4461179f565b5b611a51858286016119ba565b92509250509250929050565b6000819050919050565b6000611a82611a7d611a78846117a4565b611a5d565b6117a4565b9050919050565b6000611a9482611a67565b9050919050565b6000611aa682611a89565b9050919050565b611ab681611a9b565b82525050565b6000602082019050611ad16000830184611aad565b92915050565b600060208284031215611aed57611aec61179a565b5b6000611afb848285016117ed565b91505092915050565b6000606082019050611b196000830186611981565b611b266020830185611878565b611b336040830184611770565b949350505050565b7f5465616d206e6f74207265676973746572656400000000000000000000000000600082015250565b6000611b716013836118ad565b9150611b7c82611b3b565b602082019050919050565b60006020820190508181036000830152611ba081611b64565b9050919050565b7f4e487b7100000000000000000000000000000000000000000000000000000000600052603260045260246000fd5b6000604082019050611beb6000830185611878565b611bf86020830184611878565b9392505050565b600081519050611c0e8161180c565b92915050565b600060208284031215611c2a57611c2961179a565b5b6000611c3884828501611bff565b91505092915050565b7f4e487b7100000000000000000000000000000000000000000000000000000000600052601160045260246000fd5b6000611c7b82611802565b9150611c8683611802565b9250828201905080821115611c9e57611c9d611c41565b5b92915050565b7f4e487b7100000000000000000000000000000000000000000000000000000000600052602260045260246000fd5b60006002820490506001821680611ceb57607f821691505b602082108103611cfe57611cfd611ca4565b5b50919050565b7f4f6e6c79206f776e65722063616e2063616c6c00000000000000000000000000600082015250565b6000611d3a6013836118ad565b9150611d4582611d04565b602082019050919050565b60006020820190508181036000830152611d6981611d2d565b9050919050565b6000611d7b82611802565b9150611d8683611802565b9250828202611d9481611802565b91508282048414831517611dab57611daa611c41565b5b5092915050565b7f5765656b206e6f742066696e6973686564000000000000000000000000000000600082015250565b6000611de86011836118ad565b9150611df382611db2565b602082019050919050565b60006020820190508181036000830152611e1781611ddb565b9050919050565b7f5265656e7472616e637947756172643a207265656e7472616e742063616c6c00600082015250565b6000611e54601f836118ad565b9150611e5f82611e1e565b602082019050919050565b60006020820190508181036000830152611e8381611e47565b9050919050565b7f57696e6e6572206e6f74206465636c6172656400000000000000000000000000600082015250565b6000611ec06013836118ad565b9150611ecb82611e8a565b602082019050919050565b60006020820190508181036000830152611eef81611eb3565b9050919050565b7f4e6f74207468652077696e6e6572000000000000000000000000000000000000600082015250565b6000611f2c600e836118ad565b9150611f3782611ef6565b602082019050919050565b60006020820190508181036000830152611f5b81611f1f565b9050919050565b7f4e6f207072697a6520746f20636c61696d000000000000000000000000000000600082015250565b6000611f986011836118ad565b9150611fa382611f62565b602082019050919050565b60006020820190508181036000830152611fc781611f8b565b9050919050565b6000604082019050611fe36000830185611981565b611ff06020830184611878565b9392505050565b7f4c6561677565206973206e6f7420616374697665000000000000000000000000600082015250565b600061202d6014836118ad565b915061203882611ff7565b602082019050919050565b6000602082019050818103600083015261205c81612020565b9050919050565b7f4c65616775652068617320737461727465640000000000000000000000000000600082015250565b60006120996012836118ad565b91506120a482612063565b602082019050919050565b600060208201905081810360008301526120c88161208c565b9050919050565b7f496e636f727265637420656e7472792066656500000000000000000000000000600082015250565b60006121056013836118ad565b9150612110826120cf565b602082019050919050565b60006020820190508181036000830152612134816120f8565b9050919050565b7f4c65616775652069732066756c6c000000000000000000000000000000000000600082015250565b6000612171600e836118ad565b915061217c8261213b565b602082019050919050565b600060208201905081810360008301526121a081612164565b9050919050565b7f5465616d20616c72656164792072656769737465726564000000000000000000600082015250565b60006121dd6017836118ad565b91506121e8826121a7565b602082019050919050565b6000602082019050818103600083015261220c816121d0565b9050919050565b600082825260208201905092915050565b600080fd5b82818337505050565b600061223e8385612213565b93507f07ffffffffffffffffffffffffffffffffffffffffffffffffffffffffffffff83111561227157612270612224565b5b602083029250612282838584612229565b82840190509392505050565b600060208201905081810360008301526122a9818486612232565b90509392505050565b6122bb81611764565b81146122c657600080fd5b50565b6000815190506122d8816122b2565b92915050565b6000602082840312156122f4576122f361179a565b5b6000612302848285016122c9565b91505092915050565b7f496e76616c6964207465616d0000000000000000000000000000000000000000600082015250565b6000612341600c836118ad565b915061234c8261230b565b602082019050919050565b6000602082019050818103600083015261237081612334565b9050919050565b600061238282611802565b915061238d83611802565b92508282039050818111156123a5576123a4611c41565b5b92915050565b7f4e487b7100000000000000000000000000000000000000000000000000000000600052601260045260246000fd5b60006123e582611802565b91506123f083611802565b925082612400576123ff6123ab565b5b828204905092915050565b7f416c7265616479206465636c6172656400000000000000000000000000000000600082015250565b60006124416010836118ad565b915061244c8261240b565b602082019050919050565b6000602082019050818103600083015261247081612434565b9050919050565b7f4e6f2077696e6e657220666f756e640000000000000000000000000000000000600082015250565b60006124ad600f836118ad565b91506124b882612477565b602082019050919050565b600060208201905081810360008301526124dc816124a0565b905091905056fea2646970667358221220947d82be014327cf970712ad5d71abdb2987c08cd1efe1b068b7979e4e08421764736f6c634300081b0033a2646970667358221220c03aff46f68dad38d47bf74c93057f4407fff54cbce538df670f8f67dd12813764736f6c634300081b0033",
          "opcodes": "PUSH1 0x80 PUSH1 0x40 MSTORE CALLVALUE DUP1 ISZERO PUSH2 0x10 JUMPI PUSH1 0x0 DUP1 REVERT JUMPDEST POP PUSH1 0x40 MLOAD PUSH2 0x3A49 CODESIZE SUB DUP1 PUSH2 0x3A49 DUP4 CODECOPY DUP2 DUP2 ADD PUSH1 0x40 MSTORE DUP2 ADD SWAP1 PUSH2 0x32 SWAP2 SWAP1 PUSH2 0x18B JUMP JUMPDEST PUSH1 0x0 PUSH20 0xFFFFFFFFFFFFFFFFFFFFFFFFFFFFFFFFFFFFFFFF AND DUP2 PUSH20 0xFFFFFFFFFFFFFFFFFFFFFFFFFFFFFFFFFFFFFFFF AND SUB PUSH2 0xA1 JUMPI PUSH1 0x40 MLOAD PUSH32 0x8C379A000000000000000000000000000000000000000000000000000000000 DUP2 MSTORE PUSH1 0x4 ADD PUSH2 0x98 SWAP1 PUSH2 0x215 JUMP JUMPDEST PUSH1 0x40 MLOAD DUP1 SWAP2 SUB SWAP1 REVERT JUMPDEST DUP1 PUSH1 0x0 DUP1 PUSH2 0x100 EXP DUP2 SLOAD DUP2 PUSH20 0xFFFFFFFFFFFFFFFFFFFFFFFFFFFFFFFFFFFFFFFF MUL NOT AND SWAP1 DUP4 PUSH20 0xFFFFFFFFFFFFFFFFFFFFFFFFFFFFFFFFFFFFFFFF AND MUL OR SWAP1 SSTORE POP CALLER PUSH1 0x1 PUSH1 0x0 PUSH2 0x100 EXP DUP2 SLOAD DUP2 PUSH20 0xFFFFFFFFFFFFFFFFFFFFFFFFFFFFFFFFFFFFFFFF MUL NOT AND SWAP1 DUP4 PUSH20 0xFFFFFFFFFFFFFFFFFFFFFFFFFFFFFFFFFFFFFFFF AND MUL OR SWAP1 SSTORE POP POP PUSH2 0x235 JUMP JUMPDEST PUSH1 0x0 DUP1 REVERT JUMPDEST PUSH1 0x0 PUSH20 0xFFFFFFFFFFFFFFFFFFFFFFFFFFFFFFFFFFFFFFFF DUP3 AND SWAP1 POP SWAP2 SWAP1 POP JUMP JUMPDEST PUSH1 0x0 PUSH2 0x158 DUP3 PUSH2 0x12D JUMP JUMPDEST SWAP1 POP SWAP2 SWAP1 POP JUMP JUMPDEST PUSH2 0x168 DUP2 PUSH2 0x14D JUMP JUMPDEST DUP2 EQ PUSH2 0x173 JUMPI PUSH1 0x0 DUP1 REVERT JUMPDEST POP JUMP JUMPDEST PUSH1 0x0 DUP2 MLOAD SWAP1 POP PUSH2 0x185 DUP2 PUSH2 0x15F JUMP JUMPDEST SWAP3 SWAP2 POP POP JUMP JUMPDEST PUSH1 0x0 PUSH1 0x20 DUP3 DUP5 SUB SLT ISZERO PUSH2 0x1A1 JUMPI PUSH2 0x1A0 PUSH2 0x128 JUMP JUMPDEST JUMPDEST PUSH1 0x0 PUSH2 0x1AF DUP5 DUP3 DUP6 ADD PUSH2 0x176 JUMP JUMPDEST SWAP2 POP POP SWAP3 SWAP2 POP POP JUMP JUMPDEST PUSH1 0x0 DUP3 DUP3 MSTORE PUSH1 0x20 DUP3 ADD SWAP1 POP SWAP3 SWAP2 POP POP JUMP JUMPDEST PUSH32 0x496E76616C69642055736572506C617965724D616E6167657200000000000000 PUSH1 0x0 DUP3 ADD MSTORE POP JUMP JUMPDEST PUSH1 0x0 PUSH2 0x1FF PUSH1 0x19 DUP4 PUSH2 0x1B8 JUMP JUMPDEST SWAP2 POP PUSH2 0x20A DUP3 PUSH2 0x1C9 JUMP JUMPDEST PUSH1 0x20 DUP3 ADD SWAP1 POP SWAP2 SWAP1 POP JUMP JUMPDEST PUSH1 0x0 PUSH1 0x20 DUP3 ADD SWAP1 POP DUP2 DUP2 SUB PUSH1 0x0 DUP4 ADD MSTORE PUSH2 0x22E DUP2 PUSH2 0x1F2 JUMP JUMPDEST SWAP1 POP SWAP2 SWAP1 POP JUMP JUMPDEST PUSH2 0x3805 DUP1 PUSH2 0x244 PUSH1 0x0 CODECOPY PUSH1 0x0 RETURN INVALID PUSH1 0x80 PUSH1 0x40 MSTORE CALLVALUE DUP1 ISZERO PUSH2 0x10 JUMPI PUSH1 0x0 DUP1 REVERT JUMPDEST POP PUSH1 0x4 CALLDATASIZE LT PUSH2 0x62 JUMPI PUSH1 0x0 CALLDATALOAD PUSH1 0xE0 SHR DUP1 PUSH4 0x45516AAA EQ PUSH2 0x67 JUMPI DUP1 PUSH4 0x5858F1CE EQ PUSH2 0x97 JUMPI DUP1 PUSH4 0x8A1AF815 EQ PUSH2 0xC7 JUMPI DUP1 PUSH4 0xC648FEFE EQ PUSH2 0xE5 JUMPI DUP1 PUSH4 0xF851A440 EQ PUSH2 0x115 JUMPI DUP1 PUSH4 0xF983AFD2 EQ PUSH2 0x133 JUMPI JUMPDEST PUSH1 0x0 DUP1 REVERT JUMPDEST PUSH2 0x81 PUSH1 0x4 DUP1 CALLDATASIZE SUB DUP2 ADD SWAP1 PUSH2 0x7C SWAP2 SWAP1 PUSH2 0x4ED JUMP JUMPDEST PUSH2 0x151 JUMP JUMPDEST PUSH1 0x40 MLOAD PUSH2 0x8E SWAP2 SWAP1 PUSH2 0x55B JUMP JUMPDEST PUSH1 0x40 MLOAD DUP1 SWAP2 SUB SWAP1 RETURN JUMPDEST PUSH2 0xB1 PUSH1 0x4 DUP1 CALLDATASIZE SUB DUP2 ADD SWAP1 PUSH2 0xAC SWAP2 SWAP1 PUSH2 0x6BC JUMP JUMPDEST PUSH2 0x1DE JUMP JUMPDEST PUSH1 0x40 MLOAD PUSH2 0xBE SWAP2 SWAP1 PUSH2 0x55B JUMP JUMPDEST PUSH1 0x40 MLOAD DUP1 SWAP2 SUB SWAP1 RETURN JUMPDEST PUSH2 0xCF PUSH2 0x40F JUMP JUMPDEST PUSH1 0x40 MLOAD PUSH2 0xDC SWAP2 SWAP1 PUSH2 0x7B2 JUMP JUMPDEST PUSH1 0x40 MLOAD DUP1 SWAP2 SUB SWAP1 RETURN JUMPDEST PUSH2 0xFF PUSH1 0x4 DUP1 CALLDATASIZE SUB DUP2 ADD SWAP1 PUSH2 0xFA SWAP2 SWAP1 PUSH2 0x4ED JUMP JUMPDEST PUSH2 0x433 JUMP JUMPDEST PUSH1 0x40 MLOAD PUSH2 0x10C SWAP2 SWAP1 PUSH2 0x55B JUMP JUMPDEST PUSH1 0x40 MLOAD DUP1 SWAP2 SUB SWAP1 RETURN JUMPDEST PUSH2 0x11D PUSH2 0x466 JUMP JUMPDEST PUSH1 0x40 MLOAD PUSH2 0x12A SWAP2 SWAP1 PUSH2 0x55B JUMP JUMPDEST PUSH1 0x40 MLOAD DUP1 SWAP2 SUB SWAP1 RETURN JUMPDEST PUSH2 0x13B PUSH2 0x48C JUMP JUMPDEST PUSH1 0x40 MLOAD PUSH2 0x148 SWAP2 SWAP1 PUSH2 0x7DC JUMP JUMPDEST PUSH1 0x40 MLOAD DUP1 SWAP2 SUB SWAP1 RETURN JUMPDEST PUSH1 0x0 DUP1 DUP3 GT DUP1 ISZERO PUSH2 0x164 JUMPI POP PUSH1 0x2 SLOAD DUP3 GT ISZERO JUMPDEST PUSH2 0x1A3 JUMPI PUSH1 0x40 MLOAD PUSH32 0x8C379A000000000000000000000000000000000000000000000000000000000 DUP2 MSTORE PUSH1 0x4 ADD PUSH2 0x19A SWAP1 PUSH2 0x854 JUMP JUMPDEST PUSH1 0x40 MLOAD DUP1 SWAP2 SUB SWAP1 REVERT JUMPDEST PUSH1 0x3 PUSH1 0x0 DUP4 DUP2 MSTORE PUSH1 0x20 ADD SWAP1 DUP2 MSTORE PUSH1 0x20 ADD PUSH1 0x0 KECCAK256 PUSH1 0x0 SWAP1 SLOAD SWAP1 PUSH2 0x100 EXP SWAP1 DIV PUSH20 0xFFFFFFFFFFFFFFFFFFFFFFFFFFFFFFFFFFFFFFFF AND SWAP1 POP SWAP2 SWAP1 POP JUMP JUMPDEST PUSH1 0x0 DUP1 DUP7 MLOAD GT PUSH2 0x223 JUMPI PUSH1 0x40 MLOAD PUSH32 0x8C379A000000000000000000000000000000000000000000000000000000000 DUP2 MSTORE PUSH1 0x4 ADD PUSH2 0x21A SWAP1 PUSH2 0x8C0 JUMP JUMPDEST PUSH1 0x40 MLOAD DUP1 SWAP2 SUB SWAP1 REVERT JUMPDEST TIMESTAMP DUP4 GT PUSH2 0x265 JUMPI PUSH1 0x40 MLOAD PUSH32 0x8C379A000000000000000000000000000000000000000000000000000000000 DUP2 MSTORE PUSH1 0x4 ADD PUSH2 0x25C SWAP1 PUSH2 0x92C JUMP JUMPDEST PUSH1 0x40 MLOAD DUP1 SWAP2 SUB SWAP1 REVERT JUMPDEST DUP3 DUP3 GT PUSH2 0x2A7 JUMPI PUSH1 0x40 MLOAD PUSH32 0x8C379A000000000000000000000000000000000000000000000000000000000 DUP2 MSTORE PUSH1 0x4 ADD PUSH2 0x29E SWAP1 PUSH2 0x998 JUMP JUMPDEST PUSH1 0x40 MLOAD DUP1 SWAP2 SUB SWAP1 REVERT JUMPDEST PUSH1 0x0 DUP5 GT PUSH2 0x2EA JUMPI PUSH1 0x40 MLOAD PUSH32 0x8C379A000000000000000000000000000000000000000000000000000000000 DUP2 MSTORE PUSH1 0x4 ADD PUSH2 0x2E1 SWAP1 PUSH2 0xA04 JUMP JUMPDEST PUSH1 0x40 MLOAD DUP1 SWAP2 SUB SWAP1 REVERT JUMPDEST PUSH1 0x2 PUSH1 0x0 DUP2 SLOAD DUP1 SWAP3 SWAP2 SWAP1 PUSH2 0x2FD SWAP1 PUSH2 0xA53 JUMP JUMPDEST SWAP2 SWAP1 POP SSTORE POP PUSH1 0x0 PUSH1 0x2 SLOAD DUP8 CALLER DUP9 DUP9 DUP9 DUP9 PUSH1 0x0 DUP1 SLOAD SWAP1 PUSH2 0x100 EXP SWAP1 DIV PUSH20 0xFFFFFFFFFFFFFFFFFFFFFFFFFFFFFFFFFFFFFFFF AND PUSH1 0x40 MLOAD PUSH2 0x33A SWAP1 PUSH2 0x496 JUMP JUMPDEST PUSH2 0x34B SWAP9 SWAP8 SWAP7 SWAP6 SWAP5 SWAP4 SWAP3 SWAP2 SWAP1 PUSH2 0xB09 JUMP JUMPDEST PUSH1 0x40 MLOAD DUP1 SWAP2 SUB SWAP1 PUSH1 0x0 CREATE DUP1 ISZERO DUP1 ISZERO PUSH2 0x367 JUMPI RETURNDATASIZE PUSH1 0x0 DUP1 RETURNDATACOPY RETURNDATASIZE PUSH1 0x0 REVERT JUMPDEST POP SWAP1 POP PUSH1 0x0 DUP2 SWAP1 POP DUP1 PUSH1 0x3 PUSH1 0x0 PUSH1 0x2 SLOAD DUP2 MSTORE PUSH1 0x20 ADD SWAP1 DUP2 MSTORE PUSH1 0x20 ADD PUSH1 0x0 KECCAK256 PUSH1 0x0 PUSH2 0x100 EXP DUP2 SLOAD DUP2 PUSH20 0xFFFFFFFFFFFFFFFFFFFFFFFFFFFFFFFFFFFFFFFF MUL NOT AND SWAP1 DUP4 PUSH20 0xFFFFFFFFFFFFFFFFFFFFFFFFFFFFFFFFFFFFFFFF AND MUL OR SWAP1 SSTORE POP PUSH1 0x2 SLOAD PUSH32 0x34EF2F18B56ED366B97F4893496A42BDA57019393602C6D97B9A44545AA17243 DUP3 DUP11 CALLER PUSH1 0x40 MLOAD PUSH2 0x3F9 SWAP4 SWAP3 SWAP2 SWAP1 PUSH2 0xB8E JUMP JUMPDEST PUSH1 0x40 MLOAD DUP1 SWAP2 SUB SWAP1 LOG2 DUP1 SWAP3 POP POP POP SWAP6 SWAP5 POP POP POP POP POP JUMP JUMPDEST PUSH1 0x0 DUP1 SLOAD SWAP1 PUSH2 0x100 EXP SWAP1 DIV PUSH20 0xFFFFFFFFFFFFFFFFFFFFFFFFFFFFFFFFFFFFFFFF AND DUP2 JUMP JUMPDEST PUSH1 0x3 PUSH1 0x20 MSTORE DUP1 PUSH1 0x0 MSTORE PUSH1 0x40 PUSH1 0x0 KECCAK256 PUSH1 0x0 SWAP2 POP SLOAD SWAP1 PUSH2 0x100 EXP SWAP1 DIV PUSH20 0xFFFFFFFFFFFFFFFFFFFFFFFFFFFFFFFFFFFFFFFF AND DUP2 JUMP JUMPDEST PUSH1 0x1 PUSH1 0x0 SWAP1 SLOAD SWAP1 PUSH2 0x100 EXP SWAP1 DIV PUSH20 0xFFFFFFFFFFFFFFFFFFFFFFFFFFFFFFFFFFFFFFFF AND DUP2 JUMP JUMPDEST PUSH1 0x0 PUSH1 0x2 SLOAD SWAP1 POP SWAP1 JUMP JUMPDEST PUSH2 0x2C03 DUP1 PUSH2 0xBCD DUP4 CODECOPY ADD SWAP1 JUMP JUMPDEST PUSH1 0x0 PUSH1 0x40 MLOAD SWAP1 POP SWAP1 JUMP JUMPDEST PUSH1 0x0 DUP1 REVERT JUMPDEST PUSH1 0x0 DUP1 REVERT JUMPDEST PUSH1 0x0 DUP2 SWAP1 POP SWAP2 SWAP1 POP JUMP JUMPDEST PUSH2 0x4CA DUP2 PUSH2 0x4B7 JUMP JUMPDEST DUP2 EQ PUSH2 0x4D5 JUMPI PUSH1 0x0 DUP1 REVERT JUMPDEST POP JUMP JUMPDEST PUSH1 0x0 DUP2 CALLDATALOAD SWAP1 POP PUSH2 0x4E7 DUP2 PUSH2 0x4C1 JUMP JUMPDEST SWAP3 SWAP2 POP POP JUMP JUMPDEST PUSH1 0x0 PUSH1 0x20 DUP3 DUP5 SUB SLT ISZERO PUSH2 0x503 JUMPI PUSH2 0x502 PUSH2 0x4AD JUMP JUMPDEST JUMPDEST PUSH1 0x0 PUSH2 0x511 DUP5 DUP3 DUP6 ADD PUSH2 0x4D8 JUMP JUMPDEST SWAP2 POP POP SWAP3 SWAP2 POP POP JUMP JUMPDEST PUSH1 0x0 PUSH20 0xFFFFFFFFFFFFFFFFFFFFFFFFFFFFFFFFFFFFFFFF DUP3 AND SWAP1 POP SWAP2 SWAP1 POP JUMP JUMPDEST PUSH1 0x0 PUSH2 0x545 DUP3 PUSH2 0x51A JUMP JUMPDEST SWAP1 POP SWAP2 SWAP1 POP JUMP JUMPDEST PUSH2 0x555 DUP2 PUSH2 0x53A JUMP JUMPDEST DUP3 MSTORE POP POP JUMP JUMPDEST PUSH1 0x0 PUSH1 0x20 DUP3 ADD SWAP1 POP PUSH2 0x570 PUSH1 0x0 DUP4 ADD DUP5 PUSH2 0x54C JUMP JUMPDEST SWAP3 SWAP2 POP POP JUMP JUMPDEST PUSH1 0x0 DUP1 REVERT JUMPDEST PUSH1 0x0 DUP1 REVERT JUMPDEST PUSH1 0x0 PUSH1 0x1F NOT PUSH1 0x1F DUP4 ADD AND SWAP1 POP SWAP2 SWAP1 POP JUMP JUMPDEST PUSH32 0x4E487B7100000000000000000000000000000000000000000000000000000000 PUSH1 0x0 MSTORE PUSH1 0x41 PUSH1 0x4 MSTORE PUSH1 0x24 PUSH1 0x0 REVERT JUMPDEST PUSH2 0x5C9 DUP3 PUSH2 0x580 JUMP JUMPDEST DUP2 ADD DUP2 DUP2 LT PUSH8 0xFFFFFFFFFFFFFFFF DUP3 GT OR ISZERO PUSH2 0x5E8 JUMPI PUSH2 0x5E7 PUSH2 0x591 JUMP JUMPDEST JUMPDEST DUP1 PUSH1 0x40 MSTORE POP POP POP JUMP JUMPDEST PUSH1 0x0 PUSH2 0x5FB PUSH2 0x4A3 JUMP JUMPDEST SWAP1 POP PUSH2 0x607 DUP3 DUP3 PUSH2 0x5C0 JUMP JUMPDEST SWAP2 SWAP1 POP JUMP JUMPDEST PUSH1 0x0 PUSH8 0xFFFFFFFFFFFFFFFF DUP3 GT ISZERO PUSH2 0x627 JUMPI PUSH2 0x626 PUSH2 0x591 JUMP JUMPDEST JUMPDEST PUSH2 0x630 DUP3 PUSH2 0x580 JUMP JUMPDEST SWAP1 POP PUSH1 0x20 DUP2 ADD SWAP1 POP SWAP2 SWAP1 POP JUMP JUMPDEST DUP3 DUP2 DUP4 CALLDATACOPY PUSH1 0x0 DUP4 DUP4 ADD MSTORE POP POP POP JUMP JUMPDEST PUSH1 0x0 PUSH2 0x65F PUSH2 0x65A DUP5 PUSH2 0x60C JUMP JUMPDEST PUSH2 0x5F1 JUMP JUMPDEST SWAP1 POP DUP3 DUP2 MSTORE PUSH1 0x20 DUP2 ADD DUP5 DUP5 DUP5 ADD GT ISZERO PUSH2 0x67B JUMPI PUSH2 0x67A PUSH2 0x57B JUMP JUMPDEST JUMPDEST PUSH2 0x686 DUP5 DUP3 DUP6 PUSH2 0x63D JUMP JUMPDEST POP SWAP4 SWAP3 POP POP POP JUMP JUMPDEST PUSH1 0x0 DUP3 PUSH1 0x1F DUP4 ADD SLT PUSH2 0x6A3 JUMPI PUSH2 0x6A2 PUSH2 0x576 JUMP JUMPDEST JUMPDEST DUP2 CALLDATALOAD PUSH2 0x6B3 DUP5 DUP3 PUSH1 0x20 DUP7 ADD PUSH2 0x64C JUMP JUMPDEST SWAP2 POP POP SWAP3 SWAP2 POP POP JUMP JUMPDEST PUSH1 0x0 DUP1 PUSH1 0x0 DUP1 PUSH1 0x0 PUSH1 0xA0 DUP7 DUP9 SUB SLT ISZERO PUSH2 0x6D8 JUMPI PUSH2 0x6D7 PUSH2 0x4AD JUMP JUMPDEST JUMPDEST PUSH1 0x0 DUP7 ADD CALLDATALOAD PUSH8 0xFFFFFFFFFFFFFFFF DUP2 GT ISZERO PUSH2 0x6F6 JUMPI PUSH2 0x6F5 PUSH2 0x4B2 JUMP JUMPDEST JUMPDEST PUSH2 0x702 DUP9 DUP3 DUP10 ADD PUSH2 0x68E JUMP JUMPDEST SWAP6 POP POP PUSH1 0x20 PUSH2 0x713 DUP9 DUP3 DUP10 ADD PUSH2 0x4D8 JUMP JUMPDEST SWAP5 POP POP PUSH1 0x40 PUSH2 0x724 DUP9 DUP3 DUP10 ADD PUSH2 0x4D8 JUMP JUMPDEST SWAP4 POP POP PUSH1 0x60 PUSH2 0x735 DUP9 DUP3 DUP10 ADD PUSH2 0x4D8 JUMP JUMPDEST SWAP3 POP POP PUSH1 0x80 PUSH2 0x746 DUP9 DUP3 DUP10 ADD PUSH2 0x4D8 JUMP JUMPDEST SWAP2 POP POP SWAP3 SWAP6 POP SWAP3 SWAP6 SWAP1 SWAP4 POP JUMP JUMPDEST PUSH1 0x0 DUP2 SWAP1 POP SWAP2 SWAP1 POP JUMP JUMPDEST PUSH1 0x0 PUSH2 0x778 PUSH2 0x773 PUSH2 0x76E DUP5 PUSH2 0x51A JUMP JUMPDEST PUSH2 0x753 JUMP JUMPDEST PUSH2 0x51A JUMP JUMPDEST SWAP1 POP SWAP2 SWAP1 POP JUMP JUMPDEST PUSH1 0x0 PUSH2 0x78A DUP3 PUSH2 0x75D JUMP JUMPDEST SWAP1 POP SWAP2 SWAP1 POP JUMP JUMPDEST PUSH1 0x0 PUSH2 0x79C DUP3 PUSH2 0x77F JUMP JUMPDEST SWAP1 POP SWAP2 SWAP1 POP JUMP JUMPDEST PUSH2 0x7AC DUP2 PUSH2 0x791 JUMP JUMPDEST DUP3 MSTORE POP POP JUMP JUMPDEST PUSH1 0x0 PUSH1 0x20 DUP3 ADD SWAP1 POP PUSH2 0x7C7 PUSH1 0x0 DUP4 ADD DUP5 PUSH2 0x7A3 JUMP JUMPDEST SWAP3 SWAP2 POP POP JUMP JUMPDEST PUSH2 0x7D6 DUP2 PUSH2 0x4B7 JUMP JUMPDEST DUP3 MSTORE POP POP JUMP JUMPDEST PUSH1 0x0 PUSH1 0x20 DUP3 ADD SWAP1 POP PUSH2 0x7F1 PUSH1 0x0 DUP4 ADD DUP5 PUSH2 0x7CD JUMP JUMPDEST SWAP3 SWAP2 POP POP JUMP JUMPDEST PUSH1 0x0 DUP3 DUP3 MSTORE PUSH1 0x20 DUP3 ADD SWAP1 POP SWAP3 SWAP2 POP POP JUMP JUMPDEST PUSH32 0x496E76616C6964206C6561677565204944000000000000000000000000000000 PUSH1 0x0 DUP3 ADD MSTORE POP JUMP JUMPDEST PUSH1 0x0 PUSH2 0x83E PUSH1 0x11 DUP4 PUSH2 0x7F7 JUMP JUMPDEST SWAP2 POP PUSH2 0x849 DUP3 PUSH2 0x808 JUMP JUMPDEST PUSH1 0x20 DUP3 ADD SWAP1 POP SWAP2 SWAP1 POP JUMP JUMPDEST PUSH1 0x0 PUSH1 0x20 DUP3 ADD SWAP1 POP DUP2 DUP2 SUB PUSH1 0x0 DUP4 ADD MSTORE PUSH2 0x86D DUP2 PUSH2 0x831 JUMP JUMPDEST SWAP1 POP SWAP2 SWAP1 POP JUMP JUMPDEST PUSH32 0x456D707479206E616D6500000000000000000000000000000000000000000000 PUSH1 0x0 DUP3 ADD MSTORE POP JUMP JUMPDEST PUSH1 0x0 PUSH2 0x8AA PUSH1 0xA DUP4 PUSH2 0x7F7 JUMP JUMPDEST SWAP2 POP PUSH2 0x8B5 DUP3 PUSH2 0x874 JUMP JUMPDEST PUSH1 0x20 DUP3 ADD SWAP1 POP SWAP2 SWAP1 POP JUMP JUMPDEST PUSH1 0x0 PUSH1 0x20 DUP3 ADD SWAP1 POP DUP2 DUP2 SUB PUSH1 0x0 DUP4 ADD MSTORE PUSH2 0x8D9 DUP2 PUSH2 0x89D JUMP JUMPDEST SWAP1 POP SWAP2 SWAP1 POP JUMP JUMPDEST PUSH32 0x53746172742074696D65206D7573742062652066757475726500000000000000 PUSH1 0x0 DUP3 ADD MSTORE POP JUMP JUMPDEST PUSH1 0x0 PUSH2 0x916 PUSH1 0x19 DUP4 PUSH2 0x7F7 JUMP JUMPDEST SWAP2 POP PUSH2 0x921 DUP3 PUSH2 0x8E0 JUMP JUMPDEST PUSH1 0x20 DUP3 ADD SWAP1 POP SWAP2 SWAP1 POP JUMP JUMPDEST PUSH1 0x0 PUSH1 0x20 DUP3 ADD SWAP1 POP DUP2 DUP2 SUB PUSH1 0x0 DUP4 ADD MSTORE PUSH2 0x945 DUP2 PUSH2 0x909 JUMP JUMPDEST SWAP1 POP SWAP2 SWAP1 POP JUMP JUMPDEST PUSH32 0x456E642074696D65206D75737420626520616674657220737461727400000000 PUSH1 0x0 DUP3 ADD MSTORE POP JUMP JUMPDEST PUSH1 0x0 PUSH2 0x982 PUSH1 0x1C DUP4 PUSH2 0x7F7 JUMP JUMPDEST SWAP2 POP PUSH2 0x98D DUP3 PUSH2 0x94C JUMP JUMPDEST PUSH1 0x20 DUP3 ADD SWAP1 POP SWAP2 SWAP1 POP JUMP JUMPDEST PUSH1 0x0 PUSH1 0x20 DUP3 ADD SWAP1 POP DUP2 DUP2 SUB PUSH1 0x0 DUP4 ADD MSTORE PUSH2 0x9B1 DUP2 PUSH2 0x975 JUMP JUMPDEST SWAP1 POP SWAP2 SWAP1 POP JUMP JUMPDEST PUSH32 0x496E76616C6964206D6178207465616D73000000000000000000000000000000 PUSH1 0x0 DUP3 ADD MSTORE POP JUMP JUMPDEST PUSH1 0x0 PUSH2 0x9EE PUSH1 0x11 DUP4 PUSH2 0x7F7 JUMP JUMPDEST SWAP2 POP PUSH2 0x9F9 DUP3 PUSH2 0x9B8 JUMP JUMPDEST PUSH1 0x20 DUP3 ADD SWAP1 POP SWAP2 SWAP1 POP JUMP JUMPDEST PUSH1 0x0 PUSH1 0x20 DUP3 ADD SWAP1 POP DUP2 DUP2 SUB PUSH1 0x0 DUP4 ADD MSTORE PUSH2 0xA1D DUP2 PUSH2 0x9E1 JUMP JUMPDEST SWAP1 POP SWAP2 SWAP1 POP JUMP JUMPDEST PUSH32 0x4E487B7100000000000000000000000000000000000000000000000000000000 PUSH1 0x0 MSTORE PUSH1 0x11 PUSH1 0x4 MSTORE PUSH1 0x24 PUSH1 0x0 REVERT JUMPDEST PUSH1 0x0 PUSH2 0xA5E DUP3 PUSH2 0x4B7 JUMP JUMPDEST SWAP2 POP PUSH32 0xFFFFFFFFFFFFFFFFFFFFFFFFFFFFFFFFFFFFFFFFFFFFFFFFFFFFFFFFFFFFFFFF DUP3 SUB PUSH2 0xA90 JUMPI PUSH2 0xA8F PUSH2 0xA24 JUMP JUMPDEST JUMPDEST PUSH1 0x1 DUP3 ADD SWAP1 POP SWAP2 SWAP1 POP JUMP JUMPDEST PUSH1 0x0 DUP2 MLOAD SWAP1 POP SWAP2 SWAP1 POP JUMP JUMPDEST PUSH1 0x0 JUMPDEST DUP4 DUP2 LT ISZERO PUSH2 0xAC4 JUMPI DUP1 DUP3 ADD MLOAD DUP2 DUP5 ADD MSTORE PUSH1 0x20 DUP2 ADD SWAP1 POP PUSH2 0xAA9 JUMP JUMPDEST PUSH1 0x0 DUP5 DUP5 ADD MSTORE POP POP POP POP JUMP JUMPDEST PUSH1 0x0 PUSH2 0xADB DUP3 PUSH2 0xA9B JUMP JUMPDEST PUSH2 0xAE5 DUP2 DUP6 PUSH2 0x7F7 JUMP JUMPDEST SWAP4 POP PUSH2 0xAF5 DUP2 DUP6 PUSH1 0x20 DUP7 ADD PUSH2 0xAA6 JUMP JUMPDEST PUSH2 0xAFE DUP2 PUSH2 0x580 JUMP JUMPDEST DUP5 ADD SWAP2 POP POP SWAP3 SWAP2 POP POP JUMP JUMPDEST PUSH1 0x0 PUSH2 0x100 DUP3 ADD SWAP1 POP PUSH2 0xB1F PUSH1 0x0 DUP4 ADD DUP12 PUSH2 0x7CD JUMP JUMPDEST DUP2 DUP2 SUB PUSH1 0x20 DUP4 ADD MSTORE PUSH2 0xB31 DUP2 DUP11 PUSH2 0xAD0 JUMP JUMPDEST SWAP1 POP PUSH2 0xB40 PUSH1 0x40 DUP4 ADD DUP10 PUSH2 0x54C JUMP JUMPDEST PUSH2 0xB4D PUSH1 0x60 DUP4 ADD DUP9 PUSH2 0x7CD JUMP JUMPDEST PUSH2 0xB5A PUSH1 0x80 DUP4 ADD DUP8 PUSH2 0x7CD JUMP JUMPDEST PUSH2 0xB67 PUSH1 0xA0 DUP4 ADD DUP7 PUSH2 0x7CD JUMP JUMPDEST PUSH2 0xB74 PUSH1 0xC0 DUP4 ADD DUP6 PUSH2 0x7CD JUMP JUMPDEST PUSH2 0xB81 PUSH1 0xE0 DUP4 ADD DUP5 PUSH2 0x54C JUMP JUMPDEST SWAP10 SWAP9 POP POP POP POP POP POP POP POP POP JUMP JUMPDEST PUSH1 0x0 PUSH1 0x60 DUP3 ADD SWAP1 POP PUSH2 0xBA3 PUSH1 0x0 DUP4 ADD DUP7 PUSH2 0x54C JUMP JUMPDEST DUP2 DUP2 SUB PUSH1 0x20 DUP4 ADD MSTORE PUSH2 0xBB5 DUP2 DUP6 PUSH2 0xAD0 JUMP JUMPDEST SWAP1 POP PUSH2 0xBC4 PUSH1 0x40 DUP4 ADD DUP5 PUSH2 0x54C JUMP JUMPDEST SWAP5 SWAP4 POP POP POP POP JUMP INVALID PUSH1 0x80 PUSH1 0x40 MSTORE CALLVALUE DUP1 ISZERO PUSH2 0x10 JUMPI PUSH1 0x0 DUP1 REVERT JUMPDEST POP PUSH1 0x40 MLOAD PUSH2 0x2C03 CODESIZE SUB DUP1 PUSH2 0x2C03 DUP4 CODECOPY DUP2 DUP2 ADD PUSH1 0x40 MSTORE DUP2 ADD SWAP1 PUSH2 0x32 SWAP2 SWAP1 PUSH2 0x320 JUMP JUMPDEST DUP8 PUSH1 0x0 DUP2 SWAP1 SSTORE POP DUP7 PUSH1 0x1 SWAP1 DUP2 PUSH2 0x48 SWAP2 SWAP1 PUSH2 0x609 JUMP JUMPDEST POP DUP6 PUSH1 0x2 PUSH1 0x0 PUSH2 0x100 EXP DUP2 SLOAD DUP2 PUSH20 0xFFFFFFFFFFFFFFFFFFFFFFFFFFFFFFFFFFFFFFFF MUL NOT AND SWAP1 DUP4 PUSH20 0xFFFFFFFFFFFFFFFFFFFFFFFFFFFFFFFFFFFFFFFF AND MUL OR SWAP1 SSTORE POP DUP5 PUSH1 0x3 DUP2 SWAP1 SSTORE POP DUP4 PUSH1 0x4 DUP2 SWAP1 SSTORE POP DUP3 PUSH1 0x5 DUP2 SWAP1 SSTORE POP DUP2 PUSH1 0x6 DUP2 SWAP1 SSTORE POP PUSH1 0x1 PUSH1 0x8 PUSH1 0x0 PUSH2 0x100 EXP DUP2 SLOAD DUP2 PUSH1 0xFF MUL NOT AND SWAP1 DUP4 ISZERO ISZERO MUL OR SWAP1 SSTORE POP DUP1 PUSH1 0x8 PUSH1 0x1 PUSH2 0x100 EXP DUP2 SLOAD DUP2 PUSH20 0xFFFFFFFFFFFFFFFFFFFFFFFFFFFFFFFFFFFFFFFF MUL NOT AND SWAP1 DUP4 PUSH20 0xFFFFFFFFFFFFFFFFFFFFFFFFFFFFFFFFFFFFFFFF AND MUL OR SWAP1 SSTORE POP PUSH1 0x1 PUSH1 0xE DUP2 SWAP1 SSTORE POP POP POP POP POP POP POP POP POP PUSH2 0x6DB JUMP JUMPDEST PUSH1 0x0 PUSH1 0x40 MLOAD SWAP1 POP SWAP1 JUMP JUMPDEST PUSH1 0x0 DUP1 REVERT JUMPDEST PUSH1 0x0 DUP1 REVERT JUMPDEST PUSH1 0x0 DUP2 SWAP1 POP SWAP2 SWAP1 POP JUMP JUMPDEST PUSH2 0x13E DUP2 PUSH2 0x12B JUMP JUMPDEST DUP2 EQ PUSH2 0x149 JUMPI PUSH1 0x0 DUP1 REVERT JUMPDEST POP JUMP JUMPDEST PUSH1 0x0 DUP2 MLOAD SWAP1 POP PUSH2 0x15B DUP2 PUSH2 0x135 JUMP JUMPDEST SWAP3 SWAP2 POP POP JUMP JUMPDEST PUSH1 0x0 DUP1 REVERT JUMPDEST PUSH1 0x0 DUP1 REVERT JUMPDEST PUSH1 0x0 PUSH1 0x1F NOT PUSH1 0x1F DUP4 ADD AND SWAP1 POP SWAP2 SWAP1 POP JUMP JUMPDEST PUSH32 0x4E487B7100000000000000000000000000000000000000000000000000000000 PUSH1 0x0 MSTORE PUSH1 0x41 PUSH1 0x4 MSTORE PUSH1 0x24 PUSH1 0x0 REVERT JUMPDEST PUSH2 0x1B4 DUP3 PUSH2 0x16B JUMP JUMPDEST DUP2 ADD DUP2 DUP2 LT PUSH8 0xFFFFFFFFFFFFFFFF DUP3 GT OR ISZERO PUSH2 0x1D3 JUMPI PUSH2 0x1D2 PUSH2 0x17C JUMP JUMPDEST JUMPDEST DUP1 PUSH1 0x40 MSTORE POP POP POP JUMP JUMPDEST PUSH1 0x0 PUSH2 0x1E6 PUSH2 0x117 JUMP JUMPDEST SWAP1 POP PUSH2 0x1F2 DUP3 DUP3 PUSH2 0x1AB JUMP JUMPDEST SWAP2 SWAP1 POP JUMP JUMPDEST PUSH1 0x0 PUSH8 0xFFFFFFFFFFFFFFFF DUP3 GT ISZERO PUSH2 0x212 JUMPI PUSH2 0x211 PUSH2 0x17C JUMP JUMPDEST JUMPDEST PUSH2 0x21B DUP3 PUSH2 0x16B JUMP JUMPDEST SWAP1 POP PUSH1 0x20 DUP2 ADD SWAP1 POP SWAP2 SWAP1 POP JUMP JUMPDEST PUSH1 0x0 JUMPDEST DUP4 DUP2 LT ISZERO PUSH2 0x246 JUMPI DUP1 DUP3 ADD MLOAD DUP2 DUP5 ADD MSTORE PUSH1 0x20 DUP2 ADD SWAP1 POP PUSH2 0x22B JUMP JUMPDEST PUSH1 0x0 DUP5 DUP5 ADD MSTORE POP POP POP POP JUMP JUMPDEST PUSH1 0x0 PUSH2 0x265 PUSH2 0x260 DUP5 PUSH2 0x1F7 JUMP JUMPDEST PUSH2 0x1DC JUMP JUMPDEST SWAP1 POP DUP3 DUP2 MSTORE PUSH1 0x20 DUP2 ADD DUP5 DUP5 DUP5 ADD GT ISZERO PUSH2 0x281 JUMPI PUSH2 0x280 PUSH2 0x166 JUMP JUMPDEST JUMPDEST PUSH2 0x28C DUP5 DUP3 DUP6 PUSH2 0x228 JUMP JUMPDEST POP SWAP4 SWAP3 POP POP POP JUMP JUMPDEST PUSH1 0x0 DUP3 PUSH1 0x1F DUP4 ADD SLT PUSH2 0x2A9 JUMPI PUSH2 0x2A8 PUSH2 0x161 JUMP JUMPDEST JUMPDEST DUP2 MLOAD PUSH2 0x2B9 DUP5 DUP3 PUSH1 0x20 DUP7 ADD PUSH2 0x252 JUMP JUMPDEST SWAP2 POP POP SWAP3 SWAP2 POP POP JUMP JUMPDEST PUSH1 0x0 PUSH20 0xFFFFFFFFFFFFFFFFFFFFFFFFFFFFFFFFFFFFFFFF DUP3 AND SWAP1 POP SWAP2 SWAP1 POP JUMP JUMPDEST PUSH1 0x0 PUSH2 0x2ED DUP3 PUSH2 0x2C2 JUMP JUMPDEST SWAP1 POP SWAP2 SWAP1 POP JUMP JUMPDEST PUSH2 0x2FD DUP2 PUSH2 0x2E2 JUMP JUMPDEST DUP2 EQ PUSH2 0x308 JUMPI PUSH1 0x0 DUP1 REVERT JUMPDEST POP JUMP JUMPDEST PUSH1 0x0 DUP2 MLOAD SWAP1 POP PUSH2 0x31A DUP2 PUSH2 0x2F4 JUMP JUMPDEST SWAP3 SWAP2 POP POP JUMP JUMPDEST PUSH1 0x0 DUP1 PUSH1 0x0 DUP1 PUSH1 0x0 DUP1 PUSH1 0x0 DUP1 PUSH2 0x100 DUP10 DUP12 SUB SLT ISZERO PUSH2 0x341 JUMPI PUSH2 0x340 PUSH2 0x121 JUMP JUMPDEST JUMPDEST PUSH1 0x0 PUSH2 0x34F DUP12 DUP3 DUP13 ADD PUSH2 0x14C JUMP JUMPDEST SWAP9 POP POP PUSH1 0x20 DUP10 ADD MLOAD PUSH8 0xFFFFFFFFFFFFFFFF DUP2 GT ISZERO PUSH2 0x370 JUMPI PUSH2 0x36F PUSH2 0x126 JUMP JUMPDEST JUMPDEST PUSH2 0x37C DUP12 DUP3 DUP13 ADD PUSH2 0x294 JUMP JUMPDEST SWAP8 POP POP PUSH1 0x40 PUSH2 0x38D DUP12 DUP3 DUP13 ADD PUSH2 0x30B JUMP JUMPDEST SWAP7 POP POP PUSH1 0x60 PUSH2 0x39E DUP12 DUP3 DUP13 ADD PUSH2 0x14C JUMP JUMPDEST SWAP6 POP POP PUSH1 0x80 PUSH2 0x3AF DUP12 DUP3 DUP13 ADD PUSH2 0x14C JUMP JUMPDEST SWAP5 POP POP PUSH1 0xA0 PUSH2 0x3C0 DUP12 DUP3 DUP13 ADD PUSH2 0x14C JUMP JUMPDEST SWAP4 POP POP PUSH1 0xC0 PUSH2 0x3D1 DUP12 DUP3 DUP13 ADD PUSH2 0x14C JUMP JUMPDEST SWAP3 POP POP PUSH1 0xE0 PUSH2 0x3E2 DUP12 DUP3 DUP13 ADD PUSH2 0x30B JUMP JUMPDEST SWAP2 POP POP SWAP3 SWAP6 SWAP9 POP SWAP3 SWAP6 SWAP9 SWAP1 SWAP4 SWAP7 POP JUMP JUMPDEST PUSH1 0x0 DUP2 MLOAD SWAP1 POP SWAP2 SWAP1 POP JUMP JUMPDEST PUSH32 0x4E487B7100000000000000000000000000000000000000000000000000000000 PUSH1 0x0 MSTORE PUSH1 0x22 PUSH1 0x4 MSTORE PUSH1 0x24 PUSH1 0x0 REVERT JUMPDEST PUSH1 0x0 PUSH1 0x2 DUP3 DIV SWAP1 POP PUSH1 0x1 DUP3 AND DUP1 PUSH2 0x444 JUMPI PUSH1 0x7F DUP3 AND SWAP2 POP JUMPDEST PUSH1 0x20 DUP3 LT DUP2 SUB PUSH2 0x457 JUMPI PUSH2 0x456 PUSH2 0x3FD JUMP JUMPDEST JUMPDEST POP SWAP2 SWAP1 POP JUMP JUMPDEST PUSH1 0x0 DUP2 SWAP1 POP DUP2 PUSH1 0x0 MSTORE PUSH1 0x20 PUSH1 0x0 KECCAK256 SWAP1 POP SWAP2 SWAP1 POP JUMP JUMPDEST PUSH1 0x0 PUSH1 0x20 PUSH1 0x1F DUP4 ADD DIV SWAP1 POP SWAP2 SWAP1 POP JUMP JUMPDEST PUSH1 0x0 DUP3 DUP3 SHL SWAP1 POP SWAP3 SWAP2 POP POP JUMP JUMPDEST PUSH1 0x0 PUSH1 0x8 DUP4 MUL PUSH2 0x4BF PUSH32 0xFFFFFFFFFFFFFFFFFFFFFFFFFFFFFFFFFFFFFFFFFFFFFFFFFFFFFFFFFFFFFFFF DUP3 PUSH2 0x482 JUMP JUMPDEST PUSH2 0x4C9 DUP7 DUP4 PUSH2 0x482 JUMP JUMPDEST SWAP6 POP DUP1 NOT DUP5 AND SWAP4 POP DUP1 DUP7 AND DUP5 OR SWAP3 POP POP POP SWAP4 SWAP3 POP POP POP JUMP JUMPDEST PUSH1 0x0 DUP2 SWAP1 POP SWAP2 SWAP1 POP JUMP JUMPDEST PUSH1 0x0 PUSH2 0x506 PUSH2 0x501 PUSH2 0x4FC DUP5 PUSH2 0x12B JUMP JUMPDEST PUSH2 0x4E1 JUMP JUMPDEST PUSH2 0x12B JUMP JUMPDEST SWAP1 POP SWAP2 SWAP1 POP JUMP JUMPDEST PUSH1 0x0 DUP2 SWAP1 POP SWAP2 SWAP1 POP JUMP JUMPDEST PUSH2 0x520 DUP4 PUSH2 0x4EB JUMP JUMPDEST PUSH2 0x534 PUSH2 0x52C DUP3 PUSH2 0x50D JUMP JUMPDEST DUP5 DUP5 SLOAD PUSH2 0x48F JUMP JUMPDEST DUP3 SSTORE POP POP POP POP JUMP JUMPDEST PUSH1 0x0 SWAP1 JUMP JUMPDEST PUSH2 0x549 PUSH2 0x53C JUMP JUMPDEST PUSH2 0x554 DUP2 DUP5 DUP5 PUSH2 0x517 JUMP JUMPDEST POP POP POP JUMP JUMPDEST JUMPDEST DUP2 DUP2 LT ISZERO PUSH2 0x578 JUMPI PUSH2 0x56D PUSH1 0x0 DUP3 PUSH2 0x541 JUMP JUMPDEST PUSH1 0x1 DUP2 ADD SWAP1 POP PUSH2 0x55A JUMP JUMPDEST POP POP JUMP JUMPDEST PUSH1 0x1F DUP3 GT ISZERO PUSH2 0x5BD JUMPI PUSH2 0x58E DUP2 PUSH2 0x45D JUMP JUMPDEST PUSH2 0x597 DUP5 PUSH2 0x472 JUMP JUMPDEST DUP2 ADD PUSH1 0x20 DUP6 LT ISZERO PUSH2 0x5A6 JUMPI DUP2 SWAP1 POP JUMPDEST PUSH2 0x5BA PUSH2 0x5B2 DUP6 PUSH2 0x472 JUMP JUMPDEST DUP4 ADD DUP3 PUSH2 0x559 JUMP JUMPDEST POP POP JUMPDEST POP POP POP JUMP JUMPDEST PUSH1 0x0 DUP3 DUP3 SHR SWAP1 POP SWAP3 SWAP2 POP POP JUMP JUMPDEST PUSH1 0x0 PUSH2 0x5E0 PUSH1 0x0 NOT DUP5 PUSH1 0x8 MUL PUSH2 0x5C2 JUMP JUMPDEST NOT DUP1 DUP4 AND SWAP2 POP POP SWAP3 SWAP2 POP POP JUMP JUMPDEST PUSH1 0x0 PUSH2 0x5F9 DUP4 DUP4 PUSH2 0x5CF JUMP JUMPDEST SWAP2 POP DUP3 PUSH1 0x2 MUL DUP3 OR SWAP1 POP SWAP3 SWAP2 POP POP JUMP JUMPDEST PUSH2 0x612 DUP3 PUSH2 0x3F2 JUMP JUMPDEST PUSH8 0xFFFFFFFFFFFFFFFF DUP2 GT ISZERO PUSH2 0x62B JUMPI PUSH2 0x62A PUSH2 0x17C JUMP JUMPDEST JUMPDEST PUSH2 0x635 DUP3 SLOAD PUSH2 0x42C JUMP JUMPDEST PUSH2 0x640 DUP3 DUP3 DUP6 PUSH2 0x57C JUMP JUMPDEST PUSH1 0x0 PUSH1 0x20 SWAP1 POP PUSH1 0x1F DUP4 GT PUSH1 0x1 DUP2 EQ PUSH2 0x673 JUMPI PUSH1 0x0 DUP5 ISZERO PUSH2 0x661 JUMPI DUP3 DUP8 ADD MLOAD SWAP1 POP JUMPDEST PUSH2 0x66B DUP6 DUP3 PUSH2 0x5ED JUMP JUMPDEST DUP7 SSTORE POP PUSH2 0x6D3 JUMP JUMPDEST PUSH1 0x1F NOT DUP5 AND PUSH2 0x681 DUP7 PUSH2 0x45D JUMP JUMPDEST PUSH1 0x0 JUMPDEST DUP3 DUP2 LT ISZERO PUSH2 0x6A9 JUMPI DUP5 DUP10 ADD MLOAD DUP3 SSTORE PUSH1 0x1 DUP3 ADD SWAP2 POP PUSH1 0x20 DUP6 ADD SWAP5 POP PUSH1 0x20 DUP2 ADD SWAP1 POP PUSH2 0x684 JUMP JUMPDEST DUP7 DUP4 LT ISZERO PUSH2 0x6C6 JUMPI DUP5 DUP10 ADD MLOAD PUSH2 0x6C2 PUSH1 0x1F DUP10 AND DUP3 PUSH2 0x5CF JUMP JUMPDEST DUP4 SSTORE POP JUMPDEST PUSH1 0x1 PUSH1 0x2 DUP9 MUL ADD DUP9 SSTORE POP POP POP JUMPDEST POP POP POP POP POP POP JUMP JUMPDEST PUSH2 0x2519 DUP1 PUSH2 0x6EA PUSH1 0x0 CODECOPY PUSH1 0x0 RETURN INVALID PUSH1 0x80 PUSH1 0x40 MSTORE PUSH1 0x4 CALLDATASIZE LT PUSH2 0x135 JUMPI PUSH1 0x0 CALLDATALOAD PUSH1 0xE0 SHR DUP1 PUSH4 0x464800AF GT PUSH2 0xAB JUMPI DUP1 PUSH4 0x78E97925 GT PUSH2 0x6F JUMPI DUP1 PUSH4 0x78E97925 EQ PUSH2 0x41F JUMPI DUP1 PUSH4 0x8A1AF815 EQ PUSH2 0x44A JUMPI DUP1 PUSH4 0x8DA5CB5B EQ PUSH2 0x475 JUMPI DUP1 PUSH4 0x9A7C1FD1 EQ PUSH2 0x4A0 JUMPI DUP1 PUSH4 0xC4583240 EQ PUSH2 0x4DD JUMPI DUP1 PUSH4 0xF93D8124 EQ PUSH2 0x51C JUMPI PUSH2 0x135 JUMP JUMPDEST DUP1 PUSH4 0x464800AF EQ PUSH2 0x345 JUMPI DUP1 PUSH4 0x4861DF70 EQ PUSH2 0x370 JUMPI DUP1 PUSH4 0x4E39C22C EQ PUSH2 0x38C JUMPI DUP1 PUSH4 0x6EB227CE EQ PUSH2 0x3C9 JUMPI DUP1 PUSH4 0x76F5F700 EQ PUSH2 0x3F4 JUMPI PUSH2 0x135 JUMP JUMPDEST DUP1 PUSH4 0xA3F5A42 GT PUSH2 0xFD JUMPI DUP1 PUSH4 0xA3F5A42 EQ PUSH2 0x221 JUMPI DUP1 PUSH4 0x224404D3 EQ PUSH2 0x24A JUMPI DUP1 PUSH4 0x287E4A5F EQ PUSH2 0x275 JUMPI DUP1 PUSH4 0x3197CBB6 EQ PUSH2 0x2B2 JUMPI DUP1 PUSH4 0x35C1D349 EQ PUSH2 0x2DD JUMPI DUP1 PUSH4 0x398AB9A7 EQ PUSH2 0x31A JUMPI PUSH2 0x135 JUMP JUMPDEST DUP1 PUSH4 0x2FB0C5E EQ PUSH2 0x13A JUMPI DUP1 PUSH4 0x61A2F50 EQ PUSH2 0x165 JUMPI DUP1 PUSH4 0x6FDDE03 EQ PUSH2 0x1A2 JUMPI DUP1 PUSH4 0x72EA61C EQ PUSH2 0x1CD JUMPI DUP1 PUSH4 0x9648B26 EQ PUSH2 0x1F8 JUMPI JUMPDEST PUSH1 0x0 DUP1 REVERT JUMPDEST CALLVALUE DUP1 ISZERO PUSH2 0x146 JUMPI PUSH1 0x0 DUP1 REVERT JUMPDEST POP PUSH2 0x14F PUSH2 0x545 JUMP JUMPDEST PUSH1 0x40 MLOAD PUSH2 0x15C SWAP2 SWAP1 PUSH2 0x177F JUMP JUMPDEST PUSH1 0x40 MLOAD DUP1 SWAP2 SUB SWAP1 RETURN JUMPDEST CALLVALUE DUP1 ISZERO PUSH2 0x171 JUMPI PUSH1 0x0 DUP1 REVERT JUMPDEST POP PUSH2 0x18C PUSH1 0x4 DUP1 CALLDATASIZE SUB DUP2 ADD SWAP1 PUSH2 0x187 SWAP2 SWAP1 PUSH2 0x1838 JUMP JUMPDEST PUSH2 0x558 JUMP JUMPDEST PUSH1 0x40 MLOAD PUSH2 0x199 SWAP2 SWAP1 PUSH2 0x1887 JUMP JUMPDEST PUSH1 0x40 MLOAD DUP1 SWAP2 SUB SWAP1 RETURN JUMPDEST CALLVALUE DUP1 ISZERO PUSH2 0x1AE JUMPI PUSH1 0x0 DUP1 REVERT JUMPDEST POP PUSH2 0x1B7 PUSH2 0x769 JUMP JUMPDEST PUSH1 0x40 MLOAD PUSH2 0x1C4 SWAP2 SWAP1 PUSH2 0x1932 JUMP JUMPDEST PUSH1 0x40 MLOAD DUP1 SWAP2 SUB SWAP1 RETURN JUMPDEST CALLVALUE DUP1 ISZERO PUSH2 0x1D9 JUMPI PUSH1 0x0 DUP1 REVERT JUMPDEST POP PUSH2 0x1E2 PUSH2 0x7F7 JUMP JUMPDEST PUSH1 0x40 MLOAD PUSH2 0x1EF SWAP2 SWAP1 PUSH2 0x1887 JUMP JUMPDEST PUSH1 0x40 MLOAD DUP1 SWAP2 SUB SWAP1 RETURN JUMPDEST CALLVALUE DUP1 ISZERO PUSH2 0x204 JUMPI PUSH1 0x0 DUP1 REVERT JUMPDEST POP PUSH2 0x21F PUSH1 0x4 DUP1 CALLDATASIZE SUB DUP2 ADD SWAP1 PUSH2 0x21A SWAP2 SWAP1 PUSH2 0x1954 JUMP JUMPDEST PUSH2 0x7FD JUMP JUMPDEST STOP JUMPDEST CALLVALUE DUP1 ISZERO PUSH2 0x22D JUMPI PUSH1 0x0 DUP1 REVERT JUMPDEST POP PUSH2 0x248 PUSH1 0x4 DUP1 CALLDATASIZE SUB DUP2 ADD SWAP1 PUSH2 0x243 SWAP2 SWAP1 PUSH2 0x1954 JUMP JUMPDEST PUSH2 0x9F4 JUMP JUMPDEST STOP JUMPDEST CALLVALUE DUP1 ISZERO PUSH2 0x256 JUMPI PUSH1 0x0 DUP1 REVERT JUMPDEST POP PUSH2 0x25F PUSH2 0xC56 JUMP JUMPDEST PUSH1 0x40 MLOAD PUSH2 0x26C SWAP2 SWAP1 PUSH2 0x1887 JUMP JUMPDEST PUSH1 0x40 MLOAD DUP1 SWAP2 SUB SWAP1 RETURN JUMPDEST CALLVALUE DUP1 ISZERO PUSH2 0x281 JUMPI PUSH1 0x0 DUP1 REVERT JUMPDEST POP PUSH2 0x29C PUSH1 0x4 DUP1 CALLDATASIZE SUB DUP2 ADD SWAP1 PUSH2 0x297 SWAP2 SWAP1 PUSH2 0x1954 JUMP JUMPDEST PUSH2 0xC5C JUMP JUMPDEST PUSH1 0x40 MLOAD PUSH2 0x2A9 SWAP2 SWAP1 PUSH2 0x1887 JUMP JUMPDEST PUSH1 0x40 MLOAD DUP1 SWAP2 SUB SWAP1 RETURN JUMPDEST CALLVALUE DUP1 ISZERO PUSH2 0x2BE JUMPI PUSH1 0x0 DUP1 REVERT JUMPDEST POP PUSH2 0x2C7 PUSH2 0xC74 JUMP JUMPDEST PUSH1 0x40 MLOAD PUSH2 0x2D4 SWAP2 SWAP1 PUSH2 0x1887 JUMP JUMPDEST PUSH1 0x40 MLOAD DUP1 SWAP2 SUB SWAP1 RETURN JUMPDEST CALLVALUE DUP1 ISZERO PUSH2 0x2E9 JUMPI PUSH1 0x0 DUP1 REVERT JUMPDEST POP PUSH2 0x304 PUSH1 0x4 DUP1 CALLDATASIZE SUB DUP2 ADD SWAP1 PUSH2 0x2FF SWAP2 SWAP1 PUSH2 0x1954 JUMP JUMPDEST PUSH2 0xC7A JUMP JUMPDEST PUSH1 0x40 MLOAD PUSH2 0x311 SWAP2 SWAP1 PUSH2 0x1990 JUMP JUMPDEST PUSH1 0x40 MLOAD DUP1 SWAP2 SUB SWAP1 RETURN JUMPDEST CALLVALUE DUP1 ISZERO PUSH2 0x326 JUMPI PUSH1 0x0 DUP1 REVERT JUMPDEST POP PUSH2 0x32F PUSH2 0xCB9 JUMP JUMPDEST PUSH1 0x40 MLOAD PUSH2 0x33C SWAP2 SWAP1 PUSH2 0x1887 JUMP JUMPDEST PUSH1 0x40 MLOAD DUP1 SWAP2 SUB SWAP1 RETURN JUMPDEST CALLVALUE DUP1 ISZERO PUSH2 0x351 JUMPI PUSH1 0x0 DUP1 REVERT JUMPDEST POP PUSH2 0x35A PUSH2 0xCBF JUMP JUMPDEST PUSH1 0x40 MLOAD PUSH2 0x367 SWAP2 SWAP1 PUSH2 0x1887 JUMP JUMPDEST PUSH1 0x40 MLOAD DUP1 SWAP2 SUB SWAP1 RETURN JUMPDEST PUSH2 0x38A PUSH1 0x4 DUP1 CALLDATASIZE SUB DUP2 ADD SWAP1 PUSH2 0x385 SWAP2 SWAP1 PUSH2 0x1A10 JUMP JUMPDEST PUSH2 0xCC5 JUMP JUMPDEST STOP JUMPDEST CALLVALUE DUP1 ISZERO PUSH2 0x398 JUMPI PUSH1 0x0 DUP1 REVERT JUMPDEST POP PUSH2 0x3B3 PUSH1 0x4 DUP1 CALLDATASIZE SUB DUP2 ADD SWAP1 PUSH2 0x3AE SWAP2 SWAP1 PUSH2 0x1954 JUMP JUMPDEST PUSH2 0x123A JUMP JUMPDEST PUSH1 0x40 MLOAD PUSH2 0x3C0 SWAP2 SWAP1 PUSH2 0x1990 JUMP JUMPDEST PUSH1 0x40 MLOAD DUP1 SWAP2 SUB SWAP1 RETURN JUMPDEST CALLVALUE DUP1 ISZERO PUSH2 0x3D5 JUMPI PUSH1 0x0 DUP1 REVERT JUMPDEST POP PUSH2 0x3DE PUSH2 0x126D JUMP JUMPDEST PUSH1 0x40 MLOAD PUSH2 0x3EB SWAP2 SWAP1 PUSH2 0x1887 JUMP JUMPDEST PUSH1 0x40 MLOAD DUP1 SWAP2 SUB SWAP1 RETURN JUMPDEST CALLVALUE DUP1 ISZERO PUSH2 0x400 JUMPI PUSH1 0x0 DUP1 REVERT JUMPDEST POP PUSH2 0x409 PUSH2 0x12A4 JUMP JUMPDEST PUSH1 0x40 MLOAD PUSH2 0x416 SWAP2 SWAP1 PUSH2 0x1887 JUMP JUMPDEST PUSH1 0x40 MLOAD DUP1 SWAP2 SUB SWAP1 RETURN JUMPDEST CALLVALUE DUP1 ISZERO PUSH2 0x42B JUMPI PUSH1 0x0 DUP1 REVERT JUMPDEST POP PUSH2 0x434 PUSH2 0x12AB JUMP JUMPDEST PUSH1 0x40 MLOAD PUSH2 0x441 SWAP2 SWAP1 PUSH2 0x1887 JUMP JUMPDEST PUSH1 0x40 MLOAD DUP1 SWAP2 SUB SWAP1 RETURN JUMPDEST CALLVALUE DUP1 ISZERO PUSH2 0x456 JUMPI PUSH1 0x0 DUP1 REVERT JUMPDEST POP PUSH2 0x45F PUSH2 0x12B1 JUMP JUMPDEST PUSH1 0x40 MLOAD PUSH2 0x46C SWAP2 SWAP1 PUSH2 0x1ABC JUMP JUMPDEST PUSH1 0x40 MLOAD DUP1 SWAP2 SUB SWAP1 RETURN JUMPDEST CALLVALUE DUP1 ISZERO PUSH2 0x481 JUMPI PUSH1 0x0 DUP1 REVERT JUMPDEST POP PUSH2 0x48A PUSH2 0x12D7 JUMP JUMPDEST PUSH1 0x40 MLOAD PUSH2 0x497 SWAP2 SWAP1 PUSH2 0x1990 JUMP JUMPDEST PUSH1 0x40 MLOAD DUP1 SWAP2 SUB SWAP1 RETURN JUMPDEST CALLVALUE DUP1 ISZERO PUSH2 0x4AC JUMPI PUSH1 0x0 DUP1 REVERT JUMPDEST POP PUSH2 0x4C7 PUSH1 0x4 DUP1 CALLDATASIZE SUB DUP2 ADD SWAP1 PUSH2 0x4C2 SWAP2 SWAP1 PUSH2 0x1954 JUMP JUMPDEST PUSH2 0x12FD JUMP JUMPDEST PUSH1 0x40 MLOAD PUSH2 0x4D4 SWAP2 SWAP1 PUSH2 0x177F JUMP JUMPDEST PUSH1 0x40 MLOAD DUP1 SWAP2 SUB SWAP1 RETURN JUMPDEST CALLVALUE DUP1 ISZERO PUSH2 0x4E9 JUMPI PUSH1 0x0 DUP1 REVERT JUMPDEST POP PUSH2 0x504 PUSH1 0x4 DUP1 CALLDATASIZE SUB DUP2 ADD SWAP1 PUSH2 0x4FF SWAP2 SWAP1 PUSH2 0x1AD7 JUMP JUMPDEST PUSH2 0x131D JUMP JUMPDEST PUSH1 0x40 MLOAD PUSH2 0x513 SWAP4 SWAP3 SWAP2 SWAP1 PUSH2 0x1B04 JUMP JUMPDEST PUSH1 0x40 MLOAD DUP1 SWAP2 SUB SWAP1 RETURN JUMPDEST CALLVALUE DUP1 ISZERO PUSH2 0x528 JUMPI PUSH1 0x0 DUP1 REVERT JUMPDEST POP PUSH2 0x543 PUSH1 0x4 DUP1 CALLDATASIZE SUB DUP2 ADD SWAP1 PUSH2 0x53E SWAP2 SWAP1 PUSH2 0x1954 JUMP JUMPDEST PUSH2 0x1374 JUMP JUMPDEST STOP JUMPDEST PUSH1 0x8 PUSH1 0x0 SWAP1 SLOAD SWAP1 PUSH2 0x100 EXP SWAP1 DIV PUSH1 0xFF AND DUP2 JUMP JUMPDEST PUSH1 0x0 PUSH1 0x9 PUSH1 0x0 DUP5 PUSH20 0xFFFFFFFFFFFFFFFFFFFFFFFFFFFFFFFFFFFFFFFF AND PUSH20 0xFFFFFFFFFFFFFFFFFFFFFFFFFFFFFFFFFFFFFFFF AND DUP2 MSTORE PUSH1 0x20 ADD SWAP1 DUP2 MSTORE PUSH1 0x20 ADD PUSH1 0x0 KECCAK256 PUSH1 0x3 ADD PUSH1 0x0 SWAP1 SLOAD SWAP1 PUSH2 0x100 EXP SWAP1 DIV PUSH1 0xFF AND PUSH2 0x5E9 JUMPI PUSH1 0x40 MLOAD PUSH32 0x8C379A000000000000000000000000000000000000000000000000000000000 DUP2 MSTORE PUSH1 0x4 ADD PUSH2 0x5E0 SWAP1 PUSH2 0x1B87 JUMP JUMPDEST PUSH1 0x40 MLOAD DUP1 SWAP2 SUB SWAP1 REVERT JUMPDEST PUSH1 0x0 DUP1 PUSH1 0x9 PUSH1 0x0 DUP7 PUSH20 0xFFFFFFFFFFFFFFFFFFFFFFFFFFFFFFFFFFFFFFFF AND PUSH20 0xFFFFFFFFFFFFFFFFFFFFFFFFFFFFFFFFFFFFFFFF AND DUP2 MSTORE PUSH1 0x20 ADD SWAP1 DUP2 MSTORE PUSH1 0x20 ADD PUSH1 0x0 KECCAK256 PUSH1 0x1 ADD DUP1 SLOAD DUP1 PUSH1 0x20 MUL PUSH1 0x20 ADD PUSH1 0x40 MLOAD SWAP1 DUP2 ADD PUSH1 0x40 MSTORE DUP1 SWAP3 SWAP2 SWAP1 DUP2 DUP2 MSTORE PUSH1 0x20 ADD DUP3 DUP1 SLOAD DUP1 ISZERO PUSH2 0x678 JUMPI PUSH1 0x20 MUL DUP3 ADD SWAP2 SWAP1 PUSH1 0x0 MSTORE PUSH1 0x20 PUSH1 0x0 KECCAK256 SWAP1 JUMPDEST DUP2 SLOAD DUP2 MSTORE PUSH1 0x20 ADD SWAP1 PUSH1 0x1 ADD SWAP1 DUP1 DUP4 GT PUSH2 0x664 JUMPI JUMPDEST POP POP POP POP POP SWAP1 POP PUSH1 0x0 JUMPDEST DUP2 MLOAD DUP2 LT ISZERO PUSH2 0x75D JUMPI PUSH1 0x8 PUSH1 0x1 SWAP1 SLOAD SWAP1 PUSH2 0x100 EXP SWAP1 DIV PUSH20 0xFFFFFFFFFFFFFFFFFFFFFFFFFFFFFFFFFFFFFFFF AND PUSH20 0xFFFFFFFFFFFFFFFFFFFFFFFFFFFFFFFFFFFFFFFF AND PUSH4 0xDE03FD35 DUP4 DUP4 DUP2 MLOAD DUP2 LT PUSH2 0x6DC JUMPI PUSH2 0x6DB PUSH2 0x1BA7 JUMP JUMPDEST JUMPDEST PUSH1 0x20 MUL PUSH1 0x20 ADD ADD MLOAD DUP8 PUSH1 0x40 MLOAD DUP4 PUSH4 0xFFFFFFFF AND PUSH1 0xE0 SHL DUP2 MSTORE PUSH1 0x4 ADD PUSH2 0x702 SWAP3 SWAP2 SWAP1 PUSH2 0x1BD6 JUMP JUMPDEST PUSH1 0x20 PUSH1 0x40 MLOAD DUP1 DUP4 SUB DUP2 DUP7 GAS STATICCALL ISZERO DUP1 ISZERO PUSH2 0x71F JUMPI RETURNDATASIZE PUSH1 0x0 DUP1 RETURNDATACOPY RETURNDATASIZE PUSH1 0x0 REVERT JUMPDEST POP POP POP POP PUSH1 0x40 MLOAD RETURNDATASIZE PUSH1 0x1F NOT PUSH1 0x1F DUP3 ADD AND DUP3 ADD DUP1 PUSH1 0x40 MSTORE POP DUP2 ADD SWAP1 PUSH2 0x743 SWAP2 SWAP1 PUSH2 0x1C14 JUMP JUMPDEST DUP4 PUSH2 0x74E SWAP2 SWAP1 PUSH2 0x1C70 JUMP JUMPDEST SWAP3 POP DUP1 DUP1 PUSH1 0x1 ADD SWAP2 POP POP PUSH2 0x682 JUMP JUMPDEST POP DUP2 SWAP3 POP POP POP SWAP3 SWAP2 POP POP JUMP JUMPDEST PUSH1 0x1 DUP1 SLOAD PUSH2 0x776 SWAP1 PUSH2 0x1CD3 JUMP JUMPDEST DUP1 PUSH1 0x1F ADD PUSH1 0x20 DUP1 SWAP2 DIV MUL PUSH1 0x20 ADD PUSH1 0x40 MLOAD SWAP1 DUP2 ADD PUSH1 0x40 MSTORE DUP1 SWAP3 SWAP2 SWAP1 DUP2 DUP2 MSTORE PUSH1 0x20 ADD DUP3 DUP1 SLOAD PUSH2 0x7A2 SWAP1 PUSH2 0x1CD3 JUMP JUMPDEST DUP1 ISZERO PUSH2 0x7EF JUMPI DUP1 PUSH1 0x1F LT PUSH2 0x7C4 JUMPI PUSH2 0x100 DUP1 DUP4 SLOAD DIV MUL DUP4 MSTORE SWAP2 PUSH1 0x20 ADD SWAP2 PUSH2 0x7EF JUMP JUMPDEST DUP3 ADD SWAP2 SWAP1 PUSH1 0x0 MSTORE PUSH1 0x20 PUSH1 0x0 KECCAK256 SWAP1 JUMPDEST DUP2 SLOAD DUP2 MSTORE SWAP1 PUSH1 0x1 ADD SWAP1 PUSH1 0x20 ADD DUP1 DUP4 GT PUSH2 0x7D2 JUMPI DUP3 SWAP1 SUB PUSH1 0x1F AND DUP3 ADD SWAP2 JUMPDEST POP POP POP POP POP DUP2 JUMP JUMPDEST PUSH1 0x3 SLOAD DUP2 JUMP JUMPDEST PUSH1 0x2 PUSH1 0x0 SWAP1 SLOAD SWAP1 PUSH2 0x100 EXP SWAP1 DIV PUSH20 0xFFFFFFFFFFFFFFFFFFFFFFFFFFFFFFFFFFFFFFFF AND PUSH20 0xFFFFFFFFFFFFFFFFFFFFFFFFFFFFFFFFFFFFFFFF AND CALLER PUSH20 0xFFFFFFFFFFFFFFFFFFFFFFFFFFFFFFFFFFFFFFFF AND EQ PUSH2 0x88D JUMPI PUSH1 0x40 MLOAD PUSH32 0x8C379A000000000000000000000000000000000000000000000000000000000 DUP2 MSTORE PUSH1 0x4 ADD PUSH2 0x884 SWAP1 PUSH2 0x1D50 JUMP JUMPDEST PUSH1 0x40 MLOAD DUP1 SWAP2 SUB SWAP1 REVERT JUMPDEST PUSH3 0x93A80 DUP2 PUSH2 0x89C SWAP2 SWAP1 PUSH2 0x1D70 JUMP JUMPDEST PUSH1 0x5 SLOAD PUSH2 0x8A9 SWAP2 SWAP1 PUSH2 0x1C70 JUMP JUMPDEST TIMESTAMP LT ISZERO PUSH2 0x8EB JUMPI PUSH1 0x40 MLOAD PUSH32 0x8C379A000000000000000000000000000000000000000000000000000000000 DUP2 MSTORE PUSH1 0x4 ADD PUSH2 0x8E2 SWAP1 PUSH2 0x1DFE JUMP JUMPDEST PUSH1 0x40 MLOAD DUP1 SWAP2 SUB SWAP1 REVERT JUMPDEST PUSH1 0x0 JUMPDEST PUSH1 0xA DUP1 SLOAD SWAP1 POP DUP2 LT ISZERO PUSH2 0x9F0 JUMPI PUSH1 0x0 PUSH1 0xA DUP3 DUP2 SLOAD DUP2 LT PUSH2 0x911 JUMPI PUSH2 0x910 PUSH2 0x1BA7 JUMP JUMPDEST JUMPDEST SWAP1 PUSH1 0x0 MSTORE PUSH1 0x20 PUSH1 0x0 KECCAK256 ADD PUSH1 0x0 SWAP1 SLOAD SWAP1 PUSH2 0x100 EXP SWAP1 DIV PUSH20 0xFFFFFFFFFFFFFFFFFFFFFFFFFFFFFFFFFFFFFFFF AND SWAP1 POP PUSH1 0x0 PUSH2 0x94A DUP3 DUP6 PUSH2 0x558 JUMP JUMPDEST SWAP1 POP DUP1 PUSH1 0x9 PUSH1 0x0 DUP5 PUSH20 0xFFFFFFFFFFFFFFFFFFFFFFFFFFFFFFFFFFFFFFFF AND PUSH20 0xFFFFFFFFFFFFFFFFFFFFFFFFFFFFFFFFFFFFFFFF AND DUP2 MSTORE PUSH1 0x20 ADD SWAP1 DUP2 MSTORE PUSH1 0x20 ADD PUSH1 0x0 KECCAK256 PUSH1 0x2 ADD DUP2 SWAP1 SSTORE POP DUP2 PUSH20 0xFFFFFFFFFFFFFFFFFFFFFFFFFFFFFFFFFFFFFFFF AND PUSH32 0xA05F39E6D8D4E060324EDB900F0F5909DE621FD93F19CCF65BA74E5965C98C36 DUP3 PUSH1 0x40 MLOAD PUSH2 0x9D9 SWAP2 SWAP1 PUSH2 0x1887 JUMP JUMPDEST PUSH1 0x40 MLOAD DUP1 SWAP2 SUB SWAP1 LOG2 POP POP DUP1 DUP1 PUSH1 0x1 ADD SWAP2 POP POP PUSH2 0x8EE JUMP JUMPDEST POP POP JUMP JUMPDEST PUSH1 0x2 PUSH1 0xE SLOAD SUB PUSH2 0xA39 JUMPI PUSH1 0x40 MLOAD PUSH32 0x8C379A000000000000000000000000000000000000000000000000000000000 DUP2 MSTORE PUSH1 0x4 ADD PUSH2 0xA30 SWAP1 PUSH2 0x1E6A JUMP JUMPDEST PUSH1 0x40 MLOAD DUP1 SWAP2 SUB SWAP1 REVERT JUMPDEST PUSH1 0x2 PUSH1 0xE DUP2 SWAP1 SSTORE POP PUSH1 0xC PUSH1 0x0 DUP3 DUP2 MSTORE PUSH1 0x20 ADD SWAP1 DUP2 MSTORE PUSH1 0x20 ADD PUSH1 0x0 KECCAK256 PUSH1 0x0 SWAP1 SLOAD SWAP1 PUSH2 0x100 EXP SWAP1 DIV PUSH1 0xFF AND PUSH2 0xAA1 JUMPI PUSH1 0x40 MLOAD PUSH32 0x8C379A000000000000000000000000000000000000000000000000000000000 DUP2 MSTORE PUSH1 0x4 ADD PUSH2 0xA98 SWAP1 PUSH2 0x1ED6 JUMP JUMPDEST PUSH1 0x40 MLOAD DUP1 SWAP2 SUB SWAP1 REVERT JUMPDEST CALLER PUSH20 0xFFFFFFFFFFFFFFFFFFFFFFFFFFFFFFFFFFFFFFFF AND PUSH1 0xB PUSH1 0x0 DUP4 DUP2 MSTORE PUSH1 0x20 ADD SWAP1 DUP2 MSTORE PUSH1 0x20 ADD PUSH1 0x0 KECCAK256 PUSH1 0x0 SWAP1 SLOAD SWAP1 PUSH2 0x100 EXP SWAP1 DIV PUSH20 0xFFFFFFFFFFFFFFFFFFFFFFFFFFFFFFFFFFFFFFFF AND PUSH20 0xFFFFFFFFFFFFFFFFFFFFFFFFFFFFFFFFFFFFFFFF AND EQ PUSH2 0xB42 JUMPI PUSH1 0x40 MLOAD PUSH32 0x8C379A000000000000000000000000000000000000000000000000000000000 DUP2 MSTORE PUSH1 0x4 ADD PUSH2 0xB39 SWAP1 PUSH2 0x1F42 JUMP JUMPDEST PUSH1 0x40 MLOAD DUP1 SWAP2 SUB SWAP1 REVERT JUMPDEST PUSH1 0x0 PUSH1 0xD PUSH1 0x0 DUP4 DUP2 MSTORE PUSH1 0x20 ADD SWAP1 DUP2 MSTORE PUSH1 0x20 ADD PUSH1 0x0 KECCAK256 SLOAD GT PUSH2 0xB98 JUMPI PUSH1 0x40 MLOAD PUSH32 0x8C379A000000000000000000000000000000000000000000000000000000000 DUP2 MSTORE PUSH1 0x4 ADD PUSH2 0xB8F SWAP1 PUSH2 0x1FAE JUMP JUMPDEST PUSH1 0x40 MLOAD DUP1 SWAP2 SUB SWAP1 REVERT JUMPDEST PUSH1 0x0 PUSH1 0xD PUSH1 0x0 DUP4 DUP2 MSTORE PUSH1 0x20 ADD SWAP1 DUP2 MSTORE PUSH1 0x20 ADD PUSH1 0x0 KECCAK256 SLOAD SWAP1 POP PUSH1 0x0 PUSH1 0xD PUSH1 0x0 DUP5 DUP2 MSTORE PUSH1 0x20 ADD SWAP1 DUP2 MSTORE PUSH1 0x20 ADD PUSH1 0x0 KECCAK256 DUP2 SWAP1 SSTORE POP CALLER PUSH20 0xFFFFFFFFFFFFFFFFFFFFFFFFFFFFFFFFFFFFFFFF AND PUSH2 0x8FC DUP3 SWAP1 DUP2 ISZERO MUL SWAP1 PUSH1 0x40 MLOAD PUSH1 0x0 PUSH1 0x40 MLOAD DUP1 DUP4 SUB DUP2 DUP6 DUP9 DUP9 CALL SWAP4 POP POP POP POP ISZERO DUP1 ISZERO PUSH2 0xC0F JUMPI RETURNDATASIZE PUSH1 0x0 DUP1 RETURNDATACOPY RETURNDATASIZE PUSH1 0x0 REVERT JUMPDEST POP DUP2 PUSH32 0x24B5EFA61DD1CFC659205A97FB8ED868F3CB8C81922BAB2B96423E5DE1DE2CB7 CALLER DUP4 PUSH1 0x40 MLOAD PUSH2 0xC42 SWAP3 SWAP2 SWAP1 PUSH2 0x1FCE JUMP JUMPDEST PUSH1 0x40 MLOAD DUP1 SWAP2 SUB SWAP1 LOG2 POP PUSH1 0x1 PUSH1 0xE DUP2 SWAP1 SSTORE POP POP JUMP JUMPDEST PUSH1 0x4 SLOAD DUP2 JUMP JUMPDEST PUSH1 0xD PUSH1 0x20 MSTORE DUP1 PUSH1 0x0 MSTORE PUSH1 0x40 PUSH1 0x0 KECCAK256 PUSH1 0x0 SWAP2 POP SWAP1 POP SLOAD DUP2 JUMP JUMPDEST PUSH1 0x6 SLOAD DUP2 JUMP JUMPDEST PUSH1 0xA DUP2 DUP2 SLOAD DUP2 LT PUSH2 0xC8A JUMPI PUSH1 0x0 DUP1 REVERT JUMPDEST SWAP1 PUSH1 0x0 MSTORE PUSH1 0x20 PUSH1 0x0 KECCAK256 ADD PUSH1 0x0 SWAP2 POP SLOAD SWAP1 PUSH2 0x100 EXP SWAP1 DIV PUSH20 0xFFFFFFFFFFFFFFFFFFFFFFFFFFFFFFFFFFFFFFFF AND DUP2 JUMP JUMPDEST PUSH1 0x7 SLOAD DUP2 JUMP JUMPDEST PUSH1 0x0 SLOAD DUP2 JUMP JUMPDEST PUSH1 0x2 PUSH1 0xE SLOAD SUB PUSH2 0xD0A JUMPI PUSH1 0x40 MLOAD PUSH32 0x8C379A000000000000000000000000000000000000000000000000000000000 DUP2 MSTORE PUSH1 0x4 ADD PUSH2 0xD01 SWAP1 PUSH2 0x1E6A JUMP JUMPDEST PUSH1 0x40 MLOAD DUP1 SWAP2 SUB SWAP1 REVERT JUMPDEST PUSH1 0x2 PUSH1 0xE DUP2 SWAP1 SSTORE POP PUSH1 0x8 PUSH1 0x0 SWAP1 SLOAD SWAP1 PUSH2 0x100 EXP SWAP1 DIV PUSH1 0xFF AND PUSH2 0xD61 JUMPI PUSH1 0x40 MLOAD PUSH32 0x8C379A000000000000000000000000000000000000000000000000000000000 DUP2 MSTORE PUSH1 0x4 ADD PUSH2 0xD58 SWAP1 PUSH2 0x2043 JUMP JUMPDEST PUSH1 0x40 MLOAD DUP1 SWAP2 SUB SWAP1 REVERT JUMPDEST PUSH1 0x5 SLOAD TIMESTAMP LT PUSH2 0xDA5 JUMPI PUSH1 0x40 MLOAD PUSH32 0x8C379A000000000000000000000000000000000000000000000000000000000 DUP2 MSTORE PUSH1 0x4 ADD PUSH2 0xD9C SWAP1 PUSH2 0x20AF JUMP JUMPDEST PUSH1 0x40 MLOAD DUP1 SWAP2 SUB SWAP1 REVERT JUMPDEST PUSH1 0x3 SLOAD CALLVALUE EQ PUSH2 0xDE9 JUMPI PUSH1 0x40 MLOAD PUSH32 0x8C379A000000000000000000000000000000000000000000000000000000000 DUP2 MSTORE PUSH1 0x4 ADD PUSH2 0xDE0 SWAP1 PUSH2 0x211B JUMP JUMPDEST PUSH1 0x40 MLOAD DUP1 SWAP2 SUB SWAP1 REVERT JUMPDEST PUSH1 0x4 SLOAD PUSH1 0xA DUP1 SLOAD SWAP1 POP LT PUSH2 0xE32 JUMPI PUSH1 0x40 MLOAD PUSH32 0x8C379A000000000000000000000000000000000000000000000000000000000 DUP2 MSTORE PUSH1 0x4 ADD PUSH2 0xE29 SWAP1 PUSH2 0x2187 JUMP JUMPDEST PUSH1 0x40 MLOAD DUP1 SWAP2 SUB SWAP1 REVERT JUMPDEST PUSH1 0x9 PUSH1 0x0 CALLER PUSH20 0xFFFFFFFFFFFFFFFFFFFFFFFFFFFFFFFFFFFFFFFF AND PUSH20 0xFFFFFFFFFFFFFFFFFFFFFFFFFFFFFFFFFFFFFFFF AND DUP2 MSTORE PUSH1 0x20 ADD SWAP1 DUP2 MSTORE PUSH1 0x20 ADD PUSH1 0x0 KECCAK256 PUSH1 0x3 ADD PUSH1 0x0 SWAP1 SLOAD SWAP1 PUSH2 0x100 EXP SWAP1 DIV PUSH1 0xFF AND ISZERO PUSH2 0xEC2 JUMPI PUSH1 0x40 MLOAD PUSH32 0x8C379A000000000000000000000000000000000000000000000000000000000 DUP2 MSTORE PUSH1 0x4 ADD PUSH2 0xEB9 SWAP1 PUSH2 0x21F3 JUMP JUMPDEST PUSH1 0x40 MLOAD DUP1 SWAP2 SUB SWAP1 REVERT JUMPDEST PUSH1 0x8 PUSH1 0x1 SWAP1 SLOAD SWAP1 PUSH2 0x100 EXP SWAP1 DIV PUSH20 0xFFFFFFFFFFFFFFFFFFFFFFFFFFFFFFFFFFFFFFFF AND PUSH20 0xFFFFFFFFFFFFFFFFFFFFFFFFFFFFFFFFFFFFFFFF AND PUSH4 0xC40717F6 DUP4 DUP4 PUSH1 0x40 MLOAD DUP4 PUSH4 0xFFFFFFFF AND PUSH1 0xE0 SHL DUP2 MSTORE PUSH1 0x4 ADD PUSH2 0xF1F SWAP3 SWAP2 SWAP1 PUSH2 0x228E JUMP JUMPDEST PUSH1 0x20 PUSH1 0x40 MLOAD DUP1 DUP4 SUB DUP2 DUP7 GAS STATICCALL ISZERO DUP1 ISZERO PUSH2 0xF3C JUMPI RETURNDATASIZE PUSH1 0x0 DUP1 RETURNDATACOPY RETURNDATASIZE PUSH1 0x0 REVERT JUMPDEST POP POP POP POP PUSH1 0x40 MLOAD RETURNDATASIZE PUSH1 0x1F NOT PUSH1 0x1F DUP3 ADD AND DUP3 ADD DUP1 PUSH1 0x40 MSTORE POP DUP2 ADD SWAP1 PUSH2 0xF60 SWAP2 SWAP1 PUSH2 0x22DE JUMP JUMPDEST PUSH2 0xF9F JUMPI PUSH1 0x40 MLOAD PUSH32 0x8C379A000000000000000000000000000000000000000000000000000000000 DUP2 MSTORE PUSH1 0x4 ADD PUSH2 0xF96 SWAP1 PUSH2 0x2357 JUMP JUMPDEST PUSH1 0x40 MLOAD DUP1 SWAP2 SUB SWAP1 REVERT JUMPDEST PUSH1 0x40 MLOAD DUP1 PUSH1 0x80 ADD PUSH1 0x40 MSTORE DUP1 CALLER PUSH20 0xFFFFFFFFFFFFFFFFFFFFFFFFFFFFFFFFFFFFFFFF AND DUP2 MSTORE PUSH1 0x20 ADD DUP4 DUP4 DUP1 DUP1 PUSH1 0x20 MUL PUSH1 0x20 ADD PUSH1 0x40 MLOAD SWAP1 DUP2 ADD PUSH1 0x40 MSTORE DUP1 SWAP4 SWAP3 SWAP2 SWAP1 DUP2 DUP2 MSTORE PUSH1 0x20 ADD DUP4 DUP4 PUSH1 0x20 MUL DUP1 DUP3 DUP5 CALLDATACOPY PUSH1 0x0 DUP2 DUP5 ADD MSTORE PUSH1 0x1F NOT PUSH1 0x1F DUP3 ADD AND SWAP1 POP DUP1 DUP4 ADD SWAP3 POP POP POP POP POP POP POP DUP2 MSTORE PUSH1 0x20 ADD PUSH1 0x0 DUP2 MSTORE PUSH1 0x20 ADD PUSH1 0x1 ISZERO ISZERO DUP2 MSTORE POP PUSH1 0x9 PUSH1 0x0 CALLER PUSH20 0xFFFFFFFFFFFFFFFFFFFFFFFFFFFFFFFFFFFFFFFF AND PUSH20 0xFFFFFFFFFFFFFFFFFFFFFFFFFFFFFFFFFFFFFFFF AND DUP2 MSTORE PUSH1 0x20 ADD SWAP1 DUP2 MSTORE PUSH1 0x20 ADD PUSH1 0x0 KECCAK256 PUSH1 0x0 DUP3 ADD MLOAD DUP2 PUSH1 0x0 ADD PUSH1 0x0 PUSH2 0x100 EXP DUP2 SLOAD DUP2 PUSH20 0xFFFFFFFFFFFFFFFFFFFFFFFFFFFFFFFFFFFFFFFF MUL NOT AND SWAP1 DUP4 PUSH20 0xFFFFFFFFFFFFFFFFFFFFFFFFFFFFFFFFFFFFFFFF AND MUL OR SWAP1 SSTORE POP PUSH1 0x20 DUP3 ADD MLOAD DUP2 PUSH1 0x1 ADD SWAP1 DUP1 MLOAD SWAP1 PUSH1 0x20 ADD SWAP1 PUSH2 0x10BD SWAP3 SWAP2 SWAP1 PUSH2 0x16FA JUMP JUMPDEST POP PUSH1 0x40 DUP3 ADD MLOAD DUP2 PUSH1 0x2 ADD SSTORE PUSH1 0x60 DUP3 ADD MLOAD DUP2 PUSH1 0x3 ADD PUSH1 0x0 PUSH2 0x100 EXP DUP2 SLOAD DUP2 PUSH1 0xFF MUL NOT AND SWAP1 DUP4 ISZERO ISZERO MUL OR SWAP1 SSTORE POP SWAP1 POP POP PUSH1 0xA CALLER SWAP1 DUP1 PUSH1 0x1 DUP2 SLOAD ADD DUP1 DUP3 SSTORE DUP1 SWAP2 POP POP PUSH1 0x1 SWAP1 SUB SWAP1 PUSH1 0x0 MSTORE PUSH1 0x20 PUSH1 0x0 KECCAK256 ADD PUSH1 0x0 SWAP1 SWAP2 SWAP1 SWAP2 SWAP1 SWAP2 PUSH2 0x100 EXP DUP2 SLOAD DUP2 PUSH20 0xFFFFFFFFFFFFFFFFFFFFFFFFFFFFFFFFFFFFFFFF MUL NOT AND SWAP1 DUP4 PUSH20 0xFFFFFFFFFFFFFFFFFFFFFFFFFFFFFFFFFFFFFFFF AND MUL OR SWAP1 SSTORE POP CALLVALUE PUSH1 0x7 PUSH1 0x0 DUP3 DUP3 SLOAD PUSH2 0x1160 SWAP2 SWAP1 PUSH2 0x1C70 JUMP JUMPDEST SWAP3 POP POP DUP2 SWAP1 SSTORE POP PUSH1 0x0 PUSH3 0x93A80 PUSH1 0x5 SLOAD PUSH1 0x6 SLOAD PUSH2 0x117D SWAP2 SWAP1 PUSH2 0x2377 JUMP JUMPDEST PUSH2 0x1187 SWAP2 SWAP1 PUSH2 0x23DA JUMP JUMPDEST SWAP1 POP PUSH1 0x0 DUP2 SELFBALANCE PUSH2 0x1197 SWAP2 SWAP1 PUSH2 0x23DA JUMP JUMPDEST SWAP1 POP PUSH1 0x0 JUMPDEST DUP3 DUP2 LT ISZERO PUSH2 0x11DB JUMPI DUP2 PUSH1 0xD PUSH1 0x0 DUP4 DUP2 MSTORE PUSH1 0x20 ADD SWAP1 DUP2 MSTORE PUSH1 0x20 ADD PUSH1 0x0 KECCAK256 PUSH1 0x0 DUP3 DUP3 SLOAD PUSH2 0x11C7 SWAP2 SWAP1 PUSH2 0x1C70 JUMP JUMPDEST SWAP3 POP POP DUP2 SWAP1 SSTORE POP DUP1 DUP1 PUSH1 0x1 ADD SWAP2 POP POP PUSH2 0x119C JUMP JUMPDEST POP CALLER PUSH20 0xFFFFFFFFFFFFFFFFFFFFFFFFFFFFFFFFFFFFFFFF AND PUSH32 0x6F957774F9DB1179719C2FE74B52AE0DC4E6829120A3B65CF4CCE07EDFBD3B9 DUP6 DUP6 PUSH1 0x40 MLOAD PUSH2 0x1224 SWAP3 SWAP2 SWAP1 PUSH2 0x228E JUMP JUMPDEST PUSH1 0x40 MLOAD DUP1 SWAP2 SUB SWAP1 LOG2 POP POP PUSH1 0x1 PUSH1 0xE DUP2 SWAP1 SSTORE POP POP POP JUMP JUMPDEST PUSH1 0xB PUSH1 0x20 MSTORE DUP1 PUSH1 0x0 MSTORE PUSH1 0x40 PUSH1 0x0 KECCAK256 PUSH1 0x0 SWAP2 POP SLOAD SWAP1 PUSH2 0x100 EXP SWAP1 DIV PUSH20 0xFFFFFFFFFFFFFFFFFFFFFFFFFFFFFFFFFFFFFFFF AND DUP2 JUMP JUMPDEST PUSH1 0x0 PUSH1 0x5 SLOAD TIMESTAMP LT ISZERO PUSH2 0x1282 JUMPI PUSH1 0x0 SWAP1 POP PUSH2 0x12A1 JUMP JUMPDEST PUSH3 0x93A80 PUSH1 0x5 SLOAD TIMESTAMP PUSH2 0x1294 SWAP2 SWAP1 PUSH2 0x2377 JUMP JUMPDEST PUSH2 0x129E SWAP2 SWAP1 PUSH2 0x23DA JUMP JUMPDEST SWAP1 POP JUMPDEST SWAP1 JUMP JUMPDEST PUSH3 0x93A80 DUP2 JUMP JUMPDEST PUSH1 0x5 SLOAD DUP2 JUMP JUMPDEST PUSH1 0x8 PUSH1 0x1 SWAP1 SLOAD SWAP1 PUSH2 0x100 EXP SWAP1 DIV PUSH20 0xFFFFFFFFFFFFFFFFFFFFFFFFFFFFFFFFFFFFFFFF AND DUP2 JUMP JUMPDEST PUSH1 0x2 PUSH1 0x0 SWAP1 SLOAD SWAP1 PUSH2 0x100 EXP SWAP1 DIV PUSH20 0xFFFFFFFFFFFFFFFFFFFFFFFFFFFFFFFFFFFFFFFF AND DUP2 JUMP JUMPDEST PUSH1 0xC PUSH1 0x20 MSTORE DUP1 PUSH1 0x0 MSTORE PUSH1 0x40 PUSH1 0x0 KECCAK256 PUSH1 0x0 SWAP2 POP SLOAD SWAP1 PUSH2 0x100 EXP SWAP1 DIV PUSH1 0xFF AND DUP2 JUMP JUMPDEST PUSH1 0x9 PUSH1 0x20 MSTORE DUP1 PUSH1 0x0 MSTORE PUSH1 0x40 PUSH1 0x0 KECCAK256 PUSH1 0x0 SWAP2 POP SWAP1 POP DUP1 PUSH1 0x0 ADD PUSH1 0x0 SWAP1 SLOAD SWAP1 PUSH2 0x100 EXP SWAP1 DIV PUSH20 0xFFFFFFFFFFFFFFFFFFFFFFFFFFFFFFFFFFFFFFFF AND SWAP1 DUP1 PUSH1 0x2 ADD SLOAD SWAP1 DUP1 PUSH1 0x3 ADD PUSH1 0x0 SWAP1 SLOAD SWAP1 PUSH2 0x100 EXP SWAP1 DIV PUSH1 0xFF AND SWAP1 POP DUP4 JUMP JUMPDEST PUSH1 0x2 PUSH1 0x0 SWAP1 SLOAD SWAP1 PUSH2 0x100 EXP SWAP1 DIV PUSH20 0xFFFFFFFFFFFFFFFFFFFFFFFFFFFFFFFFFFFFFFFF AND PUSH20 0xFFFFFFFFFFFFFFFFFFFFFFFFFFFFFFFFFFFFFFFF AND CALLER PUSH20 0xFFFFFFFFFFFFFFFFFFFFFFFFFFFFFFFFFFFFFFFF AND EQ PUSH2 0x1404 JUMPI PUSH1 0x40 MLOAD PUSH32 0x8C379A000000000000000000000000000000000000000000000000000000000 DUP2 MSTORE PUSH1 0x4 ADD PUSH2 0x13FB SWAP1 PUSH2 0x1D50 JUMP JUMPDEST PUSH1 0x40 MLOAD DUP1 SWAP2 SUB SWAP1 REVERT JUMPDEST PUSH3 0x93A80 DUP2 PUSH2 0x1413 SWAP2 SWAP1 PUSH2 0x1D70 JUMP JUMPDEST PUSH1 0x5 SLOAD PUSH2 0x1420 SWAP2 SWAP1 PUSH2 0x1C70 JUMP JUMPDEST TIMESTAMP LT ISZERO PUSH2 0x1462 JUMPI PUSH1 0x40 MLOAD PUSH32 0x8C379A000000000000000000000000000000000000000000000000000000000 DUP2 MSTORE PUSH1 0x4 ADD PUSH2 0x1459 SWAP1 PUSH2 0x1DFE JUMP JUMPDEST PUSH1 0x40 MLOAD DUP1 SWAP2 SUB SWAP1 REVERT JUMPDEST PUSH1 0xC PUSH1 0x0 DUP3 DUP2 MSTORE PUSH1 0x20 ADD SWAP1 DUP2 MSTORE PUSH1 0x20 ADD PUSH1 0x0 KECCAK256 PUSH1 0x0 SWAP1 SLOAD SWAP1 PUSH2 0x100 EXP SWAP1 DIV PUSH1 0xFF AND ISZERO PUSH2 0x14C3 JUMPI PUSH1 0x40 MLOAD PUSH32 0x8C379A000000000000000000000000000000000000000000000000000000000 DUP2 MSTORE PUSH1 0x4 ADD PUSH2 0x14BA SWAP1 PUSH2 0x2457 JUMP JUMPDEST PUSH1 0x40 MLOAD DUP1 SWAP2 SUB SWAP1 REVERT JUMPDEST PUSH1 0x0 DUP1 PUSH1 0x0 JUMPDEST PUSH1 0xA DUP1 SLOAD SWAP1 POP DUP2 LT ISZERO PUSH2 0x15BA JUMPI PUSH1 0x0 PUSH1 0xA DUP3 DUP2 SLOAD DUP2 LT PUSH2 0x14EC JUMPI PUSH2 0x14EB PUSH2 0x1BA7 JUMP JUMPDEST JUMPDEST SWAP1 PUSH1 0x0 MSTORE PUSH1 0x20 PUSH1 0x0 KECCAK256 ADD PUSH1 0x0 SWAP1 SLOAD SWAP1 PUSH2 0x100 EXP SWAP1 DIV PUSH20 0xFFFFFFFFFFFFFFFFFFFFFFFFFFFFFFFFFFFFFFFF AND SWAP1 POP DUP3 PUSH1 0x9 PUSH1 0x0 DUP4 PUSH20 0xFFFFFFFFFFFFFFFFFFFFFFFFFFFFFFFFFFFFFFFF AND PUSH20 0xFFFFFFFFFFFFFFFFFFFFFFFFFFFFFFFFFFFFFFFF AND DUP2 MSTORE PUSH1 0x20 ADD SWAP1 DUP2 MSTORE PUSH1 0x20 ADD PUSH1 0x0 KECCAK256 PUSH1 0x2 ADD SLOAD GT ISZERO PUSH2 0x15AC JUMPI PUSH1 0x9 PUSH1 0x0 DUP3 PUSH20 0xFFFFFFFFFFFFFFFFFFFFFFFFFFFFFFFFFFFFFFFF AND PUSH20 0xFFFFFFFFFFFFFFFFFFFFFFFFFFFFFFFFFFFFFFFF AND DUP2 MSTORE PUSH1 0x20 ADD SWAP1 DUP2 MSTORE PUSH1 0x20 ADD PUSH1 0x0 KECCAK256 PUSH1 0x2 ADD SLOAD SWAP3 POP DUP1 SWAP4 POP JUMPDEST POP DUP1 DUP1 PUSH1 0x1 ADD SWAP2 POP POP PUSH2 0x14C9 JUMP JUMPDEST POP PUSH1 0x0 PUSH20 0xFFFFFFFFFFFFFFFFFFFFFFFFFFFFFFFFFFFFFFFF AND DUP3 PUSH20 0xFFFFFFFFFFFFFFFFFFFFFFFFFFFFFFFFFFFFFFFF AND SUB PUSH2 0x162A JUMPI PUSH1 0x40 MLOAD PUSH32 0x8C379A000000000000000000000000000000000000000000000000000000000 DUP2 MSTORE PUSH1 0x4 ADD PUSH2 0x1621 SWAP1 PUSH2 0x24C3 JUMP JUMPDEST PUSH1 0x40 MLOAD DUP1 SWAP2 SUB SWAP1 REVERT JUMPDEST DUP2 PUSH1 0xB PUSH1 0x0 DUP6 DUP2 MSTORE PUSH1 0x20 ADD SWAP1 DUP2 MSTORE PUSH1 0x20 ADD PUSH1 0x0 KECCAK256 PUSH1 0x0 PUSH2 0x100 EXP DUP2 SLOAD DUP2 PUSH20 0xFFFFFFFFFFFFFFFFFFFFFFFFFFFFFFFFFFFFFFFF MUL NOT AND SWAP1 DUP4 PUSH20 0xFFFFFFFFFFFFFFFFFFFFFFFFFFFFFFFFFFFFFFFF AND MUL OR SWAP1 SSTORE POP PUSH1 0x1 PUSH1 0xC PUSH1 0x0 DUP6 DUP2 MSTORE PUSH1 0x20 ADD SWAP1 DUP2 MSTORE PUSH1 0x20 ADD PUSH1 0x0 KECCAK256 PUSH1 0x0 PUSH2 0x100 EXP DUP2 SLOAD DUP2 PUSH1 0xFF MUL NOT AND SWAP1 DUP4 ISZERO ISZERO MUL OR SWAP1 SSTORE POP DUP3 PUSH32 0x9E8A46942C293EC4EA2406E2A6E4316C256CB47656AF7D5B260188D95B7DE749 DUP4 PUSH1 0xD PUSH1 0x0 DUP8 DUP2 MSTORE PUSH1 0x20 ADD SWAP1 DUP2 MSTORE PUSH1 0x20 ADD PUSH1 0x0 KECCAK256 SLOAD PUSH1 0x40 MLOAD PUSH2 0x16ED SWAP3 SWAP2 SWAP1 PUSH2 0x1FCE JUMP JUMPDEST PUSH1 0x40 MLOAD DUP1 SWAP2 SUB SWAP1 LOG2 POP POP POP JUMP JUMPDEST DUP3 DUP1 SLOAD DUP3 DUP3 SSTORE SWAP1 PUSH1 0x0 MSTORE PUSH1 0x20 PUSH1 0x0 KECCAK256 SWAP1 DUP2 ADD SWAP3 DUP3 ISZERO PUSH2 0x1736 JUMPI SWAP2 PUSH1 0x20 MUL DUP3 ADD JUMPDEST DUP3 DUP2 GT ISZERO PUSH2 0x1735 JUMPI DUP3 MLOAD DUP3 SSTORE SWAP2 PUSH1 0x20 ADD SWAP2 SWAP1 PUSH1 0x1 ADD SWAP1 PUSH2 0x171A JUMP JUMPDEST JUMPDEST POP SWAP1 POP PUSH2 0x1743 SWAP2 SWAP1 PUSH2 0x1747 JUMP JUMPDEST POP SWAP1 JUMP JUMPDEST JUMPDEST DUP1 DUP3 GT ISZERO PUSH2 0x1760 JUMPI PUSH1 0x0 DUP2 PUSH1 0x0 SWAP1 SSTORE POP PUSH1 0x1 ADD PUSH2 0x1748 JUMP JUMPDEST POP SWAP1 JUMP JUMPDEST PUSH1 0x0 DUP2 ISZERO ISZERO SWAP1 POP SWAP2 SWAP1 POP JUMP JUMPDEST PUSH2 0x1779 DUP2 PUSH2 0x1764 JUMP JUMPDEST DUP3 MSTORE POP POP JUMP JUMPDEST PUSH1 0x0 PUSH1 0x20 DUP3 ADD SWAP1 POP PUSH2 0x1794 PUSH1 0x0 DUP4 ADD DUP5 PUSH2 0x1770 JUMP JUMPDEST SWAP3 SWAP2 POP POP JUMP JUMPDEST PUSH1 0x0 DUP1 REVERT JUMPDEST PUSH1 0x0 DUP1 REVERT JUMPDEST PUSH1 0x0 PUSH20 0xFFFFFFFFFFFFFFFFFFFFFFFFFFFFFFFFFFFFFFFF DUP3 AND SWAP1 POP SWAP2 SWAP1 POP JUMP JUMPDEST PUSH1 0x0 PUSH2 0x17CF DUP3 PUSH2 0x17A4 JUMP JUMPDEST SWAP1 POP SWAP2 SWAP1 POP JUMP JUMPDEST PUSH2 0x17DF DUP2 PUSH2 0x17C4 JUMP JUMPDEST DUP2 EQ PUSH2 0x17EA JUMPI PUSH1 0x0 DUP1 REVERT JUMPDEST POP JUMP JUMPDEST PUSH1 0x0 DUP2 CALLDATALOAD SWAP1 POP PUSH2 0x17FC DUP2 PUSH2 0x17D6 JUMP JUMPDEST SWAP3 SWAP2 POP POP JUMP JUMPDEST PUSH1 0x0 DUP2 SWAP1 POP SWAP2 SWAP1 POP JUMP JUMPDEST PUSH2 0x1815 DUP2 PUSH2 0x1802 JUMP JUMPDEST DUP2 EQ PUSH2 0x1820 JUMPI PUSH1 0x0 DUP1 REVERT JUMPDEST POP JUMP JUMPDEST PUSH1 0x0 DUP2 CALLDATALOAD SWAP1 POP PUSH2 0x1832 DUP2 PUSH2 0x180C JUMP JUMPDEST SWAP3 SWAP2 POP POP JUMP JUMPDEST PUSH1 0x0 DUP1 PUSH1 0x40 DUP4 DUP6 SUB SLT ISZERO PUSH2 0x184F JUMPI PUSH2 0x184E PUSH2 0x179A JUMP JUMPDEST JUMPDEST PUSH1 0x0 PUSH2 0x185D DUP6 DUP3 DUP7 ADD PUSH2 0x17ED JUMP JUMPDEST SWAP3 POP POP PUSH1 0x20 PUSH2 0x186E DUP6 DUP3 DUP7 ADD PUSH2 0x1823 JUMP JUMPDEST SWAP2 POP POP SWAP3 POP SWAP3 SWAP1 POP JUMP JUMPDEST PUSH2 0x1881 DUP2 PUSH2 0x1802 JUMP JUMPDEST DUP3 MSTORE POP POP JUMP JUMPDEST PUSH1 0x0 PUSH1 0x20 DUP3 ADD SWAP1 POP PUSH2 0x189C PUSH1 0x0 DUP4 ADD DUP5 PUSH2 0x1878 JUMP JUMPDEST SWAP3 SWAP2 POP POP JUMP JUMPDEST PUSH1 0x0 DUP2 MLOAD SWAP1 POP SWAP2 SWAP1 POP JUMP JUMPDEST PUSH1 0x0 DUP3 DUP3 MSTORE PUSH1 0x20 DUP3 ADD SWAP1 POP SWAP3 SWAP2 POP POP JUMP JUMPDEST PUSH1 0x0 JUMPDEST DUP4 DUP2 LT ISZERO PUSH2 0x18DC JUMPI DUP1 DUP3 ADD MLOAD DUP2 DUP5 ADD MSTORE PUSH1 0x20 DUP2 ADD SWAP1 POP PUSH2 0x18C1 JUMP JUMPDEST PUSH1 0x0 DUP5 DUP5 ADD MSTORE POP POP POP POP JUMP JUMPDEST PUSH1 0x0 PUSH1 0x1F NOT PUSH1 0x1F DUP4 ADD AND SWAP1 POP SWAP2 SWAP1 POP JUMP JUMPDEST PUSH1 0x0 PUSH2 0x1904 DUP3 PUSH2 0x18A2 JUMP JUMPDEST PUSH2 0x190E DUP2 DUP6 PUSH2 0x18AD JUMP JUMPDEST SWAP4 POP PUSH2 0x191E DUP2 DUP6 PUSH1 0x20 DUP7 ADD PUSH2 0x18BE JUMP JUMPDEST PUSH2 0x1927 DUP2 PUSH2 0x18E8 JUMP JUMPDEST DUP5 ADD SWAP2 POP POP SWAP3 SWAP2 POP POP JUMP JUMPDEST PUSH1 0x0 PUSH1 0x20 DUP3 ADD SWAP1 POP DUP2 DUP2 SUB PUSH1 0x0 DUP4 ADD MSTORE PUSH2 0x194C DUP2 DUP5 PUSH2 0x18F9 JUMP JUMPDEST SWAP1 POP SWAP3 SWAP2 POP POP JUMP JUMPDEST PUSH1 0x0 PUSH1 0x20 DUP3 DUP5 SUB SLT ISZERO PUSH2 0x196A JUMPI PUSH2 0x1969 PUSH2 0x179A JUMP JUMPDEST JUMPDEST PUSH1 0x0 PUSH2 0x1978 DUP5 DUP3 DUP6 ADD PUSH2 0x1823 JUMP JUMPDEST SWAP2 POP POP SWAP3 SWAP2 POP POP JUMP JUMPDEST PUSH2 0x198A DUP2 PUSH2 0x17C4 JUMP JUMPDEST DUP3 MSTORE POP POP JUMP JUMPDEST PUSH1 0x0 PUSH1 0x20 DUP3 ADD SWAP1 POP PUSH2 0x19A5 PUSH1 0x0 DUP4 ADD DUP5 PUSH2 0x1981 JUMP JUMPDEST SWAP3 SWAP2 POP POP JUMP JUMPDEST PUSH1 0x0 DUP1 REVERT JUMPDEST PUSH1 0x0 DUP1 REVERT JUMPDEST PUSH1 0x0 DUP1 REVERT JUMPDEST PUSH1 0x0 DUP1 DUP4 PUSH1 0x1F DUP5 ADD SLT PUSH2 0x19D0 JUMPI PUSH2 0x19CF PUSH2 0x19AB JUMP JUMPDEST JUMPDEST DUP3 CALLDATALOAD SWAP1 POP PUSH8 0xFFFFFFFFFFFFFFFF DUP2 GT ISZERO PUSH2 0x19ED JUMPI PUSH2 0x19EC PUSH2 0x19B0 JUMP JUMPDEST JUMPDEST PUSH1 0x20 DUP4 ADD SWAP2 POP DUP4 PUSH1 0x20 DUP3 MUL DUP4 ADD GT ISZERO PUSH2 0x1A09 JUMPI PUSH2 0x1A08 PUSH2 0x19B5 JUMP JUMPDEST JUMPDEST SWAP3 POP SWAP3 SWAP1 POP JUMP JUMPDEST PUSH1 0x0 DUP1 PUSH1 0x20 DUP4 DUP6 SUB SLT ISZERO PUSH2 0x1A27 JUMPI PUSH2 0x1A26 PUSH2 0x179A JUMP JUMPDEST JUMPDEST PUSH1 0x0 DUP4 ADD CALLDATALOAD PUSH8 0xFFFFFFFFFFFFFFFF DUP2 GT ISZERO PUSH2 0x1A45 JUMPI PUSH2 0x1A44 PUSH2 0x179F JUMP JUMPDEST JUMPDEST PUSH2 0x1A51 DUP6 DUP3 DUP7 ADD PUSH2 0x19BA JUMP JUMPDEST SWAP3 POP SWAP3 POP POP SWAP3 POP SWAP3 SWAP1 POP JUMP JUMPDEST PUSH1 0x0 DUP2 SWAP1 POP SWAP2 SWAP1 POP JUMP JUMPDEST PUSH1 0x0 PUSH2 0x1A82 PUSH2 0x1A7D PUSH2 0x1A78 DUP5 PUSH2 0x17A4 JUMP JUMPDEST PUSH2 0x1A5D JUMP JUMPDEST PUSH2 0x17A4 JUMP JUMPDEST SWAP1 POP SWAP2 SWAP1 POP JUMP JUMPDEST PUSH1 0x0 PUSH2 0x1A94 DUP3 PUSH2 0x1A67 JUMP JUMPDEST SWAP1 POP SWAP2 SWAP1 POP JUMP JUMPDEST PUSH1 0x0 PUSH2 0x1AA6 DUP3 PUSH2 0x1A89 JUMP JUMPDEST SWAP1 POP SWAP2 SWAP1 POP JUMP JUMPDEST PUSH2 0x1AB6 DUP2 PUSH2 0x1A9B JUMP JUMPDEST DUP3 MSTORE POP POP JUMP JUMPDEST PUSH1 0x0 PUSH1 0x20 DUP3 ADD SWAP1 POP PUSH2 0x1AD1 PUSH1 0x0 DUP4 ADD DUP5 PUSH2 0x1AAD JUMP JUMPDEST SWAP3 SWAP2 POP POP JUMP JUMPDEST PUSH1 0x0 PUSH1 0x20 DUP3 DUP5 SUB SLT ISZERO PUSH2 0x1AED JUMPI PUSH2 0x1AEC PUSH2 0x179A JUMP JUMPDEST JUMPDEST PUSH1 0x0 PUSH2 0x1AFB DUP5 DUP3 DUP6 ADD PUSH2 0x17ED JUMP JUMPDEST SWAP2 POP POP SWAP3 SWAP2 POP POP JUMP JUMPDEST PUSH1 0x0 PUSH1 0x60 DUP3 ADD SWAP1 POP PUSH2 0x1B19 PUSH1 0x0 DUP4 ADD DUP7 PUSH2 0x1981 JUMP JUMPDEST PUSH2 0x1B26 PUSH1 0x20 DUP4 ADD DUP6 PUSH2 0x1878 JUMP JUMPDEST PUSH2 0x1B33 PUSH1 0x40 DUP4 ADD DUP5 PUSH2 0x1770 JUMP JUMPDEST SWAP5 SWAP4 POP POP POP POP JUMP JUMPDEST PUSH32 0x5465616D206E6F74207265676973746572656400000000000000000000000000 PUSH1 0x0 DUP3 ADD MSTORE POP JUMP JUMPDEST PUSH1 0x0 PUSH2 0x1B71 PUSH1 0x13 DUP4 PUSH2 0x18AD JUMP JUMPDEST SWAP2 POP PUSH2 0x1B7C DUP3 PUSH2 0x1B3B JUMP JUMPDEST PUSH1 0x20 DUP3 ADD SWAP1 POP SWAP2 SWAP1 POP JUMP JUMPDEST PUSH1 0x0 PUSH1 0x20 DUP3 ADD SWAP1 POP DUP2 DUP2 SUB PUSH1 0x0 DUP4 ADD MSTORE PUSH2 0x1BA0 DUP2 PUSH2 0x1B64 JUMP JUMPDEST SWAP1 POP SWAP2 SWAP1 POP JUMP JUMPDEST PUSH32 0x4E487B7100000000000000000000000000000000000000000000000000000000 PUSH1 0x0 MSTORE PUSH1 0x32 PUSH1 0x4 MSTORE PUSH1 0x24 PUSH1 0x0 REVERT JUMPDEST PUSH1 0x0 PUSH1 0x40 DUP3 ADD SWAP1 POP PUSH2 0x1BEB PUSH1 0x0 DUP4 ADD DUP6 PUSH2 0x1878 JUMP JUMPDEST PUSH2 0x1BF8 PUSH1 0x20 DUP4 ADD DUP5 PUSH2 0x1878 JUMP JUMPDEST SWAP4 SWAP3 POP POP POP JUMP JUMPDEST PUSH1 0x0 DUP2 MLOAD SWAP1 POP PUSH2 0x1C0E DUP2 PUSH2 0x180C JUMP JUMPDEST SWAP3 SWAP2 POP POP JUMP JUMPDEST PUSH1 0x0 PUSH1 0x20 DUP3 DUP5 SUB SLT ISZERO PUSH2 0x1C2A JUMPI PUSH2 0x1C29 PUSH2 0x179A JUMP JUMPDEST JUMPDEST PUSH1 0x0 PUSH2 0x1C38 DUP5 DUP3 DUP6 ADD PUSH2 0x1BFF JUMP JUMPDEST SWAP2 POP POP SWAP3 SWAP2 POP POP JUMP JUMPDEST PUSH32 0x4E487B7100000000000000000000000000000000000000000000000000000000 PUSH1 0x0 MSTORE PUSH1 0x11 PUSH1 0x4 MSTORE PUSH1 0x24 PUSH1 0x0 REVERT JUMPDEST PUSH1 0x0 PUSH2 0x1C7B DUP3 PUSH2 0x1802 JUMP JUMPDEST SWAP2 POP PUSH2 0x1C86 DUP4 PUSH2 0x1802 JUMP JUMPDEST SWAP3 POP DUP3 DUP3 ADD SWAP1 POP DUP1 DUP3 GT ISZERO PUSH2 0x1C9E JUMPI PUSH2 0x1C9D PUSH2 0x1C41 JUMP JUMPDEST JUMPDEST SWAP3 SWAP2 POP POP JUMP JUMPDEST PUSH32 0x4E487B7100000000000000000000000000000000000000000000000000000000 PUSH1 0x0 MSTORE PUSH1 0x22 PUSH1 0x4 MSTORE PUSH1 0x24 PUSH1 0x0 REVERT JUMPDEST PUSH1 0x0 PUSH1 0x2 DUP3 DIV SWAP1 POP PUSH1 0x1 DUP3 AND DUP1 PUSH2 0x1CEB JUMPI PUSH1 0x7F DUP3 AND SWAP2 POP JUMPDEST PUSH1 0x20 DUP3 LT DUP2 SUB PUSH2 0x1CFE JUMPI PUSH2 0x1CFD PUSH2 0x1CA4 JUMP JUMPDEST JUMPDEST POP SWAP2 SWAP1 POP JUMP JUMPDEST PUSH32 0x4F6E6C79206F776E65722063616E2063616C6C00000000000000000000000000 PUSH1 0x0 DUP3 ADD MSTORE POP JUMP JUMPDEST PUSH1 0x0 PUSH2 0x1D3A PUSH1 0x13 DUP4 PUSH2 0x18AD JUMP JUMPDEST SWAP2 POP PUSH2 0x1D45 DUP3 PUSH2 0x1D04 JUMP JUMPDEST PUSH1 0x20 DUP3 ADD SWAP1 POP SWAP2 SWAP1 POP JUMP JUMPDEST PUSH1 0x0 PUSH1 0x20 DUP3 ADD SWAP1 POP DUP2 DUP2 SUB PUSH1 0x0 DUP4 ADD MSTORE PUSH2 0x1D69 DUP2 PUSH2 0x1D2D JUMP JUMPDEST SWAP1 POP SWAP2 SWAP1 POP JUMP JUMPDEST PUSH1 0x0 PUSH2 0x1D7B DUP3 PUSH2 0x1802 JUMP JUMPDEST SWAP2 POP PUSH2 0x1D86 DUP4 PUSH2 0x1802 JUMP JUMPDEST SWAP3 POP DUP3 DUP3 MUL PUSH2 0x1D94 DUP2 PUSH2 0x1802 JUMP JUMPDEST SWAP2 POP DUP3 DUP3 DIV DUP5 EQ DUP4 ISZERO OR PUSH2 0x1DAB JUMPI PUSH2 0x1DAA PUSH2 0x1C41 JUMP JUMPDEST JUMPDEST POP SWAP3 SWAP2 POP POP JUMP JUMPDEST PUSH32 0x5765656B206E6F742066696E6973686564000000000000000000000000000000 PUSH1 0x0 DUP3 ADD MSTORE POP JUMP JUMPDEST PUSH1 0x0 PUSH2 0x1DE8 PUSH1 0x11 DUP4 PUSH2 0x18AD JUMP JUMPDEST SWAP2 POP PUSH2 0x1DF3 DUP3 PUSH2 0x1DB2 JUMP JUMPDEST PUSH1 0x20 DUP3 ADD SWAP1 POP SWAP2 SWAP1 POP JUMP JUMPDEST PUSH1 0x0 PUSH1 0x20 DUP3 ADD SWAP1 POP DUP2 DUP2 SUB PUSH1 0x0 DUP4 ADD MSTORE PUSH2 0x1E17 DUP2 PUSH2 0x1DDB JUMP JUMPDEST SWAP1 POP SWAP2 SWAP1 POP JUMP JUMPDEST PUSH32 0x5265656E7472616E637947756172643A207265656E7472616E742063616C6C00 PUSH1 0x0 DUP3 ADD MSTORE POP JUMP JUMPDEST PUSH1 0x0 PUSH2 0x1E54 PUSH1 0x1F DUP4 PUSH2 0x18AD JUMP JUMPDEST SWAP2 POP PUSH2 0x1E5F DUP3 PUSH2 0x1E1E JUMP JUMPDEST PUSH1 0x20 DUP3 ADD SWAP1 POP SWAP2 SWAP1 POP JUMP JUMPDEST PUSH1 0x0 PUSH1 0x20 DUP3 ADD SWAP1 POP DUP2 DUP2 SUB PUSH1 0x0 DUP4 ADD MSTORE PUSH2 0x1E83 DUP2 PUSH2 0x1E47 JUMP JUMPDEST SWAP1 POP SWAP2 SWAP1 POP JUMP JUMPDEST PUSH32 0x57696E6E6572206E6F74206465636C6172656400000000000000000000000000 PUSH1 0x0 DUP3 ADD MSTORE POP JUMP JUMPDEST PUSH1 0x0 PUSH2 0x1EC0 PUSH1 0x13 DUP4 PUSH2 0x18AD JUMP JUMPDEST SWAP2 POP PUSH2 0x1ECB DUP3 PUSH2 0x1E8A JUMP JUMPDEST PUSH1 0x20 DUP3 ADD SWAP1 POP SWAP2 SWAP1 POP JUMP JUMPDEST PUSH1 0x0 PUSH1 0x20 DUP3 ADD SWAP1 POP DUP2 DUP2 SUB PUSH1 0x0 DUP4 ADD MSTORE PUSH2 0x1EEF DUP2 PUSH2 0x1EB3 JUMP JUMPDEST SWAP1 POP SWAP2 SWAP1 POP JUMP JUMPDEST PUSH32 0x4E6F74207468652077696E6E6572000000000000000000000000000000000000 PUSH1 0x0 DUP3 ADD MSTORE POP JUMP JUMPDEST PUSH1 0x0 PUSH2 0x1F2C PUSH1 0xE DUP4 PUSH2 0x18AD JUMP JUMPDEST SWAP2 POP PUSH2 0x1F37 DUP3 PUSH2 0x1EF6 JUMP JUMPDEST PUSH1 0x20 DUP3 ADD SWAP1 POP SWAP2 SWAP1 POP JUMP JUMPDEST PUSH1 0x0 PUSH1 0x20 DUP3 ADD SWAP1 POP DUP2 DUP2 SUB PUSH1 0x0 DUP4 ADD MSTORE PUSH2 0x1F5B DUP2 PUSH2 0x1F1F JUMP JUMPDEST SWAP1 POP SWAP2 SWAP1 POP JUMP JUMPDEST PUSH32 0x4E6F207072697A6520746F20636C61696D000000000000000000000000000000 PUSH1 0x0 DUP3 ADD MSTORE POP JUMP JUMPDEST PUSH1 0x0 PUSH2 0x1F98 PUSH1 0x11 DUP4 PUSH2 0x18AD JUMP JUMPDEST SWAP2 POP PUSH2 0x1FA3 DUP3 PUSH2 0x1F62 JUMP JUMPDEST PUSH1 0x20 DUP3 ADD SWAP1 POP SWAP2 SWAP1 POP JUMP JUMPDEST PUSH1 0x0 PUSH1 0x20 DUP3 ADD SWAP1 POP DUP2 DUP2 SUB PUSH1 0x0 DUP4 ADD MSTORE PUSH2 0x1FC7 DUP2 PUSH2 0x1F8B JUMP JUMPDEST SWAP1 POP SWAP2 SWAP1 POP JUMP JUMPDEST PUSH1 0x0 PUSH1 0x40 DUP3 ADD SWAP1 POP PUSH2 0x1FE3 PUSH1 0x0 DUP4 ADD DUP6 PUSH2 0x1981 JUMP JUMPDEST PUSH2 0x1FF0 PUSH1 0x20 DUP4 ADD DUP5 PUSH2 0x1878 JUMP JUMPDEST SWAP4 SWAP3 POP POP POP JUMP JUMPDEST PUSH32 0x4C6561677565206973206E6F7420616374697665000000000000000000000000 PUSH1 0x0 DUP3 ADD MSTORE POP JUMP JUMPDEST PUSH1 0x0 PUSH2 0x202D PUSH1 0x14 DUP4 PUSH2 0x18AD JUMP JUMPDEST SWAP2 POP PUSH2 0x2038 DUP3 PUSH2 0x1FF7 JUMP JUMPDEST PUSH1 0x20 DUP3 ADD SWAP1 POP SWAP2 SWAP1 POP JUMP JUMPDEST PUSH1 0x0 PUSH1 0x20 DUP3 ADD SWAP1 POP DUP2 DUP2 SUB PUSH1 0x0 DUP4 ADD MSTORE PUSH2 0x205C DUP2 PUSH2 0x2020 JUMP JUMPDEST SWAP1 POP SWAP2 SWAP1 POP JUMP JUMPDEST PUSH32 0x4C65616775652068617320737461727465640000000000000000000000000000 PUSH1 0x0 DUP3 ADD MSTORE POP JUMP JUMPDEST PUSH1 0x0 PUSH2 0x2099 PUSH1 0x12 DUP4 PUSH2 0x18AD JUMP JUMPDEST SWAP2 POP PUSH2 0x20A4 DUP3 PUSH2 0x2063 JUMP JUMPDEST PUSH1 0x20 DUP3 ADD SWAP1 POP SWAP2 SWAP1 POP JUMP JUMPDEST PUSH1 0x0 PUSH1 0x20 DUP3 ADD SWAP1 POP DUP2 DUP2 SUB PUSH1 0x0 DUP4 ADD MSTORE PUSH2 0x20C8 DUP2 PUSH2 0x208C JUMP JUMPDEST SWAP1 POP SWAP2 SWAP1 POP JUMP JUMPDEST PUSH32 0x496E636F727265637420656E7472792066656500000000000000000000000000 PUSH1 0x0 DUP3 ADD MSTORE POP JUMP JUMPDEST PUSH1 0x0 PUSH2 0x2105 PUSH1 0x13 DUP4 PUSH2 0x18AD JUMP JUMPDEST SWAP2 POP PUSH2 0x2110 DUP3 PUSH2 0x20CF JUMP JUMPDEST PUSH1 0x20 DUP3 ADD SWAP1 POP SWAP2 SWAP1 POP JUMP JUMPDEST PUSH1 0x0 PUSH1 0x20 DUP3 ADD SWAP1 POP DUP2 DUP2 SUB PUSH1 0x0 DUP4 ADD MSTORE PUSH2 0x2134 DUP2 PUSH2 0x20F8 JUMP JUMPDEST SWAP1 POP SWAP2 SWAP1 POP JUMP JUMPDEST PUSH32 0x4C65616775652069732066756C6C000000000000000000000000000000000000 PUSH1 0x0 DUP3 ADD MSTORE POP JUMP JUMPDEST PUSH1 0x0 PUSH2 0x2171 PUSH1 0xE DUP4 PUSH2 0x18AD JUMP JUMPDEST SWAP2 POP PUSH2 0x217C DUP3 PUSH2 0x213B JUMP JUMPDEST PUSH1 0x20 DUP3 ADD SWAP1 POP SWAP2 SWAP1 POP JUMP JUMPDEST PUSH1 0x0 PUSH1 0x20 DUP3 ADD SWAP1 POP DUP2 DUP2 SUB PUSH1 0x0 DUP4 ADD MSTORE PUSH2 0x21A0 DUP2 PUSH2 0x2164 JUMP JUMPDEST SWAP1 POP SWAP2 SWAP1 POP JUMP JUMPDEST PUSH32 0x5465616D20616C72656164792072656769737465726564000000000000000000 PUSH1 0x0 DUP3 ADD MSTORE POP JUMP JUMPDEST PUSH1 0x0 PUSH2 0x21DD PUSH1 0x17 DUP4 PUSH2 0x18AD JUMP JUMPDEST SWAP2 POP PUSH2 0x21E8 DUP3 PUSH2 0x21A7 JUMP JUMPDEST PUSH1 0x20 DUP3 ADD SWAP1 POP SWAP2 SWAP1 POP JUMP JUMPDEST PUSH1 0x0 PUSH1 0x20 DUP3 ADD SWAP1 POP DUP2 DUP2 SUB PUSH1 0x0 DUP4 ADD MSTORE PUSH2 0x220C DUP2 PUSH2 0x21D0 JUMP JUMPDEST SWAP1 POP SWAP2 SWAP1 POP JUMP JUMPDEST PUSH1 0x0 DUP3 DUP3 MSTORE PUSH1 0x20 DUP3 ADD SWAP1 POP SWAP3 SWAP2 POP POP JUMP JUMPDEST PUSH1 0x0 DUP1 REVERT JUMPDEST DUP3 DUP2 DUP4 CALLDATACOPY POP POP POP JUMP JUMPDEST PUSH1 0x0 PUSH2 0x223E DUP4 DUP6 PUSH2 0x2213 JUMP JUMPDEST SWAP4 POP PUSH32 0x7FFFFFFFFFFFFFFFFFFFFFFFFFFFFFFFFFFFFFFFFFFFFFFFFFFFFFFFFFFFFFF DUP4 GT ISZERO PUSH2 0x2271 JUMPI PUSH2 0x2270 PUSH2 0x2224 JUMP JUMPDEST JUMPDEST PUSH1 0x20 DUP4 MUL SWAP3 POP PUSH2 0x2282 DUP4 DUP6 DUP5 PUSH2 0x2229 JUMP JUMPDEST DUP3 DUP5 ADD SWAP1 POP SWAP4 SWAP3 POP POP POP JUMP JUMPDEST PUSH1 0x0 PUSH1 0x20 DUP3 ADD SWAP1 POP DUP2 DUP2 SUB PUSH1 0x0 DUP4 ADD MSTORE PUSH2 0x22A9 DUP2 DUP5 DUP7 PUSH2 0x2232 JUMP JUMPDEST SWAP1 POP SWAP4 SWAP3 POP POP POP JUMP JUMPDEST PUSH2 0x22BB DUP2 PUSH2 0x1764 JUMP JUMPDEST DUP2 EQ PUSH2 0x22C6 JUMPI PUSH1 0x0 DUP1 REVERT JUMPDEST POP JUMP JUMPDEST PUSH1 0x0 DUP2 MLOAD SWAP1 POP PUSH2 0x22D8 DUP2 PUSH2 0x22B2 JUMP JUMPDEST SWAP3 SWAP2 POP POP JUMP JUMPDEST PUSH1 0x0 PUSH1 0x20 DUP3 DUP5 SUB SLT ISZERO PUSH2 0x22F4 JUMPI PUSH2 0x22F3 PUSH2 0x179A JUMP JUMPDEST JUMPDEST PUSH1 0x0 PUSH2 0x2302 DUP5 DUP3 DUP6 ADD PUSH2 0x22C9 JUMP JUMPDEST SWAP2 POP POP SWAP3 SWAP2 POP POP JUMP JUMPDEST PUSH32 0x496E76616C6964207465616D0000000000000000000000000000000000000000 PUSH1 0x0 DUP3 ADD MSTORE POP JUMP JUMPDEST PUSH1 0x0 PUSH2 0x2341 PUSH1 0xC DUP4 PUSH2 0x18AD JUMP JUMPDEST SWAP2 POP PUSH2 0x234C DUP3 PUSH2 0x230B JUMP JUMPDEST PUSH1 0x20 DUP3 ADD SWAP1 POP SWAP2 SWAP1 POP JUMP JUMPDEST PUSH1 0x0 PUSH1 0x20 DUP3 ADD SWAP1 POP DUP2 DUP2 SUB PUSH1 0x0 DUP4 ADD MSTORE PUSH2 0x2370 DUP2 PUSH2 0x2334 JUMP JUMPDEST SWAP1 POP SWAP2 SWAP1 POP JUMP JUMPDEST PUSH1 0x0 PUSH2 0x2382 DUP3 PUSH2 0x1802 JUMP JUMPDEST SWAP2 POP PUSH2 0x238D DUP4 PUSH2 0x1802 JUMP JUMPDEST SWAP3 POP DUP3 DUP3 SUB SWAP1 POP DUP2 DUP2 GT ISZERO PUSH2 0x23A5 JUMPI PUSH2 0x23A4 PUSH2 0x1C41 JUMP JUMPDEST JUMPDEST SWAP3 SWAP2 POP POP JUMP JUMPDEST PUSH32 0x4E487B7100000000000000000000000000000000000000000000000000000000 PUSH1 0x0 MSTORE PUSH1 0x12 PUSH1 0x4 MSTORE PUSH1 0x24 PUSH1 0x0 REVERT JUMPDEST PUSH1 0x0 PUSH2 0x23E5 DUP3 PUSH2 0x1802 JUMP JUMPDEST SWAP2 POP PUSH2 0x23F0 DUP4 PUSH2 0x1802 JUMP JUMPDEST SWAP3 POP DUP3 PUSH2 0x2400 JUMPI PUSH2 0x23FF PUSH2 0x23AB JUMP JUMPDEST JUMPDEST DUP3 DUP3 DIV SWAP1 POP SWAP3 SWAP2 POP POP JUMP JUMPDEST PUSH32 0x416C7265616479206465636C6172656400000000000000000000000000000000 PUSH1 0x0 DUP3 ADD MSTORE POP JUMP JUMPDEST PUSH1 0x0 PUSH2 0x2441 PUSH1 0x10 DUP4 PUSH2 0x18AD JUMP JUMPDEST SWAP2 POP PUSH2 0x244C DUP3 PUSH2 0x240B JUMP JUMPDEST PUSH1 0x20 DUP3 ADD SWAP1 POP SWAP2 SWAP1 POP JUMP JUMPDEST PUSH1 0x0 PUSH1 0x20 DUP3 ADD SWAP1 POP DUP2 DUP2 SUB PUSH1 0x0 DUP4 ADD MSTORE PUSH2 0x2470 DUP2 PUSH2 0x2434 JUMP JUMPDEST SWAP1 POP SWAP2 SWAP1 POP JUMP JUMPDEST PUSH32 0x4E6F2077696E6E657220666F756E640000000000000000000000000000000000 PUSH1 0x0 DUP3 ADD MSTORE POP JUMP JUMPDEST PUSH1 0x0 PUSH2 0x24AD PUSH1 0xF DUP4 PUSH2 0x18AD JUMP JUMPDEST SWAP2 POP PUSH2 0x24B8 DUP3 PUSH2 0x2477 JUMP JUMPDEST PUSH1 0x20 DUP3 ADD SWAP1 POP SWAP2 SWAP1 POP JUMP JUMPDEST PUSH1 0x0 PUSH1 0x20 DUP3 ADD SWAP1 POP DUP2 DUP2 SUB PUSH1 0x0 DUP4 ADD MSTORE PUSH2 0x24DC DUP2 PUSH2 0x24A0 JUMP JUMPDEST SWAP1 POP SWAP2 SWAP1 POP JUMP INVALID LOG2 PUSH5 0x6970667358 0x22 SLT KECCAK256 SWAP5 PUSH30 0x82BE014327CF970712AD5D71ABDB2987C08CD1EFE1B068B7979E4E084217 PUSH5 0x736F6C6343 STOP ADDMOD SHL STOP CALLER LOG2 PUSH5 0x6970667358 0x22 SLT KECCAK256 0xC0 GASPRICE SELFDESTRUCT CHAINID 0xF6 DUP14 0xAD CODESIZE 0xD4 PUSH28 0xF74C93057F4407FFF54CBCE538DF670F8F67DD12813764736F6C6343 STOP ADDMOD SHL STOP CALLER "
        },
        "methodIdentifiers": {
          "admin()": "f851a440",
          "createLeague(string,uint256,uint256,uint256,uint256)": "5858f1ce",
          "getCurrentLeagueId()": "f983afd2",
          "getLeague(uint256)": "45516aaa",
          "leagues(uint256)": "c648fefe",
          "userPlayerManager()": "8a1af815"
        }
      }
    }
  }
}