{
  "_format": "hh-sol-artifact-1",
  "contractName": "UserPlayerManager",
  "sourceName": "contracts/UserPlayerManager.sol",
  "abi": [
    {
      "inputs": [],
      "stateMutability": "nonpayable",
      "type": "constructor"
    },
    {
      "anonymous": false,
      "inputs": [
        {
          "indexed": true,
          "internalType": "address",
          "name": "sender",
          "type": "address"
        },
        {
          "indexed": false,
          "internalType": "uint256",
          "name": "amount",
          "type": "uint256"
        }
      ],
      "name": "DepositSuccessful",
      "type": "event"
    },
    {
      "anonymous": false,
      "inputs": [
        {
          "indexed": true,
          "internalType": "uint256",
          "name": "playerId",
          "type": "uint256"
        },
        {
          "indexed": false,
          "internalType": "string",
          "name": "name",
          "type": "string"
        },
        {
          "indexed": false,
          "internalType": "string",
          "name": "club",
          "type": "string"
        },
        {
          "indexed": false,
          "internalType": "uint256",
          "name": "position",
          "type": "uint256"
        },
        {
          "indexed": false,
          "internalType": "uint256",
          "name": "price",
          "type": "uint256"
        }
      ],
      "name": "PlayerCreated",
      "type": "event"
    },
    {
      "anonymous": false,
      "inputs": [
        {
          "indexed": true,
          "internalType": "address",
          "name": "player",
          "type": "address"
        },
        {
          "indexed": true,
          "internalType": "uint256",
          "name": "leagueId",
          "type": "uint256"
        },
        {
          "indexed": false,
          "internalType": "uint256",
          "name": "weekNumber",
          "type": "uint256"
        },
        {
          "indexed": false,
          "internalType": "uint256",
          "name": "points",
          "type": "uint256"
        }
      ],
      "name": "PlayerPointsUpdated",
      "type": "event"
    },
    {
      "anonymous": false,
      "inputs": [
        {
          "indexed": true,
          "internalType": "address",
          "name": "owner",
          "type": "address"
        },
        {
          "indexed": false,
          "internalType": "uint256",
          "name": "teamId",
          "type": "uint256"
        },
        {
          "indexed": false,
          "internalType": "uint256[]",
          "name": "playerIds",
          "type": "uint256[]"
        }
      ],
      "name": "TeamCreated",
      "type": "event"
    },
    {
      "anonymous": false,
      "inputs": [
        {
          "indexed": true,
          "internalType": "uint256",
          "name": "teamId",
          "type": "uint256"
        },
        {
          "indexed": true,
          "internalType": "address",
          "name": "owner",
          "type": "address"
        },
        {
          "indexed": true,
          "internalType": "uint256",
          "name": "leagueId",
          "type": "uint256"
        }
      ],
      "name": "TeamRegisteredInLeague",
      "type": "event"
    },
    {
      "anonymous": false,
      "inputs": [
        {
          "indexed": true,
          "internalType": "address",
          "name": "owner",
          "type": "address"
        },
        {
          "indexed": true,
          "internalType": "uint256",
          "name": "teamId",
          "type": "uint256"
        },
        {
          "indexed": true,
          "internalType": "uint256",
          "name": "playerId",
          "type": "uint256"
        },
        {
          "indexed": false,
          "internalType": "uint256",
          "name": "playerIndex",
          "type": "uint256"
        }
      ],
      "name": "TeamUpdated",
      "type": "event"
    },
    {
      "anonymous": false,
      "inputs": [
        {
          "indexed": false,
          "internalType": "bytes32",
          "name": "txHash",
          "type": "bytes32"
        },
        {
          "indexed": true,
          "internalType": "uint256",
          "name": "id",
          "type": "uint256"
        },
        {
          "indexed": true,
          "internalType": "uint256",
          "name": "txType",
          "type": "uint256"
        },
        {
          "indexed": false,
          "internalType": "uint256",
          "name": "value",
          "type": "uint256"
        },
        {
          "indexed": true,
          "internalType": "address",
          "name": "sender",
          "type": "address"
        },
        {
          "indexed": false,
          "internalType": "address",
          "name": "receiver",
          "type": "address"
        },
        {
          "indexed": false,
          "internalType": "uint256",
          "name": "leagueId",
          "type": "uint256"
        }
      ],
      "name": "TransactionCreated",
      "type": "event"
    },
    {
      "anonymous": false,
      "inputs": [
        {
          "indexed": true,
          "internalType": "address",
          "name": "user",
          "type": "address"
        },
        {
          "indexed": false,
          "internalType": "string",
          "name": "name",
          "type": "string"
        }
      ],
      "name": "UserRegistered",
      "type": "event"
    },
    {
      "anonymous": false,
      "inputs": [
        {
          "indexed": true,
          "internalType": "address",
          "name": "receiver",
          "type": "address"
        },
        {
          "indexed": false,
          "internalType": "uint256",
          "name": "amount",
          "type": "uint256"
        }
      ],
      "name": "WithdrawSuccessful",
      "type": "event"
    },
    {
      "inputs": [],
      "name": "REQUIRED_DEFENDERS",
      "outputs": [
        {
          "internalType": "uint256",
          "name": "",
          "type": "uint256"
        }
      ],
      "stateMutability": "view",
      "type": "function"
    },
    {
      "inputs": [],
      "name": "REQUIRED_FORWARDS",
      "outputs": [
        {
          "internalType": "uint256",
          "name": "",
          "type": "uint256"
        }
      ],
      "stateMutability": "view",
      "type": "function"
    },
    {
      "inputs": [],
      "name": "REQUIRED_GOALKEEPERS",
      "outputs": [
        {
          "internalType": "uint256",
          "name": "",
          "type": "uint256"
        }
      ],
      "stateMutability": "view",
      "type": "function"
    },
    {
      "inputs": [],
      "name": "REQUIRED_MIDFIELDERS",
      "outputs": [
        {
          "internalType": "uint256",
          "name": "",
          "type": "uint256"
        }
      ],
      "stateMutability": "view",
      "type": "function"
    },
    {
      "inputs": [],
      "name": "TEAM_SIZE",
      "outputs": [
        {
          "internalType": "uint256",
          "name": "",
          "type": "uint256"
        }
      ],
      "stateMutability": "view",
      "type": "function"
    },
    {
      "inputs": [
        {
          "internalType": "address",
          "name": "_user",
          "type": "address"
        },
        {
          "internalType": "uint256",
          "name": "_teamId",
          "type": "uint256"
        }
      ],
      "name": "addTeamToUser",
      "outputs": [],
      "stateMutability": "nonpayable",
      "type": "function"
    },
    {
      "inputs": [
        {
          "internalType": "enum UserPlayerManager.TransactionType",
          "name": "_type",
          "type": "uint8"
        },
        {
          "internalType": "uint256",
          "name": "_value",
          "type": "uint256"
        },
        {
          "internalType": "address",
          "name": "_sender",
          "type": "address"
        },
        {
          "internalType": "address",
          "name": "_receiver",
          "type": "address"
        },
        {
          "internalType": "uint256",
          "name": "_leagueId",
          "type": "uint256"
        }
      ],
      "name": "addTransaction",
      "outputs": [
        {
          "internalType": "uint256",
          "name": "",
          "type": "uint256"
        }
      ],
      "stateMutability": "nonpayable",
      "type": "function"
    },
    {
      "inputs": [
        {
          "internalType": "address",
          "name": "_user",
          "type": "address"
        },
        {
          "internalType": "uint256",
          "name": "_leagueId",
          "type": "uint256"
        }
      ],
      "name": "addUserToLeague",
      "outputs": [],
      "stateMutability": "nonpayable",
      "type": "function"
    },
    {
      "inputs": [],
      "name": "admin",
      "outputs": [
        {
          "internalType": "address",
          "name": "",
          "type": "address"
        }
      ],
      "stateMutability": "view",
      "type": "function"
    },
    {
      "inputs": [
        {
          "internalType": "address",
          "name": "",
          "type": "address"
        },
        {
          "internalType": "uint256",
          "name": "teamId",
          "type": "uint256"
        }
      ],
      "name": "allTeams",
      "outputs": [
        {
          "internalType": "uint256",
          "name": "id",
          "type": "uint256"
        },
        {
          "internalType": "uint256",
          "name": "leagueId",
          "type": "uint256"
        },
        {
          "internalType": "uint256",
          "name": "points",
          "type": "uint256"
        },
        {
          "internalType": "address",
          "name": "owner",
          "type": "address"
        },
        {
          "internalType": "bool",
          "name": "exists",
          "type": "bool"
        },
        {
          "internalType": "bool",
          "name": "isRegistered",
          "type": "bool"
        }
      ],
      "stateMutability": "view",
      "type": "function"
    },
    {
      "inputs": [
        {
          "internalType": "uint256[]",
          "name": "playerIds",
          "type": "uint256[]"
        }
      ],
      "name": "calculateTeamValue",
      "outputs": [
        {
          "internalType": "uint256",
          "name": "",
          "type": "uint256"
        }
      ],
      "stateMutability": "view",
      "type": "function"
    },
    {
      "inputs": [
        {
          "internalType": "string",
          "name": "_name",
          "type": "string"
        },
        {
          "internalType": "string",
          "name": "_club",
          "type": "string"
        },
        {
          "internalType": "uint256",
          "name": "_position",
          "type": "uint256"
        },
        {
          "internalType": "uint256",
          "name": "_price",
          "type": "uint256"
        }
      ],
      "name": "createPlayer",
      "outputs": [],
      "stateMutability": "nonpayable",
      "type": "function"
    },
    {
      "inputs": [
        {
          "internalType": "uint256[]",
          "name": "_playerIds",
          "type": "uint256[]"
        }
      ],
      "name": "createTeam",
      "outputs": [],
      "stateMutability": "nonpayable",
      "type": "function"
    },
    {
      "inputs": [],
      "name": "deposit",
      "outputs": [],
      "stateMutability": "payable",
      "type": "function"
    },
    {
      "inputs": [
        {
          "internalType": "address",
          "name": "_user",
          "type": "address"
        }
      ],
      "name": "getBalance",
      "outputs": [
        {
          "internalType": "uint256",
          "name": "",
          "type": "uint256"
        }
      ],
      "stateMutability": "view",
      "type": "function"
    },
    {
      "inputs": [
        {
          "internalType": "uint256",
          "name": "_playerId",
          "type": "uint256"
        }
      ],
      "name": "getPlayer",
      "outputs": [
        {
          "components": [
            {
              "internalType": "uint256",
              "name": "playerId",
              "type": "uint256"
            },
            {
              "internalType": "string",
              "name": "name",
              "type": "string"
            },
            {
              "internalType": "string",
              "name": "club",
              "type": "string"
            },
            {
              "internalType": "uint256",
              "name": "position",
              "type": "uint256"
            },
            {
              "internalType": "uint256",
              "name": "price",
              "type": "uint256"
            },
            {
              "internalType": "uint256",
              "name": "points",
              "type": "uint256"
            },
            {
              "internalType": "bool",
              "name": "isActive",
              "type": "bool"
            }
          ],
          "internalType": "struct UserPlayerManager.Player",
          "name": "player",
          "type": "tuple"
        }
      ],
      "stateMutability": "view",
      "type": "function"
    },
    {
      "inputs": [
        {
          "internalType": "uint256",
          "name": "_playerId",
          "type": "uint256"
        },
        {
          "internalType": "uint256",
          "name": "_weekNumber",
          "type": "uint256"
        }
      ],
      "name": "getPlayerWeeklyPoints",
      "outputs": [
        {
          "internalType": "uint256",
          "name": "",
          "type": "uint256"
        }
      ],
      "stateMutability": "view",
      "type": "function"
    },
    {
      "inputs": [
        {
          "internalType": "address",
          "name": "_owner",
          "type": "address"
        },
        {
          "internalType": "uint256",
          "name": "_teamId",
          "type": "uint256"
        }
      ],
      "name": "getTeam",
      "outputs": [
        {
          "components": [
            {
              "internalType": "uint256",
              "name": "id",
              "type": "uint256"
            },
            {
              "internalType": "uint256",
              "name": "leagueId",
              "type": "uint256"
            },
            {
              "internalType": "uint256",
              "name": "points",
              "type": "uint256"
            },
            {
              "internalType": "address",
              "name": "owner",
              "type": "address"
            },
            {
              "internalType": "bool",
              "name": "exists",
              "type": "bool"
            },
            {
              "internalType": "bool",
              "name": "isRegistered",
              "type": "bool"
            },
            {
              "internalType": "uint256[]",
              "name": "playerIds",
              "type": "uint256[]"
            }
          ],
          "internalType": "struct UserPlayerManager.Team",
          "name": "",
          "type": "tuple"
        }
      ],
      "stateMutability": "view",
      "type": "function"
    },
    {
      "inputs": [
        {
          "internalType": "address",
          "name": "_owner",
          "type": "address"
        },
        {
          "internalType": "uint256",
          "name": "_teamId",
          "type": "uint256"
        }
      ],
      "name": "getTeamPoints",
      "outputs": [
        {
          "internalType": "uint256",
          "name": "",
          "type": "uint256"
        }
      ],
      "stateMutability": "view",
      "type": "function"
    },
    {
      "inputs": [
        {
          "internalType": "address",
          "name": "_owner",
          "type": "address"
        }
      ],
      "name": "getUserLeagues",
      "outputs": [
        {
          "internalType": "uint256[]",
          "name": "",
          "type": "uint256[]"
        }
      ],
      "stateMutability": "view",
      "type": "function"
    },
    {
      "inputs": [
        {
          "internalType": "address",
          "name": "_owner",
          "type": "address"
        }
      ],
      "name": "getUserTeams",
      "outputs": [
        {
          "internalType": "uint256[]",
          "name": "",
          "type": "uint256[]"
        }
      ],
      "stateMutability": "view",
      "type": "function"
    },
    {
      "inputs": [
        {
          "internalType": "address",
          "name": "_user",
          "type": "address"
        }
      ],
      "name": "getUserTransactions",
      "outputs": [
        {
          "components": [
            {
              "internalType": "bytes32",
              "name": "txHash",
              "type": "bytes32"
            },
            {
              "internalType": "uint256",
              "name": "id",
              "type": "uint256"
            },
            {
              "internalType": "enum UserPlayerManager.TransactionType",
              "name": "txType",
              "type": "uint8"
            },
            {
              "internalType": "uint256",
              "name": "value",
              "type": "uint256"
            },
            {
              "internalType": "uint256",
              "name": "timestamp",
              "type": "uint256"
            },
            {
              "internalType": "address",
              "name": "sender",
              "type": "address"
            },
            {
              "internalType": "address",
              "name": "receiver",
              "type": "address"
            },
            {
              "internalType": "uint256",
              "name": "leagueId",
              "type": "uint256"
            }
          ],
          "internalType": "struct UserPlayerManager.Transaction[]",
          "name": "",
          "type": "tuple[]"
        }
      ],
      "stateMutability": "view",
      "type": "function"
    },
    {
      "inputs": [],
      "name": "playerCounter",
      "outputs": [
        {
          "internalType": "uint256",
          "name": "",
          "type": "uint256"
        }
      ],
      "stateMutability": "view",
      "type": "function"
    },
    {
      "inputs": [
        {
          "internalType": "string",
          "name": "",
          "type": "string"
        }
      ],
      "name": "playerNameExists",
      "outputs": [
        {
          "internalType": "bool",
          "name": "",
          "type": "bool"
        }
      ],
      "stateMutability": "view",
      "type": "function"
    },
    {
      "inputs": [
        {
          "internalType": "uint256",
          "name": "",
          "type": "uint256"
        }
      ],
      "name": "players",
      "outputs": [
        {
          "internalType": "uint256",
          "name": "playerId",
          "type": "uint256"
        },
        {
          "internalType": "string",
          "name": "name",
          "type": "string"
        },
        {
          "internalType": "string",
          "name": "club",
          "type": "string"
        },
        {
          "internalType": "uint256",
          "name": "position",
          "type": "uint256"
        },
        {
          "internalType": "uint256",
          "name": "price",
          "type": "uint256"
        },
        {
          "internalType": "uint256",
          "name": "points",
          "type": "uint256"
        },
        {
          "internalType": "bool",
          "name": "isActive",
          "type": "bool"
        }
      ],
      "stateMutability": "view",
      "type": "function"
    },
    {
      "inputs": [
        {
          "internalType": "uint256",
          "name": "_teamId",
          "type": "uint256"
        },
        {
          "internalType": "address",
          "name": "_owner",
          "type": "address"
        },
        {
          "internalType": "uint256",
          "name": "_leagueId",
          "type": "uint256"
        }
      ],
      "name": "registerTeamInLeague",
      "outputs": [],
      "stateMutability": "nonpayable",
      "type": "function"
    },
    {
      "inputs": [],
      "name": "teamCounter",
      "outputs": [
        {
          "internalType": "uint256",
          "name": "",
          "type": "uint256"
        }
      ],
      "stateMutability": "view",
      "type": "function"
    },
    {
      "inputs": [],
      "name": "transactionCounter",
      "outputs": [
        {
          "internalType": "uint256",
          "name": "",
          "type": "uint256"
        }
      ],
      "stateMutability": "view",
      "type": "function"
    },
    {
      "inputs": [
        {
          "internalType": "uint256",
          "name": "_playerId",
          "type": "uint256"
        },
        {
          "internalType": "string",
          "name": "_club",
          "type": "string"
        },
        {
          "internalType": "uint256",
          "name": "_position",
          "type": "uint256"
        },
        {
          "internalType": "uint256",
          "name": "_price",
          "type": "uint256"
        },
        {
          "internalType": "bool",
          "name": "_isActive",
          "type": "bool"
        }
      ],
      "name": "updatePlayer",
      "outputs": [],
      "stateMutability": "nonpayable",
      "type": "function"
    },
    {
      "inputs": [
        {
          "internalType": "uint256",
          "name": "_teamId",
          "type": "uint256"
        },
        {
          "internalType": "uint256",
          "name": "_playerId",
          "type": "uint256"
        },
        {
          "internalType": "uint256",
          "name": "_playerIndex",
          "type": "uint256"
        }
      ],
      "name": "updateTeam",
      "outputs": [],
      "stateMutability": "nonpayable",
      "type": "function"
    },
    {
      "inputs": [
        {
          "internalType": "address",
          "name": "_user",
          "type": "address"
        },
        {
          "internalType": "uint256",
          "name": "_amount",
          "type": "uint256"
        }
      ],
      "name": "updateUserBalances",
      "outputs": [],
      "stateMutability": "nonpayable",
      "type": "function"
    },
    {
      "inputs": [
        {
          "internalType": "address",
          "name": "",
          "type": "address"
        }
      ],
      "name": "userBalances",
      "outputs": [
        {
          "internalType": "uint256",
          "name": "",
          "type": "uint256"
        }
      ],
      "stateMutability": "view",
      "type": "function"
    },
    {
      "inputs": [],
      "name": "userCounter",
      "outputs": [
        {
          "internalType": "uint256",
          "name": "",
          "type": "uint256"
        }
      ],
      "stateMutability": "view",
      "type": "function"
    },
    {
      "inputs": [
        {
          "internalType": "address",
          "name": "",
          "type": "address"
        },
        {
          "internalType": "uint256",
          "name": "",
          "type": "uint256"
        }
      ],
      "name": "userLeagues",
      "outputs": [
        {
          "internalType": "uint256",
          "name": "",
          "type": "uint256"
        }
      ],
      "stateMutability": "view",
      "type": "function"
    },
    {
      "inputs": [
        {
          "internalType": "address",
          "name": "",
          "type": "address"
        },
        {
          "internalType": "uint256",
          "name": "",
          "type": "uint256"
        }
      ],
      "name": "userTeams",
      "outputs": [
        {
          "internalType": "uint256",
          "name": "",
          "type": "uint256"
        }
      ],
      "stateMutability": "view",
      "type": "function"
    },
    {
      "inputs": [
        {
          "internalType": "address",
          "name": "",
          "type": "address"
        },
        {
          "internalType": "uint256",
          "name": "",
          "type": "uint256"
        }
      ],
      "name": "userTransactions",
      "outputs": [
        {
          "internalType": "bytes32",
          "name": "txHash",
          "type": "bytes32"
        },
        {
          "internalType": "uint256",
          "name": "id",
          "type": "uint256"
        },
        {
          "internalType": "enum UserPlayerManager.TransactionType",
          "name": "txType",
          "type": "uint8"
        },
        {
          "internalType": "uint256",
          "name": "value",
          "type": "uint256"
        },
        {
          "internalType": "uint256",
          "name": "timestamp",
          "type": "uint256"
        },
        {
          "internalType": "address",
          "name": "sender",
          "type": "address"
        },
        {
          "internalType": "address",
          "name": "receiver",
          "type": "address"
        },
        {
          "internalType": "uint256",
          "name": "leagueId",
          "type": "uint256"
        }
      ],
      "stateMutability": "view",
      "type": "function"
    },
    {
      "inputs": [
        {
          "internalType": "address",
          "name": "",
          "type": "address"
        }
      ],
      "name": "users",
      "outputs": [
        {
          "internalType": "uint256",
          "name": "id",
          "type": "uint256"
        },
        {
          "internalType": "string",
          "name": "name",
          "type": "string"
        },
        {
          "internalType": "bool",
          "name": "isRegistered",
          "type": "bool"
        }
      ],
      "stateMutability": "view",
      "type": "function"
    },
    {
      "inputs": [
        {
          "internalType": "uint256[]",
          "name": "playerIds",
          "type": "uint256[]"
        }
      ],
      "name": "validateTeamPlayers",
      "outputs": [
        {
          "internalType": "bool",
          "name": "",
          "type": "bool"
        }
      ],
      "stateMutability": "view",
      "type": "function"
    },
    {
      "inputs": [
        {
          "internalType": "uint256",
          "name": "",
          "type": "uint256"
        },
        {
          "internalType": "uint256",
          "name": "",
          "type": "uint256"
        }
      ],
      "name": "weeklyPlayerPoints",
      "outputs": [
        {
          "internalType": "uint256",
          "name": "",
          "type": "uint256"
        }
      ],
      "stateMutability": "view",
      "type": "function"
    },
    {
      "inputs": [
        {
          "internalType": "uint256",
          "name": "_amount",
          "type": "uint256"
        }
      ],
      "name": "withdraw",
      "outputs": [],
      "stateMutability": "nonpayable",
      "type": "function"
    }
  ],
  "bytecode": "0x6080604052348015600f57600080fd5b50336000806101000a81548173ffffffffffffffffffffffffffffffffffffffff021916908373ffffffffffffffffffffffffffffffffffffffff160217905550614ea78061005f6000396000f3fe60806040526004361061023b5760003560e01c8063a79eb0d11161012e578063de03fd35116100ab578063f0c37a591161006f578063f0c37a591461092e578063f28d718d14610959578063f71d96cb14610996578063f851a440146109d9578063f8b2cb4f14610a045761023b565b8063de03fd3514610825578063e55ae4e814610862578063e82aa31f1461089f578063ea203646146108c8578063ef925399146108f15761023b565b8063ba09b2c8116100f2578063ba09b2c81461074d578063c40717f614610778578063cff2bfc8146107b5578063d0e30db0146107f2578063dab63d08146107fc5761023b565b8063a79eb0d114610637578063a87430ba14610662578063b52cfad8146106a1578063b6d7a2fc146106de578063b842ec44146107095761023b565b8063427e6886116101bc578063672cb78e11610180578063672cb78e1461052757806380f78b3f146105695780638c91efa7146105a6578063a31ca4b5146105d1578063a4e40e73146105fa5761023b565b8063427e688614610432578063458b859d1461045b57806351ab96f0146104985780635511384e146104d55780635d6585c1146104fe5761023b565b806326224c641161020357806326224c64146103395780632e1a7d4d146103765780632f1641ed1461039f57806334aacb2e146103dc57806335eb2be2146104075761023b565b806307e153ae1461024057806312d836d61461026b57806314e887e8146102a857806323d26f80146102d357806324f38ebc14610310575b600080fd5b34801561024c57600080fd5b50610255610a41565b6040516102629190613021565b60405180910390f35b34801561027757600080fd5b50610292600480360381019061028d919061307c565b610a46565b60405161029f9190613021565b60405180910390f35b3480156102b457600080fd5b506102bd610a6b565b6040516102ca9190613021565b60405180910390f35b3480156102df57600080fd5b506102fa60048036038101906102f5919061311a565b610a71565b6040516103079190613021565b60405180910390f35b34801561031c57600080fd5b506103376004803603810190610332919061315a565b610aa2565b005b34801561034557600080fd5b50610360600480360381019061035b91906131ad565b610d0b565b60405161036d9190613021565b60405180910390f35b34801561038257600080fd5b5061039d600480360381019061039891906131da565b610d23565b005b3480156103ab57600080fd5b506103c660048036038101906103c191906131ad565b611010565b6040516103d391906132c5565b60405180910390f35b3480156103e857600080fd5b506103f16110a7565b6040516103fe9190613021565b60405180910390f35b34801561041357600080fd5b5061041c6110ac565b6040516104299190613021565b60405180910390f35b34801561043e57600080fd5b506104596004803603810190610454919061334c565b6110b2565b005b34801561046757600080fd5b50610482600480360381019061047d919061311a565b611463565b60405161048f9190613021565b60405180910390f35b3480156104a457600080fd5b506104bf60048036038101906104ba9190613418565b6114c1565b6040516104cc9190613021565b60405180910390f35b3480156104e157600080fd5b506104fc60048036038101906104f7919061311a565b611772565b005b34801561050a57600080fd5b506105256004803603810190610520919061311a565b6117cc565b005b34801561053357600080fd5b5061054e6004803603810190610549919061311a565b611836565b604051610560969594939291906134bd565b60405180910390f35b34801561057557600080fd5b50610590600480360381019061058b919061311a565b6118b9565b60405161059d9190613647565b60405180910390f35b3480156105b257600080fd5b506105bb611a70565b6040516105c89190613021565b60405180910390f35b3480156105dd57600080fd5b506105f860048036038101906105f391906137d6565b611a75565b005b34801561060657600080fd5b50610621600480360381019061061c919061311a565b611ba7565b60405161062e9190613021565b60405180910390f35b34801561064357600080fd5b5061064c611bd8565b6040516106599190613021565b60405180910390f35b34801561066e57600080fd5b50610689600480360381019061068491906131ad565b611bdd565b604051610698939291906138ec565b60405180910390f35b3480156106ad57600080fd5b506106c860048036038101906106c391906131ad565b611c9c565b6040516106d591906132c5565b60405180910390f35b3480156106ea57600080fd5b506106f3611d33565b6040516107009190613021565b60405180910390f35b34801561071557600080fd5b50610730600480360381019061072b919061311a565b611d39565b6040516107449897969594939291906139ba565b60405180910390f35b34801561075957600080fd5b50610762611deb565b60405161076f9190613021565b60405180910390f35b34801561078457600080fd5b5061079f600480360381019061079a9190613a8e565b611df0565b6040516107ac9190613adb565b60405180910390f35b3480156107c157600080fd5b506107dc60048036038101906107d79190613a8e565b61214e565b6040516107e99190613021565b60405180910390f35b6107fa612216565b005b34801561080857600080fd5b50610823600480360381019061081e919061311a565b6123d3565b005b34801561083157600080fd5b5061084c6004803603810190610847919061307c565b61243d565b6040516108599190613021565b60405180910390f35b34801561086e57600080fd5b50610889600480360381019061088491906131da565b6124b1565b6040516108969190613be3565b60405180910390f35b3480156108ab57600080fd5b506108c660048036038101906108c19190613a8e565b61268a565b005b3480156108d457600080fd5b506108ef60048036038101906108ea9190613c05565b61294d565b005b3480156108fd57600080fd5b50610918600480360381019061091391906131ad565b612b48565b6040516109259190613dc8565b60405180910390f35b34801561093a57600080fd5b50610943612d00565b6040516109509190613021565b60405180910390f35b34801561096557600080fd5b50610980600480360381019061097b9190613dea565b612d06565b60405161098d9190613adb565b60405180910390f35b3480156109a257600080fd5b506109bd60048036038101906109b891906131da565b612d3c565b6040516109d09796959493929190613e33565b60405180910390f35b3480156109e557600080fd5b506109ee612e9b565b6040516109fb9190613eb0565b60405180910390f35b348015610a1057600080fd5b50610a2b6004803603810190610a2691906131ad565b612ebf565b604051610a389190613021565b60405180910390f35b600381565b600e602052816000526040600020602052806000526040600020600091509150505481565b60045481565b60096020528160005260406000208181548110610a8d57600080fd5b90600052602060002001600091509150505481565b600073ffffffffffffffffffffffffffffffffffffffff163373ffffffffffffffffffffffffffffffffffffffff1603610b11576040517f08c379a0000000000000000000000000000000000000000000000000000000008152600401610b0890613f17565b60405180910390fd5b6000600b60008473ffffffffffffffffffffffffffffffffffffffff1673ffffffffffffffffffffffffffffffffffffffff168152602001908152602001600020600085815260200190815260200160002090508060030160149054906101000a900460ff16610bb6576040517f08c379a0000000000000000000000000000000000000000000000000000000008152600401610bad90613f83565b60405180910390fd5b8060030160159054906101000a900460ff1615610c08576040517f08c379a0000000000000000000000000000000000000000000000000000000008152600401610bff90613fef565b60405180910390fd5b8273ffffffffffffffffffffffffffffffffffffffff168160030160009054906101000a900473ffffffffffffffffffffffffffffffffffffffff1673ffffffffffffffffffffffffffffffffffffffff1614610c9a576040517f08c379a0000000000000000000000000000000000000000000000000000000008152600401610c919061405b565b60405180910390fd5b60018160030160156101000a81548160ff021916908315150217905550818160010181905550818373ffffffffffffffffffffffffffffffffffffffff16857fccab5bd9065bceb938c5912873f5212c913259200c29b1af53486e60b962ae6560405160405180910390a450505050565b60076020528060005260406000206000915090505481565b600260055403610d68576040517f08c379a0000000000000000000000000000000000000000000000000000000008152600401610d5f906140c7565b60405180910390fd5b6002600581905550600073ffffffffffffffffffffffffffffffffffffffff163373ffffffffffffffffffffffffffffffffffffffff1603610ddf576040517f08c379a0000000000000000000000000000000000000000000000000000000008152600401610dd690614133565b60405180910390fd5b60008111610e22576040517f08c379a0000000000000000000000000000000000000000000000000000000008152600401610e199061419f565b60405180910390fd5b80600760003373ffffffffffffffffffffffffffffffffffffffff1673ffffffffffffffffffffffffffffffffffffffff168152602001908152602001600020541015610ea4576040517f08c379a0000000000000000000000000000000000000000000000000000000008152600401610e9b9061420b565b60405180910390fd5b80600760003373ffffffffffffffffffffffffffffffffffffffff1673ffffffffffffffffffffffffffffffffffffffff1681526020019081526020016000206000828254610ef3919061425a565b9250508190555060003373ffffffffffffffffffffffffffffffffffffffff1682604051610f20906142bf565b60006040518083038185875af1925050503d8060008114610f5d576040519150601f19603f3d011682016040523d82523d6000602084013e610f62565b606091505b5050905080610fa6576040517f08c379a0000000000000000000000000000000000000000000000000000000008152600401610f9d90614320565b60405180910390fd5b610fb5600283333360006114c1565b503373ffffffffffffffffffffffffffffffffffffffff167f84e742a3ea03623687a5febaa797636d728230721d4b3d1405d19fbbc16298d983604051610ffc9190613021565b60405180910390a250600160058190555050565b6060600860008373ffffffffffffffffffffffffffffffffffffffff1673ffffffffffffffffffffffffffffffffffffffff16815260200190815260200160002080548060200260200160405190810160405280929190818152602001828054801561109b57602002820191906000526020600020905b815481526020019060010190808311611087575b50505050509050919050565b600f81565b60025481565b60008054906101000a900473ffffffffffffffffffffffffffffffffffffffff1673ffffffffffffffffffffffffffffffffffffffff163373ffffffffffffffffffffffffffffffffffffffff1614611140576040517f08c379a00000000000000000000000000000000000000000000000000000000081526004016111379061438c565b60405180910390fd5b60008686905011611186576040517f08c379a000000000000000000000000000000000000000000000000000000000815260040161117d906143f8565b60405180910390fd5b600084849050116111cc576040517f08c379a00000000000000000000000000000000000000000000000000000000081526004016111c390614464565b60405180910390fd5b6000811161120f576040517f08c379a0000000000000000000000000000000000000000000000000000000008152600401611206906144d0565b60405180910390fd5b600d8686604051611221929190614520565b908152602001604051809103902060009054906101000a900460ff161561127d576040517f08c379a000000000000000000000000000000000000000000000000000000000815260040161127490614585565b60405180910390fd5b600060036000815461128e906145a5565b91905081905590506040518060e0016040528082815260200188888080601f016020809104026020016040519081016040528093929190818152602001838380828437600081840152601f19601f82011690508083019250505050505050815260200186868080601f016020809104026020016040519081016040528093929190818152602001838380828437600081840152601f19601f8201169050808301925050505050505081526020018481526020018381526020016000815260200160011515815250600c600083815260200190815260200160002060008201518160000155602082015181600101908161138791906147f9565b50604082015181600201908161139d91906147f9565b50606082015181600301556080820151816004015560a0820151816005015560c08201518160060160006101000a81548160ff0219169083151502179055509050506001600d88886040516113f3929190614520565b908152602001604051809103902060006101000a81548160ff021916908315150217905550807fde362b42458bb62dc23b2691d14ba17e1eccb25e58e0ea2bf43fd8fa84322f62888888888888604051611452969594939291906148f8565b60405180910390a250505050505050565b6000600b60008473ffffffffffffffffffffffffffffffffffffffff1673ffffffffffffffffffffffffffffffffffffffff168152602001908152602001600020600083815260200190815260200160002060020154905092915050565b6000806004600081546114d3906145a5565b91905081905590506000818860038111156114f1576114f0613943565b5b884289898960405160200161150c97969594939291906149b8565b60405160208183030381529060405280519060200120905060006040518061010001604052808381526020018481526020018a600381111561155157611550613943565b5b81526020018981526020014281526020018873ffffffffffffffffffffffffffffffffffffffff1681526020018773ffffffffffffffffffffffffffffffffffffffff168152602001868152509050600a60008873ffffffffffffffffffffffffffffffffffffffff1673ffffffffffffffffffffffffffffffffffffffff168152602001908152602001600020819080600181540180825580915050600190039060005260206000209060080201600090919091909150600082015181600001556020820151816001015560408201518160020160006101000a81548160ff0219169083600381111561164857611647613943565b5b0217905550606082015181600301556080820151816004015560a08201518160050160006101000a81548173ffffffffffffffffffffffffffffffffffffffff021916908373ffffffffffffffffffffffffffffffffffffffff16021790555060c08201518160060160006101000a81548173ffffffffffffffffffffffffffffffffffffffff021916908373ffffffffffffffffffffffffffffffffffffffff16021790555060e0820151816007015550508673ffffffffffffffffffffffffffffffffffffffff1689600381111561172557611724613943565b5b847f1b770a80b129a91fd953ff66026d1ae3348eee0e55f247d3b0a77b0ec6ebda39858c8b8b60405161175b9493929190614a39565b60405180910390a482935050505095945050505050565b80600760008473ffffffffffffffffffffffffffffffffffffffff1673ffffffffffffffffffffffffffffffffffffffff16815260200190815260200160002060008282546117c19190614a7e565b925050819055505050565b600960008373ffffffffffffffffffffffffffffffffffffffff1673ffffffffffffffffffffffffffffffffffffffff1681526020019081526020016000208190806001815401808255809150506001900390600052602060002001600090919091909150555050565b600b602052816000526040600020602052806000526040600020600091509150508060000154908060010154908060020154908060030160009054906101000a900473ffffffffffffffffffffffffffffffffffffffff16908060030160149054906101000a900460ff16908060030160159054906101000a900460ff16905086565b6118c1612f08565b6000600b60008573ffffffffffffffffffffffffffffffffffffffff1673ffffffffffffffffffffffffffffffffffffffff16815260200190815260200160002060008481526020019081526020016000206040518060e00160405290816000820154815260200160018201548152602001600282015481526020016003820160009054906101000a900473ffffffffffffffffffffffffffffffffffffffff1673ffffffffffffffffffffffffffffffffffffffff1673ffffffffffffffffffffffffffffffffffffffff1681526020016003820160149054906101000a900460ff161515151581526020016003820160159054906101000a900460ff1615151515815260200160048201805480602002602001604051908101604052809291908181526020018280548015611a1757602002820191906000526020600020905b815481526020019060010190808311611a03575b50505050508152505090508060800151611a66576040517f08c379a0000000000000000000000000000000000000000000000000000000008152600401611a5d90614afe565b60405180910390fd5b8091505092915050565b600281565b60008054906101000a900473ffffffffffffffffffffffffffffffffffffffff1673ffffffffffffffffffffffffffffffffffffffff163373ffffffffffffffffffffffffffffffffffffffff1614611b03576040517f08c379a0000000000000000000000000000000000000000000000000000000008152600401611afa9061438c565b60405180910390fd5b600354851115611b48576040517f08c379a0000000000000000000000000000000000000000000000000000000008152600401611b3f90614b6a565b60405180910390fd5b6000600c6000878152602001908152602001600020905084816002019081611b7091906147f9565b50838160030181905550828160040181905550818160060160006101000a81548160ff021916908315150217905550505050505050565b60086020528160005260406000208181548110611bc357600080fd5b90600052602060002001600091509150505481565b600581565b6006602052806000526040600020600091509050806000015490806001018054611c069061461c565b80601f0160208091040260200160405190810160405280929190818152602001828054611c329061461c565b8015611c7f5780601f10611c5457610100808354040283529160200191611c7f565b820191906000526020600020905b815481529060010190602001808311611c6257829003601f168201915b5050505050908060020160009054906101000a900460ff16905083565b6060600960008373ffffffffffffffffffffffffffffffffffffffff1673ffffffffffffffffffffffffffffffffffffffff168152602001908152602001600020805480602002602001604051908101604052809291908181526020018280548015611d2757602002820191906000526020600020905b815481526020019060010190808311611d13575b50505050509050919050565b60035481565b600a6020528160005260406000208181548110611d5557600080fd5b9060005260206000209060080201600091509150508060000154908060010154908060020160009054906101000a900460ff16908060030154908060040154908060050160009054906101000a900473ffffffffffffffffffffffffffffffffffffffff16908060060160009054906101000a900473ffffffffffffffffffffffffffffffffffffffff16908060070154905088565b600581565b6000600f8383905014611e38576040517f08c379a0000000000000000000000000000000000000000000000000000000008152600401611e2f90614bd6565b60405180910390fd5b60008060008060005b8787905081101561211957600354888883818110611e6257611e61614bf6565b5b905060200201351115611eaa576040517f08c379a0000000000000000000000000000000000000000000000000000000008152600401611ea190614b6a565b60405180910390fd5b6000600c60008a8a85818110611ec357611ec2614bf6565b5b9050602002013581526020019081526020016000206040518060e001604052908160008201548152602001600182018054611efd9061461c565b80601f0160208091040260200160405190810160405280929190818152602001828054611f299061461c565b8015611f765780601f10611f4b57610100808354040283529160200191611f76565b820191906000526020600020905b815481529060010190602001808311611f5957829003601f168201915b50505050508152602001600282018054611f8f9061461c565b80601f0160208091040260200160405190810160405280929190818152602001828054611fbb9061461c565b80156120085780601f10611fdd57610100808354040283529160200191612008565b820191906000526020600020905b815481529060010190602001808311611feb57829003601f168201915b505050505081526020016003820154815260200160048201548152602001600582015481526020016006820160009054906101000a900460ff16151515158152505090508060c00151612090576040517f08c379a000000000000000000000000000000000000000000000000000000000815260040161208790614c71565b60405180910390fd5b60018160600151036120af5785806120a7906145a5565b96505061210b565b60028160600151036120ce5784806120c6906145a5565b95505061210a565b60038160600151036120ed5783806120e5906145a5565b945050612109565b6004816060015103612108578280612104906145a5565b9350505b5b5b5b508080600101915050611e41565b5060028414801561212a5750600583145b80156121365750600582145b80156121425750600381145b94505050505092915050565b6000806000905060005b8484905081101561220b5760035485858381811061217957612178614bf6565b5b9050602002013511156121c1576040517f08c379a00000000000000000000000000000000000000000000000000000000081526004016121b890614b6a565b60405180910390fd5b600c60008686848181106121d8576121d7614bf6565b5b90506020020135815260200190815260200160002060040154826121fc9190614a7e565b91508080600101915050612158565b508091505092915050565b60026005540361225b576040517f08c379a0000000000000000000000000000000000000000000000000000000008152600401612252906140c7565b60405180910390fd5b6002600581905550600073ffffffffffffffffffffffffffffffffffffffff163373ffffffffffffffffffffffffffffffffffffffff16036122d2576040517f08c379a00000000000000000000000000000000000000000000000000000000081526004016122c990614133565b60405180910390fd5b60003411612315576040517f08c379a000000000000000000000000000000000000000000000000000000000815260040161230c90614cdd565b60405180910390fd5b34600760003373ffffffffffffffffffffffffffffffffffffffff1673ffffffffffffffffffffffffffffffffffffffff16815260200190815260200160002060008282546123649190614a7e565b9250508190555061237a600134333060006114c1565b503373ffffffffffffffffffffffffffffffffffffffff167fb3ef81558ed1a50072a492984535a009da8b129c749500b387f1e5f4886bdde5346040516123c19190613021565b60405180910390a26001600581905550565b600860008373ffffffffffffffffffffffffffffffffffffffff1673ffffffffffffffffffffffffffffffffffffffff1681526020019081526020016000208190806001815401808255809150506001900390600052602060002001600090919091909150555050565b6000600354831115612484576040517f08c379a000000000000000000000000000000000000000000000000000000000815260040161247b90614b6a565b60405180910390fd5b600e6000848152602001908152602001600020600083815260200190815260200160002054905092915050565b6124b9612f5f565b6003548211156124fe576040517f08c379a00000000000000000000000000000000000000000000000000000000081526004016124f590614b6a565b60405180910390fd5b600c60008381526020019081526020016000206040518060e0016040529081600082015481526020016001820180546125369061461c565b80601f01602080910402602001604051908101604052809291908181526020018280546125629061461c565b80156125af5780601f10612584576101008083540402835291602001916125af565b820191906000526020600020905b81548152906001019060200180831161259257829003601f168201915b505050505081526020016002820180546125c89061461c565b80601f01602080910402602001604051908101604052809291908181526020018280546125f49061461c565b80156126415780601f1061261657610100808354040283529160200191612641565b820191906000526020600020905b81548152906001019060200180831161262457829003601f168201915b505050505081526020016003820154815260200160048201548152602001600582015481526020016006820160009054906101000a900460ff1615151515815250509050919050565b600f82829050146126d0576040517f08c379a00000000000000000000000000000000000000000000000000000000081526004016126c790614bd6565b60405180910390fd5b60006002600081546126e1906145a5565b91905081905590506040518060e0016040528082815260200160008152602001600081526020013373ffffffffffffffffffffffffffffffffffffffff168152602001600115158152602001600015158152602001848480806020026020016040519081016040528093929190818152602001838360200280828437600081840152601f19601f82011690508083019250505050505050815250600b60003373ffffffffffffffffffffffffffffffffffffffff1673ffffffffffffffffffffffffffffffffffffffff168152602001908152602001600020600083815260200190815260200160002060008201518160000155602082015181600101556040820151816002015560608201518160030160006101000a81548173ffffffffffffffffffffffffffffffffffffffff021916908373ffffffffffffffffffffffffffffffffffffffff16021790555060808201518160030160146101000a81548160ff02191690831515021790555060a08201518160030160156101000a81548160ff02191690831515021790555060c082015181600401908051906020019061288c929190612f9e565b50905050600960003373ffffffffffffffffffffffffffffffffffffffff1673ffffffffffffffffffffffffffffffffffffffff1681526020019081526020016000208190806001815401808255809150506001900390600052602060002001600090919091909150553373ffffffffffffffffffffffffffffffffffffffff167fa0fe123019ee531d372c509e3e25503540cef5e04283a77dec746880b414c42a82858560405161294093929190614d67565b60405180910390a2505050565b6000600b60003373ffffffffffffffffffffffffffffffffffffffff1673ffffffffffffffffffffffffffffffffffffffff168152602001908152602001600020600085815260200190815260200160002090508060030160149054906101000a900460ff166129f2576040517f08c379a00000000000000000000000000000000000000000000000000000000081526004016129e990614de5565b60405180910390fd5b3373ffffffffffffffffffffffffffffffffffffffff168160030160009054906101000a900473ffffffffffffffffffffffffffffffffffffffff1673ffffffffffffffffffffffffffffffffffffffff1614612a84576040517f08c379a0000000000000000000000000000000000000000000000000000000008152600401612a7b9061405b565b60405180910390fd5b80600401805490508210612acd576040517f08c379a0000000000000000000000000000000000000000000000000000000008152600401612ac490614e51565b60405180910390fd5b82816004018381548110612ae457612ae3614bf6565b5b906000526020600020018190555082843373ffffffffffffffffffffffffffffffffffffffff167ffc910d8e6fb6d7b683fb01dda095afaf7503f912b9848b7326eb82a586735e7385604051612b3a9190613021565b60405180910390a450505050565b6060600a60008373ffffffffffffffffffffffffffffffffffffffff1673ffffffffffffffffffffffffffffffffffffffff168152602001908152602001600020805480602002602001604051908101604052809291908181526020016000905b82821015612cf557838290600052602060002090600802016040518061010001604052908160008201548152602001600182015481526020016002820160009054906101000a900460ff166003811115612c0657612c05613943565b5b6003811115612c1857612c17613943565b5b815260200160038201548152602001600482015481526020016005820160009054906101000a900473ffffffffffffffffffffffffffffffffffffffff1673ffffffffffffffffffffffffffffffffffffffff1673ffffffffffffffffffffffffffffffffffffffff1681526020016006820160009054906101000a900473ffffffffffffffffffffffffffffffffffffffff1673ffffffffffffffffffffffffffffffffffffffff1673ffffffffffffffffffffffffffffffffffffffff16815260200160078201548152505081526020019060010190612ba9565b505050509050919050565b60015481565b600d818051602081018201805184825260208301602085012081835280955050505050506000915054906101000a900460ff1681565b600c602052806000526040600020600091509050806000015490806001018054612d659061461c565b80601f0160208091040260200160405190810160405280929190818152602001828054612d919061461c565b8015612dde5780601f10612db357610100808354040283529160200191612dde565b820191906000526020600020905b815481529060010190602001808311612dc157829003601f168201915b505050505090806002018054612df39061461c565b80601f0160208091040260200160405190810160405280929190818152602001828054612e1f9061461c565b8015612e6c5780601f10612e4157610100808354040283529160200191612e6c565b820191906000526020600020905b815481529060010190602001808311612e4f57829003601f168201915b5050505050908060030154908060040154908060050154908060060160009054906101000a900460ff16905087565b60008054906101000a900473ffffffffffffffffffffffffffffffffffffffff1681565b6000600760008373ffffffffffffffffffffffffffffffffffffffff1673ffffffffffffffffffffffffffffffffffffffff168152602001908152602001600020549050919050565b6040518060e00160405280600081526020016000815260200160008152602001600073ffffffffffffffffffffffffffffffffffffffff168152602001600015158152602001600015158152602001606081525090565b6040518060e001604052806000815260200160608152602001606081526020016000815260200160008152602001600081526020016000151581525090565b828054828255906000526020600020908101928215612fda579160200282015b82811115612fd9578251825591602001919060010190612fbe565b5b509050612fe79190612feb565b5090565b5b80821115613004576000816000905550600101612fec565b5090565b6000819050919050565b61301b81613008565b82525050565b60006020820190506130366000830184613012565b92915050565b6000604051905090565b600080fd5b600080fd5b61305981613008565b811461306457600080fd5b50565b60008135905061307681613050565b92915050565b6000806040838503121561309357613092613046565b5b60006130a185828601613067565b92505060206130b285828601613067565b9150509250929050565b600073ffffffffffffffffffffffffffffffffffffffff82169050919050565b60006130e7826130bc565b9050919050565b6130f7816130dc565b811461310257600080fd5b50565b600081359050613114816130ee565b92915050565b6000806040838503121561313157613130613046565b5b600061313f85828601613105565b925050602061315085828601613067565b9150509250929050565b60008060006060848603121561317357613172613046565b5b600061318186828701613067565b935050602061319286828701613105565b92505060406131a386828701613067565b9150509250925092565b6000602082840312156131c3576131c2613046565b5b60006131d184828501613105565b91505092915050565b6000602082840312156131f0576131ef613046565b5b60006131fe84828501613067565b91505092915050565b600081519050919050565b600082825260208201905092915050565b6000819050602082019050919050565b61323c81613008565b82525050565b600061324e8383613233565b60208301905092915050565b6000602082019050919050565b600061327282613207565b61327c8185613212565b935061328783613223565b8060005b838110156132b857815161329f8882613242565b97506132aa8361325a565b92505060018101905061328b565b5085935050505092915050565b600060208201905081810360008301526132df8184613267565b905092915050565b600080fd5b600080fd5b600080fd5b60008083601f84011261330c5761330b6132e7565b5b8235905067ffffffffffffffff811115613329576133286132ec565b5b602083019150836001820283011115613345576133446132f1565b5b9250929050565b6000806000806000806080878903121561336957613368613046565b5b600087013567ffffffffffffffff8111156133875761338661304b565b5b61339389828a016132f6565b9650965050602087013567ffffffffffffffff8111156133b6576133b561304b565b5b6133c289828a016132f6565b945094505060406133d589828a01613067565b92505060606133e689828a01613067565b9150509295509295509295565b6004811061340057600080fd5b50565b600081359050613412816133f3565b92915050565b600080600080600060a0868803121561343457613433613046565b5b600061344288828901613403565b955050602061345388828901613067565b945050604061346488828901613105565b935050606061347588828901613105565b925050608061348688828901613067565b9150509295509295909350565b61349c816130dc565b82525050565b60008115159050919050565b6134b7816134a2565b82525050565b600060c0820190506134d26000830189613012565b6134df6020830188613012565b6134ec6040830187613012565b6134f96060830186613493565b61350660808301856134ae565b61351360a08301846134ae565b979650505050505050565b613527816130dc565b82525050565b613536816134a2565b82525050565b600082825260208201905092915050565b600061355882613207565b613562818561353c565b935061356d83613223565b8060005b8381101561359e5781516135858882613242565b97506135908361325a565b925050600181019050613571565b5085935050505092915050565b600060e0830160008301516135c36000860182613233565b5060208301516135d66020860182613233565b5060408301516135e96040860182613233565b5060608301516135fc606086018261351e565b50608083015161360f608086018261352d565b5060a083015161362260a086018261352d565b5060c083015184820360c086015261363a828261354d565b9150508091505092915050565b6000602082019050818103600083015261366181846135ab565b905092915050565b600080fd5b6000601f19601f8301169050919050565b7f4e487b7100000000000000000000000000000000000000000000000000000000600052604160045260246000fd5b6136b78261366e565b810181811067ffffffffffffffff821117156136d6576136d561367f565b5b80604052505050565b60006136e961303c565b90506136f582826136ae565b919050565b600067ffffffffffffffff8211156137155761371461367f565b5b61371e8261366e565b9050602081019050919050565b82818337600083830152505050565b600061374d613748846136fa565b6136df565b90508281526020810184848401111561376957613768613669565b5b61377484828561372b565b509392505050565b600082601f830112613791576137906132e7565b5b81356137a184826020860161373a565b91505092915050565b6137b3816134a2565b81146137be57600080fd5b50565b6000813590506137d0816137aa565b92915050565b600080600080600060a086880312156137f2576137f1613046565b5b600061380088828901613067565b955050602086013567ffffffffffffffff8111156138215761382061304b565b5b61382d8882890161377c565b945050604061383e88828901613067565b935050606061384f88828901613067565b9250506080613860888289016137c1565b9150509295509295909350565b600081519050919050565b600082825260208201905092915050565b60005b838110156138a757808201518184015260208101905061388c565b60008484015250505050565b60006138be8261386d565b6138c88185613878565b93506138d8818560208601613889565b6138e18161366e565b840191505092915050565b60006060820190506139016000830186613012565b818103602083015261391381856138b3565b905061392260408301846134ae565b949350505050565b6000819050919050565b61393d8161392a565b82525050565b7f4e487b7100000000000000000000000000000000000000000000000000000000600052602160045260246000fd5b6004811061398357613982613943565b5b50565b600081905061399482613972565b919050565b60006139a482613986565b9050919050565b6139b481613999565b82525050565b6000610100820190506139d0600083018b613934565b6139dd602083018a613012565b6139ea60408301896139ab565b6139f76060830188613012565b613a046080830187613012565b613a1160a0830186613493565b613a1e60c0830185613493565b613a2b60e0830184613012565b9998505050505050505050565b60008083601f840112613a4e57613a4d6132e7565b5b8235905067ffffffffffffffff811115613a6b57613a6a6132ec565b5b602083019150836020820283011115613a8757613a866132f1565b5b9250929050565b60008060208385031215613aa557613aa4613046565b5b600083013567ffffffffffffffff811115613ac357613ac261304b565b5b613acf85828601613a38565b92509250509250929050565b6000602082019050613af060008301846134ae565b92915050565b600082825260208201905092915050565b6000613b128261386d565b613b1c8185613af6565b9350613b2c818560208601613889565b613b358161366e565b840191505092915050565b600060e083016000830151613b586000860182613233565b5060208301518482036020860152613b708282613b07565b91505060408301518482036040860152613b8a8282613b07565b9150506060830151613b9f6060860182613233565b506080830151613bb26080860182613233565b5060a0830151613bc560a0860182613233565b5060c0830151613bd860c086018261352d565b508091505092915050565b60006020820190508181036000830152613bfd8184613b40565b905092915050565b600080600060608486031215613c1e57613c1d613046565b5b6000613c2c86828701613067565b9350506020613c3d86828701613067565b9250506040613c4e86828701613067565b9150509250925092565b600081519050919050565b600082825260208201905092915050565b6000819050602082019050919050565b613c8d8161392a565b82525050565b613c9c81613999565b82525050565b61010082016000820151613cb96000850182613c84565b506020820151613ccc6020850182613233565b506040820151613cdf6040850182613c93565b506060820151613cf26060850182613233565b506080820151613d056080850182613233565b5060a0820151613d1860a085018261351e565b5060c0820151613d2b60c085018261351e565b5060e0820151613d3e60e0850182613233565b50505050565b6000613d508383613ca2565b6101008301905092915050565b6000602082019050919050565b6000613d7582613c58565b613d7f8185613c63565b9350613d8a83613c74565b8060005b83811015613dbb578151613da28882613d44565b9750613dad83613d5d565b925050600181019050613d8e565b5085935050505092915050565b60006020820190508181036000830152613de28184613d6a565b905092915050565b600060208284031215613e0057613dff613046565b5b600082013567ffffffffffffffff811115613e1e57613e1d61304b565b5b613e2a8482850161377c565b91505092915050565b600060e082019050613e48600083018a613012565b8181036020830152613e5a81896138b3565b90508181036040830152613e6e81886138b3565b9050613e7d6060830187613012565b613e8a6080830186613012565b613e9760a0830185613012565b613ea460c08301846134ae565b98975050505050505050565b6000602082019050613ec56000830184613493565b92915050565b7f5a65726f20416464726573732064657465637465640000000000000000000000600082015250565b6000613f01601583613878565b9150613f0c82613ecb565b602082019050919050565b60006020820190508181036000830152613f3081613ef4565b9050919050565b7f5465616d20646f6573206e6f7420657869737400000000000000000000000000600082015250565b6000613f6d601383613878565b9150613f7882613f37565b602082019050919050565b60006020820190508181036000830152613f9c81613f60565b9050919050565b7f5465616d20616c72656164792072656769737465726564000000000000000000600082015250565b6000613fd9601783613878565b9150613fe482613fa3565b602082019050919050565b6000602082019050818103600083015261400881613fcc565b9050919050565b7f4e6f74207465616d206f776e6572000000000000000000000000000000000000600082015250565b6000614045600e83613878565b91506140508261400f565b602082019050919050565b6000602082019050818103600083015261407481614038565b9050919050565b7f5265656e7472616e637947756172643a205265656e7472616e742063616c6c00600082015250565b60006140b1601f83613878565b91506140bc8261407b565b602082019050919050565b600060208201905081810360008301526140e0816140a4565b9050919050565b7f5a65726f20616464726573732064657465637465642100000000000000000000600082015250565b600061411d601683613878565b9150614128826140e7565b602082019050919050565b6000602082019050818103600083015261414c81614110565b9050919050565b7f43616e6e6f74207769746864726177207a65726f210000000000000000000000600082015250565b6000614189601583613878565b915061419482614153565b602082019050919050565b600060208201905081810360008301526141b88161417c565b9050919050565b7f496e73756666696369656e742066756e64732100000000000000000000000000600082015250565b60006141f5601383613878565b9150614200826141bf565b602082019050919050565b60006020820190508181036000830152614224816141e8565b9050919050565b7f4e487b7100000000000000000000000000000000000000000000000000000000600052601160045260246000fd5b600061426582613008565b915061427083613008565b92508282039050818111156142885761428761422b565b5b92915050565b600081905092915050565b50565b60006142a960008361428e565b91506142b482614299565b600082019050919050565b60006142ca8261429c565b9150819050919050565b7f4574686572207472616e73666572206661696c65642100000000000000000000600082015250565b600061430a601683613878565b9150614315826142d4565b602082019050919050565b60006020820190508181036000830152614339816142fd565b9050919050565b7f4f6e6c792061646d696e00000000000000000000000000000000000000000000600082015250565b6000614376600a83613878565b915061438182614340565b602082019050919050565b600060208201905081810360008301526143a581614369565b9050919050565b7f456d707479206e616d6500000000000000000000000000000000000000000000600082015250565b60006143e2600a83613878565b91506143ed826143ac565b602082019050919050565b60006020820190508181036000830152614411816143d5565b9050919050565b7f456d70747920636c756200000000000000000000000000000000000000000000600082015250565b600061444e600a83613878565b915061445982614418565b602082019050919050565b6000602082019050818103600083015261447d81614441565b9050919050565b7f496e76616c696420707269636500000000000000000000000000000000000000600082015250565b60006144ba600d83613878565b91506144c582614484565b602082019050919050565b600060208201905081810360008301526144e9816144ad565b9050919050565b600081905092915050565b600061450783856144f0565b935061451483858461372b565b82840190509392505050565b600061452d8284866144fb565b91508190509392505050565b7f506c617965722065786973747300000000000000000000000000000000000000600082015250565b600061456f600d83613878565b915061457a82614539565b602082019050919050565b6000602082019050818103600083015261459e81614562565b9050919050565b60006145b082613008565b91507fffffffffffffffffffffffffffffffffffffffffffffffffffffffffffffffff82036145e2576145e161422b565b5b600182019050919050565b7f4e487b7100000000000000000000000000000000000000000000000000000000600052602260045260246000fd5b6000600282049050600182168061463457607f821691505b602082108103614647576146466145ed565b5b50919050565b60008190508160005260206000209050919050565b60006020601f8301049050919050565b600082821b905092915050565b6000600883026146af7fffffffffffffffffffffffffffffffffffffffffffffffffffffffffffffffff82614672565b6146b98683614672565b95508019841693508086168417925050509392505050565b6000819050919050565b60006146f66146f16146ec84613008565b6146d1565b613008565b9050919050565b6000819050919050565b614710836146db565b61472461471c826146fd565b84845461467f565b825550505050565b600090565b61473961472c565b614744818484614707565b505050565b5b818110156147685761475d600082614731565b60018101905061474a565b5050565b601f8211156147ad5761477e8161464d565b61478784614662565b81016020851015614796578190505b6147aa6147a285614662565b830182614749565b50505b505050565b600082821c905092915050565b60006147d0600019846008026147b2565b1980831691505092915050565b60006147e983836147bf565b9150826002028217905092915050565b6148028261386d565b67ffffffffffffffff81111561481b5761481a61367f565b5b614825825461461c565b61483082828561476c565b600060209050601f8311600181146148635760008415614851578287015190505b61485b85826147dd565b8655506148c3565b601f1984166148718661464d565b60005b8281101561489957848901518255600182019150602085019450602081019050614874565b868310156148b657848901516148b2601f8916826147bf565b8355505b6001600288020188555050505b505050505050565b60006148d78385613878565b93506148e483858461372b565b6148ed8361366e565b840190509392505050565b6000608082019050818103600083015261491381888a6148cb565b905081810360208301526149288186886148cb565b90506149376040830185613012565b6149446060830184613012565b979650505050505050565b6000819050919050565b61496a61496582613008565b61494f565b82525050565b60008160601b9050919050565b600061498882614970565b9050919050565b600061499a8261497d565b9050919050565b6149b26149ad826130dc565b61498f565b82525050565b60006149c4828a614959565b6020820191506149d48289614959565b6020820191506149e48288614959565b6020820191506149f48287614959565b602082019150614a0482866149a1565b601482019150614a1482856149a1565b601482019150614a248284614959565b60208201915081905098975050505050505050565b6000608082019050614a4e6000830187613934565b614a5b6020830186613012565b614a686040830185613493565b614a756060830184613012565b95945050505050565b6000614a8982613008565b9150614a9483613008565b9250828201905080821115614aac57614aab61422b565b5b92915050565b7f5465616d206e6f7420666f756e64000000000000000000000000000000000000600082015250565b6000614ae8600e83613878565b9150614af382614ab2565b602082019050919050565b60006020820190508181036000830152614b1781614adb565b9050919050565b7f496e76616c696420706c61796572204944000000000000000000000000000000600082015250565b6000614b54601183613878565b9150614b5f82614b1e565b602082019050919050565b60006020820190508181036000830152614b8381614b47565b9050919050565b7f496e76616c6964207465616d2073697a65000000000000000000000000000000600082015250565b6000614bc0601183613878565b9150614bcb82614b8a565b602082019050919050565b60006020820190508181036000830152614bef81614bb3565b9050919050565b7f4e487b7100000000000000000000000000000000000000000000000000000000600052603260045260246000fd5b7f496e61637469766520706c617965720000000000000000000000000000000000600082015250565b6000614c5b600f83613878565b9150614c6682614c25565b602082019050919050565b60006020820190508181036000830152614c8a81614c4e565b9050919050565b7f43616e6e6f74206465706f736974207a65726f21000000000000000000000000600082015250565b6000614cc7601483613878565b9150614cd282614c91565b602082019050919050565b60006020820190508181036000830152614cf681614cba565b9050919050565b600080fd5b82818337505050565b6000614d178385613212565b93507f07ffffffffffffffffffffffffffffffffffffffffffffffffffffffffffffff831115614d4a57614d49614cfd565b5b602083029250614d5b838584614d02565b82840190509392505050565b6000604082019050614d7c6000830186613012565b8181036020830152614d8f818486614d0b565b9050949350505050565b7f4e6f207465616d20666f756e6421000000000000000000000000000000000000600082015250565b6000614dcf600e83613878565b9150614dda82614d99565b602082019050919050565b60006020820190508181036000830152614dfe81614dc2565b9050919050565b7f496e76616c696420706c6179657220696e646578000000000000000000000000600082015250565b6000614e3b601483613878565b9150614e4682614e05565b602082019050919050565b60006020820190508181036000830152614e6a81614e2e565b905091905056fea26469706673582212203bbd142ae5eb5c67f018fdb459c359f644395556ea8bea4dc59c63dda605227764736f6c634300081b0033",
  "linkReferences": {},
  "deployedLinkReferences": {}
}