{
  "_format": "hh-sol-artifact-1",
  "contractName": "LeagueFactory",
  "sourceName": "contracts/LeagueFactory.sol",
  "abi": [
    {
      "inputs": [
        {
          "internalType": "address",
          "name": "_userPlayerManager",
          "type": "address"
        }
      ],
      "stateMutability": "nonpayable",
      "type": "constructor"
    },
    {
      "anonymous": false,
      "inputs": [
        {
          "indexed": true,
          "internalType": "uint256",
          "name": "leagueId",
          "type": "uint256"
        },
        {
          "indexed": false,
          "internalType": "address",
          "name": "leagueAddress",
          "type": "address"
        },
        {
          "indexed": false,
          "internalType": "string",
          "name": "name",
          "type": "string"
        },
        {
          "indexed": false,
          "internalType": "address",
          "name": "owner",
          "type": "address"
        }
      ],
      "name": "LeagueCreated",
      "type": "event"
    },
    {
      "inputs": [],
      "name": "admin",
      "outputs": [
        {
          "internalType": "address",
          "name": "",
          "type": "address"
        }
      ],
      "stateMutability": "view",
      "type": "function"
    },
    {
      "inputs": [
        {
          "internalType": "string",
          "name": "name",
          "type": "string"
        },
        {
          "internalType": "uint256",
          "name": "entryFee",
          "type": "uint256"
        },
        {
          "internalType": "uint256",
          "name": "startTime",
          "type": "uint256"
        },
        {
          "internalType": "uint256",
          "name": "endTime",
          "type": "uint256"
        }
      ],
      "name": "createLeague",
      "outputs": [
        {
          "internalType": "address",
          "name": "",
          "type": "address"
        },
        {
          "internalType": "uint256",
          "name": "",
          "type": "uint256"
        }
      ],
      "stateMutability": "payable",
      "type": "function"
    },
    {
      "inputs": [
        {
          "internalType": "uint256",
          "name": "",
          "type": "uint256"
        }
      ],
      "name": "leagues",
      "outputs": [
        {
          "internalType": "address",
          "name": "",
          "type": "address"
        }
      ],
      "stateMutability": "view",
      "type": "function"
    },
    {
      "inputs": [],
      "name": "userPlayerManager",
      "outputs": [
        {
          "internalType": "contract UserPlayerManager",
          "name": "",
          "type": "address"
        }
      ],
      "stateMutability": "view",
      "type": "function"
    }
  ],
  "bytecode": "0x608060405234801561001057600080fd5b50604051613fe8380380613fe88339818101604052810190610032919061018b565b600073ffffffffffffffffffffffffffffffffffffffff168173ffffffffffffffffffffffffffffffffffffffff16036100a1576040517f08c379a000000000000000000000000000000000000000000000000000000000815260040161009890610215565b60405180910390fd5b806000806101000a81548173ffffffffffffffffffffffffffffffffffffffff021916908373ffffffffffffffffffffffffffffffffffffffff16021790555033600160006101000a81548173ffffffffffffffffffffffffffffffffffffffff021916908373ffffffffffffffffffffffffffffffffffffffff16021790555050610235565b600080fd5b600073ffffffffffffffffffffffffffffffffffffffff82169050919050565b60006101588261012d565b9050919050565b6101688161014d565b811461017357600080fd5b50565b6000815190506101858161015f565b92915050565b6000602082840312156101a1576101a0610128565b5b60006101af84828501610176565b91505092915050565b600082825260208201905092915050565b7f496e76616c69642055736572506c617965724d616e6167657200000000000000600082015250565b60006101ff6019836101b8565b915061020a826101c9565b602082019050919050565b6000602082019050818103600083015261022e816101f2565b9050919050565b613da4806102446000396000f3fe60806040526004361061003f5760003560e01c806324b305f2146100445780638a1af81514610075578063c648fefe146100a0578063f851a440146100dd575b600080fd5b61005e600480360381019061005991906105de565b610108565b60405161006c9291906106b1565b60405180910390f35b34801561008157600080fd5b5061008a6103c4565b6040516100979190610739565b60405180910390f35b3480156100ac57600080fd5b506100c760048036038101906100c29190610754565b6103e8565b6040516100d49190610781565b60405180910390f35b3480156100e957600080fd5b506100f261041b565b6040516100ff9190610781565b60405180910390f35b600080600086511161014f576040517f08c379a0000000000000000000000000000000000000000000000000000000008152600401610146906107f9565b60405180910390fd5b428411610191576040517f08c379a000000000000000000000000000000000000000000000000000000000815260040161018890610865565b60405180910390fd5b8383116101d3576040517f08c379a00000000000000000000000000000000000000000000000000000000081526004016101ca906108d1565b60405180910390fd5b843414610215576040517f08c379a000000000000000000000000000000000000000000000000000000000815260040161020c9061093d565b60405180910390fd5b60006002600081546102269061098c565b9190508190559050600081883389898960008054906101000a900473ffffffffffffffffffffffffffffffffffffffff1660405161026390610441565b6102739796959493929190610a42565b604051809103906000f08015801561028f573d6000803e3d6000fd5b5090506000819050806003600085815260200190815260200160002060006101000a81548173ffffffffffffffffffffffffffffffffffffffff021916908373ffffffffffffffffffffffffffffffffffffffff16021790555060008054906101000a900473ffffffffffffffffffffffffffffffffffffffff1673ffffffffffffffffffffffffffffffffffffffff1663e4fc57dd33856040518363ffffffff1660e01b81526004016103449291906106b1565b600060405180830381600087803b15801561035e57600080fd5b505af1158015610372573d6000803e3d6000fd5b50505050827f34ef2f18b56ed366b97f4893496a42bda57019393602c6d97b9a44545aa17243828b336040516103aa93929190610ab8565b60405180910390a280839450945050505094509492505050565b60008054906101000a900473ffffffffffffffffffffffffffffffffffffffff1681565b60036020528060005260406000206000915054906101000a900473ffffffffffffffffffffffffffffffffffffffff1681565b600160009054906101000a900473ffffffffffffffffffffffffffffffffffffffff1681565b61327880610af783390190565b6000604051905090565b600080fd5b600080fd5b600080fd5b600080fd5b6000601f19601f8301169050919050565b7f4e487b7100000000000000000000000000000000000000000000000000000000600052604160045260246000fd5b6104b58261046c565b810181811067ffffffffffffffff821117156104d4576104d361047d565b5b80604052505050565b60006104e761044e565b90506104f382826104ac565b919050565b600067ffffffffffffffff8211156105135761051261047d565b5b61051c8261046c565b9050602081019050919050565b82818337600083830152505050565b600061054b610546846104f8565b6104dd565b90508281526020810184848401111561056757610566610467565b5b610572848285610529565b509392505050565b600082601f83011261058f5761058e610462565b5b813561059f848260208601610538565b91505092915050565b6000819050919050565b6105bb816105a8565b81146105c657600080fd5b50565b6000813590506105d8816105b2565b92915050565b600080600080608085870312156105f8576105f7610458565b5b600085013567ffffffffffffffff8111156106165761061561045d565b5b6106228782880161057a565b9450506020610633878288016105c9565b9350506040610644878288016105c9565b9250506060610655878288016105c9565b91505092959194509250565b600073ffffffffffffffffffffffffffffffffffffffff82169050919050565b600061068c82610661565b9050919050565b61069c81610681565b82525050565b6106ab816105a8565b82525050565b60006040820190506106c66000830185610693565b6106d360208301846106a2565b9392505050565b6000819050919050565b60006106ff6106fa6106f584610661565b6106da565b610661565b9050919050565b6000610711826106e4565b9050919050565b600061072382610706565b9050919050565b61073381610718565b82525050565b600060208201905061074e600083018461072a565b92915050565b60006020828403121561076a57610769610458565b5b6000610778848285016105c9565b91505092915050565b60006020820190506107966000830184610693565b92915050565b600082825260208201905092915050565b7f456d707479206e616d6500000000000000000000000000000000000000000000600082015250565b60006107e3600a8361079c565b91506107ee826107ad565b602082019050919050565b60006020820190508181036000830152610812816107d6565b9050919050565b7f53746172742074696d65206d7573742062652066757475726500000000000000600082015250565b600061084f60198361079c565b915061085a82610819565b602082019050919050565b6000602082019050818103600083015261087e81610842565b9050919050565b7f456e642074696d65206d75737420626520616674657220737461727400000000600082015250565b60006108bb601c8361079c565b91506108c682610885565b602082019050919050565b600060208201905081810360008301526108ea816108ae565b9050919050565b7f496e636f727265637420656e7472792066656500000000000000000000000000600082015250565b600061092760138361079c565b9150610932826108f1565b602082019050919050565b600060208201905081810360008301526109568161091a565b9050919050565b7f4e487b7100000000000000000000000000000000000000000000000000000000600052601160045260246000fd5b6000610997826105a8565b91507fffffffffffffffffffffffffffffffffffffffffffffffffffffffffffffffff82036109c9576109c861095d565b5b600182019050919050565b600081519050919050565b60005b838110156109fd5780820151818401526020810190506109e2565b60008484015250505050565b6000610a14826109d4565b610a1e818561079c565b9350610a2e8185602086016109df565b610a378161046c565b840191505092915050565b600060e082019050610a57600083018a6106a2565b8181036020830152610a698189610a09565b9050610a786040830188610693565b610a8560608301876106a2565b610a9260808301866106a2565b610a9f60a08301856106a2565b610aac60c0830184610693565b98975050505050505050565b6000606082019050610acd6000830186610693565b8181036020830152610adf8185610a09565b9050610aee6040830184610693565b94935050505056fe60c060405234801561001057600080fd5b506040516132783803806132788339818101604052810190610032919061034c565b8660038190555085600490816100489190610621565b5084600560006101000a81548173ffffffffffffffffffffffffffffffffffffffff021916908373ffffffffffffffffffffffffffffffffffffffff16021790555083600681905550826007819055508160088190555080600160006101000a81548173ffffffffffffffffffffffffffffffffffffffff021916908373ffffffffffffffffffffffffffffffffffffffff1602179055503373ffffffffffffffffffffffffffffffffffffffff1660a08173ffffffffffffffffffffffffffffffffffffffff16815250506001600b60006101000a81548160ff0219169083151502179055506001600081905550505050505050506106f3565b6000604051905090565b600080fd5b600080fd5b6000819050919050565b61016a81610157565b811461017557600080fd5b50565b60008151905061018781610161565b92915050565b600080fd5b600080fd5b6000601f19601f8301169050919050565b7f4e487b7100000000000000000000000000000000000000000000000000000000600052604160045260246000fd5b6101e082610197565b810181811067ffffffffffffffff821117156101ff576101fe6101a8565b5b80604052505050565b6000610212610143565b905061021e82826101d7565b919050565b600067ffffffffffffffff82111561023e5761023d6101a8565b5b61024782610197565b9050602081019050919050565b60005b83811015610272578082015181840152602081019050610257565b60008484015250505050565b600061029161028c84610223565b610208565b9050828152602081018484840111156102ad576102ac610192565b5b6102b8848285610254565b509392505050565b600082601f8301126102d5576102d461018d565b5b81516102e584826020860161027e565b91505092915050565b600073ffffffffffffffffffffffffffffffffffffffff82169050919050565b6000610319826102ee565b9050919050565b6103298161030e565b811461033457600080fd5b50565b60008151905061034681610320565b92915050565b600080600080600080600060e0888a03121561036b5761036a61014d565b5b60006103798a828b01610178565b975050602088015167ffffffffffffffff81111561039a57610399610152565b5b6103a68a828b016102c0565b96505060406103b78a828b01610337565b95505060606103c88a828b01610178565b94505060806103d98a828b01610178565b93505060a06103ea8a828b01610178565b92505060c06103fb8a828b01610337565b91505092959891949750929550565b600081519050919050565b7f4e487b7100000000000000000000000000000000000000000000000000000000600052602260045260246000fd5b6000600282049050600182168061045c57607f821691505b60208210810361046f5761046e610415565b5b50919050565b60008190508160005260206000209050919050565b60006020601f8301049050919050565b600082821b905092915050565b6000600883026104d77fffffffffffffffffffffffffffffffffffffffffffffffffffffffffffffffff8261049a565b6104e1868361049a565b95508019841693508086168417925050509392505050565b6000819050919050565b600061051e61051961051484610157565b6104f9565b610157565b9050919050565b6000819050919050565b61053883610503565b61054c61054482610525565b8484546104a7565b825550505050565b600090565b610561610554565b61056c81848461052f565b505050565b5b8181101561059057610585600082610559565b600181019050610572565b5050565b601f8211156105d5576105a681610475565b6105af8461048a565b810160208510156105be578190505b6105d26105ca8561048a565b830182610571565b50505b505050565b600082821c905092915050565b60006105f8600019846008026105da565b1980831691505092915050565b600061061183836105e7565b9150826002028217905092915050565b61062a8261040a565b67ffffffffffffffff811115610643576106426101a8565b5b61064d8254610444565b610658828285610594565b600060209050601f83116001811461068b5760008415610679578287015190505b6106838582610605565b8655506106eb565b601f19841661069986610475565b60005b828110156106c15784890151825560018201915060208501945060208101905061069c565b868310156106de57848901516106da601f8916826105e7565b8355505b6001600288020188555050505b505050505050565b60805160a051612b60610718600039600061193b015260006114860152612b606000f3fe6080604052600436106101815760003560e01c80633ed2b77a116100d15780638da5cb5b1161008a578063dc185e3511610064578063dc185e3514610592578063e82aa31f146105bd578063f013d4f1146105e6578063f93d81241461061157610181565b80638da5cb5b146105135780639a7c1fd11461053e578063ccdcef1b1461057b57610181565b80633ed2b77a146103ed578063464800af1461042a5780634e39c22c1461045557806372d662571461049257806378e97925146104bd5780638a1af815146104e857610181565b80630a3f5a421161013e578063287e4a5f11610118578063287e4a5f1461031d5780633197cbb61461035a57806335c1d34914610385578063398ab9a7146103c257610181565b80630a3f5a421461029857806323d26f80146102c15780632709e8df1461030157610181565b806302fb0c5e14610186578063061a2f50146101b157806306575c89146101ee57806306fdde0314610219578063072ea61c1461024457806309648b261461026f575b600080fd5b34801561019257600080fd5b5061019b61063a565b6040516101a89190611d8a565b60405180910390f35b3480156101bd57600080fd5b506101d860048036038101906101d39190611e43565b61064d565b6040516101e59190611e92565b60405180910390f35b3480156101fa57600080fd5b50610203610880565b6040516102109190611e92565b60405180910390f35b34801561022557600080fd5b5061022e610886565b60405161023b9190611f3d565b60405180910390f35b34801561025057600080fd5b50610259610914565b6040516102669190611e92565b60405180910390f35b34801561027b57600080fd5b5061029660048036038101906102919190611f5f565b61091a565b005b3480156102a457600080fd5b506102bf60048036038101906102ba9190611f5f565b610b22565b005b3480156102cd57600080fd5b506102e860048036038101906102e39190611e43565b610dcc565b6040516102f89493929190611f9b565b60405180910390f35b61031b60048036038101906103169190611f5f565b610e36565b005b34801561032957600080fd5b50610344600480360381019061033f9190611f5f565b611268565b6040516103519190611e92565b60405180910390f35b34801561036657600080fd5b5061036f611280565b60405161037c9190611e92565b60405180910390f35b34801561039157600080fd5b506103ac60048036038101906103a79190611f5f565b611286565b6040516103b99190611fe0565b60405180910390f35b3480156103ce57600080fd5b506103d76112c5565b6040516103e49190611e92565b60405180910390f35b3480156103f957600080fd5b50610414600480360381019061040f9190611f5f565b6112cb565b6040516104219190611e92565b60405180910390f35b34801561043657600080fd5b5061043f6112ef565b60405161044c9190611e92565b60405180910390f35b34801561046157600080fd5b5061047c60048036038101906104779190611f5f565b6112f5565b6040516104899190611fe0565b60405180910390f35b34801561049e57600080fd5b506104a7611328565b6040516104b49190611e92565b60405180910390f35b3480156104c957600080fd5b506104d261132f565b6040516104df9190611e92565b60405180910390f35b3480156104f457600080fd5b506104fd611335565b60405161050a919061205a565b60405180910390f35b34801561051f57600080fd5b5061052861135b565b6040516105359190611fe0565b60405180910390f35b34801561054a57600080fd5b5061056560048036038101906105609190611f5f565b611381565b6040516105729190611d8a565b60405180910390f35b34801561058757600080fd5b506105906113a1565b005b34801561059e57600080fd5b506105a7611484565b6040516105b49190611e92565b60405180910390f35b3480156105c957600080fd5b506105e460048036038101906105df91906120da565b6114a8565b005b3480156105f257600080fd5b506105fb611939565b6040516106089190611fe0565b60405180910390f35b34801561061d57600080fd5b5061063860048036038101906106339190611f5f565b61195d565b005b600b60009054906101000a900460ff1681565b6000600f60008473ffffffffffffffffffffffffffffffffffffffff1673ffffffffffffffffffffffffffffffffffffffff168152602001908152602001600020600083815260200190815260200160002060020160149054906101000a900460ff166106ef576040517f08c379a00000000000000000000000000000000000000000000000000000000081526004016106e690612173565b60405180910390fd5b600080600f60008673ffffffffffffffffffffffffffffffffffffffff1673ffffffffffffffffffffffffffffffffffffffff168152602001908152602001600020600085815260200190815260200160002060030180548060200260200160405190810160405280929190818152602001828054801561078f57602002820191906000526020600020905b81548152602001906001019080831161077b575b5050505050905060005b815181101561087457600160009054906101000a900473ffffffffffffffffffffffffffffffffffffffff1673ffffffffffffffffffffffffffffffffffffffff1663de03fd358383815181106107f3576107f2612193565b5b6020026020010151876040518363ffffffff1660e01b81526004016108199291906121c2565b602060405180830381865afa158015610836573d6000803e3d6000fd5b505050506040513d601f19601f8201168201806040525081019061085a9190612200565b83610865919061225c565b92508080600101915050610799565b50819250505092915050565b60095481565b60048054610893906122bf565b80601f01602080910402602001604051908101604052809291908181526020018280546108bf906122bf565b801561090c5780601f106108e15761010080835404028352916020019161090c565b820191906000526020600020905b8154815290600101906020018083116108ef57829003601f168201915b505050505081565b60065481565b600560009054906101000a900473ffffffffffffffffffffffffffffffffffffffff1673ffffffffffffffffffffffffffffffffffffffff163373ffffffffffffffffffffffffffffffffffffffff16146109aa576040517f08c379a00000000000000000000000000000000000000000000000000000000081526004016109a19061233c565b60405180910390fd5b62093a80816109b9919061235c565b6007546109c6919061225c565b421015610a08576040517f08c379a00000000000000000000000000000000000000000000000000000000081526004016109ff906123ea565b60405180910390fd5b60005b600c80549050811015610b1e576000600c8281548110610a2e57610a2d612193565b5b9060005260206000200160009054906101000a900473ffffffffffffffffffffffffffffffffffffffff1690506000610a67828561064d565b905080600f60008473ffffffffffffffffffffffffffffffffffffffff1673ffffffffffffffffffffffffffffffffffffffff1681526020019081526020016000206000868152602001908152602001600020600101819055508173ffffffffffffffffffffffffffffffffffffffff167fa05f39e6d8d4e060324edb900f0f5909de621fd93f19ccf65ba74e5965c98c3682604051610b079190611e92565b60405180910390a250508080600101915050610a0b565b5050565b600260005403610b67576040517f08c379a0000000000000000000000000000000000000000000000000000000008152600401610b5e90612456565b60405180910390fd5b60026000819055506011600082815260200190815260200160002060009054906101000a900460ff16610bcf576040517f08c379a0000000000000000000000000000000000000000000000000000000008152600401610bc6906124c2565b60405180910390fd5b3373ffffffffffffffffffffffffffffffffffffffff166010600083815260200190815260200160002060009054906101000a900473ffffffffffffffffffffffffffffffffffffffff1673ffffffffffffffffffffffffffffffffffffffff1614610c70576040517f08c379a0000000000000000000000000000000000000000000000000000000008152600401610c679061252e565b60405180910390fd5b6000601260008381526020019081526020016000205411610cc6576040517f08c379a0000000000000000000000000000000000000000000000000000000008152600401610cbd9061259a565b60405180910390fd5b60006012600083815260200190815260200160002054905060006012600084815260200190815260200160002081905550600160009054906101000a900473ffffffffffffffffffffffffffffffffffffffff1673ffffffffffffffffffffffffffffffffffffffff16635511384e33836040518363ffffffff1660e01b8152600401610d549291906125ba565b600060405180830381600087803b158015610d6e57600080fd5b505af1158015610d82573d6000803e3d6000fd5b50505050817f24b5efa61dd1cfc659205a97fb8ed868f3cb8c81922bab2b96423e5de1de2cb73383604051610db89291906125ba565b60405180910390a250600160008190555050565b600f602052816000526040600020602052806000526040600020600091509150508060000154908060010154908060020160009054906101000a900473ffffffffffffffffffffffffffffffffffffffff16908060020160149054906101000a900460ff16905084565b600260005403610e7b576040517f08c379a0000000000000000000000000000000000000000000000000000000008152600401610e7290612456565b60405180910390fd5b60026000819055506006543414610ec7576040517f08c379a0000000000000000000000000000000000000000000000000000000008152600401610ebe9061262f565b60405180910390fd5b600e60003373ffffffffffffffffffffffffffffffffffffffff1673ffffffffffffffffffffffffffffffffffffffff16815260200190815260200160002060009054906101000a900460ff1615610f54576040517f08c379a0000000000000000000000000000000000000000000000000000000008152600401610f4b9061269b565b60405180910390fd5b600560009054906101000a900473ffffffffffffffffffffffffffffffffffffffff1673ffffffffffffffffffffffffffffffffffffffff163373ffffffffffffffffffffffffffffffffffffffff1603610fe4576040517f08c379a0000000000000000000000000000000000000000000000000000000008152600401610fdb90612707565b60405180910390fd5b600b60009054906101000a900460ff16611033576040517f08c379a000000000000000000000000000000000000000000000000000000000815260040161102a90612773565b60405180910390fd5b600160009054906101000a900473ffffffffffffffffffffffffffffffffffffffff1673ffffffffffffffffffffffffffffffffffffffff1663e4fc57dd336003546040518363ffffffff1660e01b81526004016110929291906125ba565b600060405180830381600087803b1580156110ac57600080fd5b505af11580156110c0573d6000803e3d6000fd5b50505050600c339080600181540180825580915050600190039060005260206000200160009091909190916101000a81548173ffffffffffffffffffffffffffffffffffffffff021916908373ffffffffffffffffffffffffffffffffffffffff1602179055506001600e60003373ffffffffffffffffffffffffffffffffffffffff1673ffffffffffffffffffffffffffffffffffffffff16815260200190815260200160002060006101000a81548160ff02191690831515021790555034600a6000828254611191919061225c565b92505081905550600062093a806007546008546111ae9190612793565b6111b891906127f6565b9050600081346111c891906127f6565b905060005b8281101561120c57816012600083815260200190815260200160002060008282546111f8919061225c565b9250508190555080806001019150506111cd565b503373ffffffffffffffffffffffffffffffffffffffff167f70dc633363beb746a7d5d35ff8a46d62c0733e63a022b21ce0ee9709c567ce53846040516112539190611e92565b60405180910390a25050600160008190555050565b60126020528060005260406000206000915090505481565b60085481565b600c818154811061129657600080fd5b906000526020600020016000915054906101000a900473ffffffffffffffffffffffffffffffffffffffff1681565b600a5481565b600d81815481106112db57600080fd5b906000526020600020016000915090505481565b60035481565b60106020528060005260406000206000915054906101000a900473ffffffffffffffffffffffffffffffffffffffff1681565b62093a8081565b60075481565b600160009054906101000a900473ffffffffffffffffffffffffffffffffffffffff1681565b600560009054906101000a900473ffffffffffffffffffffffffffffffffffffffff1681565b60116020528060005260406000206000915054906101000a900460ff1681565b600560009054906101000a900473ffffffffffffffffffffffffffffffffffffffff1673ffffffffffffffffffffffffffffffffffffffff163373ffffffffffffffffffffffffffffffffffffffff1614611431576040517f08c379a000000000000000000000000000000000000000000000000000000000815260040161142890612873565b60405180910390fd5b6009600081548092919061144490612893565b91905055507f54ab1f5ea80e88ee480c10edc5b60056a0e392c6125954a9f47ce8677acc59d060095460405161147a9190611e92565b60405180910390a1565b7f000000000000000000000000000000000000000000000000000000000000000081565b600b60009054906101000a900460ff166114f7576040517f08c379a00000000000000000000000000000000000000000000000000000000081526004016114ee90612773565b60405180910390fd5b600754421061153b576040517f08c379a000000000000000000000000000000000000000000000000000000000815260040161153290612927565b60405180910390fd5b600f60003373ffffffffffffffffffffffffffffffffffffffff1673ffffffffffffffffffffffffffffffffffffffff1681526020019081526020016000206000600354815260200190815260200160002060020160149054906101000a900460ff16156115de576040517f08c379a00000000000000000000000000000000000000000000000000000000081526004016115d590612993565b60405180910390fd5b60006002600081546115ef90612893565b91905081905590506040518060a00160405280828152602001600081526020013373ffffffffffffffffffffffffffffffffffffffff168152602001600115158152602001848480806020026020016040519081016040528093929190818152602001838360200280828437600081840152601f19601f82011690508083019250505050505050815250600f60003373ffffffffffffffffffffffffffffffffffffffff1673ffffffffffffffffffffffffffffffffffffffff16815260200190815260200160002060006003548152602001908152602001600020600082015181600001556020820151816001015560408201518160020160006101000a81548173ffffffffffffffffffffffffffffffffffffffff021916908373ffffffffffffffffffffffffffffffffffffffff16021790555060608201518160020160146101000a81548160ff0219169083151502179055506080820151816003019080519060200190611762929190611d05565b50905050600d819080600181540180825580915050600190039060005260206000200160009091909190915055600560009054906101000a900473ffffffffffffffffffffffffffffffffffffffff1673ffffffffffffffffffffffffffffffffffffffff163373ffffffffffffffffffffffffffffffffffffffff16036118e457600c600560009054906101000a900473ffffffffffffffffffffffffffffffffffffffff169080600181540180825580915050600190039060005260206000200160009091909190916101000a81548173ffffffffffffffffffffffffffffffffffffffff021916908373ffffffffffffffffffffffffffffffffffffffff1602179055506001600e6000600560009054906101000a900473ffffffffffffffffffffffffffffffffffffffff1673ffffffffffffffffffffffffffffffffffffffff1673ffffffffffffffffffffffffffffffffffffffff16815260200190815260200160002060006101000a81548160ff0219169083151502179055505b3373ffffffffffffffffffffffffffffffffffffffff167f06f957774f9db1179719c2fe74b52ae0dc4e6829120a3b65cf4cce07edfbd3b9848460405161192c929190612a2e565b60405180910390a2505050565b7f000000000000000000000000000000000000000000000000000000000000000081565b600560009054906101000a900473ffffffffffffffffffffffffffffffffffffffff1673ffffffffffffffffffffffffffffffffffffffff163373ffffffffffffffffffffffffffffffffffffffff16146119ed576040517f08c379a00000000000000000000000000000000000000000000000000000000081526004016119e49061233c565b60405180910390fd5b62093a80816119fc919061235c565b600754611a09919061225c565b421015611a4b576040517f08c379a0000000000000000000000000000000000000000000000000000000008152600401611a42906123ea565b60405180910390fd5b6011600082815260200190815260200160002060009054906101000a900460ff1615611aac576040517f08c379a0000000000000000000000000000000000000000000000000000000008152600401611aa390612a9e565b60405180910390fd5b60008060005b600c80549050811015611bc5576000600c8281548110611ad557611ad4612193565b5b9060005260206000200160009054906101000a900473ffffffffffffffffffffffffffffffffffffffff16905082600f60008373ffffffffffffffffffffffffffffffffffffffff1673ffffffffffffffffffffffffffffffffffffffff1681526020019081526020016000206000878152602001908152602001600020600101541115611bb757600f60008273ffffffffffffffffffffffffffffffffffffffff1673ffffffffffffffffffffffffffffffffffffffff16815260200190815260200160002060008681526020019081526020016000206001015492508093505b508080600101915050611ab2565b50600073ffffffffffffffffffffffffffffffffffffffff168273ffffffffffffffffffffffffffffffffffffffff1603611c35576040517f08c379a0000000000000000000000000000000000000000000000000000000008152600401611c2c90612b0a565b60405180910390fd5b816010600085815260200190815260200160002060006101000a81548173ffffffffffffffffffffffffffffffffffffffff021916908373ffffffffffffffffffffffffffffffffffffffff16021790555060016011600085815260200190815260200160002060006101000a81548160ff021916908315150217905550827f9e8a46942c293ec4ea2406e2a6e4316c256cb47656af7d5b260188d95b7de749836012600087815260200190815260200160002054604051611cf89291906125ba565b60405180910390a2505050565b828054828255906000526020600020908101928215611d41579160200282015b82811115611d40578251825591602001919060010190611d25565b5b509050611d4e9190611d52565b5090565b5b80821115611d6b576000816000905550600101611d53565b5090565b60008115159050919050565b611d8481611d6f565b82525050565b6000602082019050611d9f6000830184611d7b565b92915050565b600080fd5b600080fd5b600073ffffffffffffffffffffffffffffffffffffffff82169050919050565b6000611dda82611daf565b9050919050565b611dea81611dcf565b8114611df557600080fd5b50565b600081359050611e0781611de1565b92915050565b6000819050919050565b611e2081611e0d565b8114611e2b57600080fd5b50565b600081359050611e3d81611e17565b92915050565b60008060408385031215611e5a57611e59611da5565b5b6000611e6885828601611df8565b9250506020611e7985828601611e2e565b9150509250929050565b611e8c81611e0d565b82525050565b6000602082019050611ea76000830184611e83565b92915050565b600081519050919050565b600082825260208201905092915050565b60005b83811015611ee7578082015181840152602081019050611ecc565b60008484015250505050565b6000601f19601f8301169050919050565b6000611f0f82611ead565b611f198185611eb8565b9350611f29818560208601611ec9565b611f3281611ef3565b840191505092915050565b60006020820190508181036000830152611f578184611f04565b905092915050565b600060208284031215611f7557611f74611da5565b5b6000611f8384828501611e2e565b91505092915050565b611f9581611dcf565b82525050565b6000608082019050611fb06000830187611e83565b611fbd6020830186611e83565b611fca6040830185611f8c565b611fd76060830184611d7b565b95945050505050565b6000602082019050611ff56000830184611f8c565b92915050565b6000819050919050565b600061202061201b61201684611daf565b611ffb565b611daf565b9050919050565b600061203282612005565b9050919050565b600061204482612027565b9050919050565b61205481612039565b82525050565b600060208201905061206f600083018461204b565b92915050565b600080fd5b600080fd5b600080fd5b60008083601f84011261209a57612099612075565b5b8235905067ffffffffffffffff8111156120b7576120b661207a565b5b6020830191508360208202830111156120d3576120d261207f565b5b9250929050565b600080602083850312156120f1576120f0611da5565b5b600083013567ffffffffffffffff81111561210f5761210e611daa565b5b61211b85828601612084565b92509250509250929050565b7f5465616d206e6f74207265676973746572656400000000000000000000000000600082015250565b600061215d601383611eb8565b915061216882612127565b602082019050919050565b6000602082019050818103600083015261218c81612150565b9050919050565b7f4e487b7100000000000000000000000000000000000000000000000000000000600052603260045260246000fd5b60006040820190506121d76000830185611e83565b6121e46020830184611e83565b9392505050565b6000815190506121fa81611e17565b92915050565b60006020828403121561221657612215611da5565b5b6000612224848285016121eb565b91505092915050565b7f4e487b7100000000000000000000000000000000000000000000000000000000600052601160045260246000fd5b600061226782611e0d565b915061227283611e0d565b925082820190508082111561228a5761228961222d565b5b92915050565b7f4e487b7100000000000000000000000000000000000000000000000000000000600052602260045260246000fd5b600060028204905060018216806122d757607f821691505b6020821081036122ea576122e9612290565b5b50919050565b7f4f6e6c79206f776e65722063616e2063616c6c00000000000000000000000000600082015250565b6000612326601383611eb8565b9150612331826122f0565b602082019050919050565b6000602082019050818103600083015261235581612319565b9050919050565b600061236782611e0d565b915061237283611e0d565b925082820261238081611e0d565b915082820484148315176123975761239661222d565b5b5092915050565b7f5765656b206e6f742066696e6973686564000000000000000000000000000000600082015250565b60006123d4601183611eb8565b91506123df8261239e565b602082019050919050565b60006020820190508181036000830152612403816123c7565b9050919050565b7f5265656e7472616e637947756172643a207265656e7472616e742063616c6c00600082015250565b6000612440601f83611eb8565b915061244b8261240a565b602082019050919050565b6000602082019050818103600083015261246f81612433565b9050919050565b7f57696e6e6572206e6f74206465636c6172656400000000000000000000000000600082015250565b60006124ac601383611eb8565b91506124b782612476565b602082019050919050565b600060208201905081810360008301526124db8161249f565b9050919050565b7f4e6f74207468652077696e6e6572000000000000000000000000000000000000600082015250565b6000612518600e83611eb8565b9150612523826124e2565b602082019050919050565b600060208201905081810360008301526125478161250b565b9050919050565b7f4e6f207072697a6520746f20636c61696d000000000000000000000000000000600082015250565b6000612584601183611eb8565b915061258f8261254e565b602082019050919050565b600060208201905081810360008301526125b381612577565b9050919050565b60006040820190506125cf6000830185611f8c565b6125dc6020830184611e83565b9392505050565b7f496e636f727265637420656e7472792066656500000000000000000000000000600082015250565b6000612619601383611eb8565b9150612624826125e3565b602082019050919050565b600060208201905081810360008301526126488161260c565b9050919050565b7f5465616d20616c72656164792072656769737465726564000000000000000000600082015250565b6000612685601783611eb8565b91506126908261264f565b602082019050919050565b600060208201905081810360008301526126b481612678565b9050919050565b7f416c726561647920696e206c6561677565000000000000000000000000000000600082015250565b60006126f1601183611eb8565b91506126fc826126bb565b602082019050919050565b60006020820190508181036000830152612720816126e4565b9050919050565b7f4c6561677565206973206e6f7420616374697665000000000000000000000000600082015250565b600061275d601483611eb8565b915061276882612727565b602082019050919050565b6000602082019050818103600083015261278c81612750565b9050919050565b600061279e82611e0d565b91506127a983611e0d565b92508282039050818111156127c1576127c061222d565b5b92915050565b7f4e487b7100000000000000000000000000000000000000000000000000000000600052601260045260246000fd5b600061280182611e0d565b915061280c83611e0d565b92508261281c5761281b6127c7565b5b828204905092915050565b7f4f6e6c792061646d696e2063616e20616476616e6365207765656b0000000000600082015250565b600061285d601b83611eb8565b915061286882612827565b602082019050919050565b6000602082019050818103600083015261288c81612850565b9050919050565b600061289e82611e0d565b91507fffffffffffffffffffffffffffffffffffffffffffffffffffffffffffffffff82036128d0576128cf61222d565b5b600182019050919050565b7f4c65616775652068617320737461727465640000000000000000000000000000600082015250565b6000612911601283611eb8565b915061291c826128db565b602082019050919050565b6000602082019050818103600083015261294081612904565b9050919050565b7f416c72656164792072656769737465726564207465616d000000000000000000600082015250565b600061297d601783611eb8565b915061298882612947565b602082019050919050565b600060208201905081810360008301526129ac81612970565b9050919050565b600082825260208201905092915050565b600080fd5b82818337505050565b60006129de83856129b3565b93507f07ffffffffffffffffffffffffffffffffffffffffffffffffffffffffffffff831115612a1157612a106129c4565b5b602083029250612a228385846129c9565b82840190509392505050565b60006020820190508181036000830152612a498184866129d2565b90509392505050565b7f416c7265616479206465636c6172656400000000000000000000000000000000600082015250565b6000612a88601083611eb8565b9150612a9382612a52565b602082019050919050565b60006020820190508181036000830152612ab781612a7b565b9050919050565b7f4e6f2077696e6e657220666f756e640000000000000000000000000000000000600082015250565b6000612af4600f83611eb8565b9150612aff82612abe565b602082019050919050565b60006020820190508181036000830152612b2381612ae7565b905091905056fea2646970667358221220a4376249eb12a63bf62a4163d732a0ab552b3120037e3ac916550fc93ed19d8e64736f6c634300081b0033a2646970667358221220d0f0add60a2806e606fd7a5a146256303d87e939e1c242cf09924a3a2281184364736f6c634300081b0033",
  "linkReferences": {},
  "deployedLinkReferences": {}
}