{
  "_format": "hh-sol-artifact-1",
  "contractName": "UserPlayerManager",
  "sourceName": "contracts/UserPlayerManager.sol",
  "abi": [
    {
      "inputs": [],
      "stateMutability": "nonpayable",
      "type": "constructor"
    },
    {
      "anonymous": false,
      "inputs": [
        {
          "indexed": true,
          "internalType": "address",
          "name": "sender",
          "type": "address"
        },
        {
          "indexed": false,
          "internalType": "uint256",
          "name": "amount",
          "type": "uint256"
        }
      ],
      "name": "DepositSuccessful",
      "type": "event"
    },
    {
      "anonymous": false,
      "inputs": [
        {
          "indexed": true,
          "internalType": "uint256",
          "name": "playerId",
          "type": "uint256"
        },
        {
          "indexed": false,
          "internalType": "string",
          "name": "name",
          "type": "string"
        },
        {
          "indexed": false,
          "internalType": "string",
          "name": "club",
          "type": "string"
        },
        {
          "indexed": false,
          "internalType": "uint256",
          "name": "position",
          "type": "uint256"
        },
        {
          "indexed": false,
          "internalType": "uint256",
          "name": "price",
          "type": "uint256"
        }
      ],
      "name": "PlayerCreated",
      "type": "event"
    },
    {
      "anonymous": false,
      "inputs": [
        {
          "indexed": true,
          "internalType": "uint256",
          "name": "playerId",
          "type": "uint256"
        },
        {
          "indexed": false,
          "internalType": "uint256",
          "name": "weekNumber",
          "type": "uint256"
        },
        {
          "indexed": false,
          "internalType": "uint256",
          "name": "points",
          "type": "uint256"
        }
      ],
      "name": "PlayerPointsUpdated",
      "type": "event"
    },
    {
      "anonymous": false,
      "inputs": [
        {
          "indexed": true,
          "internalType": "address",
          "name": "user",
          "type": "address"
        },
        {
          "indexed": false,
          "internalType": "string",
          "name": "name",
          "type": "string"
        }
      ],
      "name": "UserRegistered",
      "type": "event"
    },
    {
      "anonymous": false,
      "inputs": [
        {
          "indexed": true,
          "internalType": "address",
          "name": "receiver",
          "type": "address"
        },
        {
          "indexed": false,
          "internalType": "uint256",
          "name": "amount",
          "type": "uint256"
        }
      ],
      "name": "WithdrawSuccessful",
      "type": "event"
    },
    {
      "inputs": [],
      "name": "REQUIRED_DEFENDERS",
      "outputs": [
        {
          "internalType": "uint256",
          "name": "",
          "type": "uint256"
        }
      ],
      "stateMutability": "view",
      "type": "function"
    },
    {
      "inputs": [],
      "name": "REQUIRED_FORWARDS",
      "outputs": [
        {
          "internalType": "uint256",
          "name": "",
          "type": "uint256"
        }
      ],
      "stateMutability": "view",
      "type": "function"
    },
    {
      "inputs": [],
      "name": "REQUIRED_GOALKEEPERS",
      "outputs": [
        {
          "internalType": "uint256",
          "name": "",
          "type": "uint256"
        }
      ],
      "stateMutability": "view",
      "type": "function"
    },
    {
      "inputs": [],
      "name": "REQUIRED_MIDFIELDERS",
      "outputs": [
        {
          "internalType": "uint256",
          "name": "",
          "type": "uint256"
        }
      ],
      "stateMutability": "view",
      "type": "function"
    },
    {
      "inputs": [],
      "name": "TEAM_SIZE",
      "outputs": [
        {
          "internalType": "uint256",
          "name": "",
          "type": "uint256"
        }
      ],
      "stateMutability": "view",
      "type": "function"
    },
    {
      "inputs": [
        {
          "internalType": "address",
          "name": "_user",
          "type": "address"
        },
        {
          "internalType": "uint256",
          "name": "_leagueId",
          "type": "uint256"
        }
      ],
      "name": "addUserLeague",
      "outputs": [],
      "stateMutability": "nonpayable",
      "type": "function"
    },
    {
      "inputs": [],
      "name": "admin",
      "outputs": [
        {
          "internalType": "address",
          "name": "",
          "type": "address"
        }
      ],
      "stateMutability": "view",
      "type": "function"
    },
    {
      "inputs": [
        {
          "internalType": "uint256[]",
          "name": "playerIds",
          "type": "uint256[]"
        }
      ],
      "name": "calculateTeamValue",
      "outputs": [
        {
          "internalType": "uint256",
          "name": "",
          "type": "uint256"
        }
      ],
      "stateMutability": "view",
      "type": "function"
    },
    {
      "inputs": [
        {
          "internalType": "string",
          "name": "_name",
          "type": "string"
        },
        {
          "internalType": "string",
          "name": "_club",
          "type": "string"
        },
        {
          "internalType": "uint256",
          "name": "_position",
          "type": "uint256"
        },
        {
          "internalType": "uint256",
          "name": "_price",
          "type": "uint256"
        }
      ],
      "name": "createPlayer",
      "outputs": [],
      "stateMutability": "nonpayable",
      "type": "function"
    },
    {
      "inputs": [],
      "name": "deposit",
      "outputs": [],
      "stateMutability": "payable",
      "type": "function"
    },
    {
      "inputs": [],
      "name": "getBalance",
      "outputs": [
        {
          "internalType": "uint256",
          "name": "",
          "type": "uint256"
        }
      ],
      "stateMutability": "view",
      "type": "function"
    },
    {
      "inputs": [
        {
          "internalType": "uint256",
          "name": "_playerId",
          "type": "uint256"
        }
      ],
      "name": "getPlayer",
      "outputs": [
        {
          "internalType": "string",
          "name": "name",
          "type": "string"
        },
        {
          "internalType": "string",
          "name": "club",
          "type": "string"
        },
        {
          "internalType": "uint256",
          "name": "position",
          "type": "uint256"
        },
        {
          "internalType": "uint256",
          "name": "price",
          "type": "uint256"
        },
        {
          "internalType": "uint256",
          "name": "points",
          "type": "uint256"
        },
        {
          "internalType": "bool",
          "name": "isActive",
          "type": "bool"
        }
      ],
      "stateMutability": "view",
      "type": "function"
    },
    {
      "inputs": [
        {
          "internalType": "uint256",
          "name": "_playerId",
          "type": "uint256"
        },
        {
          "internalType": "uint256",
          "name": "_weekNumber",
          "type": "uint256"
        }
      ],
      "name": "getPlayerWeeklyPoints",
      "outputs": [
        {
          "internalType": "uint256",
          "name": "",
          "type": "uint256"
        }
      ],
      "stateMutability": "view",
      "type": "function"
    },
    {
      "inputs": [],
      "name": "playerCounter",
      "outputs": [
        {
          "internalType": "uint256",
          "name": "",
          "type": "uint256"
        }
      ],
      "stateMutability": "view",
      "type": "function"
    },
    {
      "inputs": [
        {
          "internalType": "string",
          "name": "",
          "type": "string"
        }
      ],
      "name": "playerNameExists",
      "outputs": [
        {
          "internalType": "bool",
          "name": "",
          "type": "bool"
        }
      ],
      "stateMutability": "view",
      "type": "function"
    },
    {
      "inputs": [
        {
          "internalType": "uint256",
          "name": "",
          "type": "uint256"
        }
      ],
      "name": "players",
      "outputs": [
        {
          "internalType": "uint256",
          "name": "playerId",
          "type": "uint256"
        },
        {
          "internalType": "string",
          "name": "name",
          "type": "string"
        },
        {
          "internalType": "string",
          "name": "club",
          "type": "string"
        },
        {
          "internalType": "uint256",
          "name": "position",
          "type": "uint256"
        },
        {
          "internalType": "uint256",
          "name": "price",
          "type": "uint256"
        },
        {
          "internalType": "uint256",
          "name": "points",
          "type": "uint256"
        },
        {
          "internalType": "bool",
          "name": "isActive",
          "type": "bool"
        }
      ],
      "stateMutability": "view",
      "type": "function"
    },
    {
      "inputs": [
        {
          "internalType": "string",
          "name": "_name",
          "type": "string"
        }
      ],
      "name": "registerUser",
      "outputs": [],
      "stateMutability": "nonpayable",
      "type": "function"
    },
    {
      "inputs": [
        {
          "internalType": "uint256",
          "name": "_playerId",
          "type": "uint256"
        },
        {
          "internalType": "string",
          "name": "_club",
          "type": "string"
        },
        {
          "internalType": "uint256",
          "name": "_position",
          "type": "uint256"
        },
        {
          "internalType": "uint256",
          "name": "_price",
          "type": "uint256"
        },
        {
          "internalType": "bool",
          "name": "_isActive",
          "type": "bool"
        }
      ],
      "name": "updatePlayer",
      "outputs": [],
      "stateMutability": "nonpayable",
      "type": "function"
    },
    {
      "inputs": [
        {
          "internalType": "address",
          "name": "_user",
          "type": "address"
        },
        {
          "internalType": "uint256",
          "name": "_amount",
          "type": "uint256"
        }
      ],
      "name": "updateUserBalances",
      "outputs": [],
      "stateMutability": "nonpayable",
      "type": "function"
    },
    {
      "inputs": [
        {
          "internalType": "uint256",
          "name": "_playerId",
          "type": "uint256"
        },
        {
          "internalType": "uint256",
          "name": "_weekNumber",
          "type": "uint256"
        },
        {
          "internalType": "uint256",
          "name": "_points",
          "type": "uint256"
        }
      ],
      "name": "updateWeeklyPoints",
      "outputs": [],
      "stateMutability": "nonpayable",
      "type": "function"
    },
    {
      "inputs": [
        {
          "internalType": "address",
          "name": "",
          "type": "address"
        }
      ],
      "name": "userBalances",
      "outputs": [
        {
          "internalType": "uint256",
          "name": "",
          "type": "uint256"
        }
      ],
      "stateMutability": "view",
      "type": "function"
    },
    {
      "inputs": [],
      "name": "userCounter",
      "outputs": [
        {
          "internalType": "uint256",
          "name": "",
          "type": "uint256"
        }
      ],
      "stateMutability": "view",
      "type": "function"
    },
    {
      "inputs": [
        {
          "internalType": "address",
          "name": "",
          "type": "address"
        },
        {
          "internalType": "uint256",
          "name": "",
          "type": "uint256"
        }
      ],
      "name": "userLeagues",
      "outputs": [
        {
          "internalType": "uint256",
          "name": "",
          "type": "uint256"
        }
      ],
      "stateMutability": "view",
      "type": "function"
    },
    {
      "inputs": [
        {
          "internalType": "address",
          "name": "",
          "type": "address"
        }
      ],
      "name": "users",
      "outputs": [
        {
          "internalType": "uint256",
          "name": "id",
          "type": "uint256"
        },
        {
          "internalType": "string",
          "name": "name",
          "type": "string"
        },
        {
          "internalType": "bool",
          "name": "isRegistered",
          "type": "bool"
        }
      ],
      "stateMutability": "view",
      "type": "function"
    },
    {
      "inputs": [
        {
          "internalType": "uint256[]",
          "name": "playerIds",
          "type": "uint256[]"
        }
      ],
      "name": "validateTeamPlayers",
      "outputs": [
        {
          "internalType": "bool",
          "name": "",
          "type": "bool"
        }
      ],
      "stateMutability": "view",
      "type": "function"
    },
    {
      "inputs": [
        {
          "internalType": "uint256",
          "name": "",
          "type": "uint256"
        },
        {
          "internalType": "uint256",
          "name": "",
          "type": "uint256"
        }
      ],
      "name": "weeklyPlayerPoints",
      "outputs": [
        {
          "internalType": "uint256",
          "name": "",
          "type": "uint256"
        }
      ],
      "stateMutability": "view",
      "type": "function"
    },
    {
      "inputs": [
        {
          "internalType": "uint256",
          "name": "_amount",
          "type": "uint256"
        }
      ],
      "name": "withdraw",
      "outputs": [],
      "stateMutability": "nonpayable",
      "type": "function"
    }
  ],
  "bytecode": "0x6080604052348015600f57600080fd5b50336000806101000a81548173ffffffffffffffffffffffffffffffffffffffff021916908373ffffffffffffffffffffffffffffffffffffffff1602179055506133768061005f6000396000f3fe60806040526004361061019c5760003560e01c8063a87430ba116100ec578063e4fc57dd1161008a578063f0c37a5911610064578063f0c37a59146105e6578063f28d718d14610611578063f71d96cb1461064e578063f851a440146106915761019c565b8063e4fc57dd14610552578063e55ae4e81461057b578063ea2e83fb146105bd5761019c565b8063c40717f6116100c6578063c40717f614610491578063cff2bfc8146104ce578063d0e30db01461050b578063de03fd35146105155761019c565b8063a87430ba146103fc578063b6d7a2fc1461043b578063ba09b2c8146104665761019c565b8063427e6886116101595780638c91efa7116101335780638c91efa714610340578063a31ca4b51461036b578063a4e40e7314610394578063a79eb0d1146103d15761019c565b8063427e6886146102c55780635511384e146102ee578063704f1b94146103175761019c565b806307e153ae146101a157806312065fe0146101cc57806312d836d6146101f757806326224c64146102345780632e1a7d4d1461027157806334aacb2e1461029a575b600080fd5b3480156101ad57600080fd5b506101b66106bc565b6040516101c39190611efc565b60405180910390f35b3480156101d857600080fd5b506101e16106c1565b6040516101ee9190611efc565b60405180910390f35b34801561020357600080fd5b5061021e60048036038101906102199190611f57565b610708565b60405161022b9190611efc565b60405180910390f35b34801561024057600080fd5b5061025b60048036038101906102569190611ff5565b61072d565b6040516102689190611efc565b60405180910390f35b34801561027d57600080fd5b5061029860048036038101906102939190612022565b610745565b005b3480156102a657600080fd5b506102af610a22565b6040516102bc9190611efc565b60405180910390f35b3480156102d157600080fd5b506102ec60048036038101906102e791906120b4565b610a27565b005b3480156102fa57600080fd5b506103156004803603810190610310919061215b565b610dd8565b005b34801561032357600080fd5b5061033e6004803603810190610339919061219b565b610e32565b005b34801561034c57600080fd5b506103556110c9565b6040516103629190611efc565b60405180910390f35b34801561037757600080fd5b50610392600480360381019061038d9190612361565b6110ce565b005b3480156103a057600080fd5b506103bb60048036038101906103b6919061215b565b611200565b6040516103c89190611efc565b60405180910390f35b3480156103dd57600080fd5b506103e6611231565b6040516103f39190611efc565b60405180910390f35b34801561040857600080fd5b50610423600480360381019061041e9190611ff5565b611236565b60405161043293929190612486565b60405180910390f35b34801561044757600080fd5b506104506112f5565b60405161045d9190611efc565b60405180910390f35b34801561047257600080fd5b5061047b6112fb565b6040516104889190611efc565b60405180910390f35b34801561049d57600080fd5b506104b860048036038101906104b3919061251a565b611300565b6040516104c59190612567565b60405180910390f35b3480156104da57600080fd5b506104f560048036038101906104f0919061251a565b61165e565b6040516105029190611efc565b60405180910390f35b610513611726565b005b34801561052157600080fd5b5061053c60048036038101906105379190611f57565b6118d3565b6040516105499190611efc565b60405180910390f35b34801561055e57600080fd5b506105796004803603810190610574919061215b565b611947565b005b34801561058757600080fd5b506105a2600480360381019061059d9190612022565b6119b1565b6040516105b496959493929190612582565b60405180910390f35b3480156105c957600080fd5b506105e460048036038101906105df91906125f1565b611bbc565b005b3480156105f257600080fd5b506105fb611d24565b6040516106089190611efc565b60405180910390f35b34801561061d57600080fd5b5061063860048036038101906106339190612644565b611d2a565b6040516106459190612567565b60405180910390f35b34801561065a57600080fd5b5061067560048036038101906106709190612022565b611d60565b604051610688979695949392919061268d565b60405180910390f35b34801561069d57600080fd5b506106a6611ebf565b6040516106b39190612719565b60405180910390f35b600381565b6000600560003373ffffffffffffffffffffffffffffffffffffffff1673ffffffffffffffffffffffffffffffffffffffff16815260200190815260200160002054905090565b6009602052816000526040600020602052806000526040600020600091509150505481565b60056020528060005260406000206000915090505481565b60026003540361078a576040517f08c379a000000000000000000000000000000000000000000000000000000000815260040161078190612780565b60405180910390fd5b6002600381905550600073ffffffffffffffffffffffffffffffffffffffff163373ffffffffffffffffffffffffffffffffffffffff1603610801576040517f08c379a00000000000000000000000000000000000000000000000000000000081526004016107f8906127ec565b60405180910390fd5b60008111610844576040517f08c379a000000000000000000000000000000000000000000000000000000000815260040161083b90612858565b60405180910390fd5b80600560003373ffffffffffffffffffffffffffffffffffffffff1673ffffffffffffffffffffffffffffffffffffffff1681526020019081526020016000205410156108c6576040517f08c379a00000000000000000000000000000000000000000000000000000000081526004016108bd906128c4565b60405180910390fd5b80600560003373ffffffffffffffffffffffffffffffffffffffff1673ffffffffffffffffffffffffffffffffffffffff16815260200190815260200160002060008282546109159190612913565b9250508190555060003373ffffffffffffffffffffffffffffffffffffffff168260405161094290612978565b60006040518083038185875af1925050503d806000811461097f576040519150601f19603f3d011682016040523d82523d6000602084013e610984565b606091505b50509050806109c8576040517f08c379a00000000000000000000000000000000000000000000000000000000081526004016109bf906129d9565b60405180910390fd5b3373ffffffffffffffffffffffffffffffffffffffff167f84e742a3ea03623687a5febaa797636d728230721d4b3d1405d19fbbc16298d983604051610a0e9190611efc565b60405180910390a250600160038190555050565b600f81565b60008054906101000a900473ffffffffffffffffffffffffffffffffffffffff1673ffffffffffffffffffffffffffffffffffffffff163373ffffffffffffffffffffffffffffffffffffffff1614610ab5576040517f08c379a0000000000000000000000000000000000000000000000000000000008152600401610aac90612a45565b60405180910390fd5b60008686905011610afb576040517f08c379a0000000000000000000000000000000000000000000000000000000008152600401610af290612ab1565b60405180910390fd5b60008484905011610b41576040517f08c379a0000000000000000000000000000000000000000000000000000000008152600401610b3890612b1d565b60405180910390fd5b60008111610b84576040517f08c379a0000000000000000000000000000000000000000000000000000000008152600401610b7b90612b89565b60405180910390fd5b60088686604051610b96929190612bd9565b908152602001604051809103902060009054906101000a900460ff1615610bf2576040517f08c379a0000000000000000000000000000000000000000000000000000000008152600401610be990612c3e565b60405180910390fd5b6000600260008154610c0390612c5e565b91905081905590506040518060e0016040528082815260200188888080601f016020809104026020016040519081016040528093929190818152602001838380828437600081840152601f19601f82011690508083019250505050505050815260200186868080601f016020809104026020016040519081016040528093929190818152602001838380828437600081840152601f19601f820116905080830192505050505050508152602001848152602001838152602001600081526020016001151581525060076000838152602001908152602001600020600082015181600001556020820151816001019081610cfc9190612eb2565b506040820151816002019081610d129190612eb2565b50606082015181600301556080820151816004015560a0820151816005015560c08201518160060160006101000a81548160ff021916908315150217905550905050600160088888604051610d68929190612bd9565b908152602001604051809103902060006101000a81548160ff021916908315150217905550807fde362b42458bb62dc23b2691d14ba17e1eccb25e58e0ea2bf43fd8fa84322f62888888888888604051610dc796959493929190612fb1565b60405180910390a250505050505050565b80600560008473ffffffffffffffffffffffffffffffffffffffff1673ffffffffffffffffffffffffffffffffffffffff1681526020019081526020016000206000828254610e279190613008565b925050819055505050565b600073ffffffffffffffffffffffffffffffffffffffff163373ffffffffffffffffffffffffffffffffffffffff1603610ea1576040517f08c379a0000000000000000000000000000000000000000000000000000000008152600401610e9890613088565b60405180910390fd5b600460003373ffffffffffffffffffffffffffffffffffffffff1673ffffffffffffffffffffffffffffffffffffffff16815260200190815260200160002060020160009054906101000a900460ff1615610f31576040517f08c379a0000000000000000000000000000000000000000000000000000000008152600401610f28906130f4565b60405180910390fd5b60008282905011610f77576040517f08c379a0000000000000000000000000000000000000000000000000000000008152600401610f6e90612ab1565b60405180910390fd5b6000600160008154610f8890612c5e565b9190508190559050604051806060016040528082815260200184848080601f016020809104026020016040519081016040528093929190818152602001838380828437600081840152601f19601f82011690508083019250505050505050815260200160011515815250600460003373ffffffffffffffffffffffffffffffffffffffff1673ffffffffffffffffffffffffffffffffffffffff1681526020019081526020016000206000820151816000015560208201518160010190816110509190612eb2565b5060408201518160020160006101000a81548160ff0219169083151502179055509050503373ffffffffffffffffffffffffffffffffffffffff167f48cac28ad4dc618e15f4c2dd5e97751182f166de97b25618318b2112aa951a2f84846040516110bc929190613114565b60405180910390a2505050565b600281565b60008054906101000a900473ffffffffffffffffffffffffffffffffffffffff1673ffffffffffffffffffffffffffffffffffffffff163373ffffffffffffffffffffffffffffffffffffffff161461115c576040517f08c379a000000000000000000000000000000000000000000000000000000000815260040161115390612a45565b60405180910390fd5b6002548511156111a1576040517f08c379a000000000000000000000000000000000000000000000000000000000815260040161119890613184565b60405180910390fd5b6000600760008781526020019081526020016000209050848160020190816111c99190612eb2565b50838160030181905550828160040181905550818160060160006101000a81548160ff021916908315150217905550505050505050565b6006602052816000526040600020818154811061121c57600080fd5b90600052602060002001600091509150505481565b600581565b600460205280600052604060002060009150905080600001549080600101805461125f90612cd5565b80601f016020809104026020016040519081016040528092919081815260200182805461128b90612cd5565b80156112d85780601f106112ad576101008083540402835291602001916112d8565b820191906000526020600020905b8154815290600101906020018083116112bb57829003601f168201915b5050505050908060020160009054906101000a900460ff16905083565b60025481565b600581565b6000600f8383905014611348576040517f08c379a000000000000000000000000000000000000000000000000000000000815260040161133f906131f0565b60405180910390fd5b60008060008060005b878790508110156116295760025488888381811061137257611371613210565b5b9050602002013511156113ba576040517f08c379a00000000000000000000000000000000000000000000000000000000081526004016113b190613184565b60405180910390fd5b6000600760008a8a858181106113d3576113d2613210565b5b9050602002013581526020019081526020016000206040518060e00160405290816000820154815260200160018201805461140d90612cd5565b80601f016020809104026020016040519081016040528092919081815260200182805461143990612cd5565b80156114865780601f1061145b57610100808354040283529160200191611486565b820191906000526020600020905b81548152906001019060200180831161146957829003601f168201915b5050505050815260200160028201805461149f90612cd5565b80601f01602080910402602001604051908101604052809291908181526020018280546114cb90612cd5565b80156115185780601f106114ed57610100808354040283529160200191611518565b820191906000526020600020905b8154815290600101906020018083116114fb57829003601f168201915b505050505081526020016003820154815260200160048201548152602001600582015481526020016006820160009054906101000a900460ff16151515158152505090508060c001516115a0576040517f08c379a00000000000000000000000000000000000000000000000000000000081526004016115979061328b565b60405180910390fd5b60018160600151036115bf5785806115b790612c5e565b96505061161b565b60028160600151036115de5784806115d690612c5e565b95505061161a565b60038160600151036115fd5783806115f590612c5e565b945050611619565b600481606001510361161857828061161490612c5e565b9350505b5b5b5b508080600101915050611351565b5060028414801561163a5750600583145b80156116465750600582145b80156116525750600381145b94505050505092915050565b6000806000905060005b8484905081101561171b5760025485858381811061168957611688613210565b5b9050602002013511156116d1576040517f08c379a00000000000000000000000000000000000000000000000000000000081526004016116c890613184565b60405180910390fd5b600760008686848181106116e8576116e7613210565b5b905060200201358152602001908152602001600020600401548261170c9190613008565b91508080600101915050611668565b508091505092915050565b60026003540361176b576040517f08c379a000000000000000000000000000000000000000000000000000000000815260040161176290612780565b60405180910390fd5b6002600381905550600073ffffffffffffffffffffffffffffffffffffffff163373ffffffffffffffffffffffffffffffffffffffff16036117e2576040517f08c379a00000000000000000000000000000000000000000000000000000000081526004016117d9906127ec565b60405180910390fd5b60003411611825576040517f08c379a000000000000000000000000000000000000000000000000000000000815260040161181c906132f7565b60405180910390fd5b34600560003373ffffffffffffffffffffffffffffffffffffffff1673ffffffffffffffffffffffffffffffffffffffff16815260200190815260200160002060008282546118749190613008565b925050819055503373ffffffffffffffffffffffffffffffffffffffff167fb3ef81558ed1a50072a492984535a009da8b129c749500b387f1e5f4886bdde5346040516118c19190611efc565b60405180910390a26001600381905550565b600060025483111561191a576040517f08c379a000000000000000000000000000000000000000000000000000000000815260040161191190613184565b60405180910390fd5b60096000848152602001908152602001600020600083815260200190815260200160002054905092915050565b600660008373ffffffffffffffffffffffffffffffffffffffff1673ffffffffffffffffffffffffffffffffffffffff1681526020019081526020016000208190806001815401808255809150506001900390600052602060002001600090919091909150555050565b6060806000806000806002548711156119ff576040517f08c379a00000000000000000000000000000000000000000000000000000000081526004016119f690613184565b60405180910390fd5b6000600760008981526020019081526020016000206040518060e001604052908160008201548152602001600182018054611a3990612cd5565b80601f0160208091040260200160405190810160405280929190818152602001828054611a6590612cd5565b8015611ab25780601f10611a8757610100808354040283529160200191611ab2565b820191906000526020600020905b815481529060010190602001808311611a9557829003601f168201915b50505050508152602001600282018054611acb90612cd5565b80601f0160208091040260200160405190810160405280929190818152602001828054611af790612cd5565b8015611b445780601f10611b1957610100808354040283529160200191611b44565b820191906000526020600020905b815481529060010190602001808311611b2757829003601f168201915b505050505081526020016003820154815260200160048201548152602001600582015481526020016006820160009054906101000a900460ff161515151581525050905080602001518160400151826060015183608001518460a001518560c001519650965096509650965096505091939550919395565b60008054906101000a900473ffffffffffffffffffffffffffffffffffffffff1673ffffffffffffffffffffffffffffffffffffffff163373ffffffffffffffffffffffffffffffffffffffff1614611c4a576040517f08c379a0000000000000000000000000000000000000000000000000000000008152600401611c4190612a45565b60405180910390fd5b600254831115611c8f576040517f08c379a0000000000000000000000000000000000000000000000000000000008152600401611c8690613184565b60405180910390fd5b806009600085815260200190815260200160002060008481526020019081526020016000208190555080600760008581526020019081526020016000206005016000828254611cde9190613008565b92505081905550827f1d9a35f98c6965b7850b651366a8028cd7c8de43cf3dfea4d9b26eabe886dcc38383604051611d17929190613317565b60405180910390a2505050565b60015481565b6008818051602081018201805184825260208301602085012081835280955050505050506000915054906101000a900460ff1681565b6007602052806000526040600020600091509050806000015490806001018054611d8990612cd5565b80601f0160208091040260200160405190810160405280929190818152602001828054611db590612cd5565b8015611e025780601f10611dd757610100808354040283529160200191611e02565b820191906000526020600020905b815481529060010190602001808311611de557829003601f168201915b505050505090806002018054611e1790612cd5565b80601f0160208091040260200160405190810160405280929190818152602001828054611e4390612cd5565b8015611e905780601f10611e6557610100808354040283529160200191611e90565b820191906000526020600020905b815481529060010190602001808311611e7357829003601f168201915b5050505050908060030154908060040154908060050154908060060160009054906101000a900460ff16905087565b60008054906101000a900473ffffffffffffffffffffffffffffffffffffffff1681565b6000819050919050565b611ef681611ee3565b82525050565b6000602082019050611f116000830184611eed565b92915050565b6000604051905090565b600080fd5b600080fd5b611f3481611ee3565b8114611f3f57600080fd5b50565b600081359050611f5181611f2b565b92915050565b60008060408385031215611f6e57611f6d611f21565b5b6000611f7c85828601611f42565b9250506020611f8d85828601611f42565b9150509250929050565b600073ffffffffffffffffffffffffffffffffffffffff82169050919050565b6000611fc282611f97565b9050919050565b611fd281611fb7565b8114611fdd57600080fd5b50565b600081359050611fef81611fc9565b92915050565b60006020828403121561200b5761200a611f21565b5b600061201984828501611fe0565b91505092915050565b60006020828403121561203857612037611f21565b5b600061204684828501611f42565b91505092915050565b600080fd5b600080fd5b600080fd5b60008083601f8401126120745761207361204f565b5b8235905067ffffffffffffffff81111561209157612090612054565b5b6020830191508360018202830111156120ad576120ac612059565b5b9250929050565b600080600080600080608087890312156120d1576120d0611f21565b5b600087013567ffffffffffffffff8111156120ef576120ee611f26565b5b6120fb89828a0161205e565b9650965050602087013567ffffffffffffffff81111561211e5761211d611f26565b5b61212a89828a0161205e565b9450945050604061213d89828a01611f42565b925050606061214e89828a01611f42565b9150509295509295509295565b6000806040838503121561217257612171611f21565b5b600061218085828601611fe0565b925050602061219185828601611f42565b9150509250929050565b600080602083850312156121b2576121b1611f21565b5b600083013567ffffffffffffffff8111156121d0576121cf611f26565b5b6121dc8582860161205e565b92509250509250929050565b600080fd5b6000601f19601f8301169050919050565b7f4e487b7100000000000000000000000000000000000000000000000000000000600052604160045260246000fd5b612236826121ed565b810181811067ffffffffffffffff82111715612255576122546121fe565b5b80604052505050565b6000612268611f17565b9050612274828261222d565b919050565b600067ffffffffffffffff821115612294576122936121fe565b5b61229d826121ed565b9050602081019050919050565b82818337600083830152505050565b60006122cc6122c784612279565b61225e565b9050828152602081018484840111156122e8576122e76121e8565b5b6122f38482856122aa565b509392505050565b600082601f8301126123105761230f61204f565b5b81356123208482602086016122b9565b91505092915050565b60008115159050919050565b61233e81612329565b811461234957600080fd5b50565b60008135905061235b81612335565b92915050565b600080600080600060a0868803121561237d5761237c611f21565b5b600061238b88828901611f42565b955050602086013567ffffffffffffffff8111156123ac576123ab611f26565b5b6123b8888289016122fb565b94505060406123c988828901611f42565b93505060606123da88828901611f42565b92505060806123eb8882890161234c565b9150509295509295909350565b600081519050919050565b600082825260208201905092915050565b60005b83811015612432578082015181840152602081019050612417565b60008484015250505050565b6000612449826123f8565b6124538185612403565b9350612463818560208601612414565b61246c816121ed565b840191505092915050565b61248081612329565b82525050565b600060608201905061249b6000830186611eed565b81810360208301526124ad818561243e565b90506124bc6040830184612477565b949350505050565b60008083601f8401126124da576124d961204f565b5b8235905067ffffffffffffffff8111156124f7576124f6612054565b5b60208301915083602082028301111561251357612512612059565b5b9250929050565b6000806020838503121561253157612530611f21565b5b600083013567ffffffffffffffff81111561254f5761254e611f26565b5b61255b858286016124c4565b92509250509250929050565b600060208201905061257c6000830184612477565b92915050565b600060c082019050818103600083015261259c818961243e565b905081810360208301526125b0818861243e565b90506125bf6040830187611eed565b6125cc6060830186611eed565b6125d96080830185611eed565b6125e660a0830184612477565b979650505050505050565b60008060006060848603121561260a57612609611f21565b5b600061261886828701611f42565b935050602061262986828701611f42565b925050604061263a86828701611f42565b9150509250925092565b60006020828403121561265a57612659611f21565b5b600082013567ffffffffffffffff81111561267857612677611f26565b5b612684848285016122fb565b91505092915050565b600060e0820190506126a2600083018a611eed565b81810360208301526126b4818961243e565b905081810360408301526126c8818861243e565b90506126d76060830187611eed565b6126e46080830186611eed565b6126f160a0830185611eed565b6126fe60c0830184612477565b98975050505050505050565b61271381611fb7565b82525050565b600060208201905061272e600083018461270a565b92915050565b7f5265656e7472616e637947756172643a205265656e7472616e742063616c6c00600082015250565b600061276a601f83612403565b915061277582612734565b602082019050919050565b600060208201905081810360008301526127998161275d565b9050919050565b7f5a65726f20616464726573732064657465637465642100000000000000000000600082015250565b60006127d6601683612403565b91506127e1826127a0565b602082019050919050565b60006020820190508181036000830152612805816127c9565b9050919050565b7f5a65726f20616d6f756e74206465746563746564210000000000000000000000600082015250565b6000612842601583612403565b915061284d8261280c565b602082019050919050565b6000602082019050818103600083015261287181612835565b9050919050565b7f496e73756666696369656e742066756e64732100000000000000000000000000600082015250565b60006128ae601383612403565b91506128b982612878565b602082019050919050565b600060208201905081810360008301526128dd816128a1565b9050919050565b7f4e487b7100000000000000000000000000000000000000000000000000000000600052601160045260246000fd5b600061291e82611ee3565b915061292983611ee3565b9250828203905081811115612941576129406128e4565b5b92915050565b600081905092915050565b50565b6000612962600083612947565b915061296d82612952565b600082019050919050565b600061298382612955565b9150819050919050565b7f4574686572207472616e73666572206661696c65642100000000000000000000600082015250565b60006129c3601683612403565b91506129ce8261298d565b602082019050919050565b600060208201905081810360008301526129f2816129b6565b9050919050565b7f4f6e6c792061646d696e00000000000000000000000000000000000000000000600082015250565b6000612a2f600a83612403565b9150612a3a826129f9565b602082019050919050565b60006020820190508181036000830152612a5e81612a22565b9050919050565b7f456d707479206e616d6500000000000000000000000000000000000000000000600082015250565b6000612a9b600a83612403565b9150612aa682612a65565b602082019050919050565b60006020820190508181036000830152612aca81612a8e565b9050919050565b7f456d70747920636c756200000000000000000000000000000000000000000000600082015250565b6000612b07600a83612403565b9150612b1282612ad1565b602082019050919050565b60006020820190508181036000830152612b3681612afa565b9050919050565b7f496e76616c696420707269636500000000000000000000000000000000000000600082015250565b6000612b73600d83612403565b9150612b7e82612b3d565b602082019050919050565b60006020820190508181036000830152612ba281612b66565b9050919050565b600081905092915050565b6000612bc08385612ba9565b9350612bcd8385846122aa565b82840190509392505050565b6000612be6828486612bb4565b91508190509392505050565b7f506c617965722065786973747300000000000000000000000000000000000000600082015250565b6000612c28600d83612403565b9150612c3382612bf2565b602082019050919050565b60006020820190508181036000830152612c5781612c1b565b9050919050565b6000612c6982611ee3565b91507fffffffffffffffffffffffffffffffffffffffffffffffffffffffffffffffff8203612c9b57612c9a6128e4565b5b600182019050919050565b7f4e487b7100000000000000000000000000000000000000000000000000000000600052602260045260246000fd5b60006002820490506001821680612ced57607f821691505b602082108103612d0057612cff612ca6565b5b50919050565b60008190508160005260206000209050919050565b60006020601f8301049050919050565b600082821b905092915050565b600060088302612d687fffffffffffffffffffffffffffffffffffffffffffffffffffffffffffffffff82612d2b565b612d728683612d2b565b95508019841693508086168417925050509392505050565b6000819050919050565b6000612daf612daa612da584611ee3565b612d8a565b611ee3565b9050919050565b6000819050919050565b612dc983612d94565b612ddd612dd582612db6565b848454612d38565b825550505050565b600090565b612df2612de5565b612dfd818484612dc0565b505050565b5b81811015612e2157612e16600082612dea565b600181019050612e03565b5050565b601f821115612e6657612e3781612d06565b612e4084612d1b565b81016020851015612e4f578190505b612e63612e5b85612d1b565b830182612e02565b50505b505050565b600082821c905092915050565b6000612e8960001984600802612e6b565b1980831691505092915050565b6000612ea28383612e78565b9150826002028217905092915050565b612ebb826123f8565b67ffffffffffffffff811115612ed457612ed36121fe565b5b612ede8254612cd5565b612ee9828285612e25565b600060209050601f831160018114612f1c5760008415612f0a578287015190505b612f148582612e96565b865550612f7c565b601f198416612f2a86612d06565b60005b82811015612f5257848901518255600182019150602085019450602081019050612f2d565b86831015612f6f5784890151612f6b601f891682612e78565b8355505b6001600288020188555050505b505050505050565b6000612f908385612403565b9350612f9d8385846122aa565b612fa6836121ed565b840190509392505050565b60006080820190508181036000830152612fcc81888a612f84565b90508181036020830152612fe1818688612f84565b9050612ff06040830185611eed565b612ffd6060830184611eed565b979650505050505050565b600061301382611ee3565b915061301e83611ee3565b9250828201905080821115613036576130356128e4565b5b92915050565b7f496e76616c696420616464726573730000000000000000000000000000000000600082015250565b6000613072600f83612403565b915061307d8261303c565b602082019050919050565b600060208201905081810360008301526130a181613065565b9050919050565b7f416c726561647920726567697374657265640000000000000000000000000000600082015250565b60006130de601283612403565b91506130e9826130a8565b602082019050919050565b6000602082019050818103600083015261310d816130d1565b9050919050565b6000602082019050818103600083015261312f818486612f84565b90509392505050565b7f496e76616c696420706c61796572204944000000000000000000000000000000600082015250565b600061316e601183612403565b915061317982613138565b602082019050919050565b6000602082019050818103600083015261319d81613161565b9050919050565b7f496e76616c6964207465616d2073697a65000000000000000000000000000000600082015250565b60006131da601183612403565b91506131e5826131a4565b602082019050919050565b60006020820190508181036000830152613209816131cd565b9050919050565b7f4e487b7100000000000000000000000000000000000000000000000000000000600052603260045260246000fd5b7f496e61637469766520706c617965720000000000000000000000000000000000600082015250565b6000613275600f83612403565b91506132808261323f565b602082019050919050565b600060208201905081810360008301526132a481613268565b9050919050565b7f43616e6e6f74206465706f736974207a65726f21000000000000000000000000600082015250565b60006132e1601483612403565b91506132ec826132ab565b602082019050919050565b60006020820190508181036000830152613310816132d4565b9050919050565b600060408201905061332c6000830185611eed565b6133396020830184611eed565b939250505056fea264697066735822122013fc9701764b9bb5d761deca9228b75d463207a840ce18c52ae501f5eb1e43ff64736f6c634300081b0033",
  "linkReferences": {},
  "deployedLinkReferences": {}
}