{
  "_format": "hh-sol-artifact-1",
  "contractName": "UserPlayerManager",
  "sourceName": "contracts/UserPlayerManager.sol",
  "abi": [
    {
      "inputs": [],
      "stateMutability": "nonpayable",
      "type": "constructor"
    },
    {
      "anonymous": false,
      "inputs": [
        {
          "indexed": true,
          "internalType": "address",
          "name": "sender",
          "type": "address"
        },
        {
          "indexed": false,
          "internalType": "uint256",
          "name": "amount",
          "type": "uint256"
        }
      ],
      "name": "DepositSuccessful",
      "type": "event"
    },
    {
      "anonymous": false,
      "inputs": [
        {
          "indexed": true,
          "internalType": "uint256",
          "name": "playerId",
          "type": "uint256"
        },
        {
          "indexed": false,
          "internalType": "string",
          "name": "name",
          "type": "string"
        },
        {
          "indexed": false,
          "internalType": "string",
          "name": "club",
          "type": "string"
        },
        {
          "indexed": false,
          "internalType": "uint256",
          "name": "position",
          "type": "uint256"
        },
        {
          "indexed": false,
          "internalType": "uint256",
          "name": "price",
          "type": "uint256"
        }
      ],
      "name": "PlayerCreated",
      "type": "event"
    },
    {
      "anonymous": false,
      "inputs": [
        {
          "indexed": true,
          "internalType": "address",
          "name": "player",
          "type": "address"
        },
        {
          "indexed": true,
          "internalType": "uint256",
          "name": "leagueId",
          "type": "uint256"
        },
        {
          "indexed": false,
          "internalType": "uint256",
          "name": "weekNumber",
          "type": "uint256"
        },
        {
          "indexed": false,
          "internalType": "uint256",
          "name": "points",
          "type": "uint256"
        }
      ],
      "name": "PlayerPointsUpdated",
      "type": "event"
    },
    {
      "anonymous": false,
      "inputs": [
        {
          "indexed": true,
          "internalType": "address",
          "name": "owner",
          "type": "address"
        },
        {
          "indexed": false,
          "internalType": "uint256",
          "name": "teamId",
          "type": "uint256"
        },
        {
          "indexed": false,
          "internalType": "uint256[]",
          "name": "playerIds",
          "type": "uint256[]"
        }
      ],
      "name": "TeamCreated",
      "type": "event"
    },
    {
      "anonymous": false,
      "inputs": [
        {
          "indexed": true,
          "internalType": "uint256",
          "name": "teamId",
          "type": "uint256"
        },
        {
          "indexed": true,
          "internalType": "address",
          "name": "owner",
          "type": "address"
        },
        {
          "indexed": true,
          "internalType": "uint256",
          "name": "leagueId",
          "type": "uint256"
        }
      ],
      "name": "TeamRegisteredInLeague",
      "type": "event"
    },
    {
      "anonymous": false,
      "inputs": [
        {
          "indexed": false,
          "internalType": "bytes32",
          "name": "txHash",
          "type": "bytes32"
        },
        {
          "indexed": true,
          "internalType": "uint256",
          "name": "id",
          "type": "uint256"
        },
        {
          "indexed": true,
          "internalType": "uint256",
          "name": "txType",
          "type": "uint256"
        },
        {
          "indexed": false,
          "internalType": "uint256",
          "name": "value",
          "type": "uint256"
        },
        {
          "indexed": true,
          "internalType": "address",
          "name": "sender",
          "type": "address"
        },
        {
          "indexed": false,
          "internalType": "address",
          "name": "receiver",
          "type": "address"
        },
        {
          "indexed": false,
          "internalType": "uint256",
          "name": "leagueId",
          "type": "uint256"
        }
      ],
      "name": "TransactionCreated",
      "type": "event"
    },
    {
      "anonymous": false,
      "inputs": [
        {
          "indexed": true,
          "internalType": "address",
          "name": "user",
          "type": "address"
        },
        {
          "indexed": false,
          "internalType": "string",
          "name": "name",
          "type": "string"
        }
      ],
      "name": "UserRegistered",
      "type": "event"
    },
    {
      "anonymous": false,
      "inputs": [
        {
          "indexed": true,
          "internalType": "address",
          "name": "receiver",
          "type": "address"
        },
        {
          "indexed": false,
          "internalType": "uint256",
          "name": "amount",
          "type": "uint256"
        }
      ],
      "name": "WithdrawSuccessful",
      "type": "event"
    },
    {
      "inputs": [],
      "name": "REQUIRED_DEFENDERS",
      "outputs": [
        {
          "internalType": "uint256",
          "name": "",
          "type": "uint256"
        }
      ],
      "stateMutability": "view",
      "type": "function"
    },
    {
      "inputs": [],
      "name": "REQUIRED_FORWARDS",
      "outputs": [
        {
          "internalType": "uint256",
          "name": "",
          "type": "uint256"
        }
      ],
      "stateMutability": "view",
      "type": "function"
    },
    {
      "inputs": [],
      "name": "REQUIRED_GOALKEEPERS",
      "outputs": [
        {
          "internalType": "uint256",
          "name": "",
          "type": "uint256"
        }
      ],
      "stateMutability": "view",
      "type": "function"
    },
    {
      "inputs": [],
      "name": "REQUIRED_MIDFIELDERS",
      "outputs": [
        {
          "internalType": "uint256",
          "name": "",
          "type": "uint256"
        }
      ],
      "stateMutability": "view",
      "type": "function"
    },
    {
      "inputs": [],
      "name": "TEAM_SIZE",
      "outputs": [
        {
          "internalType": "uint256",
          "name": "",
          "type": "uint256"
        }
      ],
      "stateMutability": "view",
      "type": "function"
    },
    {
      "inputs": [
        {
          "internalType": "address",
          "name": "_user",
          "type": "address"
        },
        {
          "internalType": "uint256",
          "name": "_teamId",
          "type": "uint256"
        }
      ],
      "name": "addTeamToUser",
      "outputs": [],
      "stateMutability": "nonpayable",
      "type": "function"
    },
    {
      "inputs": [
        {
          "internalType": "enum UserPlayerManager.TransactionType",
          "name": "_type",
          "type": "uint8"
        },
        {
          "internalType": "uint256",
          "name": "_value",
          "type": "uint256"
        },
        {
          "internalType": "address",
          "name": "_sender",
          "type": "address"
        },
        {
          "internalType": "address",
          "name": "_receiver",
          "type": "address"
        },
        {
          "internalType": "uint256",
          "name": "_leagueId",
          "type": "uint256"
        }
      ],
      "name": "addTransaction",
      "outputs": [
        {
          "internalType": "uint256",
          "name": "",
          "type": "uint256"
        }
      ],
      "stateMutability": "nonpayable",
      "type": "function"
    },
    {
      "inputs": [
        {
          "internalType": "address",
          "name": "_user",
          "type": "address"
        },
        {
          "internalType": "uint256",
          "name": "_leagueId",
          "type": "uint256"
        }
      ],
      "name": "addUserToLeague",
      "outputs": [],
      "stateMutability": "nonpayable",
      "type": "function"
    },
    {
      "inputs": [],
      "name": "admin",
      "outputs": [
        {
          "internalType": "address",
          "name": "",
          "type": "address"
        }
      ],
      "stateMutability": "view",
      "type": "function"
    },
    {
      "inputs": [
        {
          "internalType": "address",
          "name": "",
          "type": "address"
        },
        {
          "internalType": "uint256",
          "name": "teamId",
          "type": "uint256"
        }
      ],
      "name": "allTeams",
      "outputs": [
        {
          "internalType": "uint256",
          "name": "id",
          "type": "uint256"
        },
        {
          "internalType": "uint256",
          "name": "leagueId",
          "type": "uint256"
        },
        {
          "internalType": "uint256",
          "name": "points",
          "type": "uint256"
        },
        {
          "internalType": "address",
          "name": "owner",
          "type": "address"
        },
        {
          "internalType": "bool",
          "name": "exists",
          "type": "bool"
        },
        {
          "internalType": "bool",
          "name": "isRegistered",
          "type": "bool"
        }
      ],
      "stateMutability": "view",
      "type": "function"
    },
    {
      "inputs": [
        {
          "internalType": "uint256[]",
          "name": "playerIds",
          "type": "uint256[]"
        }
      ],
      "name": "calculateTeamValue",
      "outputs": [
        {
          "internalType": "uint256",
          "name": "",
          "type": "uint256"
        }
      ],
      "stateMutability": "view",
      "type": "function"
    },
    {
      "inputs": [
        {
          "internalType": "string",
          "name": "_name",
          "type": "string"
        },
        {
          "internalType": "string",
          "name": "_club",
          "type": "string"
        },
        {
          "internalType": "uint256",
          "name": "_position",
          "type": "uint256"
        },
        {
          "internalType": "uint256",
          "name": "_price",
          "type": "uint256"
        }
      ],
      "name": "createPlayer",
      "outputs": [],
      "stateMutability": "nonpayable",
      "type": "function"
    },
    {
      "inputs": [
        {
          "internalType": "uint256[]",
          "name": "_playerIds",
          "type": "uint256[]"
        }
      ],
      "name": "createTeam",
      "outputs": [],
      "stateMutability": "nonpayable",
      "type": "function"
    },
    {
      "inputs": [],
      "name": "deposit",
      "outputs": [],
      "stateMutability": "payable",
      "type": "function"
    },
    {
      "inputs": [
        {
          "internalType": "address",
          "name": "_user",
          "type": "address"
        }
      ],
      "name": "getBalance",
      "outputs": [
        {
          "internalType": "uint256",
          "name": "",
          "type": "uint256"
        }
      ],
      "stateMutability": "view",
      "type": "function"
    },
    {
      "inputs": [
        {
          "internalType": "uint256",
          "name": "_playerId",
          "type": "uint256"
        }
      ],
      "name": "getPlayer",
      "outputs": [
        {
          "components": [
            {
              "internalType": "uint256",
              "name": "playerId",
              "type": "uint256"
            },
            {
              "internalType": "string",
              "name": "name",
              "type": "string"
            },
            {
              "internalType": "string",
              "name": "club",
              "type": "string"
            },
            {
              "internalType": "uint256",
              "name": "position",
              "type": "uint256"
            },
            {
              "internalType": "uint256",
              "name": "price",
              "type": "uint256"
            },
            {
              "internalType": "uint256",
              "name": "points",
              "type": "uint256"
            },
            {
              "internalType": "bool",
              "name": "isActive",
              "type": "bool"
            }
          ],
          "internalType": "struct UserPlayerManager.Player",
          "name": "player",
          "type": "tuple"
        }
      ],
      "stateMutability": "view",
      "type": "function"
    },
    {
      "inputs": [
        {
          "internalType": "uint256",
          "name": "_playerId",
          "type": "uint256"
        },
        {
          "internalType": "uint256",
          "name": "_weekNumber",
          "type": "uint256"
        }
      ],
      "name": "getPlayerWeeklyPoints",
      "outputs": [
        {
          "internalType": "uint256",
          "name": "",
          "type": "uint256"
        }
      ],
      "stateMutability": "view",
      "type": "function"
    },
    {
      "inputs": [
        {
          "internalType": "address",
          "name": "_owner",
          "type": "address"
        },
        {
          "internalType": "uint256",
          "name": "_teamId",
          "type": "uint256"
        }
      ],
      "name": "getTeam",
      "outputs": [
        {
          "components": [
            {
              "internalType": "uint256",
              "name": "id",
              "type": "uint256"
            },
            {
              "internalType": "uint256",
              "name": "leagueId",
              "type": "uint256"
            },
            {
              "internalType": "uint256",
              "name": "points",
              "type": "uint256"
            },
            {
              "internalType": "address",
              "name": "owner",
              "type": "address"
            },
            {
              "internalType": "bool",
              "name": "exists",
              "type": "bool"
            },
            {
              "internalType": "bool",
              "name": "isRegistered",
              "type": "bool"
            },
            {
              "internalType": "uint256[]",
              "name": "playerIds",
              "type": "uint256[]"
            }
          ],
          "internalType": "struct UserPlayerManager.Team",
          "name": "",
          "type": "tuple"
        }
      ],
      "stateMutability": "view",
      "type": "function"
    },
    {
      "inputs": [
        {
          "internalType": "address",
          "name": "_user",
          "type": "address"
        }
      ],
      "name": "getUserTransactions",
      "outputs": [
        {
          "components": [
            {
              "internalType": "bytes32",
              "name": "txHash",
              "type": "bytes32"
            },
            {
              "internalType": "uint256",
              "name": "id",
              "type": "uint256"
            },
            {
              "internalType": "enum UserPlayerManager.TransactionType",
              "name": "txType",
              "type": "uint8"
            },
            {
              "internalType": "uint256",
              "name": "value",
              "type": "uint256"
            },
            {
              "internalType": "uint256",
              "name": "timestamp",
              "type": "uint256"
            },
            {
              "internalType": "address",
              "name": "sender",
              "type": "address"
            },
            {
              "internalType": "address",
              "name": "receiver",
              "type": "address"
            },
            {
              "internalType": "uint256",
              "name": "leagueId",
              "type": "uint256"
            }
          ],
          "internalType": "struct UserPlayerManager.Transaction[]",
          "name": "",
          "type": "tuple[]"
        }
      ],
      "stateMutability": "view",
      "type": "function"
    },
    {
      "inputs": [],
      "name": "playerCounter",
      "outputs": [
        {
          "internalType": "uint256",
          "name": "",
          "type": "uint256"
        }
      ],
      "stateMutability": "view",
      "type": "function"
    },
    {
      "inputs": [
        {
          "internalType": "string",
          "name": "",
          "type": "string"
        }
      ],
      "name": "playerNameExists",
      "outputs": [
        {
          "internalType": "bool",
          "name": "",
          "type": "bool"
        }
      ],
      "stateMutability": "view",
      "type": "function"
    },
    {
      "inputs": [
        {
          "internalType": "uint256",
          "name": "",
          "type": "uint256"
        }
      ],
      "name": "players",
      "outputs": [
        {
          "internalType": "uint256",
          "name": "playerId",
          "type": "uint256"
        },
        {
          "internalType": "string",
          "name": "name",
          "type": "string"
        },
        {
          "internalType": "string",
          "name": "club",
          "type": "string"
        },
        {
          "internalType": "uint256",
          "name": "position",
          "type": "uint256"
        },
        {
          "internalType": "uint256",
          "name": "price",
          "type": "uint256"
        },
        {
          "internalType": "uint256",
          "name": "points",
          "type": "uint256"
        },
        {
          "internalType": "bool",
          "name": "isActive",
          "type": "bool"
        }
      ],
      "stateMutability": "view",
      "type": "function"
    },
    {
      "inputs": [
        {
          "internalType": "uint256",
          "name": "_teamId",
          "type": "uint256"
        },
        {
          "internalType": "address",
          "name": "_owner",
          "type": "address"
        },
        {
          "internalType": "uint256",
          "name": "_leagueId",
          "type": "uint256"
        }
      ],
      "name": "registerTeamInLeague",
      "outputs": [],
      "stateMutability": "nonpayable",
      "type": "function"
    },
    {
      "inputs": [],
      "name": "teamCounter",
      "outputs": [
        {
          "internalType": "uint256",
          "name": "",
          "type": "uint256"
        }
      ],
      "stateMutability": "view",
      "type": "function"
    },
    {
      "inputs": [],
      "name": "transactionCounter",
      "outputs": [
        {
          "internalType": "uint256",
          "name": "",
          "type": "uint256"
        }
      ],
      "stateMutability": "view",
      "type": "function"
    },
    {
      "inputs": [
        {
          "internalType": "uint256",
          "name": "_playerId",
          "type": "uint256"
        },
        {
          "internalType": "string",
          "name": "_club",
          "type": "string"
        },
        {
          "internalType": "uint256",
          "name": "_position",
          "type": "uint256"
        },
        {
          "internalType": "uint256",
          "name": "_price",
          "type": "uint256"
        },
        {
          "internalType": "bool",
          "name": "_isActive",
          "type": "bool"
        }
      ],
      "name": "updatePlayer",
      "outputs": [],
      "stateMutability": "nonpayable",
      "type": "function"
    },
    {
      "inputs": [
        {
          "internalType": "address",
          "name": "_user",
          "type": "address"
        },
        {
          "internalType": "uint256",
          "name": "_amount",
          "type": "uint256"
        }
      ],
      "name": "updateUserBalances",
      "outputs": [],
      "stateMutability": "nonpayable",
      "type": "function"
    },
    {
      "inputs": [
        {
          "internalType": "address",
          "name": "",
          "type": "address"
        }
      ],
      "name": "userBalances",
      "outputs": [
        {
          "internalType": "uint256",
          "name": "",
          "type": "uint256"
        }
      ],
      "stateMutability": "view",
      "type": "function"
    },
    {
      "inputs": [],
      "name": "userCounter",
      "outputs": [
        {
          "internalType": "uint256",
          "name": "",
          "type": "uint256"
        }
      ],
      "stateMutability": "view",
      "type": "function"
    },
    {
      "inputs": [
        {
          "internalType": "address",
          "name": "",
          "type": "address"
        },
        {
          "internalType": "uint256",
          "name": "",
          "type": "uint256"
        }
      ],
      "name": "userLeagues",
      "outputs": [
        {
          "internalType": "uint256",
          "name": "",
          "type": "uint256"
        }
      ],
      "stateMutability": "view",
      "type": "function"
    },
    {
      "inputs": [
        {
          "internalType": "address",
          "name": "",
          "type": "address"
        },
        {
          "internalType": "uint256",
          "name": "",
          "type": "uint256"
        }
      ],
      "name": "userTeams",
      "outputs": [
        {
          "internalType": "uint256",
          "name": "",
          "type": "uint256"
        }
      ],
      "stateMutability": "view",
      "type": "function"
    },
    {
      "inputs": [
        {
          "internalType": "address",
          "name": "",
          "type": "address"
        },
        {
          "internalType": "uint256",
          "name": "",
          "type": "uint256"
        }
      ],
      "name": "userTransactions",
      "outputs": [
        {
          "internalType": "bytes32",
          "name": "txHash",
          "type": "bytes32"
        },
        {
          "internalType": "uint256",
          "name": "id",
          "type": "uint256"
        },
        {
          "internalType": "enum UserPlayerManager.TransactionType",
          "name": "txType",
          "type": "uint8"
        },
        {
          "internalType": "uint256",
          "name": "value",
          "type": "uint256"
        },
        {
          "internalType": "uint256",
          "name": "timestamp",
          "type": "uint256"
        },
        {
          "internalType": "address",
          "name": "sender",
          "type": "address"
        },
        {
          "internalType": "address",
          "name": "receiver",
          "type": "address"
        },
        {
          "internalType": "uint256",
          "name": "leagueId",
          "type": "uint256"
        }
      ],
      "stateMutability": "view",
      "type": "function"
    },
    {
      "inputs": [
        {
          "internalType": "address",
          "name": "",
          "type": "address"
        }
      ],
      "name": "users",
      "outputs": [
        {
          "internalType": "uint256",
          "name": "id",
          "type": "uint256"
        },
        {
          "internalType": "string",
          "name": "name",
          "type": "string"
        },
        {
          "internalType": "bool",
          "name": "isRegistered",
          "type": "bool"
        }
      ],
      "stateMutability": "view",
      "type": "function"
    },
    {
      "inputs": [
        {
          "internalType": "uint256[]",
          "name": "playerIds",
          "type": "uint256[]"
        }
      ],
      "name": "validateTeamPlayers",
      "outputs": [
        {
          "internalType": "bool",
          "name": "",
          "type": "bool"
        }
      ],
      "stateMutability": "view",
      "type": "function"
    },
    {
      "inputs": [
        {
          "internalType": "uint256",
          "name": "",
          "type": "uint256"
        },
        {
          "internalType": "uint256",
          "name": "",
          "type": "uint256"
        }
      ],
      "name": "weeklyPlayerPoints",
      "outputs": [
        {
          "internalType": "uint256",
          "name": "",
          "type": "uint256"
        }
      ],
      "stateMutability": "view",
      "type": "function"
    },
    {
      "inputs": [
        {
          "internalType": "uint256",
          "name": "_amount",
          "type": "uint256"
        }
      ],
      "name": "withdraw",
      "outputs": [],
      "stateMutability": "nonpayable",
      "type": "function"
    }
  ],
  "bytecode": "0x6080604052348015600f57600080fd5b50336000806101000a81548173ffffffffffffffffffffffffffffffffffffffff021916908373ffffffffffffffffffffffffffffffffffffffff1602179055506148698061005f6000396000f3fe60806040526004361061020f5760003560e01c8063a79eb0d111610118578063de03fd35116100a0578063f0c37a591161006f578063f0c37a5914610822578063f28d718d1461084d578063f71d96cb1461088a578063f851a440146108cd578063f8b2cb4f146108f85761020f565b8063de03fd3514610742578063e55ae4e81461077f578063e82aa31f146107bc578063ef925399146107e55761020f565b8063ba09b2c8116100e7578063ba09b2c81461066a578063c40717f614610695578063cff2bfc8146106d2578063d0e30db01461070f578063dab63d08146107195761020f565b8063a79eb0d114610591578063a87430ba146105bc578063b6d7a2fc146105fb578063b842ec44146106265761020f565b8063427e68861161019b578063672cb78e1161016a578063672cb78e1461048157806380f78b3f146104c35780638c91efa714610500578063a31ca4b51461052b578063a4e40e73146105545761020f565b8063427e6886146103c957806351ab96f0146103f25780635511384e1461042f5780635d6585c1146104585761020f565b806324f38ebc116101e257806324f38ebc146102e457806326224c641461030d5780632e1a7d4d1461034a57806334aacb2e1461037357806335eb2be21461039e5761020f565b806307e153ae1461021457806312d836d61461023f57806314e887e81461027c57806323d26f80146102a7575b600080fd5b34801561022057600080fd5b50610229610935565b6040516102369190612b8e565b60405180910390f35b34801561024b57600080fd5b5061026660048036038101906102619190612be9565b61093a565b6040516102739190612b8e565b60405180910390f35b34801561028857600080fd5b5061029161095f565b60405161029e9190612b8e565b60405180910390f35b3480156102b357600080fd5b506102ce60048036038101906102c99190612c87565b610965565b6040516102db9190612b8e565b60405180910390f35b3480156102f057600080fd5b5061030b60048036038101906103069190612cc7565b610996565b005b34801561031957600080fd5b50610334600480360381019061032f9190612d1a565b610bff565b6040516103419190612b8e565b60405180910390f35b34801561035657600080fd5b50610371600480360381019061036c9190612d47565b610c17565b005b34801561037f57600080fd5b50610388610f04565b6040516103959190612b8e565b60405180910390f35b3480156103aa57600080fd5b506103b3610f09565b6040516103c09190612b8e565b60405180910390f35b3480156103d557600080fd5b506103f060048036038101906103eb9190612dd9565b610f0f565b005b3480156103fe57600080fd5b5061041960048036038101906104149190612ea5565b6112c0565b6040516104269190612b8e565b60405180910390f35b34801561043b57600080fd5b5061045660048036038101906104519190612c87565b611571565b005b34801561046457600080fd5b5061047f600480360381019061047a9190612c87565b6115cb565b005b34801561048d57600080fd5b506104a860048036038101906104a39190612c87565b611635565b6040516104ba96959493929190612f4a565b60405180910390f35b3480156104cf57600080fd5b506104ea60048036038101906104e59190612c87565b6116b8565b6040516104f79190613123565b60405180910390f35b34801561050c57600080fd5b5061051561186f565b6040516105229190612b8e565b60405180910390f35b34801561053757600080fd5b50610552600480360381019061054d91906132b2565b611874565b005b34801561056057600080fd5b5061057b60048036038101906105769190612c87565b6119a6565b6040516105889190612b8e565b60405180910390f35b34801561059d57600080fd5b506105a66119d7565b6040516105b39190612b8e565b60405180910390f35b3480156105c857600080fd5b506105e360048036038101906105de9190612d1a565b6119dc565b6040516105f2939291906133c8565b60405180910390f35b34801561060757600080fd5b50610610611a9b565b60405161061d9190612b8e565b60405180910390f35b34801561063257600080fd5b5061064d60048036038101906106489190612c87565b611aa1565b604051610661989796959493929190613496565b60405180910390f35b34801561067657600080fd5b5061067f611b53565b60405161068c9190612b8e565b60405180910390f35b3480156106a157600080fd5b506106bc60048036038101906106b7919061356a565b611b58565b6040516106c991906135b7565b60405180910390f35b3480156106de57600080fd5b506106f960048036038101906106f4919061356a565b611eb6565b6040516107069190612b8e565b60405180910390f35b610717611f7e565b005b34801561072557600080fd5b50610740600480360381019061073b9190612c87565b61213b565b005b34801561074e57600080fd5b5061076960048036038101906107649190612be9565b6121a5565b6040516107769190612b8e565b60405180910390f35b34801561078b57600080fd5b506107a660048036038101906107a19190612d47565b612219565b6040516107b391906136bf565b60405180910390f35b3480156107c857600080fd5b506107e360048036038101906107de919061356a565b6123f2565b005b3480156107f157600080fd5b5061080c60048036038101906108079190612d1a565b6126b5565b6040516108199190613851565b60405180910390f35b34801561082e57600080fd5b5061083761286d565b6040516108449190612b8e565b60405180910390f35b34801561085957600080fd5b50610874600480360381019061086f9190613873565b612873565b60405161088191906135b7565b60405180910390f35b34801561089657600080fd5b506108b160048036038101906108ac9190612d47565b6128a9565b6040516108c497969594939291906138bc565b60405180910390f35b3480156108d957600080fd5b506108e2612a08565b6040516108ef9190613939565b60405180910390f35b34801561090457600080fd5b5061091f600480360381019061091a9190612d1a565b612a2c565b60405161092c9190612b8e565b60405180910390f35b600381565b600e602052816000526040600020602052806000526040600020600091509150505481565b60045481565b6009602052816000526040600020818154811061098157600080fd5b90600052602060002001600091509150505481565b600073ffffffffffffffffffffffffffffffffffffffff163373ffffffffffffffffffffffffffffffffffffffff1603610a05576040517f08c379a00000000000000000000000000000000000000000000000000000000081526004016109fc906139a0565b60405180910390fd5b6000600b60008473ffffffffffffffffffffffffffffffffffffffff1673ffffffffffffffffffffffffffffffffffffffff168152602001908152602001600020600085815260200190815260200160002090508060030160149054906101000a900460ff16610aaa576040517f08c379a0000000000000000000000000000000000000000000000000000000008152600401610aa190613a0c565b60405180910390fd5b8060030160159054906101000a900460ff1615610afc576040517f08c379a0000000000000000000000000000000000000000000000000000000008152600401610af390613a78565b60405180910390fd5b8273ffffffffffffffffffffffffffffffffffffffff168160030160009054906101000a900473ffffffffffffffffffffffffffffffffffffffff1673ffffffffffffffffffffffffffffffffffffffff1614610b8e576040517f08c379a0000000000000000000000000000000000000000000000000000000008152600401610b8590613ae4565b60405180910390fd5b60018160030160156101000a81548160ff021916908315150217905550818160010181905550818373ffffffffffffffffffffffffffffffffffffffff16857fccab5bd9065bceb938c5912873f5212c913259200c29b1af53486e60b962ae6560405160405180910390a450505050565b60076020528060005260406000206000915090505481565b600260055403610c5c576040517f08c379a0000000000000000000000000000000000000000000000000000000008152600401610c5390613b50565b60405180910390fd5b6002600581905550600073ffffffffffffffffffffffffffffffffffffffff163373ffffffffffffffffffffffffffffffffffffffff1603610cd3576040517f08c379a0000000000000000000000000000000000000000000000000000000008152600401610cca90613bbc565b60405180910390fd5b60008111610d16576040517f08c379a0000000000000000000000000000000000000000000000000000000008152600401610d0d90613c28565b60405180910390fd5b80600760003373ffffffffffffffffffffffffffffffffffffffff1673ffffffffffffffffffffffffffffffffffffffff168152602001908152602001600020541015610d98576040517f08c379a0000000000000000000000000000000000000000000000000000000008152600401610d8f90613c94565b60405180910390fd5b80600760003373ffffffffffffffffffffffffffffffffffffffff1673ffffffffffffffffffffffffffffffffffffffff1681526020019081526020016000206000828254610de79190613ce3565b9250508190555060003373ffffffffffffffffffffffffffffffffffffffff1682604051610e1490613d48565b60006040518083038185875af1925050503d8060008114610e51576040519150601f19603f3d011682016040523d82523d6000602084013e610e56565b606091505b5050905080610e9a576040517f08c379a0000000000000000000000000000000000000000000000000000000008152600401610e9190613da9565b60405180910390fd5b610ea9600283333360006112c0565b503373ffffffffffffffffffffffffffffffffffffffff167f84e742a3ea03623687a5febaa797636d728230721d4b3d1405d19fbbc16298d983604051610ef09190612b8e565b60405180910390a250600160058190555050565b600f81565b60025481565b60008054906101000a900473ffffffffffffffffffffffffffffffffffffffff1673ffffffffffffffffffffffffffffffffffffffff163373ffffffffffffffffffffffffffffffffffffffff1614610f9d576040517f08c379a0000000000000000000000000000000000000000000000000000000008152600401610f9490613e15565b60405180910390fd5b60008686905011610fe3576040517f08c379a0000000000000000000000000000000000000000000000000000000008152600401610fda90613e81565b60405180910390fd5b60008484905011611029576040517f08c379a000000000000000000000000000000000000000000000000000000000815260040161102090613eed565b60405180910390fd5b6000811161106c576040517f08c379a000000000000000000000000000000000000000000000000000000000815260040161106390613f59565b60405180910390fd5b600d868660405161107e929190613fa9565b908152602001604051809103902060009054906101000a900460ff16156110da576040517f08c379a00000000000000000000000000000000000000000000000000000000081526004016110d19061400e565b60405180910390fd5b60006003600081546110eb9061402e565b91905081905590506040518060e0016040528082815260200188888080601f016020809104026020016040519081016040528093929190818152602001838380828437600081840152601f19601f82011690508083019250505050505050815260200186868080601f016020809104026020016040519081016040528093929190818152602001838380828437600081840152601f19601f8201169050808301925050505050505081526020018481526020018381526020016000815260200160011515815250600c60008381526020019081526020016000206000820151816000015560208201518160010190816111e49190614282565b5060408201518160020190816111fa9190614282565b50606082015181600301556080820151816004015560a0820151816005015560c08201518160060160006101000a81548160ff0219169083151502179055509050506001600d8888604051611250929190613fa9565b908152602001604051809103902060006101000a81548160ff021916908315150217905550807fde362b42458bb62dc23b2691d14ba17e1eccb25e58e0ea2bf43fd8fa84322f628888888888886040516112af96959493929190614381565b60405180910390a250505050505050565b6000806004600081546112d29061402e565b91905081905590506000818860038111156112f0576112ef61341f565b5b884289898960405160200161130b9796959493929190614441565b60405160208183030381529060405280519060200120905060006040518061010001604052808381526020018481526020018a60038111156113505761134f61341f565b5b81526020018981526020014281526020018873ffffffffffffffffffffffffffffffffffffffff1681526020018773ffffffffffffffffffffffffffffffffffffffff168152602001868152509050600a60008873ffffffffffffffffffffffffffffffffffffffff1673ffffffffffffffffffffffffffffffffffffffff168152602001908152602001600020819080600181540180825580915050600190039060005260206000209060080201600090919091909150600082015181600001556020820151816001015560408201518160020160006101000a81548160ff021916908360038111156114475761144661341f565b5b0217905550606082015181600301556080820151816004015560a08201518160050160006101000a81548173ffffffffffffffffffffffffffffffffffffffff021916908373ffffffffffffffffffffffffffffffffffffffff16021790555060c08201518160060160006101000a81548173ffffffffffffffffffffffffffffffffffffffff021916908373ffffffffffffffffffffffffffffffffffffffff16021790555060e0820151816007015550508673ffffffffffffffffffffffffffffffffffffffff168960038111156115245761152361341f565b5b847f1b770a80b129a91fd953ff66026d1ae3348eee0e55f247d3b0a77b0ec6ebda39858c8b8b60405161155a94939291906144c2565b60405180910390a482935050505095945050505050565b80600760008473ffffffffffffffffffffffffffffffffffffffff1673ffffffffffffffffffffffffffffffffffffffff16815260200190815260200160002060008282546115c09190614507565b925050819055505050565b600960008373ffffffffffffffffffffffffffffffffffffffff1673ffffffffffffffffffffffffffffffffffffffff1681526020019081526020016000208190806001815401808255809150506001900390600052602060002001600090919091909150555050565b600b602052816000526040600020602052806000526040600020600091509150508060000154908060010154908060020154908060030160009054906101000a900473ffffffffffffffffffffffffffffffffffffffff16908060030160149054906101000a900460ff16908060030160159054906101000a900460ff16905086565b6116c0612a75565b6000600b60008573ffffffffffffffffffffffffffffffffffffffff1673ffffffffffffffffffffffffffffffffffffffff16815260200190815260200160002060008481526020019081526020016000206040518060e00160405290816000820154815260200160018201548152602001600282015481526020016003820160009054906101000a900473ffffffffffffffffffffffffffffffffffffffff1673ffffffffffffffffffffffffffffffffffffffff1673ffffffffffffffffffffffffffffffffffffffff1681526020016003820160149054906101000a900460ff161515151581526020016003820160159054906101000a900460ff161515151581526020016004820180548060200260200160405190810160405280929190818152602001828054801561181657602002820191906000526020600020905b815481526020019060010190808311611802575b50505050508152505090508060800151611865576040517f08c379a000000000000000000000000000000000000000000000000000000000815260040161185c90614587565b60405180910390fd5b8091505092915050565b600281565b60008054906101000a900473ffffffffffffffffffffffffffffffffffffffff1673ffffffffffffffffffffffffffffffffffffffff163373ffffffffffffffffffffffffffffffffffffffff1614611902576040517f08c379a00000000000000000000000000000000000000000000000000000000081526004016118f990613e15565b60405180910390fd5b600354851115611947576040517f08c379a000000000000000000000000000000000000000000000000000000000815260040161193e906145f3565b60405180910390fd5b6000600c600087815260200190815260200160002090508481600201908161196f9190614282565b50838160030181905550828160040181905550818160060160006101000a81548160ff021916908315150217905550505050505050565b600860205281600052604060002081815481106119c257600080fd5b90600052602060002001600091509150505481565b600581565b6006602052806000526040600020600091509050806000015490806001018054611a05906140a5565b80601f0160208091040260200160405190810160405280929190818152602001828054611a31906140a5565b8015611a7e5780601f10611a5357610100808354040283529160200191611a7e565b820191906000526020600020905b815481529060010190602001808311611a6157829003601f168201915b5050505050908060020160009054906101000a900460ff16905083565b60035481565b600a6020528160005260406000208181548110611abd57600080fd5b9060005260206000209060080201600091509150508060000154908060010154908060020160009054906101000a900460ff16908060030154908060040154908060050160009054906101000a900473ffffffffffffffffffffffffffffffffffffffff16908060060160009054906101000a900473ffffffffffffffffffffffffffffffffffffffff16908060070154905088565b600581565b6000600f8383905014611ba0576040517f08c379a0000000000000000000000000000000000000000000000000000000008152600401611b979061465f565b60405180910390fd5b60008060008060005b87879050811015611e8157600354888883818110611bca57611bc961467f565b5b905060200201351115611c12576040517f08c379a0000000000000000000000000000000000000000000000000000000008152600401611c09906145f3565b60405180910390fd5b6000600c60008a8a85818110611c2b57611c2a61467f565b5b9050602002013581526020019081526020016000206040518060e001604052908160008201548152602001600182018054611c65906140a5565b80601f0160208091040260200160405190810160405280929190818152602001828054611c91906140a5565b8015611cde5780601f10611cb357610100808354040283529160200191611cde565b820191906000526020600020905b815481529060010190602001808311611cc157829003601f168201915b50505050508152602001600282018054611cf7906140a5565b80601f0160208091040260200160405190810160405280929190818152602001828054611d23906140a5565b8015611d705780601f10611d4557610100808354040283529160200191611d70565b820191906000526020600020905b815481529060010190602001808311611d5357829003601f168201915b505050505081526020016003820154815260200160048201548152602001600582015481526020016006820160009054906101000a900460ff16151515158152505090508060c00151611df8576040517f08c379a0000000000000000000000000000000000000000000000000000000008152600401611def906146fa565b60405180910390fd5b6001816060015103611e17578580611e0f9061402e565b965050611e73565b6002816060015103611e36578480611e2e9061402e565b955050611e72565b6003816060015103611e55578380611e4d9061402e565b945050611e71565b6004816060015103611e70578280611e6c9061402e565b9350505b5b5b5b508080600101915050611ba9565b50600284148015611e925750600583145b8015611e9e5750600582145b8015611eaa5750600381145b94505050505092915050565b6000806000905060005b84849050811015611f7357600354858583818110611ee157611ee061467f565b5b905060200201351115611f29576040517f08c379a0000000000000000000000000000000000000000000000000000000008152600401611f20906145f3565b60405180910390fd5b600c6000868684818110611f4057611f3f61467f565b5b9050602002013581526020019081526020016000206004015482611f649190614507565b91508080600101915050611ec0565b508091505092915050565b600260055403611fc3576040517f08c379a0000000000000000000000000000000000000000000000000000000008152600401611fba90613b50565b60405180910390fd5b6002600581905550600073ffffffffffffffffffffffffffffffffffffffff163373ffffffffffffffffffffffffffffffffffffffff160361203a576040517f08c379a000000000000000000000000000000000000000000000000000000000815260040161203190613bbc565b60405180910390fd5b6000341161207d576040517f08c379a000000000000000000000000000000000000000000000000000000000815260040161207490614766565b60405180910390fd5b34600760003373ffffffffffffffffffffffffffffffffffffffff1673ffffffffffffffffffffffffffffffffffffffff16815260200190815260200160002060008282546120cc9190614507565b925050819055506120e2600134333060006112c0565b503373ffffffffffffffffffffffffffffffffffffffff167fb3ef81558ed1a50072a492984535a009da8b129c749500b387f1e5f4886bdde5346040516121299190612b8e565b60405180910390a26001600581905550565b600860008373ffffffffffffffffffffffffffffffffffffffff1673ffffffffffffffffffffffffffffffffffffffff1681526020019081526020016000208190806001815401808255809150506001900390600052602060002001600090919091909150555050565b60006003548311156121ec576040517f08c379a00000000000000000000000000000000000000000000000000000000081526004016121e3906145f3565b60405180910390fd5b600e6000848152602001908152602001600020600083815260200190815260200160002054905092915050565b612221612acc565b600354821115612266576040517f08c379a000000000000000000000000000000000000000000000000000000000815260040161225d906145f3565b60405180910390fd5b600c60008381526020019081526020016000206040518060e00160405290816000820154815260200160018201805461229e906140a5565b80601f01602080910402602001604051908101604052809291908181526020018280546122ca906140a5565b80156123175780601f106122ec57610100808354040283529160200191612317565b820191906000526020600020905b8154815290600101906020018083116122fa57829003601f168201915b50505050508152602001600282018054612330906140a5565b80601f016020809104026020016040519081016040528092919081815260200182805461235c906140a5565b80156123a95780601f1061237e576101008083540402835291602001916123a9565b820191906000526020600020905b81548152906001019060200180831161238c57829003601f168201915b505050505081526020016003820154815260200160048201548152602001600582015481526020016006820160009054906101000a900460ff1615151515815250509050919050565b600f8282905014612438576040517f08c379a000000000000000000000000000000000000000000000000000000000815260040161242f9061465f565b60405180910390fd5b60006002600081546124499061402e565b91905081905590506040518060e0016040528082815260200160008152602001600081526020013373ffffffffffffffffffffffffffffffffffffffff168152602001600115158152602001600015158152602001848480806020026020016040519081016040528093929190818152602001838360200280828437600081840152601f19601f82011690508083019250505050505050815250600b60003373ffffffffffffffffffffffffffffffffffffffff1673ffffffffffffffffffffffffffffffffffffffff168152602001908152602001600020600083815260200190815260200160002060008201518160000155602082015181600101556040820151816002015560608201518160030160006101000a81548173ffffffffffffffffffffffffffffffffffffffff021916908373ffffffffffffffffffffffffffffffffffffffff16021790555060808201518160030160146101000a81548160ff02191690831515021790555060a08201518160030160156101000a81548160ff02191690831515021790555060c08201518160040190805190602001906125f4929190612b0b565b50905050600960003373ffffffffffffffffffffffffffffffffffffffff1673ffffffffffffffffffffffffffffffffffffffff1681526020019081526020016000208190806001815401808255809150506001900390600052602060002001600090919091909150553373ffffffffffffffffffffffffffffffffffffffff167fa0fe123019ee531d372c509e3e25503540cef5e04283a77dec746880b414c42a8285856040516126a893929190614801565b60405180910390a2505050565b6060600a60008373ffffffffffffffffffffffffffffffffffffffff1673ffffffffffffffffffffffffffffffffffffffff168152602001908152602001600020805480602002602001604051908101604052809291908181526020016000905b8282101561286257838290600052602060002090600802016040518061010001604052908160008201548152602001600182015481526020016002820160009054906101000a900460ff1660038111156127735761277261341f565b5b60038111156127855761278461341f565b5b815260200160038201548152602001600482015481526020016005820160009054906101000a900473ffffffffffffffffffffffffffffffffffffffff1673ffffffffffffffffffffffffffffffffffffffff1673ffffffffffffffffffffffffffffffffffffffff1681526020016006820160009054906101000a900473ffffffffffffffffffffffffffffffffffffffff1673ffffffffffffffffffffffffffffffffffffffff1673ffffffffffffffffffffffffffffffffffffffff16815260200160078201548152505081526020019060010190612716565b505050509050919050565b60015481565b600d818051602081018201805184825260208301602085012081835280955050505050506000915054906101000a900460ff1681565b600c6020528060005260406000206000915090508060000154908060010180546128d2906140a5565b80601f01602080910402602001604051908101604052809291908181526020018280546128fe906140a5565b801561294b5780601f106129205761010080835404028352916020019161294b565b820191906000526020600020905b81548152906001019060200180831161292e57829003601f168201915b505050505090806002018054612960906140a5565b80601f016020809104026020016040519081016040528092919081815260200182805461298c906140a5565b80156129d95780601f106129ae576101008083540402835291602001916129d9565b820191906000526020600020905b8154815290600101906020018083116129bc57829003601f168201915b5050505050908060030154908060040154908060050154908060060160009054906101000a900460ff16905087565b60008054906101000a900473ffffffffffffffffffffffffffffffffffffffff1681565b6000600760008373ffffffffffffffffffffffffffffffffffffffff1673ffffffffffffffffffffffffffffffffffffffff168152602001908152602001600020549050919050565b6040518060e00160405280600081526020016000815260200160008152602001600073ffffffffffffffffffffffffffffffffffffffff168152602001600015158152602001600015158152602001606081525090565b6040518060e001604052806000815260200160608152602001606081526020016000815260200160008152602001600081526020016000151581525090565b828054828255906000526020600020908101928215612b47579160200282015b82811115612b46578251825591602001919060010190612b2b565b5b509050612b549190612b58565b5090565b5b80821115612b71576000816000905550600101612b59565b5090565b6000819050919050565b612b8881612b75565b82525050565b6000602082019050612ba36000830184612b7f565b92915050565b6000604051905090565b600080fd5b600080fd5b612bc681612b75565b8114612bd157600080fd5b50565b600081359050612be381612bbd565b92915050565b60008060408385031215612c0057612bff612bb3565b5b6000612c0e85828601612bd4565b9250506020612c1f85828601612bd4565b9150509250929050565b600073ffffffffffffffffffffffffffffffffffffffff82169050919050565b6000612c5482612c29565b9050919050565b612c6481612c49565b8114612c6f57600080fd5b50565b600081359050612c8181612c5b565b92915050565b60008060408385031215612c9e57612c9d612bb3565b5b6000612cac85828601612c72565b9250506020612cbd85828601612bd4565b9150509250929050565b600080600060608486031215612ce057612cdf612bb3565b5b6000612cee86828701612bd4565b9350506020612cff86828701612c72565b9250506040612d1086828701612bd4565b9150509250925092565b600060208284031215612d3057612d2f612bb3565b5b6000612d3e84828501612c72565b91505092915050565b600060208284031215612d5d57612d5c612bb3565b5b6000612d6b84828501612bd4565b91505092915050565b600080fd5b600080fd5b600080fd5b60008083601f840112612d9957612d98612d74565b5b8235905067ffffffffffffffff811115612db657612db5612d79565b5b602083019150836001820283011115612dd257612dd1612d7e565b5b9250929050565b60008060008060008060808789031215612df657612df5612bb3565b5b600087013567ffffffffffffffff811115612e1457612e13612bb8565b5b612e2089828a01612d83565b9650965050602087013567ffffffffffffffff811115612e4357612e42612bb8565b5b612e4f89828a01612d83565b94509450506040612e6289828a01612bd4565b9250506060612e7389828a01612bd4565b9150509295509295509295565b60048110612e8d57600080fd5b50565b600081359050612e9f81612e80565b92915050565b600080600080600060a08688031215612ec157612ec0612bb3565b5b6000612ecf88828901612e90565b9550506020612ee088828901612bd4565b9450506040612ef188828901612c72565b9350506060612f0288828901612c72565b9250506080612f1388828901612bd4565b9150509295509295909350565b612f2981612c49565b82525050565b60008115159050919050565b612f4481612f2f565b82525050565b600060c082019050612f5f6000830189612b7f565b612f6c6020830188612b7f565b612f796040830187612b7f565b612f866060830186612f20565b612f936080830185612f3b565b612fa060a0830184612f3b565b979650505050505050565b612fb481612b75565b82525050565b612fc381612c49565b82525050565b612fd281612f2f565b82525050565b600081519050919050565b600082825260208201905092915050565b6000819050602082019050919050565b60006130108383612fab565b60208301905092915050565b6000602082019050919050565b600061303482612fd8565b61303e8185612fe3565b935061304983612ff4565b8060005b8381101561307a5781516130618882613004565b975061306c8361301c565b92505060018101905061304d565b5085935050505092915050565b600060e08301600083015161309f6000860182612fab565b5060208301516130b26020860182612fab565b5060408301516130c56040860182612fab565b5060608301516130d86060860182612fba565b5060808301516130eb6080860182612fc9565b5060a08301516130fe60a0860182612fc9565b5060c083015184820360c08601526131168282613029565b9150508091505092915050565b6000602082019050818103600083015261313d8184613087565b905092915050565b600080fd5b6000601f19601f8301169050919050565b7f4e487b7100000000000000000000000000000000000000000000000000000000600052604160045260246000fd5b6131938261314a565b810181811067ffffffffffffffff821117156131b2576131b161315b565b5b80604052505050565b60006131c5612ba9565b90506131d1828261318a565b919050565b600067ffffffffffffffff8211156131f1576131f061315b565b5b6131fa8261314a565b9050602081019050919050565b82818337600083830152505050565b6000613229613224846131d6565b6131bb565b90508281526020810184848401111561324557613244613145565b5b613250848285613207565b509392505050565b600082601f83011261326d5761326c612d74565b5b813561327d848260208601613216565b91505092915050565b61328f81612f2f565b811461329a57600080fd5b50565b6000813590506132ac81613286565b92915050565b600080600080600060a086880312156132ce576132cd612bb3565b5b60006132dc88828901612bd4565b955050602086013567ffffffffffffffff8111156132fd576132fc612bb8565b5b61330988828901613258565b945050604061331a88828901612bd4565b935050606061332b88828901612bd4565b925050608061333c8882890161329d565b9150509295509295909350565b600081519050919050565b600082825260208201905092915050565b60005b83811015613383578082015181840152602081019050613368565b60008484015250505050565b600061339a82613349565b6133a48185613354565b93506133b4818560208601613365565b6133bd8161314a565b840191505092915050565b60006060820190506133dd6000830186612b7f565b81810360208301526133ef818561338f565b90506133fe6040830184612f3b565b949350505050565b6000819050919050565b61341981613406565b82525050565b7f4e487b7100000000000000000000000000000000000000000000000000000000600052602160045260246000fd5b6004811061345f5761345e61341f565b5b50565b60008190506134708261344e565b919050565b600061348082613462565b9050919050565b61349081613475565b82525050565b6000610100820190506134ac600083018b613410565b6134b9602083018a612b7f565b6134c66040830189613487565b6134d36060830188612b7f565b6134e06080830187612b7f565b6134ed60a0830186612f20565b6134fa60c0830185612f20565b61350760e0830184612b7f565b9998505050505050505050565b60008083601f84011261352a57613529612d74565b5b8235905067ffffffffffffffff81111561354757613546612d79565b5b60208301915083602082028301111561356357613562612d7e565b5b9250929050565b6000806020838503121561358157613580612bb3565b5b600083013567ffffffffffffffff81111561359f5761359e612bb8565b5b6135ab85828601613514565b92509250509250929050565b60006020820190506135cc6000830184612f3b565b92915050565b600082825260208201905092915050565b60006135ee82613349565b6135f881856135d2565b9350613608818560208601613365565b6136118161314a565b840191505092915050565b600060e0830160008301516136346000860182612fab565b506020830151848203602086015261364c82826135e3565b9150506040830151848203604086015261366682826135e3565b915050606083015161367b6060860182612fab565b50608083015161368e6080860182612fab565b5060a08301516136a160a0860182612fab565b5060c08301516136b460c0860182612fc9565b508091505092915050565b600060208201905081810360008301526136d9818461361c565b905092915050565b600081519050919050565b600082825260208201905092915050565b6000819050602082019050919050565b61371681613406565b82525050565b61372581613475565b82525050565b61010082016000820151613742600085018261370d565b5060208201516137556020850182612fab565b506040820151613768604085018261371c565b50606082015161377b6060850182612fab565b50608082015161378e6080850182612fab565b5060a08201516137a160a0850182612fba565b5060c08201516137b460c0850182612fba565b5060e08201516137c760e0850182612fab565b50505050565b60006137d9838361372b565b6101008301905092915050565b6000602082019050919050565b60006137fe826136e1565b61380881856136ec565b9350613813836136fd565b8060005b8381101561384457815161382b88826137cd565b9750613836836137e6565b925050600181019050613817565b5085935050505092915050565b6000602082019050818103600083015261386b81846137f3565b905092915050565b60006020828403121561388957613888612bb3565b5b600082013567ffffffffffffffff8111156138a7576138a6612bb8565b5b6138b384828501613258565b91505092915050565b600060e0820190506138d1600083018a612b7f565b81810360208301526138e3818961338f565b905081810360408301526138f7818861338f565b90506139066060830187612b7f565b6139136080830186612b7f565b61392060a0830185612b7f565b61392d60c0830184612f3b565b98975050505050505050565b600060208201905061394e6000830184612f20565b92915050565b7f5a65726f20416464726573732064657465637465640000000000000000000000600082015250565b600061398a601583613354565b915061399582613954565b602082019050919050565b600060208201905081810360008301526139b98161397d565b9050919050565b7f5465616d20646f6573206e6f7420657869737400000000000000000000000000600082015250565b60006139f6601383613354565b9150613a01826139c0565b602082019050919050565b60006020820190508181036000830152613a25816139e9565b9050919050565b7f5465616d20616c72656164792072656769737465726564000000000000000000600082015250565b6000613a62601783613354565b9150613a6d82613a2c565b602082019050919050565b60006020820190508181036000830152613a9181613a55565b9050919050565b7f4e6f74207465616d206f776e6572000000000000000000000000000000000000600082015250565b6000613ace600e83613354565b9150613ad982613a98565b602082019050919050565b60006020820190508181036000830152613afd81613ac1565b9050919050565b7f5265656e7472616e637947756172643a205265656e7472616e742063616c6c00600082015250565b6000613b3a601f83613354565b9150613b4582613b04565b602082019050919050565b60006020820190508181036000830152613b6981613b2d565b9050919050565b7f5a65726f20616464726573732064657465637465642100000000000000000000600082015250565b6000613ba6601683613354565b9150613bb182613b70565b602082019050919050565b60006020820190508181036000830152613bd581613b99565b9050919050565b7f43616e6e6f74207769746864726177207a65726f210000000000000000000000600082015250565b6000613c12601583613354565b9150613c1d82613bdc565b602082019050919050565b60006020820190508181036000830152613c4181613c05565b9050919050565b7f496e73756666696369656e742066756e64732100000000000000000000000000600082015250565b6000613c7e601383613354565b9150613c8982613c48565b602082019050919050565b60006020820190508181036000830152613cad81613c71565b9050919050565b7f4e487b7100000000000000000000000000000000000000000000000000000000600052601160045260246000fd5b6000613cee82612b75565b9150613cf983612b75565b9250828203905081811115613d1157613d10613cb4565b5b92915050565b600081905092915050565b50565b6000613d32600083613d17565b9150613d3d82613d22565b600082019050919050565b6000613d5382613d25565b9150819050919050565b7f4574686572207472616e73666572206661696c65642100000000000000000000600082015250565b6000613d93601683613354565b9150613d9e82613d5d565b602082019050919050565b60006020820190508181036000830152613dc281613d86565b9050919050565b7f4f6e6c792061646d696e00000000000000000000000000000000000000000000600082015250565b6000613dff600a83613354565b9150613e0a82613dc9565b602082019050919050565b60006020820190508181036000830152613e2e81613df2565b9050919050565b7f456d707479206e616d6500000000000000000000000000000000000000000000600082015250565b6000613e6b600a83613354565b9150613e7682613e35565b602082019050919050565b60006020820190508181036000830152613e9a81613e5e565b9050919050565b7f456d70747920636c756200000000000000000000000000000000000000000000600082015250565b6000613ed7600a83613354565b9150613ee282613ea1565b602082019050919050565b60006020820190508181036000830152613f0681613eca565b9050919050565b7f496e76616c696420707269636500000000000000000000000000000000000000600082015250565b6000613f43600d83613354565b9150613f4e82613f0d565b602082019050919050565b60006020820190508181036000830152613f7281613f36565b9050919050565b600081905092915050565b6000613f908385613f79565b9350613f9d838584613207565b82840190509392505050565b6000613fb6828486613f84565b91508190509392505050565b7f506c617965722065786973747300000000000000000000000000000000000000600082015250565b6000613ff8600d83613354565b915061400382613fc2565b602082019050919050565b6000602082019050818103600083015261402781613feb565b9050919050565b600061403982612b75565b91507fffffffffffffffffffffffffffffffffffffffffffffffffffffffffffffffff820361406b5761406a613cb4565b5b600182019050919050565b7f4e487b7100000000000000000000000000000000000000000000000000000000600052602260045260246000fd5b600060028204905060018216806140bd57607f821691505b6020821081036140d0576140cf614076565b5b50919050565b60008190508160005260206000209050919050565b60006020601f8301049050919050565b600082821b905092915050565b6000600883026141387fffffffffffffffffffffffffffffffffffffffffffffffffffffffffffffffff826140fb565b61414286836140fb565b95508019841693508086168417925050509392505050565b6000819050919050565b600061417f61417a61417584612b75565b61415a565b612b75565b9050919050565b6000819050919050565b61419983614164565b6141ad6141a582614186565b848454614108565b825550505050565b600090565b6141c26141b5565b6141cd818484614190565b505050565b5b818110156141f1576141e66000826141ba565b6001810190506141d3565b5050565b601f82111561423657614207816140d6565b614210846140eb565b8101602085101561421f578190505b61423361422b856140eb565b8301826141d2565b50505b505050565b600082821c905092915050565b60006142596000198460080261423b565b1980831691505092915050565b60006142728383614248565b9150826002028217905092915050565b61428b82613349565b67ffffffffffffffff8111156142a4576142a361315b565b5b6142ae82546140a5565b6142b98282856141f5565b600060209050601f8311600181146142ec57600084156142da578287015190505b6142e48582614266565b86555061434c565b601f1984166142fa866140d6565b60005b82811015614322578489015182556001820191506020850194506020810190506142fd565b8683101561433f578489015161433b601f891682614248565b8355505b6001600288020188555050505b505050505050565b60006143608385613354565b935061436d838584613207565b6143768361314a565b840190509392505050565b6000608082019050818103600083015261439c81888a614354565b905081810360208301526143b1818688614354565b90506143c06040830185612b7f565b6143cd6060830184612b7f565b979650505050505050565b6000819050919050565b6143f36143ee82612b75565b6143d8565b82525050565b60008160601b9050919050565b6000614411826143f9565b9050919050565b600061442382614406565b9050919050565b61443b61443682612c49565b614418565b82525050565b600061444d828a6143e2565b60208201915061445d82896143e2565b60208201915061446d82886143e2565b60208201915061447d82876143e2565b60208201915061448d828661442a565b60148201915061449d828561442a565b6014820191506144ad82846143e2565b60208201915081905098975050505050505050565b60006080820190506144d76000830187613410565b6144e46020830186612b7f565b6144f16040830185612f20565b6144fe6060830184612b7f565b95945050505050565b600061451282612b75565b915061451d83612b75565b925082820190508082111561453557614534613cb4565b5b92915050565b7f5465616d206e6f7420666f756e64000000000000000000000000000000000000600082015250565b6000614571600e83613354565b915061457c8261453b565b602082019050919050565b600060208201905081810360008301526145a081614564565b9050919050565b7f496e76616c696420706c61796572204944000000000000000000000000000000600082015250565b60006145dd601183613354565b91506145e8826145a7565b602082019050919050565b6000602082019050818103600083015261460c816145d0565b9050919050565b7f496e76616c6964207465616d2073697a65000000000000000000000000000000600082015250565b6000614649601183613354565b915061465482614613565b602082019050919050565b600060208201905081810360008301526146788161463c565b9050919050565b7f4e487b7100000000000000000000000000000000000000000000000000000000600052603260045260246000fd5b7f496e61637469766520706c617965720000000000000000000000000000000000600082015250565b60006146e4600f83613354565b91506146ef826146ae565b602082019050919050565b60006020820190508181036000830152614713816146d7565b9050919050565b7f43616e6e6f74206465706f736974207a65726f21000000000000000000000000600082015250565b6000614750601483613354565b915061475b8261471a565b602082019050919050565b6000602082019050818103600083015261477f81614743565b9050919050565b600082825260208201905092915050565b600080fd5b82818337505050565b60006147b18385614786565b93507f07ffffffffffffffffffffffffffffffffffffffffffffffffffffffffffffff8311156147e4576147e3614797565b5b6020830292506147f583858461479c565b82840190509392505050565b60006040820190506148166000830186612b7f565b81810360208301526148298184866147a5565b905094935050505056fea2646970667358221220fb25892e73821e1fbfd2823765865ad7e802d8bcf9d10f614f6c20028a7fc09964736f6c634300081b0033",
  "linkReferences": {},
  "deployedLinkReferences": {}
}