{
  "_format": "hh-sol-artifact-1",
  "contractName": "LeagueFactory",
  "sourceName": "contracts/LeagueFactory.sol",
  "abi": [
    {
      "inputs": [
        {
          "internalType": "address",
          "name": "_userPlayerManager",
          "type": "address"
        }
      ],
      "stateMutability": "nonpayable",
      "type": "constructor"
    },
    {
      "anonymous": false,
      "inputs": [
        {
          "indexed": true,
          "internalType": "uint256",
          "name": "leagueId",
          "type": "uint256"
        },
        {
          "indexed": false,
          "internalType": "address",
          "name": "leagueAddress",
          "type": "address"
        },
        {
          "indexed": false,
          "internalType": "string",
          "name": "name",
          "type": "string"
        },
        {
          "indexed": false,
          "internalType": "address",
          "name": "owner",
          "type": "address"
        }
      ],
      "name": "LeagueCreated",
      "type": "event"
    },
    {
      "inputs": [],
      "name": "admin",
      "outputs": [
        {
          "internalType": "address",
          "name": "",
          "type": "address"
        }
      ],
      "stateMutability": "view",
      "type": "function"
    },
    {
      "inputs": [
        {
          "internalType": "string",
          "name": "name",
          "type": "string"
        },
        {
          "internalType": "uint256",
          "name": "entryFee",
          "type": "uint256"
        },
        {
          "internalType": "uint256",
          "name": "maxTeams",
          "type": "uint256"
        },
        {
          "internalType": "uint256",
          "name": "startTime",
          "type": "uint256"
        },
        {
          "internalType": "uint256",
          "name": "endTime",
          "type": "uint256"
        },
        {
          "internalType": "uint256[]",
          "name": "playerIds",
          "type": "uint256[]"
        }
      ],
      "name": "createLeague",
      "outputs": [
        {
          "internalType": "address",
          "name": "",
          "type": "address"
        }
      ],
      "stateMutability": "payable",
      "type": "function"
    },
    {
      "inputs": [],
      "name": "currentLeagueWeek",
      "outputs": [
        {
          "internalType": "uint256",
          "name": "",
          "type": "uint256"
        }
      ],
      "stateMutability": "view",
      "type": "function"
    },
    {
      "inputs": [
        {
          "internalType": "uint256",
          "name": "leagueId",
          "type": "uint256"
        }
      ],
      "name": "getLeague",
      "outputs": [
        {
          "internalType": "address",
          "name": "",
          "type": "address"
        }
      ],
      "stateMutability": "view",
      "type": "function"
    },
    {
      "inputs": [
        {
          "internalType": "uint256",
          "name": "",
          "type": "uint256"
        }
      ],
      "name": "leagues",
      "outputs": [
        {
          "internalType": "address",
          "name": "",
          "type": "address"
        }
      ],
      "stateMutability": "view",
      "type": "function"
    },
    {
      "inputs": [],
      "name": "userPlayerManager",
      "outputs": [
        {
          "internalType": "contract UserPlayerManager",
          "name": "",
          "type": "address"
        }
      ],
      "stateMutability": "view",
      "type": "function"
    }
  ],
  "bytecode": "0x6080604052600160035534801561001557600080fd5b506040516147d83803806147d883398181016040528101906100379190610190565b600073ffffffffffffffffffffffffffffffffffffffff168173ffffffffffffffffffffffffffffffffffffffff16036100a6576040517f08c379a000000000000000000000000000000000000000000000000000000000815260040161009d9061021a565b60405180910390fd5b806000806101000a81548173ffffffffffffffffffffffffffffffffffffffff021916908373ffffffffffffffffffffffffffffffffffffffff16021790555033600160006101000a81548173ffffffffffffffffffffffffffffffffffffffff021916908373ffffffffffffffffffffffffffffffffffffffff1602179055505061023a565b600080fd5b600073ffffffffffffffffffffffffffffffffffffffff82169050919050565b600061015d82610132565b9050919050565b61016d81610152565b811461017857600080fd5b50565b60008151905061018a81610164565b92915050565b6000602082840312156101a6576101a561012d565b5b60006101b48482850161017b565b91505092915050565b600082825260208201905092915050565b7f496e76616c69642055736572506c617965724d616e6167657200000000000000600082015250565b60006102046019836101bd565b915061020f826101ce565b602082019050919050565b60006020820190508181036000830152610233816101f7565b9050919050565b61458f806102496000396000f3fe6080604052600436106100555760003560e01c8063383576211461005a57806345516aaa1461008a5780638a1af815146100c7578063c648fefe146100f2578063ec0992f71461012f578063f851a4401461015a575b600080fd5b610074600480360381019061006f91906108de565b610185565b60405161008191906109ea565b60405180910390f35b34801561009657600080fd5b506100b160048036038101906100ac9190610a05565b6105d1565b6040516100be91906109ea565b60405180910390f35b3480156100d357600080fd5b506100dc61065e565b6040516100e99190610a91565b60405180910390f35b3480156100fe57600080fd5b5061011960048036038101906101149190610a05565b610682565b60405161012691906109ea565b60405180910390f35b34801561013b57600080fd5b506101446106b5565b6040516101519190610abb565b60405180910390f35b34801561016657600080fd5b5061016f6106bb565b60405161017c91906109ea565b60405180910390f35b6000808851116101ca576040517f08c379a00000000000000000000000000000000000000000000000000000000081526004016101c190610b33565b60405180910390fd5b42851161020c576040517f08c379a000000000000000000000000000000000000000000000000000000000815260040161020390610b9f565b60405180910390fd5b84841161024e576040517f08c379a000000000000000000000000000000000000000000000000000000000815260040161024590610c0b565b60405180910390fd5b60008611610291576040517f08c379a000000000000000000000000000000000000000000000000000000000815260040161028890610c77565b60405180910390fd5b8634146102d3576040517f08c379a00000000000000000000000000000000000000000000000000000000081526004016102ca90610ce3565b60405180910390fd5b60008054906101000a900473ffffffffffffffffffffffffffffffffffffffff1673ffffffffffffffffffffffffffffffffffffffff1663c40717f684846040518363ffffffff1660e01b815260040161032e929190610d7e565b602060405180830381865afa15801561034b573d6000803e3d6000fd5b505050506040513d601f19601f8201168201806040525081019061036f9190610dda565b6103ae576040517f08c379a00000000000000000000000000000000000000000000000000000000081526004016103a590610e53565b60405180910390fd5b60006002600081546103bf90610ea2565b91905081905590506000818a338b8b8b8b60035460008054906101000a900473ffffffffffffffffffffffffffffffffffffffff16604051610400906106e1565b61041299989796959493929190610f58565b604051809103906000f08015801561042e573d6000803e3d6000fd5b5090506000819050806004600085815260200190815260200160002060006101000a81548173ffffffffffffffffffffffffffffffffffffffff021916908373ffffffffffffffffffffffffffffffffffffffff1602179055508073ffffffffffffffffffffffffffffffffffffffff166376a8801a3388886040518463ffffffff1660e01b81526004016104c593929190610fec565b600060405180830381600087803b1580156104df57600080fd5b505af11580156104f3573d6000803e3d6000fd5b5050505060008054906101000a900473ffffffffffffffffffffffffffffffffffffffff1673ffffffffffffffffffffffffffffffffffffffff1663e4fc57dd33856040518363ffffffff1660e01b815260040161055292919061101e565b600060405180830381600087803b15801561056c57600080fd5b505af1158015610580573d6000803e3d6000fd5b50505050827f34ef2f18b56ed366b97f4893496a42bda57019393602c6d97b9a44545aa17243828d336040516105b893929190611047565b60405180910390a2809350505050979650505050505050565b600080821180156105e457506002548211155b610623576040517f08c379a000000000000000000000000000000000000000000000000000000000815260040161061a906110d1565b60405180910390fd5b6004600083815260200190815260200160002060009054906101000a900473ffffffffffffffffffffffffffffffffffffffff169050919050565b60008054906101000a900473ffffffffffffffffffffffffffffffffffffffff1681565b60046020528060005260406000206000915054906101000a900473ffffffffffffffffffffffffffffffffffffffff1681565b60035481565b600160009054906101000a900473ffffffffffffffffffffffffffffffffffffffff1681565b613468806110f283390190565b6000604051905090565b600080fd5b600080fd5b600080fd5b600080fd5b6000601f19601f8301169050919050565b7f4e487b7100000000000000000000000000000000000000000000000000000000600052604160045260246000fd5b6107558261070c565b810181811067ffffffffffffffff821117156107745761077361071d565b5b80604052505050565b60006107876106ee565b9050610793828261074c565b919050565b600067ffffffffffffffff8211156107b3576107b261071d565b5b6107bc8261070c565b9050602081019050919050565b82818337600083830152505050565b60006107eb6107e684610798565b61077d565b90508281526020810184848401111561080757610806610707565b5b6108128482856107c9565b509392505050565b600082601f83011261082f5761082e610702565b5b813561083f8482602086016107d8565b91505092915050565b6000819050919050565b61085b81610848565b811461086657600080fd5b50565b60008135905061087881610852565b92915050565b600080fd5b600080fd5b60008083601f84011261089e5761089d610702565b5b8235905067ffffffffffffffff8111156108bb576108ba61087e565b5b6020830191508360208202830111156108d7576108d6610883565b5b9250929050565b600080600080600080600060c0888a0312156108fd576108fc6106f8565b5b600088013567ffffffffffffffff81111561091b5761091a6106fd565b5b6109278a828b0161081a565b97505060206109388a828b01610869565b96505060406109498a828b01610869565b955050606061095a8a828b01610869565b945050608061096b8a828b01610869565b93505060a088013567ffffffffffffffff81111561098c5761098b6106fd565b5b6109988a828b01610888565b925092505092959891949750929550565b600073ffffffffffffffffffffffffffffffffffffffff82169050919050565b60006109d4826109a9565b9050919050565b6109e4816109c9565b82525050565b60006020820190506109ff60008301846109db565b92915050565b600060208284031215610a1b57610a1a6106f8565b5b6000610a2984828501610869565b91505092915050565b6000819050919050565b6000610a57610a52610a4d846109a9565b610a32565b6109a9565b9050919050565b6000610a6982610a3c565b9050919050565b6000610a7b82610a5e565b9050919050565b610a8b81610a70565b82525050565b6000602082019050610aa66000830184610a82565b92915050565b610ab581610848565b82525050565b6000602082019050610ad06000830184610aac565b92915050565b600082825260208201905092915050565b7f456d707479206e616d6500000000000000000000000000000000000000000000600082015250565b6000610b1d600a83610ad6565b9150610b2882610ae7565b602082019050919050565b60006020820190508181036000830152610b4c81610b10565b9050919050565b7f53746172742074696d65206d7573742062652066757475726500000000000000600082015250565b6000610b89601983610ad6565b9150610b9482610b53565b602082019050919050565b60006020820190508181036000830152610bb881610b7c565b9050919050565b7f456e642074696d65206d75737420626520616674657220737461727400000000600082015250565b6000610bf5601c83610ad6565b9150610c0082610bbf565b602082019050919050565b60006020820190508181036000830152610c2481610be8565b9050919050565b7f496e76616c6964206d6178207465616d73000000000000000000000000000000600082015250565b6000610c61601183610ad6565b9150610c6c82610c2b565b602082019050919050565b60006020820190508181036000830152610c9081610c54565b9050919050565b7f496e636f727265637420656e7472792066656500000000000000000000000000600082015250565b6000610ccd601383610ad6565b9150610cd882610c97565b602082019050919050565b60006020820190508181036000830152610cfc81610cc0565b9050919050565b600082825260208201905092915050565b600080fd5b82818337505050565b6000610d2e8385610d03565b93507f07ffffffffffffffffffffffffffffffffffffffffffffffffffffffffffffff831115610d6157610d60610d14565b5b602083029250610d72838584610d19565b82840190509392505050565b60006020820190508181036000830152610d99818486610d22565b90509392505050565b60008115159050919050565b610db781610da2565b8114610dc257600080fd5b50565b600081519050610dd481610dae565b92915050565b600060208284031215610df057610def6106f8565b5b6000610dfe84828501610dc5565b91505092915050565b7f496e76616c6964207465616d20636f6d706f736974696f6e0000000000000000600082015250565b6000610e3d601883610ad6565b9150610e4882610e07565b602082019050919050565b60006020820190508181036000830152610e6c81610e30565b9050919050565b7f4e487b7100000000000000000000000000000000000000000000000000000000600052601160045260246000fd5b6000610ead82610848565b91507fffffffffffffffffffffffffffffffffffffffffffffffffffffffffffffffff8203610edf57610ede610e73565b5b600182019050919050565b600081519050919050565b60005b83811015610f13578082015181840152602081019050610ef8565b60008484015250505050565b6000610f2a82610eea565b610f348185610ad6565b9350610f44818560208601610ef5565b610f4d8161070c565b840191505092915050565b600061012082019050610f6e600083018c610aac565b8181036020830152610f80818b610f1f565b9050610f8f604083018a6109db565b610f9c6060830189610aac565b610fa96080830188610aac565b610fb660a0830187610aac565b610fc360c0830186610aac565b610fd060e0830185610aac565b610fde6101008301846109db565b9a9950505050505050505050565b600060408201905061100160008301866109db565b8181036020830152611014818486610d22565b9050949350505050565b600060408201905061103360008301856109db565b6110406020830184610aac565b9392505050565b600060608201905061105c60008301866109db565b818103602083015261106e8185610f1f565b905061107d60408301846109db565b949350505050565b7f496e76616c6964206c6561677565204944000000000000000000000000000000600082015250565b60006110bb601183610ad6565b91506110c682611085565b602082019050919050565b600060208201905081810360008301526110ea816110ae565b905091905056fe60a060405234801561001057600080fd5b506040516134683803806134688339818101604052810190610032919061035c565b8860028190555087600390816100489190610659565b5086600460006101000a81548173ffffffffffffffffffffffffffffffffffffffff021916908373ffffffffffffffffffffffffffffffffffffffff160217905550856005819055508460068190555083600781905550826008819055508160098190555080600160006101000a81548173ffffffffffffffffffffffffffffffffffffffff021916908373ffffffffffffffffffffffffffffffffffffffff1602179055503373ffffffffffffffffffffffffffffffffffffffff1660808173ffffffffffffffffffffffffffffffffffffffff16815250506001600b60006101000a81548160ff021916908315150217905550600160008190555050505050505050505061072b565b6000604051905090565b600080fd5b600080fd5b6000819050919050565b61017a81610167565b811461018557600080fd5b50565b60008151905061019781610171565b92915050565b600080fd5b600080fd5b6000601f19601f8301169050919050565b7f4e487b7100000000000000000000000000000000000000000000000000000000600052604160045260246000fd5b6101f0826101a7565b810181811067ffffffffffffffff8211171561020f5761020e6101b8565b5b80604052505050565b6000610222610153565b905061022e82826101e7565b919050565b600067ffffffffffffffff82111561024e5761024d6101b8565b5b610257826101a7565b9050602081019050919050565b60005b83811015610282578082015181840152602081019050610267565b60008484015250505050565b60006102a161029c84610233565b610218565b9050828152602081018484840111156102bd576102bc6101a2565b5b6102c8848285610264565b509392505050565b600082601f8301126102e5576102e461019d565b5b81516102f584826020860161028e565b91505092915050565b600073ffffffffffffffffffffffffffffffffffffffff82169050919050565b6000610329826102fe565b9050919050565b6103398161031e565b811461034457600080fd5b50565b60008151905061035681610330565b92915050565b60008060008060008060008060006101208a8c03121561037f5761037e61015d565b5b600061038d8c828d01610188565b99505060208a015167ffffffffffffffff8111156103ae576103ad610162565b5b6103ba8c828d016102d0565b98505060406103cb8c828d01610347565b97505060606103dc8c828d01610188565b96505060806103ed8c828d01610188565b95505060a06103fe8c828d01610188565b94505060c061040f8c828d01610188565b93505060e06104208c828d01610188565b9250506101006104328c828d01610347565b9150509295985092959850929598565b600081519050919050565b7f4e487b7100000000000000000000000000000000000000000000000000000000600052602260045260246000fd5b6000600282049050600182168061049457607f821691505b6020821081036104a7576104a661044d565b5b50919050565b60008190508160005260206000209050919050565b60006020601f8301049050919050565b600082821b905092915050565b60006008830261050f7fffffffffffffffffffffffffffffffffffffffffffffffffffffffffffffffff826104d2565b61051986836104d2565b95508019841693508086168417925050509392505050565b6000819050919050565b600061055661055161054c84610167565b610531565b610167565b9050919050565b6000819050919050565b6105708361053b565b61058461057c8261055d565b8484546104df565b825550505050565b600090565b61059961058c565b6105a4818484610567565b505050565b5b818110156105c8576105bd600082610591565b6001810190506105aa565b5050565b601f82111561060d576105de816104ad565b6105e7846104c2565b810160208510156105f6578190505b61060a610602856104c2565b8301826105a9565b50505b505050565b600082821c905092915050565b600061063060001984600802610612565b1980831691505092915050565b6000610649838361061f565b9150826002028217905092915050565b61066282610442565b67ffffffffffffffff81111561067b5761067a6101b8565b5b610685825461047c565b6106908282856105cc565b600060209050601f8311600181146106c357600084156106b1578287015190505b6106bb858261063d565b865550610723565b601f1984166106d1866104ad565b60005b828110156106f9578489015182556001820191506020850194506020810190506106d4565b868310156107165784890151610712601f89168261061f565b8355505b6001600288020188555050505b505050505050565b608051612d1b61074d600039600081816111c7015261190f0152612d1b6000f3fe6080604052600436106101815760003560e01c80634861df70116100d15780638da5cb5b1161008a578063ccdcef1b11610064578063ccdcef1b14610569578063f013d4f114610580578063f0ee1cc4146105ab578063f93d8124146105ea57610181565b80638da5cb5b146104f75780639a7c1fd114610522578063c99fea941461055f57610181565b80634861df70146103e75780634e39c22c1461041057806376a8801a1461044d57806376f5f7001461047657806378e97925146104a15780638a1af815146104cc57610181565b80630a3f5a421161013e5780633197cbb6116101185780633197cbb61461032957806335c1d34914610354578063398ab9a714610391578063464800af146103bc57610181565b80630a3f5a4214610298578063224404d3146102c1578063287e4a5f146102ec57610181565b806302fb0c5e14610186578063061a2f50146101b157806306575c89146101ee57806306fdde0314610219578063072ea61c1461024457806309648b261461026f575b600080fd5b34801561019257600080fd5b5061019b610613565b6040516101a89190611dc2565b60405180910390f35b3480156101bd57600080fd5b506101d860048036038101906101d39190611e7b565b610626565b6040516101e59190611eca565b60405180910390f35b3480156101fa57600080fd5b50610203610859565b6040516102109190611eca565b60405180910390f35b34801561022557600080fd5b5061022e61085f565b60405161023b9190611f75565b60405180910390f35b34801561025057600080fd5b506102596108ed565b6040516102669190611eca565b60405180910390f35b34801561027b57600080fd5b5061029660048036038101906102919190611f97565b6108f3565b005b3480156102a457600080fd5b506102bf60048036038101906102ba9190611f97565b610afb565b005b3480156102cd57600080fd5b506102d6610d5d565b6040516102e39190611eca565b60405180910390f35b3480156102f857600080fd5b50610313600480360381019061030e9190611f97565b610d63565b6040516103209190611eca565b60405180910390f35b34801561033557600080fd5b5061033e610d7b565b60405161034b9190611eca565b60405180910390f35b34801561036057600080fd5b5061037b60048036038101906103769190611f97565b610d81565b6040516103889190611fd3565b60405180910390f35b34801561039d57600080fd5b506103a6610dc0565b6040516103b39190611eca565b60405180910390f35b3480156103c857600080fd5b506103d1610dc6565b6040516103de9190611eca565b60405180910390f35b3480156103f357600080fd5b5061040e60048036038101906104099190612053565b610dcc565b005b34801561041c57600080fd5b5061043760048036038101906104329190611f97565b611192565b6040516104449190611fd3565b60405180910390f35b34801561045957600080fd5b50610474600480360381019061046f91906120a0565b6111c5565b005b34801561048257600080fd5b5061048b61146a565b6040516104989190611eca565b60405180910390f35b3480156104ad57600080fd5b506104b6611471565b6040516104c39190611eca565b60405180910390f35b3480156104d857600080fd5b506104e1611477565b6040516104ee919061215f565b60405180910390f35b34801561050357600080fd5b5061050c61149d565b6040516105199190611fd3565b60405180910390f35b34801561052e57600080fd5b5061054960048036038101906105449190611f97565b6114c3565b6040516105569190611dc2565b60405180910390f35b6105676114e3565b005b34801561057557600080fd5b5061057e61182a565b005b34801561058c57600080fd5b5061059561190d565b6040516105a29190611fd3565b60405180910390f35b3480156105b757600080fd5b506105d260048036038101906105cd9190611e7b565b611931565b6040516105e19392919061217a565b60405180910390f35b3480156105f657600080fd5b50610611600480360381019061060c9190611f97565b611995565b005b600b60009054906101000a900460ff1681565b6000600d60008473ffffffffffffffffffffffffffffffffffffffff1673ffffffffffffffffffffffffffffffffffffffff168152602001908152602001600020600083815260200190815260200160002060030160009054906101000a900460ff166106c8576040517f08c379a00000000000000000000000000000000000000000000000000000000081526004016106bf906121fd565b60405180910390fd5b600080600d60008673ffffffffffffffffffffffffffffffffffffffff1673ffffffffffffffffffffffffffffffffffffffff168152602001908152602001600020600085815260200190815260200160002060010180548060200260200160405190810160405280929190818152602001828054801561076857602002820191906000526020600020905b815481526020019060010190808311610754575b5050505050905060005b815181101561084d57600160009054906101000a900473ffffffffffffffffffffffffffffffffffffffff1673ffffffffffffffffffffffffffffffffffffffff1663de03fd358383815181106107cc576107cb61221d565b5b6020026020010151876040518363ffffffff1660e01b81526004016107f292919061224c565b602060405180830381865afa15801561080f573d6000803e3d6000fd5b505050506040513d601f19601f82011682018060405250810190610833919061228a565b8361083e91906122e6565b92508080600101915050610772565b50819250505092915050565b60095481565b6003805461086c90612349565b80601f016020809104026020016040519081016040528092919081815260200182805461089890612349565b80156108e55780601f106108ba576101008083540402835291602001916108e5565b820191906000526020600020905b8154815290600101906020018083116108c857829003601f168201915b505050505081565b60055481565b600460009054906101000a900473ffffffffffffffffffffffffffffffffffffffff1673ffffffffffffffffffffffffffffffffffffffff163373ffffffffffffffffffffffffffffffffffffffff1614610983576040517f08c379a000000000000000000000000000000000000000000000000000000000815260040161097a906123c6565b60405180910390fd5b62093a808161099291906123e6565b60075461099f91906122e6565b4210156109e1576040517f08c379a00000000000000000000000000000000000000000000000000000000081526004016109d890612474565b60405180910390fd5b60005b600c80549050811015610af7576000600c8281548110610a0757610a0661221d565b5b9060005260206000200160009054906101000a900473ffffffffffffffffffffffffffffffffffffffff1690506000610a408285610626565b905080600d60008473ffffffffffffffffffffffffffffffffffffffff1673ffffffffffffffffffffffffffffffffffffffff1681526020019081526020016000206000868152602001908152602001600020600201819055508173ffffffffffffffffffffffffffffffffffffffff167fa05f39e6d8d4e060324edb900f0f5909de621fd93f19ccf65ba74e5965c98c3682604051610ae09190611eca565b60405180910390a2505080806001019150506109e4565b5050565b600260005403610b40576040517f08c379a0000000000000000000000000000000000000000000000000000000008152600401610b37906124e0565b60405180910390fd5b6002600081905550600f600082815260200190815260200160002060009054906101000a900460ff16610ba8576040517f08c379a0000000000000000000000000000000000000000000000000000000008152600401610b9f9061254c565b60405180910390fd5b3373ffffffffffffffffffffffffffffffffffffffff16600e600083815260200190815260200160002060009054906101000a900473ffffffffffffffffffffffffffffffffffffffff1673ffffffffffffffffffffffffffffffffffffffff1614610c49576040517f08c379a0000000000000000000000000000000000000000000000000000000008152600401610c40906125b8565b60405180910390fd5b6000601060008381526020019081526020016000205411610c9f576040517f08c379a0000000000000000000000000000000000000000000000000000000008152600401610c9690612624565b60405180910390fd5b600060106000838152602001908152602001600020549050600060106000848152602001908152602001600020819055503373ffffffffffffffffffffffffffffffffffffffff166108fc829081150290604051600060405180830381858888f19350505050158015610d16573d6000803e3d6000fd5b50817f24b5efa61dd1cfc659205a97fb8ed868f3cb8c81922bab2b96423e5de1de2cb73383604051610d49929190612644565b60405180910390a250600160008190555050565b60065481565b60106020528060005260406000206000915090505481565b60085481565b600c8181548110610d9157600080fd5b906000526020600020016000915054906101000a900473ffffffffffffffffffffffffffffffffffffffff1681565b600a5481565b60025481565b600b60009054906101000a900460ff16610e1b576040517f08c379a0000000000000000000000000000000000000000000000000000000008152600401610e12906126b9565b60405180910390fd5b6007544210610e5f576040517f08c379a0000000000000000000000000000000000000000000000000000000008152600401610e5690612725565b60405180910390fd5b600d60003373ffffffffffffffffffffffffffffffffffffffff1673ffffffffffffffffffffffffffffffffffffffff1681526020019081526020016000206000600954815260200190815260200160002060030160009054906101000a900460ff1615610f02576040517f08c379a0000000000000000000000000000000000000000000000000000000008152600401610ef990612791565b60405180910390fd5b600160009054906101000a900473ffffffffffffffffffffffffffffffffffffffff1673ffffffffffffffffffffffffffffffffffffffff1663c40717f683836040518363ffffffff1660e01b8152600401610f5f92919061282c565b602060405180830381865afa158015610f7c573d6000803e3d6000fd5b505050506040513d601f19601f82011682018060405250810190610fa0919061287c565b610fdf576040517f08c379a0000000000000000000000000000000000000000000000000000000008152600401610fd6906128f5565b60405180910390fd5b60405180608001604052803373ffffffffffffffffffffffffffffffffffffffff168152602001838380806020026020016040519081016040528093929190818152602001838360200280828437600081840152601f19601f8201169050808301925050505050505081526020016000815260200160011515815250600d60003373ffffffffffffffffffffffffffffffffffffffff1673ffffffffffffffffffffffffffffffffffffffff1681526020019081526020016000206000600954815260200190815260200160002060008201518160000160006101000a81548173ffffffffffffffffffffffffffffffffffffffff021916908373ffffffffffffffffffffffffffffffffffffffff1602179055506020820151816001019080519060200190611110929190611d3d565b506040820151816002015560608201518160030160006101000a81548160ff0219169083151502179055509050503373ffffffffffffffffffffffffffffffffffffffff167f06f957774f9db1179719c2fe74b52ae0dc4e6829120a3b65cf4cce07edfbd3b9838360405161118692919061282c565b60405180910390a25050565b600e6020528060005260406000206000915054906101000a900473ffffffffffffffffffffffffffffffffffffffff1681565b7f000000000000000000000000000000000000000000000000000000000000000073ffffffffffffffffffffffffffffffffffffffff163373ffffffffffffffffffffffffffffffffffffffff1614611253576040517f08c379a000000000000000000000000000000000000000000000000000000000815260040161124a90612961565b60405180910390fd5b60405180608001604052808473ffffffffffffffffffffffffffffffffffffffff168152602001838380806020026020016040519081016040528093929190818152602001838360200280828437600081840152601f19601f8201169050808301925050505050505081526020016000815260200160011515815250600d60008573ffffffffffffffffffffffffffffffffffffffff1673ffffffffffffffffffffffffffffffffffffffff1681526020019081526020016000206000600954815260200190815260200160002060008201518160000160006101000a81548173ffffffffffffffffffffffffffffffffffffffff021916908373ffffffffffffffffffffffffffffffffffffffff1602179055506020820151816001019080519060200190611384929190611d3d565b506040820151816002015560608201518160030160006101000a81548160ff021916908315150217905550905050600c839080600181540180825580915050600190039060005260206000200160009091909190916101000a81548173ffffffffffffffffffffffffffffffffffffffff021916908373ffffffffffffffffffffffffffffffffffffffff1602179055508273ffffffffffffffffffffffffffffffffffffffff167f06f957774f9db1179719c2fe74b52ae0dc4e6829120a3b65cf4cce07edfbd3b9838360405161145d92919061282c565b60405180910390a2505050565b62093a8081565b60075481565b600160009054906101000a900473ffffffffffffffffffffffffffffffffffffffff1681565b600460009054906101000a900473ffffffffffffffffffffffffffffffffffffffff1681565b600f6020528060005260406000206000915054906101000a900460ff1681565b600260005403611528576040517f08c379a000000000000000000000000000000000000000000000000000000000815260040161151f906124e0565b60405180910390fd5b60026000819055506005543414611574576040517f08c379a000000000000000000000000000000000000000000000000000000000815260040161156b906129cd565b60405180910390fd5b600654600c80549050106115bd576040517f08c379a00000000000000000000000000000000000000000000000000000000081526004016115b490612a39565b60405180910390fd5b600d60003373ffffffffffffffffffffffffffffffffffffffff1673ffffffffffffffffffffffffffffffffffffffff1681526020019081526020016000206000600954815260200190815260200160002060030160009054906101000a900460ff1615611660576040517f08c379a000000000000000000000000000000000000000000000000000000000815260040161165790612aa5565b60405180910390fd5b600b60009054906101000a900460ff166116af576040517f08c379a00000000000000000000000000000000000000000000000000000000081526004016116a6906126b9565b60405180910390fd5b600160009054906101000a900473ffffffffffffffffffffffffffffffffffffffff1673ffffffffffffffffffffffffffffffffffffffff1663e4fc57dd336002546040518363ffffffff1660e01b815260040161170e929190612644565b600060405180830381600087803b15801561172857600080fd5b505af115801561173c573d6000803e3d6000fd5b5050505034600a600082825461175291906122e6565b92505081905550600062093a8060075460085461176f9190612ac5565b6117799190612b28565b9050600081346117899190612b28565b905060005b828110156117cd57816010600083815260200190815260200160002060008282546117b991906122e6565b92505081905550808060010191505061178e565b503373ffffffffffffffffffffffffffffffffffffffff167f70dc633363beb746a7d5d35ff8a46d62c0733e63a022b21ce0ee9709c567ce536002546040516118169190611eca565b60405180910390a250506001600081905550565b600460009054906101000a900473ffffffffffffffffffffffffffffffffffffffff1673ffffffffffffffffffffffffffffffffffffffff163373ffffffffffffffffffffffffffffffffffffffff16146118ba576040517f08c379a00000000000000000000000000000000000000000000000000000000081526004016118b190612ba5565b60405180910390fd5b600960008154809291906118cd90612bc5565b91905055507f54ab1f5ea80e88ee480c10edc5b60056a0e392c6125954a9f47ce8677acc59d06009546040516119039190611eca565b60405180910390a1565b7f000000000000000000000000000000000000000000000000000000000000000081565b600d602052816000526040600020602052806000526040600020600091509150508060000160009054906101000a900473ffffffffffffffffffffffffffffffffffffffff16908060020154908060030160009054906101000a900460ff16905083565b600460009054906101000a900473ffffffffffffffffffffffffffffffffffffffff1673ffffffffffffffffffffffffffffffffffffffff163373ffffffffffffffffffffffffffffffffffffffff1614611a25576040517f08c379a0000000000000000000000000000000000000000000000000000000008152600401611a1c906123c6565b60405180910390fd5b62093a8081611a3491906123e6565b600754611a4191906122e6565b421015611a83576040517f08c379a0000000000000000000000000000000000000000000000000000000008152600401611a7a90612474565b60405180910390fd5b600f600082815260200190815260200160002060009054906101000a900460ff1615611ae4576040517f08c379a0000000000000000000000000000000000000000000000000000000008152600401611adb90612c59565b60405180910390fd5b60008060005b600c80549050811015611bfd576000600c8281548110611b0d57611b0c61221d565b5b9060005260206000200160009054906101000a900473ffffffffffffffffffffffffffffffffffffffff16905082600d60008373ffffffffffffffffffffffffffffffffffffffff1673ffffffffffffffffffffffffffffffffffffffff1681526020019081526020016000206000878152602001908152602001600020600201541115611bef57600d60008273ffffffffffffffffffffffffffffffffffffffff1673ffffffffffffffffffffffffffffffffffffffff16815260200190815260200160002060008681526020019081526020016000206002015492508093505b508080600101915050611aea565b50600073ffffffffffffffffffffffffffffffffffffffff168273ffffffffffffffffffffffffffffffffffffffff1603611c6d576040517f08c379a0000000000000000000000000000000000000000000000000000000008152600401611c6490612cc5565b60405180910390fd5b81600e600085815260200190815260200160002060006101000a81548173ffffffffffffffffffffffffffffffffffffffff021916908373ffffffffffffffffffffffffffffffffffffffff1602179055506001600f600085815260200190815260200160002060006101000a81548160ff021916908315150217905550827f9e8a46942c293ec4ea2406e2a6e4316c256cb47656af7d5b260188d95b7de749836010600087815260200190815260200160002054604051611d30929190612644565b60405180910390a2505050565b828054828255906000526020600020908101928215611d79579160200282015b82811115611d78578251825591602001919060010190611d5d565b5b509050611d869190611d8a565b5090565b5b80821115611da3576000816000905550600101611d8b565b5090565b60008115159050919050565b611dbc81611da7565b82525050565b6000602082019050611dd76000830184611db3565b92915050565b600080fd5b600080fd5b600073ffffffffffffffffffffffffffffffffffffffff82169050919050565b6000611e1282611de7565b9050919050565b611e2281611e07565b8114611e2d57600080fd5b50565b600081359050611e3f81611e19565b92915050565b6000819050919050565b611e5881611e45565b8114611e6357600080fd5b50565b600081359050611e7581611e4f565b92915050565b60008060408385031215611e9257611e91611ddd565b5b6000611ea085828601611e30565b9250506020611eb185828601611e66565b9150509250929050565b611ec481611e45565b82525050565b6000602082019050611edf6000830184611ebb565b92915050565b600081519050919050565b600082825260208201905092915050565b60005b83811015611f1f578082015181840152602081019050611f04565b60008484015250505050565b6000601f19601f8301169050919050565b6000611f4782611ee5565b611f518185611ef0565b9350611f61818560208601611f01565b611f6a81611f2b565b840191505092915050565b60006020820190508181036000830152611f8f8184611f3c565b905092915050565b600060208284031215611fad57611fac611ddd565b5b6000611fbb84828501611e66565b91505092915050565b611fcd81611e07565b82525050565b6000602082019050611fe86000830184611fc4565b92915050565b600080fd5b600080fd5b600080fd5b60008083601f84011261201357612012611fee565b5b8235905067ffffffffffffffff8111156120305761202f611ff3565b5b60208301915083602082028301111561204c5761204b611ff8565b5b9250929050565b6000806020838503121561206a57612069611ddd565b5b600083013567ffffffffffffffff81111561208857612087611de2565b5b61209485828601611ffd565b92509250509250929050565b6000806000604084860312156120b9576120b8611ddd565b5b60006120c786828701611e30565b935050602084013567ffffffffffffffff8111156120e8576120e7611de2565b5b6120f486828701611ffd565b92509250509250925092565b6000819050919050565b600061212561212061211b84611de7565b612100565b611de7565b9050919050565b60006121378261210a565b9050919050565b60006121498261212c565b9050919050565b6121598161213e565b82525050565b60006020820190506121746000830184612150565b92915050565b600060608201905061218f6000830186611fc4565b61219c6020830185611ebb565b6121a96040830184611db3565b949350505050565b7f5465616d206e6f74207265676973746572656400000000000000000000000000600082015250565b60006121e7601383611ef0565b91506121f2826121b1565b602082019050919050565b60006020820190508181036000830152612216816121da565b9050919050565b7f4e487b7100000000000000000000000000000000000000000000000000000000600052603260045260246000fd5b60006040820190506122616000830185611ebb565b61226e6020830184611ebb565b9392505050565b60008151905061228481611e4f565b92915050565b6000602082840312156122a05761229f611ddd565b5b60006122ae84828501612275565b91505092915050565b7f4e487b7100000000000000000000000000000000000000000000000000000000600052601160045260246000fd5b60006122f182611e45565b91506122fc83611e45565b9250828201905080821115612314576123136122b7565b5b92915050565b7f4e487b7100000000000000000000000000000000000000000000000000000000600052602260045260246000fd5b6000600282049050600182168061236157607f821691505b6020821081036123745761237361231a565b5b50919050565b7f4f6e6c79206f776e65722063616e2063616c6c00000000000000000000000000600082015250565b60006123b0601383611ef0565b91506123bb8261237a565b602082019050919050565b600060208201905081810360008301526123df816123a3565b9050919050565b60006123f182611e45565b91506123fc83611e45565b925082820261240a81611e45565b91508282048414831517612421576124206122b7565b5b5092915050565b7f5765656b206e6f742066696e6973686564000000000000000000000000000000600082015250565b600061245e601183611ef0565b915061246982612428565b602082019050919050565b6000602082019050818103600083015261248d81612451565b9050919050565b7f5265656e7472616e637947756172643a207265656e7472616e742063616c6c00600082015250565b60006124ca601f83611ef0565b91506124d582612494565b602082019050919050565b600060208201905081810360008301526124f9816124bd565b9050919050565b7f57696e6e6572206e6f74206465636c6172656400000000000000000000000000600082015250565b6000612536601383611ef0565b915061254182612500565b602082019050919050565b6000602082019050818103600083015261256581612529565b9050919050565b7f4e6f74207468652077696e6e6572000000000000000000000000000000000000600082015250565b60006125a2600e83611ef0565b91506125ad8261256c565b602082019050919050565b600060208201905081810360008301526125d181612595565b9050919050565b7f4e6f207072697a6520746f20636c61696d000000000000000000000000000000600082015250565b600061260e601183611ef0565b9150612619826125d8565b602082019050919050565b6000602082019050818103600083015261263d81612601565b9050919050565b60006040820190506126596000830185611fc4565b6126666020830184611ebb565b9392505050565b7f4c6561677565206973206e6f7420616374697665000000000000000000000000600082015250565b60006126a3601483611ef0565b91506126ae8261266d565b602082019050919050565b600060208201905081810360008301526126d281612696565b9050919050565b7f4c65616775652068617320737461727465640000000000000000000000000000600082015250565b600061270f601283611ef0565b915061271a826126d9565b602082019050919050565b6000602082019050818103600083015261273e81612702565b9050919050565b7f416c726561647920726567697374657265642074686973207765656b00000000600082015250565b600061277b601c83611ef0565b915061278682612745565b602082019050919050565b600060208201905081810360008301526127aa8161276e565b9050919050565b600082825260208201905092915050565b600080fd5b82818337505050565b60006127dc83856127b1565b93507f07ffffffffffffffffffffffffffffffffffffffffffffffffffffffffffffff83111561280f5761280e6127c2565b5b6020830292506128208385846127c7565b82840190509392505050565b600060208201905081810360008301526128478184866127d0565b90509392505050565b61285981611da7565b811461286457600080fd5b50565b60008151905061287681612850565b92915050565b60006020828403121561289257612891611ddd565b5b60006128a084828501612867565b91505092915050565b7f496e76616c6964207465616d20636f6d706f736974696f6e0000000000000000600082015250565b60006128df601883611ef0565b91506128ea826128a9565b602082019050919050565b6000602082019050818103600083015261290e816128d2565b9050919050565b7f4f6e6c7920666163746f72790000000000000000000000000000000000000000600082015250565b600061294b600c83611ef0565b915061295682612915565b602082019050919050565b6000602082019050818103600083015261297a8161293e565b9050919050565b7f496e636f727265637420656e7472792066656500000000000000000000000000600082015250565b60006129b7601383611ef0565b91506129c282612981565b602082019050919050565b600060208201905081810360008301526129e6816129aa565b9050919050565b7f4c65616775652069732066756c6c000000000000000000000000000000000000600082015250565b6000612a23600e83611ef0565b9150612a2e826129ed565b602082019050919050565b60006020820190508181036000830152612a5281612a16565b9050919050565b7f5465616d20616c72656164792072656769737465726564000000000000000000600082015250565b6000612a8f601783611ef0565b9150612a9a82612a59565b602082019050919050565b60006020820190508181036000830152612abe81612a82565b9050919050565b6000612ad082611e45565b9150612adb83611e45565b9250828203905081811115612af357612af26122b7565b5b92915050565b7f4e487b7100000000000000000000000000000000000000000000000000000000600052601260045260246000fd5b6000612b3382611e45565b9150612b3e83611e45565b925082612b4e57612b4d612af9565b5b828204905092915050565b7f4f6e6c792061646d696e2063616e20616476616e6365207765656b0000000000600082015250565b6000612b8f601b83611ef0565b9150612b9a82612b59565b602082019050919050565b60006020820190508181036000830152612bbe81612b82565b9050919050565b6000612bd082611e45565b91507fffffffffffffffffffffffffffffffffffffffffffffffffffffffffffffffff8203612c0257612c016122b7565b5b600182019050919050565b7f416c7265616479206465636c6172656400000000000000000000000000000000600082015250565b6000612c43601083611ef0565b9150612c4e82612c0d565b602082019050919050565b60006020820190508181036000830152612c7281612c36565b9050919050565b7f4e6f2077696e6e657220666f756e640000000000000000000000000000000000600082015250565b6000612caf600f83611ef0565b9150612cba82612c79565b602082019050919050565b60006020820190508181036000830152612cde81612ca2565b905091905056fea264697066735822122074b5135270987108b4accdbf045dd1af5afced0e21d83422051346094c785bb464736f6c634300081b0033a2646970667358221220e83c056eb125617551484905d255474ddc6b8b6abe561e21a25c7dc28732af3064736f6c634300081b0033",
  "linkReferences": {},
  "deployedLinkReferences": {}
}