{
  "_format": "hh-sol-artifact-1",
  "contractName": "UserPlayerManager",
  "sourceName": "contracts/UserPlayerManager.sol",
  "abi": [
    {
      "inputs": [],
      "stateMutability": "nonpayable",
      "type": "constructor"
    },
    {
      "anonymous": false,
      "inputs": [
        {
          "indexed": true,
          "internalType": "uint256",
          "name": "playerId",
          "type": "uint256"
        },
        {
          "indexed": false,
          "internalType": "string",
          "name": "name",
          "type": "string"
        },
        {
          "indexed": false,
          "internalType": "string",
          "name": "club",
          "type": "string"
        },
        {
          "indexed": false,
          "internalType": "uint256",
          "name": "position",
          "type": "uint256"
        },
        {
          "indexed": false,
          "internalType": "uint256",
          "name": "price",
          "type": "uint256"
        }
      ],
      "name": "PlayerCreated",
      "type": "event"
    },
    {
      "anonymous": false,
      "inputs": [
        {
          "indexed": true,
          "internalType": "uint256",
          "name": "playerId",
          "type": "uint256"
        },
        {
          "indexed": false,
          "internalType": "uint256",
          "name": "weekNumber",
          "type": "uint256"
        },
        {
          "indexed": false,
          "internalType": "uint256",
          "name": "points",
          "type": "uint256"
        }
      ],
      "name": "PlayerPointsUpdated",
      "type": "event"
    },
    {
      "anonymous": false,
      "inputs": [
        {
          "indexed": true,
          "internalType": "address",
          "name": "user",
          "type": "address"
        },
        {
          "indexed": false,
          "internalType": "string",
          "name": "name",
          "type": "string"
        }
      ],
      "name": "UserRegistered",
      "type": "event"
    },
    {
      "inputs": [],
      "name": "REQUIRED_DEFENDERS",
      "outputs": [
        {
          "internalType": "uint256",
          "name": "",
          "type": "uint256"
        }
      ],
      "stateMutability": "view",
      "type": "function"
    },
    {
      "inputs": [],
      "name": "REQUIRED_FORWARDS",
      "outputs": [
        {
          "internalType": "uint256",
          "name": "",
          "type": "uint256"
        }
      ],
      "stateMutability": "view",
      "type": "function"
    },
    {
      "inputs": [],
      "name": "REQUIRED_GOALKEEPERS",
      "outputs": [
        {
          "internalType": "uint256",
          "name": "",
          "type": "uint256"
        }
      ],
      "stateMutability": "view",
      "type": "function"
    },
    {
      "inputs": [],
      "name": "REQUIRED_MIDFIELDERS",
      "outputs": [
        {
          "internalType": "uint256",
          "name": "",
          "type": "uint256"
        }
      ],
      "stateMutability": "view",
      "type": "function"
    },
    {
      "inputs": [],
      "name": "TEAM_SIZE",
      "outputs": [
        {
          "internalType": "uint256",
          "name": "",
          "type": "uint256"
        }
      ],
      "stateMutability": "view",
      "type": "function"
    },
    {
      "inputs": [],
      "name": "admin",
      "outputs": [
        {
          "internalType": "address",
          "name": "",
          "type": "address"
        }
      ],
      "stateMutability": "view",
      "type": "function"
    },
    {
      "inputs": [
        {
          "internalType": "uint256[]",
          "name": "playerIds",
          "type": "uint256[]"
        }
      ],
      "name": "calculateTeamValue",
      "outputs": [
        {
          "internalType": "uint256",
          "name": "",
          "type": "uint256"
        }
      ],
      "stateMutability": "view",
      "type": "function"
    },
    {
      "inputs": [
        {
          "internalType": "string",
          "name": "_name",
          "type": "string"
        },
        {
          "internalType": "string",
          "name": "_club",
          "type": "string"
        },
        {
          "internalType": "uint256",
          "name": "_position",
          "type": "uint256"
        },
        {
          "internalType": "uint256",
          "name": "_price",
          "type": "uint256"
        }
      ],
      "name": "createPlayer",
      "outputs": [],
      "stateMutability": "nonpayable",
      "type": "function"
    },
    {
      "inputs": [
        {
          "internalType": "uint256",
          "name": "_playerId",
          "type": "uint256"
        }
      ],
      "name": "getPlayer",
      "outputs": [
        {
          "internalType": "string",
          "name": "name",
          "type": "string"
        },
        {
          "internalType": "string",
          "name": "club",
          "type": "string"
        },
        {
          "internalType": "uint256",
          "name": "position",
          "type": "uint256"
        },
        {
          "internalType": "uint256",
          "name": "price",
          "type": "uint256"
        },
        {
          "internalType": "uint256",
          "name": "points",
          "type": "uint256"
        },
        {
          "internalType": "bool",
          "name": "isActive",
          "type": "bool"
        }
      ],
      "stateMutability": "view",
      "type": "function"
    },
    {
      "inputs": [
        {
          "internalType": "uint256",
          "name": "_playerId",
          "type": "uint256"
        },
        {
          "internalType": "uint256",
          "name": "_weekNumber",
          "type": "uint256"
        }
      ],
      "name": "getPlayerWeeklyPoints",
      "outputs": [
        {
          "internalType": "uint256",
          "name": "",
          "type": "uint256"
        }
      ],
      "stateMutability": "view",
      "type": "function"
    },
    {
      "inputs": [],
      "name": "playerCounter",
      "outputs": [
        {
          "internalType": "uint256",
          "name": "",
          "type": "uint256"
        }
      ],
      "stateMutability": "view",
      "type": "function"
    },
    {
      "inputs": [
        {
          "internalType": "string",
          "name": "",
          "type": "string"
        }
      ],
      "name": "playerNameExists",
      "outputs": [
        {
          "internalType": "bool",
          "name": "",
          "type": "bool"
        }
      ],
      "stateMutability": "view",
      "type": "function"
    },
    {
      "inputs": [
        {
          "internalType": "uint256",
          "name": "",
          "type": "uint256"
        }
      ],
      "name": "players",
      "outputs": [
        {
          "internalType": "uint256",
          "name": "playerId",
          "type": "uint256"
        },
        {
          "internalType": "string",
          "name": "name",
          "type": "string"
        },
        {
          "internalType": "string",
          "name": "club",
          "type": "string"
        },
        {
          "internalType": "uint256",
          "name": "position",
          "type": "uint256"
        },
        {
          "internalType": "uint256",
          "name": "price",
          "type": "uint256"
        },
        {
          "internalType": "uint256",
          "name": "points",
          "type": "uint256"
        },
        {
          "internalType": "bool",
          "name": "isActive",
          "type": "bool"
        }
      ],
      "stateMutability": "view",
      "type": "function"
    },
    {
      "inputs": [
        {
          "internalType": "string",
          "name": "_name",
          "type": "string"
        }
      ],
      "name": "registerUser",
      "outputs": [],
      "stateMutability": "nonpayable",
      "type": "function"
    },
    {
      "inputs": [
        {
          "internalType": "uint256",
          "name": "_playerId",
          "type": "uint256"
        },
        {
          "internalType": "uint256",
          "name": "_weekNumber",
          "type": "uint256"
        },
        {
          "internalType": "uint256",
          "name": "_points",
          "type": "uint256"
        }
      ],
      "name": "updateWeeklyPoints",
      "outputs": [],
      "stateMutability": "nonpayable",
      "type": "function"
    },
    {
      "inputs": [],
      "name": "userCounter",
      "outputs": [
        {
          "internalType": "uint256",
          "name": "",
          "type": "uint256"
        }
      ],
      "stateMutability": "view",
      "type": "function"
    },
    {
      "inputs": [
        {
          "internalType": "address",
          "name": "",
          "type": "address"
        }
      ],
      "name": "users",
      "outputs": [
        {
          "internalType": "uint256",
          "name": "id",
          "type": "uint256"
        },
        {
          "internalType": "string",
          "name": "name",
          "type": "string"
        },
        {
          "internalType": "bool",
          "name": "isRegistered",
          "type": "bool"
        }
      ],
      "stateMutability": "view",
      "type": "function"
    },
    {
      "inputs": [
        {
          "internalType": "uint256[]",
          "name": "playerIds",
          "type": "uint256[]"
        }
      ],
      "name": "validateTeamPlayers",
      "outputs": [
        {
          "internalType": "bool",
          "name": "",
          "type": "bool"
        }
      ],
      "stateMutability": "view",
      "type": "function"
    },
    {
      "inputs": [
        {
          "internalType": "uint256",
          "name": "",
          "type": "uint256"
        },
        {
          "internalType": "uint256",
          "name": "",
          "type": "uint256"
        }
      ],
      "name": "weeklyPlayerPoints",
      "outputs": [
        {
          "internalType": "uint256",
          "name": "",
          "type": "uint256"
        }
      ],
      "stateMutability": "view",
      "type": "function"
    }
  ],
  "bytecode": "0x6080604052348015600f57600080fd5b50336000806101000a81548173ffffffffffffffffffffffffffffffffffffffff021916908373ffffffffffffffffffffffffffffffffffffffff16021790555061259c8061005f6000396000f3fe608060405234801561001057600080fd5b50600436106101215760003560e01c8063ba09b2c8116100ad578063ea2e83fb11610071578063ea2e83fb14610339578063f0c37a5914610355578063f28d718d14610373578063f71d96cb146103a3578063f851a440146103d957610121565b8063ba09b2c814610256578063c40717f614610274578063cff2bfc8146102a4578063de03fd35146102d4578063e55ae4e81461030457610121565b8063704f1b94116100f4578063704f1b94146101ae5780638c91efa7146101ca578063a79eb0d1146101e8578063a87430ba14610206578063b6d7a2fc1461023857610121565b806307e153ae1461012657806312d836d61461014457806334aacb2e14610174578063427e688614610192575b600080fd5b61012e6103f7565b60405161013b9190611527565b60405180910390f35b61015e60048036038101906101599190611582565b6103fc565b60405161016b9190611527565b60405180910390f35b61017c610421565b6040516101899190611527565b60405180910390f35b6101ac60048036038101906101a79190611627565b610426565b005b6101c860048036038101906101c391906116ce565b6107d7565b005b6101d2610a6e565b6040516101df9190611527565b60405180910390f35b6101f0610a73565b6040516101fd9190611527565b60405180910390f35b610220600480360381019061021b9190611779565b610a78565b60405161022f93929190611851565b60405180910390f35b610240610b37565b60405161024d9190611527565b60405180910390f35b61025e610b3d565b60405161026b9190611527565b60405180910390f35b61028e600480360381019061028991906118e5565b610b42565b60405161029b9190611932565b60405180910390f35b6102be60048036038101906102b991906118e5565b610ea0565b6040516102cb9190611527565b60405180910390f35b6102ee60048036038101906102e99190611582565b610f68565b6040516102fb9190611527565b60405180910390f35b61031e6004803603810190610319919061194d565b610fdc565b6040516103309695949392919061197a565b60405180910390f35b610353600480360381019061034e91906119e9565b6111e7565b005b61035d61134f565b60405161036a9190611527565b60405180910390f35b61038d60048036038101906103889190611b6c565b611355565b60405161039a9190611932565b60405180910390f35b6103bd60048036038101906103b8919061194d565b61138b565b6040516103d09796959493929190611bb5565b60405180910390f35b6103e16114ea565b6040516103ee9190611c41565b60405180910390f35b600381565b6006602052816000526040600020602052806000526040600020600091509150505481565b600f81565b60008054906101000a900473ffffffffffffffffffffffffffffffffffffffff1673ffffffffffffffffffffffffffffffffffffffff163373ffffffffffffffffffffffffffffffffffffffff16146104b4576040517f08c379a00000000000000000000000000000000000000000000000000000000081526004016104ab90611ca8565b60405180910390fd5b600086869050116104fa576040517f08c379a00000000000000000000000000000000000000000000000000000000081526004016104f190611d14565b60405180910390fd5b60008484905011610540576040517f08c379a000000000000000000000000000000000000000000000000000000000815260040161053790611d80565b60405180910390fd5b60008111610583576040517f08c379a000000000000000000000000000000000000000000000000000000000815260040161057a90611dec565b60405180910390fd5b60058686604051610595929190611e3c565b908152602001604051809103902060009054906101000a900460ff16156105f1576040517f08c379a00000000000000000000000000000000000000000000000000000000081526004016105e890611ea1565b60405180910390fd5b600060026000815461060290611ef0565b91905081905590506040518060e0016040528082815260200188888080601f016020809104026020016040519081016040528093929190818152602001838380828437600081840152601f19601f82011690508083019250505050505050815260200186868080601f016020809104026020016040519081016040528093929190818152602001838380828437600081840152601f19601f8201169050808301925050505050505081526020018481526020018381526020016000815260200160011515815250600460008381526020019081526020016000206000820151816000015560208201518160010190816106fb9190612144565b5060408201518160020190816107119190612144565b50606082015181600301556080820151816004015560a0820151816005015560c08201518160060160006101000a81548160ff021916908315150217905550905050600160058888604051610767929190611e3c565b908152602001604051809103902060006101000a81548160ff021916908315150217905550807fde362b42458bb62dc23b2691d14ba17e1eccb25e58e0ea2bf43fd8fa84322f628888888888886040516107c696959493929190612243565b60405180910390a250505050505050565b600073ffffffffffffffffffffffffffffffffffffffff163373ffffffffffffffffffffffffffffffffffffffff1603610846576040517f08c379a000000000000000000000000000000000000000000000000000000000815260040161083d906122e6565b60405180910390fd5b600360003373ffffffffffffffffffffffffffffffffffffffff1673ffffffffffffffffffffffffffffffffffffffff16815260200190815260200160002060020160009054906101000a900460ff16156108d6576040517f08c379a00000000000000000000000000000000000000000000000000000000081526004016108cd90612352565b60405180910390fd5b6000828290501161091c576040517f08c379a000000000000000000000000000000000000000000000000000000000815260040161091390611d14565b60405180910390fd5b600060016000815461092d90611ef0565b9190508190559050604051806060016040528082815260200184848080601f016020809104026020016040519081016040528093929190818152602001838380828437600081840152601f19601f82011690508083019250505050505050815260200160011515815250600360003373ffffffffffffffffffffffffffffffffffffffff1673ffffffffffffffffffffffffffffffffffffffff1681526020019081526020016000206000820151816000015560208201518160010190816109f59190612144565b5060408201518160020160006101000a81548160ff0219169083151502179055509050503373ffffffffffffffffffffffffffffffffffffffff167f48cac28ad4dc618e15f4c2dd5e97751182f166de97b25618318b2112aa951a2f8484604051610a61929190612372565b60405180910390a2505050565b600281565b600581565b6003602052806000526040600020600091509050806000015490806001018054610aa190611f67565b80601f0160208091040260200160405190810160405280929190818152602001828054610acd90611f67565b8015610b1a5780601f10610aef57610100808354040283529160200191610b1a565b820191906000526020600020905b815481529060010190602001808311610afd57829003601f168201915b5050505050908060020160009054906101000a900460ff16905083565b60025481565b600581565b6000600f8383905014610b8a576040517f08c379a0000000000000000000000000000000000000000000000000000000008152600401610b81906123e2565b60405180910390fd5b60008060008060005b87879050811015610e6b57600254888883818110610bb457610bb3612402565b5b905060200201351115610bfc576040517f08c379a0000000000000000000000000000000000000000000000000000000008152600401610bf39061247d565b60405180910390fd5b6000600460008a8a85818110610c1557610c14612402565b5b9050602002013581526020019081526020016000206040518060e001604052908160008201548152602001600182018054610c4f90611f67565b80601f0160208091040260200160405190810160405280929190818152602001828054610c7b90611f67565b8015610cc85780601f10610c9d57610100808354040283529160200191610cc8565b820191906000526020600020905b815481529060010190602001808311610cab57829003601f168201915b50505050508152602001600282018054610ce190611f67565b80601f0160208091040260200160405190810160405280929190818152602001828054610d0d90611f67565b8015610d5a5780601f10610d2f57610100808354040283529160200191610d5a565b820191906000526020600020905b815481529060010190602001808311610d3d57829003601f168201915b505050505081526020016003820154815260200160048201548152602001600582015481526020016006820160009054906101000a900460ff16151515158152505090508060c00151610de2576040517f08c379a0000000000000000000000000000000000000000000000000000000008152600401610dd9906124e9565b60405180910390fd5b6001816060015103610e01578580610df990611ef0565b965050610e5d565b6002816060015103610e20578480610e1890611ef0565b955050610e5c565b6003816060015103610e3f578380610e3790611ef0565b945050610e5b565b6004816060015103610e5a578280610e5690611ef0565b9350505b5b5b5b508080600101915050610b93565b50600284148015610e7c5750600583145b8015610e885750600582145b8015610e945750600381145b94505050505092915050565b6000806000905060005b84849050811015610f5d57600254858583818110610ecb57610eca612402565b5b905060200201351115610f13576040517f08c379a0000000000000000000000000000000000000000000000000000000008152600401610f0a9061247d565b60405180910390fd5b60046000868684818110610f2a57610f29612402565b5b9050602002013581526020019081526020016000206004015482610f4e9190612509565b91508080600101915050610eaa565b508091505092915050565b6000600254831115610faf576040517f08c379a0000000000000000000000000000000000000000000000000000000008152600401610fa69061247d565b60405180910390fd5b60066000848152602001908152602001600020600083815260200190815260200160002054905092915050565b60608060008060008060025487111561102a576040517f08c379a00000000000000000000000000000000000000000000000000000000081526004016110219061247d565b60405180910390fd5b6000600460008981526020019081526020016000206040518060e00160405290816000820154815260200160018201805461106490611f67565b80601f016020809104026020016040519081016040528092919081815260200182805461109090611f67565b80156110dd5780601f106110b2576101008083540402835291602001916110dd565b820191906000526020600020905b8154815290600101906020018083116110c057829003601f168201915b505050505081526020016002820180546110f690611f67565b80601f016020809104026020016040519081016040528092919081815260200182805461112290611f67565b801561116f5780601f106111445761010080835404028352916020019161116f565b820191906000526020600020905b81548152906001019060200180831161115257829003601f168201915b505050505081526020016003820154815260200160048201548152602001600582015481526020016006820160009054906101000a900460ff161515151581525050905080602001518160400151826060015183608001518460a001518560c001519650965096509650965096505091939550919395565b60008054906101000a900473ffffffffffffffffffffffffffffffffffffffff1673ffffffffffffffffffffffffffffffffffffffff163373ffffffffffffffffffffffffffffffffffffffff1614611275576040517f08c379a000000000000000000000000000000000000000000000000000000000815260040161126c90611ca8565b60405180910390fd5b6002548311156112ba576040517f08c379a00000000000000000000000000000000000000000000000000000000081526004016112b19061247d565b60405180910390fd5b8060066000858152602001908152602001600020600084815260200190815260200160002081905550806004600085815260200190815260200160002060050160008282546113099190612509565b92505081905550827f1d9a35f98c6965b7850b651366a8028cd7c8de43cf3dfea4d9b26eabe886dcc3838360405161134292919061253d565b60405180910390a2505050565b60015481565b6005818051602081018201805184825260208301602085012081835280955050505050506000915054906101000a900460ff1681565b60046020528060005260406000206000915090508060000154908060010180546113b490611f67565b80601f01602080910402602001604051908101604052809291908181526020018280546113e090611f67565b801561142d5780601f106114025761010080835404028352916020019161142d565b820191906000526020600020905b81548152906001019060200180831161141057829003601f168201915b50505050509080600201805461144290611f67565b80601f016020809104026020016040519081016040528092919081815260200182805461146e90611f67565b80156114bb5780601f10611490576101008083540402835291602001916114bb565b820191906000526020600020905b81548152906001019060200180831161149e57829003601f168201915b5050505050908060030154908060040154908060050154908060060160009054906101000a900460ff16905087565b60008054906101000a900473ffffffffffffffffffffffffffffffffffffffff1681565b6000819050919050565b6115218161150e565b82525050565b600060208201905061153c6000830184611518565b92915050565b6000604051905090565b600080fd5b600080fd5b61155f8161150e565b811461156a57600080fd5b50565b60008135905061157c81611556565b92915050565b600080604083850312156115995761159861154c565b5b60006115a78582860161156d565b92505060206115b88582860161156d565b9150509250929050565b600080fd5b600080fd5b600080fd5b60008083601f8401126115e7576115e66115c2565b5b8235905067ffffffffffffffff811115611604576116036115c7565b5b6020830191508360018202830111156116205761161f6115cc565b5b9250929050565b600080600080600080608087890312156116445761164361154c565b5b600087013567ffffffffffffffff81111561166257611661611551565b5b61166e89828a016115d1565b9650965050602087013567ffffffffffffffff81111561169157611690611551565b5b61169d89828a016115d1565b945094505060406116b089828a0161156d565b92505060606116c189828a0161156d565b9150509295509295509295565b600080602083850312156116e5576116e461154c565b5b600083013567ffffffffffffffff81111561170357611702611551565b5b61170f858286016115d1565b92509250509250929050565b600073ffffffffffffffffffffffffffffffffffffffff82169050919050565b60006117468261171b565b9050919050565b6117568161173b565b811461176157600080fd5b50565b6000813590506117738161174d565b92915050565b60006020828403121561178f5761178e61154c565b5b600061179d84828501611764565b91505092915050565b600081519050919050565b600082825260208201905092915050565b60005b838110156117e05780820151818401526020810190506117c5565b60008484015250505050565b6000601f19601f8301169050919050565b6000611808826117a6565b61181281856117b1565b93506118228185602086016117c2565b61182b816117ec565b840191505092915050565b60008115159050919050565b61184b81611836565b82525050565b60006060820190506118666000830186611518565b818103602083015261187881856117fd565b90506118876040830184611842565b949350505050565b60008083601f8401126118a5576118a46115c2565b5b8235905067ffffffffffffffff8111156118c2576118c16115c7565b5b6020830191508360208202830111156118de576118dd6115cc565b5b9250929050565b600080602083850312156118fc576118fb61154c565b5b600083013567ffffffffffffffff81111561191a57611919611551565b5b6119268582860161188f565b92509250509250929050565b60006020820190506119476000830184611842565b92915050565b6000602082840312156119635761196261154c565b5b60006119718482850161156d565b91505092915050565b600060c082019050818103600083015261199481896117fd565b905081810360208301526119a881886117fd565b90506119b76040830187611518565b6119c46060830186611518565b6119d16080830185611518565b6119de60a0830184611842565b979650505050505050565b600080600060608486031215611a0257611a0161154c565b5b6000611a108682870161156d565b9350506020611a218682870161156d565b9250506040611a328682870161156d565b9150509250925092565b600080fd5b7f4e487b7100000000000000000000000000000000000000000000000000000000600052604160045260246000fd5b611a79826117ec565b810181811067ffffffffffffffff82111715611a9857611a97611a41565b5b80604052505050565b6000611aab611542565b9050611ab78282611a70565b919050565b600067ffffffffffffffff821115611ad757611ad6611a41565b5b611ae0826117ec565b9050602081019050919050565b82818337600083830152505050565b6000611b0f611b0a84611abc565b611aa1565b905082815260208101848484011115611b2b57611b2a611a3c565b5b611b36848285611aed565b509392505050565b600082601f830112611b5357611b526115c2565b5b8135611b63848260208601611afc565b91505092915050565b600060208284031215611b8257611b8161154c565b5b600082013567ffffffffffffffff811115611ba057611b9f611551565b5b611bac84828501611b3e565b91505092915050565b600060e082019050611bca600083018a611518565b8181036020830152611bdc81896117fd565b90508181036040830152611bf081886117fd565b9050611bff6060830187611518565b611c0c6080830186611518565b611c1960a0830185611518565b611c2660c0830184611842565b98975050505050505050565b611c3b8161173b565b82525050565b6000602082019050611c566000830184611c32565b92915050565b7f4f6e6c792061646d696e00000000000000000000000000000000000000000000600082015250565b6000611c92600a836117b1565b9150611c9d82611c5c565b602082019050919050565b60006020820190508181036000830152611cc181611c85565b9050919050565b7f456d707479206e616d6500000000000000000000000000000000000000000000600082015250565b6000611cfe600a836117b1565b9150611d0982611cc8565b602082019050919050565b60006020820190508181036000830152611d2d81611cf1565b9050919050565b7f456d70747920636c756200000000000000000000000000000000000000000000600082015250565b6000611d6a600a836117b1565b9150611d7582611d34565b602082019050919050565b60006020820190508181036000830152611d9981611d5d565b9050919050565b7f496e76616c696420707269636500000000000000000000000000000000000000600082015250565b6000611dd6600d836117b1565b9150611de182611da0565b602082019050919050565b60006020820190508181036000830152611e0581611dc9565b9050919050565b600081905092915050565b6000611e238385611e0c565b9350611e30838584611aed565b82840190509392505050565b6000611e49828486611e17565b91508190509392505050565b7f506c617965722065786973747300000000000000000000000000000000000000600082015250565b6000611e8b600d836117b1565b9150611e9682611e55565b602082019050919050565b60006020820190508181036000830152611eba81611e7e565b9050919050565b7f4e487b7100000000000000000000000000000000000000000000000000000000600052601160045260246000fd5b6000611efb8261150e565b91507fffffffffffffffffffffffffffffffffffffffffffffffffffffffffffffffff8203611f2d57611f2c611ec1565b5b600182019050919050565b7f4e487b7100000000000000000000000000000000000000000000000000000000600052602260045260246000fd5b60006002820490506001821680611f7f57607f821691505b602082108103611f9257611f91611f38565b5b50919050565b60008190508160005260206000209050919050565b60006020601f8301049050919050565b600082821b905092915050565b600060088302611ffa7fffffffffffffffffffffffffffffffffffffffffffffffffffffffffffffffff82611fbd565b6120048683611fbd565b95508019841693508086168417925050509392505050565b6000819050919050565b600061204161203c6120378461150e565b61201c565b61150e565b9050919050565b6000819050919050565b61205b83612026565b61206f61206782612048565b848454611fca565b825550505050565b600090565b612084612077565b61208f818484612052565b505050565b5b818110156120b3576120a860008261207c565b600181019050612095565b5050565b601f8211156120f8576120c981611f98565b6120d284611fad565b810160208510156120e1578190505b6120f56120ed85611fad565b830182612094565b50505b505050565b600082821c905092915050565b600061211b600019846008026120fd565b1980831691505092915050565b6000612134838361210a565b9150826002028217905092915050565b61214d826117a6565b67ffffffffffffffff81111561216657612165611a41565b5b6121708254611f67565b61217b8282856120b7565b600060209050601f8311600181146121ae576000841561219c578287015190505b6121a68582612128565b86555061220e565b601f1984166121bc86611f98565b60005b828110156121e4578489015182556001820191506020850194506020810190506121bf565b8683101561220157848901516121fd601f89168261210a565b8355505b6001600288020188555050505b505050505050565b600061222283856117b1565b935061222f838584611aed565b612238836117ec565b840190509392505050565b6000608082019050818103600083015261225e81888a612216565b90508181036020830152612273818688612216565b90506122826040830185611518565b61228f6060830184611518565b979650505050505050565b7f496e76616c696420616464726573730000000000000000000000000000000000600082015250565b60006122d0600f836117b1565b91506122db8261229a565b602082019050919050565b600060208201905081810360008301526122ff816122c3565b9050919050565b7f416c726561647920726567697374657265640000000000000000000000000000600082015250565b600061233c6012836117b1565b915061234782612306565b602082019050919050565b6000602082019050818103600083015261236b8161232f565b9050919050565b6000602082019050818103600083015261238d818486612216565b90509392505050565b7f496e76616c6964207465616d2073697a65000000000000000000000000000000600082015250565b60006123cc6011836117b1565b91506123d782612396565b602082019050919050565b600060208201905081810360008301526123fb816123bf565b9050919050565b7f4e487b7100000000000000000000000000000000000000000000000000000000600052603260045260246000fd5b7f496e76616c696420706c61796572204944000000000000000000000000000000600082015250565b60006124676011836117b1565b915061247282612431565b602082019050919050565b600060208201905081810360008301526124968161245a565b9050919050565b7f496e61637469766520706c617965720000000000000000000000000000000000600082015250565b60006124d3600f836117b1565b91506124de8261249d565b602082019050919050565b60006020820190508181036000830152612502816124c6565b9050919050565b60006125148261150e565b915061251f8361150e565b925082820190508082111561253757612536611ec1565b5b92915050565b60006040820190506125526000830185611518565b61255f6020830184611518565b939250505056fea2646970667358221220c81dcdb719e570f98750d336836b4b3f5ffd72624e831aaf7113b732ecc1666464736f6c634300081b0033",
  "linkReferences": {},
  "deployedLinkReferences": {}
}