{
  "_format": "hh-sol-artifact-1",
  "contractName": "LeagueFactory",
  "sourceName": "contracts/LeagueFactory.sol",
  "abi": [
    {
      "inputs": [
        {
          "internalType": "address",
          "name": "_userPlayerManager",
          "type": "address"
        }
      ],
      "stateMutability": "nonpayable",
      "type": "constructor"
    },
    {
      "anonymous": false,
      "inputs": [
        {
          "indexed": true,
          "internalType": "uint256",
          "name": "leagueId",
          "type": "uint256"
        },
        {
          "indexed": false,
          "internalType": "address",
          "name": "leagueAddress",
          "type": "address"
        },
        {
          "indexed": false,
          "internalType": "string",
          "name": "name",
          "type": "string"
        },
        {
          "indexed": false,
          "internalType": "address",
          "name": "owner",
          "type": "address"
        }
      ],
      "name": "LeagueCreated",
      "type": "event"
    },
    {
      "inputs": [],
      "name": "admin",
      "outputs": [
        {
          "internalType": "address",
          "name": "",
          "type": "address"
        }
      ],
      "stateMutability": "view",
      "type": "function"
    },
    {
      "inputs": [
        {
          "internalType": "string",
          "name": "name",
          "type": "string"
        },
        {
          "internalType": "uint256",
          "name": "entryFee",
          "type": "uint256"
        },
        {
          "internalType": "uint256",
          "name": "startTime",
          "type": "uint256"
        },
        {
          "internalType": "uint256",
          "name": "endTime",
          "type": "uint256"
        }
      ],
      "name": "createLeague",
      "outputs": [
        {
          "internalType": "address",
          "name": "",
          "type": "address"
        },
        {
          "internalType": "uint256",
          "name": "",
          "type": "uint256"
        }
      ],
      "stateMutability": "payable",
      "type": "function"
    },
    {
      "inputs": [
        {
          "internalType": "uint256",
          "name": "",
          "type": "uint256"
        }
      ],
      "name": "leagues",
      "outputs": [
        {
          "internalType": "address",
          "name": "",
          "type": "address"
        }
      ],
      "stateMutability": "view",
      "type": "function"
    },
    {
      "inputs": [],
      "name": "userPlayerManager",
      "outputs": [
        {
          "internalType": "contract UserPlayerManager",
          "name": "",
          "type": "address"
        }
      ],
      "stateMutability": "view",
      "type": "function"
    }
  ],
  "bytecode": "0x608060405234801561001057600080fd5b50604051614b55380380614b558339818101604052810190610032919061018b565b600073ffffffffffffffffffffffffffffffffffffffff168173ffffffffffffffffffffffffffffffffffffffff16036100a1576040517f08c379a000000000000000000000000000000000000000000000000000000000815260040161009890610215565b60405180910390fd5b806000806101000a81548173ffffffffffffffffffffffffffffffffffffffff021916908373ffffffffffffffffffffffffffffffffffffffff16021790555033600160006101000a81548173ffffffffffffffffffffffffffffffffffffffff021916908373ffffffffffffffffffffffffffffffffffffffff16021790555050610235565b600080fd5b600073ffffffffffffffffffffffffffffffffffffffff82169050919050565b60006101588261012d565b9050919050565b6101688161014d565b811461017357600080fd5b50565b6000815190506101858161015f565b92915050565b6000602082840312156101a1576101a0610128565b5b60006101af84828501610176565b91505092915050565b600082825260208201905092915050565b7f496e76616c69642055736572506c617965724d616e6167657200000000000000600082015250565b60006101ff6019836101b8565b915061020a826101c9565b602082019050919050565b6000602082019050818103600083015261022e816101f2565b9050919050565b614911806102446000396000f3fe60806040526004361061003f5760003560e01c806324b305f2146100445780638a1af81514610075578063c648fefe146100a0578063f851a440146100dd575b600080fd5b61005e60048036038101906100599190610684565b610108565b60405161006c929190610757565b60405180910390f35b34801561008157600080fd5b5061008a61046a565b60405161009791906107df565b60405180910390f35b3480156100ac57600080fd5b506100c760048036038101906100c291906107fa565b61048e565b6040516100d49190610827565b60405180910390f35b3480156100e957600080fd5b506100f26104c1565b6040516100ff9190610827565b60405180910390f35b600080600086511161014f576040517f08c379a00000000000000000000000000000000000000000000000000000000081526004016101469061089f565b60405180910390fd5b428411610191576040517f08c379a00000000000000000000000000000000000000000000000000000000081526004016101889061090b565b60405180910390fd5b8383116101d3576040517f08c379a00000000000000000000000000000000000000000000000000000000081526004016101ca90610977565b60405180910390fd5b843414610215576040517f08c379a000000000000000000000000000000000000000000000000000000000815260040161020c906109e3565b60405180910390fd5b600060026000815461022690610a32565b9190508190559050600081883389898960008054906101000a900473ffffffffffffffffffffffffffffffffffffffff16604051610263906104e7565b6102739796959493929190610ae8565b604051809103906000f08015801561028f573d6000803e3d6000fd5b5090506000819050806003600085815260200190815260200160002060006101000a81548173ffffffffffffffffffffffffffffffffffffffff021916908373ffffffffffffffffffffffffffffffffffffffff16021790555060008054906101000a900473ffffffffffffffffffffffffffffffffffffffff1673ffffffffffffffffffffffffffffffffffffffff1663dab63d0833856040518363ffffffff1660e01b8152600401610344929190610757565b600060405180830381600087803b15801561035e57600080fd5b505af1158015610372573d6000803e3d6000fd5b5050505060008054906101000a900473ffffffffffffffffffffffffffffffffffffffff1673ffffffffffffffffffffffffffffffffffffffff166351ab96f06003343330886040518663ffffffff1660e01b81526004016103d8959493929190610bd5565b6020604051808303816000875af11580156103f7573d6000803e3d6000fd5b505050506040513d601f19601f8201168201806040525081019061041b9190610c3d565b50827f34ef2f18b56ed366b97f4893496a42bda57019393602c6d97b9a44545aa17243828b3360405161045093929190610c6a565b60405180910390a280839450945050505094509492505050565b60008054906101000a900473ffffffffffffffffffffffffffffffffffffffff1681565b60036020528060005260406000206000915054906101000a900473ffffffffffffffffffffffffffffffffffffffff1681565b600160009054906101000a900473ffffffffffffffffffffffffffffffffffffffff1681565b613c3380610ca983390190565b6000604051905090565b600080fd5b600080fd5b600080fd5b600080fd5b6000601f19601f8301169050919050565b7f4e487b7100000000000000000000000000000000000000000000000000000000600052604160045260246000fd5b61055b82610512565b810181811067ffffffffffffffff8211171561057a57610579610523565b5b80604052505050565b600061058d6104f4565b90506105998282610552565b919050565b600067ffffffffffffffff8211156105b9576105b8610523565b5b6105c282610512565b9050602081019050919050565b82818337600083830152505050565b60006105f16105ec8461059e565b610583565b90508281526020810184848401111561060d5761060c61050d565b5b6106188482856105cf565b509392505050565b600082601f83011261063557610634610508565b5b81356106458482602086016105de565b91505092915050565b6000819050919050565b6106618161064e565b811461066c57600080fd5b50565b60008135905061067e81610658565b92915050565b6000806000806080858703121561069e5761069d6104fe565b5b600085013567ffffffffffffffff8111156106bc576106bb610503565b5b6106c887828801610620565b94505060206106d98782880161066f565b93505060406106ea8782880161066f565b92505060606106fb8782880161066f565b91505092959194509250565b600073ffffffffffffffffffffffffffffffffffffffff82169050919050565b600061073282610707565b9050919050565b61074281610727565b82525050565b6107518161064e565b82525050565b600060408201905061076c6000830185610739565b6107796020830184610748565b9392505050565b6000819050919050565b60006107a56107a061079b84610707565b610780565b610707565b9050919050565b60006107b78261078a565b9050919050565b60006107c9826107ac565b9050919050565b6107d9816107be565b82525050565b60006020820190506107f460008301846107d0565b92915050565b6000602082840312156108105761080f6104fe565b5b600061081e8482850161066f565b91505092915050565b600060208201905061083c6000830184610739565b92915050565b600082825260208201905092915050565b7f456d707479206e616d6500000000000000000000000000000000000000000000600082015250565b6000610889600a83610842565b915061089482610853565b602082019050919050565b600060208201905081810360008301526108b88161087c565b9050919050565b7f53746172742074696d65206d7573742062652066757475726500000000000000600082015250565b60006108f5601983610842565b9150610900826108bf565b602082019050919050565b60006020820190508181036000830152610924816108e8565b9050919050565b7f456e642074696d65206d75737420626520616674657220737461727400000000600082015250565b6000610961601c83610842565b915061096c8261092b565b602082019050919050565b6000602082019050818103600083015261099081610954565b9050919050565b7f496e636f727265637420656e7472792066656500000000000000000000000000600082015250565b60006109cd601383610842565b91506109d882610997565b602082019050919050565b600060208201905081810360008301526109fc816109c0565b9050919050565b7f4e487b7100000000000000000000000000000000000000000000000000000000600052601160045260246000fd5b6000610a3d8261064e565b91507fffffffffffffffffffffffffffffffffffffffffffffffffffffffffffffffff8203610a6f57610a6e610a03565b5b600182019050919050565b600081519050919050565b60005b83811015610aa3578082015181840152602081019050610a88565b60008484015250505050565b6000610aba82610a7a565b610ac48185610842565b9350610ad4818560208601610a85565b610add81610512565b840191505092915050565b600060e082019050610afd600083018a610748565b8181036020830152610b0f8189610aaf565b9050610b1e6040830188610739565b610b2b6060830187610748565b610b386080830186610748565b610b4560a0830185610748565b610b5260c0830184610739565b98975050505050505050565b7f4e487b7100000000000000000000000000000000000000000000000000000000600052602160045260246000fd5b60048110610b9e57610b9d610b5e565b5b50565b6000819050610baf82610b8d565b919050565b6000610bbf82610ba1565b9050919050565b610bcf81610bb4565b82525050565b600060a082019050610bea6000830188610bc6565b610bf76020830187610748565b610c046040830186610739565b610c116060830185610739565b610c1e6080830184610748565b9695505050505050565b600081519050610c3781610658565b92915050565b600060208284031215610c5357610c526104fe565b5b6000610c6184828501610c28565b91505092915050565b6000606082019050610c7f6000830186610739565b8181036020830152610c918185610aaf565b9050610ca06040830184610739565b94935050505056fe60c060405234801561001057600080fd5b50604051613c33380380613c338339818101604052810190610032919061044b565b8660028190555085600390816100489190610720565b5084600460006101000a81548173ffffffffffffffffffffffffffffffffffffffff021916908373ffffffffffffffffffffffffffffffffffffffff16021790555083600581905550826006819055508160078190555080600160006101000a81548173ffffffffffffffffffffffffffffffffffffffff021916908373ffffffffffffffffffffffffffffffffffffffff160217905550600b600460009054906101000a900473ffffffffffffffffffffffffffffffffffffffff169080600181540180825580915050600190039060005260206000200160009091909190916101000a81548173ffffffffffffffffffffffffffffffffffffffff021916908373ffffffffffffffffffffffffffffffffffffffff1602179055506001600c6000600460009054906101000a900473ffffffffffffffffffffffffffffffffffffffff1673ffffffffffffffffffffffffffffffffffffffff1673ffffffffffffffffffffffffffffffffffffffff16815260200190815260200160002060006101000a81548160ff0219169083151502179055503373ffffffffffffffffffffffffffffffffffffffff1660a08173ffffffffffffffffffffffffffffffffffffffff16815250506001600a60006101000a81548160ff0219169083151502179055506001600081905550505050505050506107f2565b6000604051905090565b600080fd5b600080fd5b6000819050919050565b61026981610256565b811461027457600080fd5b50565b60008151905061028681610260565b92915050565b600080fd5b600080fd5b6000601f19601f8301169050919050565b7f4e487b7100000000000000000000000000000000000000000000000000000000600052604160045260246000fd5b6102df82610296565b810181811067ffffffffffffffff821117156102fe576102fd6102a7565b5b80604052505050565b6000610311610242565b905061031d82826102d6565b919050565b600067ffffffffffffffff82111561033d5761033c6102a7565b5b61034682610296565b9050602081019050919050565b60005b83811015610371578082015181840152602081019050610356565b60008484015250505050565b600061039061038b84610322565b610307565b9050828152602081018484840111156103ac576103ab610291565b5b6103b7848285610353565b509392505050565b600082601f8301126103d4576103d361028c565b5b81516103e484826020860161037d565b91505092915050565b600073ffffffffffffffffffffffffffffffffffffffff82169050919050565b6000610418826103ed565b9050919050565b6104288161040d565b811461043357600080fd5b50565b6000815190506104458161041f565b92915050565b600080600080600080600060e0888a03121561046a5761046961024c565b5b60006104788a828b01610277565b975050602088015167ffffffffffffffff81111561049957610498610251565b5b6104a58a828b016103bf565b96505060406104b68a828b01610436565b95505060606104c78a828b01610277565b94505060806104d88a828b01610277565b93505060a06104e98a828b01610277565b92505060c06104fa8a828b01610436565b91505092959891949750929550565b600081519050919050565b7f4e487b7100000000000000000000000000000000000000000000000000000000600052602260045260246000fd5b6000600282049050600182168061055b57607f821691505b60208210810361056e5761056d610514565b5b50919050565b60008190508160005260206000209050919050565b60006020601f8301049050919050565b600082821b905092915050565b6000600883026105d67fffffffffffffffffffffffffffffffffffffffffffffffffffffffffffffffff82610599565b6105e08683610599565b95508019841693508086168417925050509392505050565b6000819050919050565b600061061d61061861061384610256565b6105f8565b610256565b9050919050565b6000819050919050565b61063783610602565b61064b61064382610624565b8484546105a6565b825550505050565b600090565b610660610653565b61066b81848461062e565b505050565b5b8181101561068f57610684600082610658565b600181019050610671565b5050565b601f8211156106d4576106a581610574565b6106ae84610589565b810160208510156106bd578190505b6106d16106c985610589565b830182610670565b50505b505050565b600082821c905092915050565b60006106f7600019846008026106d9565b1980831691505092915050565b600061071083836106e6565b9150826002028217905092915050565b61072982610509565b67ffffffffffffffff811115610742576107416102a7565b5b61074c8254610543565b610757828285610693565b600060209050601f83116001811461078a5760008415610778578287015190505b6107828582610704565b8655506107ea565b601f19841661079886610574565b60005b828110156107c05784890151825560018201915060208501945060208101905061079b565b868310156107dd57848901516107d9601f8916826106e6565b8355505b6001600288020188555050505b505050505050565b60805160a05161341c610817600039600061209801526000612074015261341c6000f3fe6080604052600436106101c25760003560e01c8063464800af116100f75780637c4df0f0116100955780639a7c1fd1116100645780639a7c1fd114610673578063ccdcef1b146106b0578063dc185e35146106c7578063f013d4f1146106f2576101c2565b80637c4df0f0146105a35780638a1af815146105e05780638da5cb5b1461060b578063929066f514610636576101c2565b80635aa68ac0116100d15780635aa68ac0146104e557806372d6625714610510578063739844111461053b57806378e9792514610578576101c2565b8063464800af146104405780634e39c22c1461046b578063573386ca146104a8576101c2565b806311d199d111610164578063287e4a5f1161013e578063287e4a5f146103705780632f607d26146103ad5780633197cbb6146103ea578063398ab9a714610415576101c2565b806311d199d1146103025780631a526fc01461032b5780632709e8df14610354576101c2565b8063072ea61c116101a0578063072ea61c146102485780630a3f5a42146102735780630a7e48b11461029c578063108e965e146102d9576101c2565b806302fb0c5e146101c757806306575c89146101f257806306fdde031461021d575b600080fd5b3480156101d357600080fd5b506101dc61071d565b6040516101e991906120d5565b60405180910390f35b3480156101fe57600080fd5b50610207610730565b6040516102149190612109565b60405180910390f35b34801561022957600080fd5b50610232610736565b60405161023f91906121b4565b60405180910390f35b34801561025457600080fd5b5061025d6107c4565b60405161026a9190612109565b60405180910390f35b34801561027f57600080fd5b5061029a60048036038101906102959190612216565b6107ca565b005b3480156102a857600080fd5b506102c360048036038101906102be9190612216565b610b01565b6040516102d091906120d5565b60405180910390f35b3480156102e557600080fd5b5061030060048036038101906102fb9190612243565b610b21565b005b34801561030e57600080fd5b5061032960048036038101906103249190612216565b610d85565b005b34801561033757600080fd5b50610352600480360381019061034d9190612243565b611202565b005b61036e60048036038101906103699190612216565b611610565b005b34801561037c57600080fd5b5061039760048036038101906103929190612216565b611b2e565b6040516103a49190612109565b60405180910390f35b3480156103b957600080fd5b506103d460048036038101906103cf9190612216565b611b46565b6040516103e191906122c4565b60405180910390f35b3480156103f657600080fd5b506103ff611b85565b60405161040c9190612109565b60405180910390f35b34801561042157600080fd5b5061042a611b8b565b6040516104379190612109565b60405180910390f35b34801561044c57600080fd5b50610455611b91565b6040516104629190612109565b60405180910390f35b34801561047757600080fd5b50610492600480360381019061048d9190612216565b611b97565b60405161049f91906122c4565b60405180910390f35b3480156104b457600080fd5b506104cf60048036038101906104ca919061230b565b611bca565b6040516104dc91906120d5565b60405180910390f35b3480156104f157600080fd5b506104fa611bf9565b6040516105079190612409565b60405180910390f35b34801561051c57600080fd5b50610525611c87565b6040516105329190612109565b60405180910390f35b34801561054757600080fd5b50610562600480360381019061055d919061230b565b611c8e565b60405161056f9190612109565b60405180910390f35b34801561058457600080fd5b5061058d611cbf565b60405161059a9190612109565b60405180910390f35b3480156105af57600080fd5b506105ca60048036038101906105c5919061242b565b611cc5565b6040516105d79190612109565b60405180910390f35b3480156105ec57600080fd5b506105f5611f03565b60405161060291906124dd565b60405180910390f35b34801561061757600080fd5b50610620611f29565b60405161062d91906122c4565b60405180910390f35b34801561064257600080fd5b5061065d600480360381019061065891906124f8565b611f4f565b60405161066a91906120d5565b60405180910390f35b34801561067f57600080fd5b5061069a60048036038101906106959190612216565b611f6f565b6040516106a791906120d5565b60405180910390f35b3480156106bc57600080fd5b506106c5611f8f565b005b3480156106d357600080fd5b506106dc612072565b6040516106e99190612109565b60405180910390f35b3480156106fe57600080fd5b50610707612096565b60405161071491906122c4565b60405180910390f35b600a60009054906101000a900460ff1681565b60085481565b6003805461074390612554565b80601f016020809104026020016040519081016040528092919081815260200182805461076f90612554565b80156107bc5780601f10610791576101008083540402835291602001916107bc565b820191906000526020600020905b81548152906001019060200180831161079f57829003601f168201915b505050505081565b60055481565b60026000540361080f576040517f08c379a0000000000000000000000000000000000000000000000000000000008152600401610806906125d1565b60405180910390fd5b60026000819055506010600082815260200190815260200160002060009054906101000a900460ff16610877576040517f08c379a000000000000000000000000000000000000000000000000000000000815260040161086e9061263d565b60405180910390fd5b6011600082815260200190815260200160002060009054906101000a900460ff16156108d8576040517f08c379a00000000000000000000000000000000000000000000000000000000081526004016108cf906126a9565b60405180910390fd5b3373ffffffffffffffffffffffffffffffffffffffff16600f600083815260200190815260200160002060009054906101000a900473ffffffffffffffffffffffffffffffffffffffff1673ffffffffffffffffffffffffffffffffffffffff1614610979576040517f08c379a000000000000000000000000000000000000000000000000000000000815260040161097090612715565b60405180910390fd5b60006012600083815260200190815260200160002054116109cf576040517f08c379a00000000000000000000000000000000000000000000000000000000081526004016109c690612781565b60405180910390fd5b6000601260008381526020019081526020016000205490506000601260008481526020019081526020016000208190555060016011600084815260200190815260200160002060006101000a81548160ff021916908315150217905550600160009054906101000a900473ffffffffffffffffffffffffffffffffffffffff1673ffffffffffffffffffffffffffffffffffffffff16635511384e33836040518363ffffffff1660e01b8152600401610a899291906127a1565b600060405180830381600087803b158015610aa357600080fd5b505af1158015610ab7573d6000803e3d6000fd5b50505050817f24b5efa61dd1cfc659205a97fb8ed868f3cb8c81922bab2b96423e5de1de2cb73383604051610aed9291906127a1565b60405180910390a250600160008190555050565b60106020528060005260406000206000915054906101000a900460ff1681565b600460009054906101000a900473ffffffffffffffffffffffffffffffffffffffff1673ffffffffffffffffffffffffffffffffffffffff163373ffffffffffffffffffffffffffffffffffffffff1614610bb1576040517f08c379a0000000000000000000000000000000000000000000000000000000008152600401610ba890612816565b60405180910390fd5b62093a8081610bc09190612865565b600654610bcd91906128a7565b421015610c0f576040517f08c379a0000000000000000000000000000000000000000000000000000000008152600401610c0690612927565b60405180910390fd5b60005b600b80549050811015610d80576000600b8281548110610c3557610c34612947565b5b9060005260206000200160009054906101000a900473ffffffffffffffffffffffffffffffffffffffff1690506000610c6f828686611cc5565b90506000600160009054906101000a900473ffffffffffffffffffffffffffffffffffffffff1673ffffffffffffffffffffffffffffffffffffffff166380f78b3f84886040518363ffffffff1660e01b8152600401610cd09291906127a1565b600060405180830381865afa158015610ced573d6000803e3d6000fd5b505050506040513d6000823e3d601f19601f82011682018060405250810190610d169190612bee565b9050818160400181815250508273ffffffffffffffffffffffffffffffffffffffff167fa05f39e6d8d4e060324edb900f0f5909de621fd93f19ccf65ba74e5965c98c3683604051610d689190612109565b60405180910390a25050508080600101915050610c12565b505050565b600c60003373ffffffffffffffffffffffffffffffffffffffff1673ffffffffffffffffffffffffffffffffffffffff16815260200190815260200160002060009054906101000a900460ff16610e11576040517f08c379a0000000000000000000000000000000000000000000000000000000008152600401610e0890612c83565b60405180910390fd5b600e60003373ffffffffffffffffffffffffffffffffffffffff1673ffffffffffffffffffffffffffffffffffffffff1681526020019081526020016000206000600254815260200190815260200160002060009054906101000a900460ff1615610eb1576040517f08c379a0000000000000000000000000000000000000000000000000000000008152600401610ea890612cef565b60405180910390fd5b6000600160009054906101000a900473ffffffffffffffffffffffffffffffffffffffff1673ffffffffffffffffffffffffffffffffffffffff166380f78b3f33846040518363ffffffff1660e01b8152600401610f109291906127a1565b600060405180830381865afa158015610f2d573d6000803e3d6000fd5b505050506040513d6000823e3d601f19601f82011682018060405250810190610f569190612bee565b90508060800151610f9c576040517f08c379a0000000000000000000000000000000000000000000000000000000008152600401610f9390612d5b565b60405180910390fd5b8060a0015115610fe1576040517f08c379a0000000000000000000000000000000000000000000000000000000008152600401610fd890612dc7565b60405180910390fd5b3373ffffffffffffffffffffffffffffffffffffffff16816060015173ffffffffffffffffffffffffffffffffffffffff1614611053576040517f08c379a000000000000000000000000000000000000000000000000000000000815260040161104a90612e33565b60405180910390fd5b600160009054906101000a900473ffffffffffffffffffffffffffffffffffffffff1673ffffffffffffffffffffffffffffffffffffffff166324f38ebc83336002546040518463ffffffff1660e01b81526004016110b493929190612e53565b600060405180830381600087803b1580156110ce57600080fd5b505af11580156110e2573d6000803e3d6000fd5b505050506001600e60003373ffffffffffffffffffffffffffffffffffffffff1673ffffffffffffffffffffffffffffffffffffffff1681526020019081526020016000206000600254815260200190815260200160002060006101000a81548160ff021916908315150217905550600d60003373ffffffffffffffffffffffffffffffffffffffff1673ffffffffffffffffffffffffffffffffffffffff168152602001908152602001600020829080600181540180825580915050600190039060005260206000200160009091909190915055816002543373ffffffffffffffffffffffffffffffffffffffff167f46ba7f4daa6170e9b3c365725c0b59e6b10da8ff249c9bba46a9122f7dd1014e60405160405180910390a45050565b600460009054906101000a900473ffffffffffffffffffffffffffffffffffffffff1673ffffffffffffffffffffffffffffffffffffffff163373ffffffffffffffffffffffffffffffffffffffff1614611292576040517f08c379a000000000000000000000000000000000000000000000000000000000815260040161128990612816565b60405180910390fd5b62093a80816112a19190612865565b6006546112ae91906128a7565b4210156112f0576040517f08c379a00000000000000000000000000000000000000000000000000000000081526004016112e790612927565b60405180910390fd5b6010600082815260200190815260200160002060009054906101000a900460ff1615611351576040517f08c379a000000000000000000000000000000000000000000000000000000000815260040161134890612ed6565b60405180910390fd5b60008060005b600b805490508110156114cf576000600b828154811061137a57611379612947565b5b9060005260206000200160009054906101000a900473ffffffffffffffffffffffffffffffffffffffff16905060005b600d60008373ffffffffffffffffffffffffffffffffffffffff1673ffffffffffffffffffffffffffffffffffffffff168152602001908152602001600020805490508110156114c0576000600160009054906101000a900473ffffffffffffffffffffffffffffffffffffffff1673ffffffffffffffffffffffffffffffffffffffff166380f78b3f848a6040518363ffffffff1660e01b81526004016114539291906127a1565b600060405180830381865afa158015611470573d6000803e3d6000fd5b505050506040513d6000823e3d601f19601f820116820180604052508101906114999190612bee565b905084816040015111156114b257806040015194508295505b5080806001019150506113aa565b50508080600101915050611357565b50600073ffffffffffffffffffffffffffffffffffffffff168273ffffffffffffffffffffffffffffffffffffffff160361153f576040517f08c379a000000000000000000000000000000000000000000000000000000000815260040161153690612f42565b60405180910390fd5b81600f600085815260200190815260200160002060006101000a81548173ffffffffffffffffffffffffffffffffffffffff021916908373ffffffffffffffffffffffffffffffffffffffff16021790555060016010600085815260200190815260200160002060006101000a81548160ff021916908315150217905550827f9e8a46942c293ec4ea2406e2a6e4316c256cb47656af7d5b260188d95b7de7498360126000878152602001908152602001600020546040516116029291906127a1565b60405180910390a250505050565b600260005403611655576040517f08c379a000000000000000000000000000000000000000000000000000000000815260040161164c906125d1565b60405180910390fd5b600260008190555060055434146116a1576040517f08c379a000000000000000000000000000000000000000000000000000000000815260040161169890612fae565b60405180910390fd5b600c60003373ffffffffffffffffffffffffffffffffffffffff1673ffffffffffffffffffffffffffffffffffffffff16815260200190815260200160002060009054906101000a900460ff161561172e576040517f08c379a00000000000000000000000000000000000000000000000000000000081526004016117259061301a565b60405180910390fd5b600460009054906101000a900473ffffffffffffffffffffffffffffffffffffffff1673ffffffffffffffffffffffffffffffffffffffff163373ffffffffffffffffffffffffffffffffffffffff16036117be576040517f08c379a00000000000000000000000000000000000000000000000000000000081526004016117b590612cef565b60405180910390fd5b6006544210611802576040517f08c379a00000000000000000000000000000000000000000000000000000000081526004016117f990613086565b60405180910390fd5b600a60009054906101000a900460ff16611851576040517f08c379a0000000000000000000000000000000000000000000000000000000008152600401611848906130f2565b60405180910390fd5b600160009054906101000a900473ffffffffffffffffffffffffffffffffffffffff1673ffffffffffffffffffffffffffffffffffffffff1663dab63d0833836040518363ffffffff1660e01b81526004016118ae9291906127a1565b600060405180830381600087803b1580156118c857600080fd5b505af11580156118dc573d6000803e3d6000fd5b50505050600b339080600181540180825580915050600190039060005260206000200160009091909190916101000a81548173ffffffffffffffffffffffffffffffffffffffff021916908373ffffffffffffffffffffffffffffffffffffffff1602179055506001600c60003373ffffffffffffffffffffffffffffffffffffffff1673ffffffffffffffffffffffffffffffffffffffff16815260200190815260200160002060006101000a81548160ff021916908315150217905550600160009054906101000a900473ffffffffffffffffffffffffffffffffffffffff1673ffffffffffffffffffffffffffffffffffffffff166351ab96f06003343330866040518663ffffffff1660e01b81526004016119ff959493929190613189565b6020604051808303816000875af1158015611a1e573d6000803e3d6000fd5b505050506040513d601f19601f82011682018060405250810190611a4291906131dc565b503460096000828254611a5591906128a7565b92505081905550600062093a80600654600754611a729190613209565b611a7c919061326c565b905060008134611a8c919061326c565b905060005b82811015611ad05781601260008381526020019081526020016000206000828254611abc91906128a7565b925050819055508080600101915050611a91565b503373ffffffffffffffffffffffffffffffffffffffff167f70dc633363beb746a7d5d35ff8a46d62c0733e63a022b21ce0ee9709c567ce53600254604051611b199190612109565b60405180910390a25050600160008190555050565b60126020528060005260406000206000915090505481565b600b8181548110611b5657600080fd5b906000526020600020016000915054906101000a900473ffffffffffffffffffffffffffffffffffffffff1681565b60075481565b60095481565b60025481565b600f6020528060005260406000206000915054906101000a900473ffffffffffffffffffffffffffffffffffffffff1681565b600e6020528160005260406000206020528060005260406000206000915091509054906101000a900460ff1681565b6060600b805480602002602001604051908101604052809291908181526020018280548015611c7d57602002820191906000526020600020905b8160009054906101000a900473ffffffffffffffffffffffffffffffffffffffff1673ffffffffffffffffffffffffffffffffffffffff1681526020019060010190808311611c33575b5050505050905090565b62093a8081565b600d6020528160005260406000208181548110611caa57600080fd5b90600052602060002001600091509150505481565b60065481565b6000600e60008573ffffffffffffffffffffffffffffffffffffffff1673ffffffffffffffffffffffffffffffffffffffff1681526020019081526020016000206000600254815260200190815260200160002060009054906101000a900460ff16611d66576040517f08c379a0000000000000000000000000000000000000000000000000000000008152600401611d5d906132e9565b60405180910390fd5b6000600160009054906101000a900473ffffffffffffffffffffffffffffffffffffffff1673ffffffffffffffffffffffffffffffffffffffff166380f78b3f86866040518363ffffffff1660e01b8152600401611dc59291906127a1565b600060405180830381865afa158015611de2573d6000803e3d6000fd5b505050506040513d6000823e3d601f19601f82011682018060405250810190611e0b9190612bee565b905060008160c0015190506000805b8251811015611ef557600160009054906101000a900473ffffffffffffffffffffffffffffffffffffffff1673ffffffffffffffffffffffffffffffffffffffff1663de03fd35848381518110611e7457611e73612947565b5b6020026020010151886040518363ffffffff1660e01b8152600401611e9a929190613309565b602060405180830381865afa158015611eb7573d6000803e3d6000fd5b505050506040513d601f19601f82011682018060405250810190611edb91906131dc565b82611ee691906128a7565b91508080600101915050611e1a565b508093505050509392505050565b600160009054906101000a900473ffffffffffffffffffffffffffffffffffffffff1681565b600460009054906101000a900473ffffffffffffffffffffffffffffffffffffffff1681565b600c6020528060005260406000206000915054906101000a900460ff1681565b60116020528060005260406000206000915054906101000a900460ff1681565b600460009054906101000a900473ffffffffffffffffffffffffffffffffffffffff1673ffffffffffffffffffffffffffffffffffffffff163373ffffffffffffffffffffffffffffffffffffffff161461201f576040517f08c379a00000000000000000000000000000000000000000000000000000000081526004016120169061337e565b60405180910390fd5b600860008154809291906120329061339e565b91905055507f54ab1f5ea80e88ee480c10edc5b60056a0e392c6125954a9f47ce8677acc59d06008546040516120689190612109565b60405180910390a1565b7f000000000000000000000000000000000000000000000000000000000000000081565b7f000000000000000000000000000000000000000000000000000000000000000081565b60008115159050919050565b6120cf816120ba565b82525050565b60006020820190506120ea60008301846120c6565b92915050565b6000819050919050565b612103816120f0565b82525050565b600060208201905061211e60008301846120fa565b92915050565b600081519050919050565b600082825260208201905092915050565b60005b8381101561215e578082015181840152602081019050612143565b60008484015250505050565b6000601f19601f8301169050919050565b600061218682612124565b612190818561212f565b93506121a0818560208601612140565b6121a98161216a565b840191505092915050565b600060208201905081810360008301526121ce818461217b565b905092915050565b6000604051905090565b600080fd5b600080fd5b6121f3816120f0565b81146121fe57600080fd5b50565b600081359050612210816121ea565b92915050565b60006020828403121561222c5761222b6121e0565b5b600061223a84828501612201565b91505092915050565b6000806040838503121561225a576122596121e0565b5b600061226885828601612201565b925050602061227985828601612201565b9150509250929050565b600073ffffffffffffffffffffffffffffffffffffffff82169050919050565b60006122ae82612283565b9050919050565b6122be816122a3565b82525050565b60006020820190506122d960008301846122b5565b92915050565b6122e8816122a3565b81146122f357600080fd5b50565b600081359050612305816122df565b92915050565b60008060408385031215612322576123216121e0565b5b6000612330858286016122f6565b925050602061234185828601612201565b9150509250929050565b600081519050919050565b600082825260208201905092915050565b6000819050602082019050919050565b612380816122a3565b82525050565b60006123928383612377565b60208301905092915050565b6000602082019050919050565b60006123b68261234b565b6123c08185612356565b93506123cb83612367565b8060005b838110156123fc5781516123e38882612386565b97506123ee8361239e565b9250506001810190506123cf565b5085935050505092915050565b6000602082019050818103600083015261242381846123ab565b905092915050565b600080600060608486031215612444576124436121e0565b5b6000612452868287016122f6565b935050602061246386828701612201565b925050604061247486828701612201565b9150509250925092565b6000819050919050565b60006124a361249e61249984612283565b61247e565b612283565b9050919050565b60006124b582612488565b9050919050565b60006124c7826124aa565b9050919050565b6124d7816124bc565b82525050565b60006020820190506124f260008301846124ce565b92915050565b60006020828403121561250e5761250d6121e0565b5b600061251c848285016122f6565b91505092915050565b7f4e487b7100000000000000000000000000000000000000000000000000000000600052602260045260246000fd5b6000600282049050600182168061256c57607f821691505b60208210810361257f5761257e612525565b5b50919050565b7f5265656e7472616e637947756172643a207265656e7472616e742063616c6c00600082015250565b60006125bb601f8361212f565b91506125c682612585565b602082019050919050565b600060208201905081810360008301526125ea816125ae565b9050919050565b7f57696e6e6572206e6f74206465636c6172656400000000000000000000000000600082015250565b600061262760138361212f565b9150612632826125f1565b602082019050919050565b600060208201905081810360008301526126568161261a565b9050919050565b7f57696e6e657220616c726561647920636c61696d656400000000000000000000600082015250565b600061269360168361212f565b915061269e8261265d565b602082019050919050565b600060208201905081810360008301526126c281612686565b9050919050565b7f4e6f74207468652077696e6e6572000000000000000000000000000000000000600082015250565b60006126ff600e8361212f565b915061270a826126c9565b602082019050919050565b6000602082019050818103600083015261272e816126f2565b9050919050565b7f4e6f207072697a6520746f20636c61696d000000000000000000000000000000600082015250565b600061276b60118361212f565b915061277682612735565b602082019050919050565b6000602082019050818103600083015261279a8161275e565b9050919050565b60006040820190506127b660008301856122b5565b6127c360208301846120fa565b9392505050565b7f4f6e6c79206f776e65722063616e2063616c6c00000000000000000000000000600082015250565b600061280060138361212f565b915061280b826127ca565b602082019050919050565b6000602082019050818103600083015261282f816127f3565b9050919050565b7f4e487b7100000000000000000000000000000000000000000000000000000000600052601160045260246000fd5b6000612870826120f0565b915061287b836120f0565b9250828202612889816120f0565b915082820484148315176128a05761289f612836565b5b5092915050565b60006128b2826120f0565b91506128bd836120f0565b92508282019050808211156128d5576128d4612836565b5b92915050565b7f5765656b206e6f742066696e6973686564000000000000000000000000000000600082015250565b600061291160118361212f565b915061291c826128db565b602082019050919050565b6000602082019050818103600083015261294081612904565b9050919050565b7f4e487b7100000000000000000000000000000000000000000000000000000000600052603260045260246000fd5b600080fd5b7f4e487b7100000000000000000000000000000000000000000000000000000000600052604160045260246000fd5b6129b38261216a565b810181811067ffffffffffffffff821117156129d2576129d161297b565b5b80604052505050565b60006129e56121d6565b90506129f182826129aa565b919050565b600080fd5b600081519050612a0a816121ea565b92915050565b600081519050612a1f816122df565b92915050565b612a2e816120ba565b8114612a3957600080fd5b50565b600081519050612a4b81612a25565b92915050565b600080fd5b600067ffffffffffffffff821115612a7157612a7061297b565b5b602082029050602081019050919050565b600080fd5b6000612a9a612a9584612a56565b6129db565b90508083825260208201905060208402830185811115612abd57612abc612a82565b5b835b81811015612ae65780612ad288826129fb565b845260208401935050602081019050612abf565b5050509392505050565b600082601f830112612b0557612b04612a51565b5b8151612b15848260208601612a87565b91505092915050565b600060e08284031215612b3457612b33612976565b5b612b3e60e06129db565b90506000612b4e848285016129fb565b6000830152506020612b62848285016129fb565b6020830152506040612b76848285016129fb565b6040830152506060612b8a84828501612a10565b6060830152506080612b9e84828501612a3c565b60808301525060a0612bb284828501612a3c565b60a08301525060c082015167ffffffffffffffff811115612bd657612bd56129f6565b5b612be284828501612af0565b60c08301525092915050565b600060208284031215612c0457612c036121e0565b5b600082015167ffffffffffffffff811115612c2257612c216121e5565b5b612c2e84828501612b1e565b91505092915050565b7f4d757374206a6f696e206c656167756500000000000000000000000000000000600082015250565b6000612c6d60108361212f565b9150612c7882612c37565b602082019050919050565b60006020820190508181036000830152612c9c81612c60565b9050919050565b7f416c726561647920696e206c6561677565000000000000000000000000000000600082015250565b6000612cd960118361212f565b9150612ce482612ca3565b602082019050919050565b60006020820190508181036000830152612d0881612ccc565b9050919050565b7f5465616d20646f6573206e6f7420657869737400000000000000000000000000600082015250565b6000612d4560138361212f565b9150612d5082612d0f565b602082019050919050565b60006020820190508181036000830152612d7481612d38565b9050919050565b7f5465616d20616c72656164792072656769737465726564000000000000000000600082015250565b6000612db160178361212f565b9150612dbc82612d7b565b602082019050919050565b60006020820190508181036000830152612de081612da4565b9050919050565b7f4e6f74207465616d206f776e6572000000000000000000000000000000000000600082015250565b6000612e1d600e8361212f565b9150612e2882612de7565b602082019050919050565b60006020820190508181036000830152612e4c81612e10565b9050919050565b6000606082019050612e6860008301866120fa565b612e7560208301856122b5565b612e8260408301846120fa565b949350505050565b7f416c7265616479206465636c6172656400000000000000000000000000000000600082015250565b6000612ec060108361212f565b9150612ecb82612e8a565b602082019050919050565b60006020820190508181036000830152612eef81612eb3565b9050919050565b7f4e6f2077696e6e657220666f756e640000000000000000000000000000000000600082015250565b6000612f2c600f8361212f565b9150612f3782612ef6565b602082019050919050565b60006020820190508181036000830152612f5b81612f1f565b9050919050565b7f496e636f727265637420656e7472792066656500000000000000000000000000600082015250565b6000612f9860138361212f565b9150612fa382612f62565b602082019050919050565b60006020820190508181036000830152612fc781612f8b565b9050919050565b7f416c7265616479206a6f696e6564206c65616775650000000000000000000000600082015250565b600061300460158361212f565b915061300f82612fce565b602082019050919050565b6000602082019050818103600083015261303381612ff7565b9050919050565b7f4c65616775652068617320737461727465640000000000000000000000000000600082015250565b600061307060128361212f565b915061307b8261303a565b602082019050919050565b6000602082019050818103600083015261309f81613063565b9050919050565b7f4c6561677565206973206e6f7420616374697665000000000000000000000000600082015250565b60006130dc60148361212f565b91506130e7826130a6565b602082019050919050565b6000602082019050818103600083015261310b816130cf565b9050919050565b7f4e487b7100000000000000000000000000000000000000000000000000000000600052602160045260246000fd5b6004811061315257613151613112565b5b50565b600081905061316382613141565b919050565b600061317382613155565b9050919050565b61318381613168565b82525050565b600060a08201905061319e600083018861317a565b6131ab60208301876120fa565b6131b860408301866122b5565b6131c560608301856122b5565b6131d260808301846120fa565b9695505050505050565b6000602082840312156131f2576131f16121e0565b5b6000613200848285016129fb565b91505092915050565b6000613214826120f0565b915061321f836120f0565b925082820390508181111561323757613236612836565b5b92915050565b7f4e487b7100000000000000000000000000000000000000000000000000000000600052601260045260246000fd5b6000613277826120f0565b9150613282836120f0565b9250826132925761329161323d565b5b828204905092915050565b7f5465616d206e6f74207265676973746572656400000000000000000000000000600082015250565b60006132d360138361212f565b91506132de8261329d565b602082019050919050565b60006020820190508181036000830152613302816132c6565b9050919050565b600060408201905061331e60008301856120fa565b61332b60208301846120fa565b9392505050565b7f4f6e6c792061646d696e2063616e20616476616e6365207765656b0000000000600082015250565b6000613368601b8361212f565b915061337382613332565b602082019050919050565b600060208201905081810360008301526133978161335b565b9050919050565b60006133a9826120f0565b91507fffffffffffffffffffffffffffffffffffffffffffffffffffffffffffffffff82036133db576133da612836565b5b60018201905091905056fea264697066735822122030688313f2e59fb61128a6cf4c485350426b92bceba7611cafd70cc01957cfdd64736f6c634300081b0033a26469706673582212203ce8cbf8761ce6bcfcb864e6e6d88ce54ed089dd5c0e4e5403cb138c80b913b064736f6c634300081b0033",
  "linkReferences": {},
  "deployedLinkReferences": {}
}