{
  "_format": "hh-sol-artifact-1",
  "contractName": "UserPlayerManager",
  "sourceName": "contracts/UserPlayerManager.sol",
  "abi": [
    {
      "inputs": [],
      "stateMutability": "nonpayable",
      "type": "constructor"
    },
    {
      "anonymous": false,
      "inputs": [
        {
          "indexed": true,
          "internalType": "uint256",
          "name": "playerId",
          "type": "uint256"
        },
        {
          "indexed": false,
          "internalType": "string",
          "name": "name",
          "type": "string"
        },
        {
          "indexed": false,
          "internalType": "string",
          "name": "club",
          "type": "string"
        },
        {
          "indexed": false,
          "internalType": "uint256",
          "name": "position",
          "type": "uint256"
        },
        {
          "indexed": false,
          "internalType": "uint256",
          "name": "price",
          "type": "uint256"
        }
      ],
      "name": "PlayerCreated",
      "type": "event"
    },
    {
      "anonymous": false,
      "inputs": [
        {
          "indexed": true,
          "internalType": "uint256",
          "name": "playerId",
          "type": "uint256"
        },
        {
          "indexed": false,
          "internalType": "uint256",
          "name": "weekNumber",
          "type": "uint256"
        },
        {
          "indexed": false,
          "internalType": "uint256",
          "name": "points",
          "type": "uint256"
        }
      ],
      "name": "PlayerPointsUpdated",
      "type": "event"
    },
    {
      "anonymous": false,
      "inputs": [
        {
          "indexed": true,
          "internalType": "address",
          "name": "user",
          "type": "address"
        },
        {
          "indexed": false,
          "internalType": "string",
          "name": "name",
          "type": "string"
        }
      ],
      "name": "UserRegistered",
      "type": "event"
    },
    {
      "inputs": [],
      "name": "REQUIRED_DEFENDERS",
      "outputs": [
        {
          "internalType": "uint256",
          "name": "",
          "type": "uint256"
        }
      ],
      "stateMutability": "view",
      "type": "function"
    },
    {
      "inputs": [],
      "name": "REQUIRED_FORWARDS",
      "outputs": [
        {
          "internalType": "uint256",
          "name": "",
          "type": "uint256"
        }
      ],
      "stateMutability": "view",
      "type": "function"
    },
    {
      "inputs": [],
      "name": "REQUIRED_GOALKEEPERS",
      "outputs": [
        {
          "internalType": "uint256",
          "name": "",
          "type": "uint256"
        }
      ],
      "stateMutability": "view",
      "type": "function"
    },
    {
      "inputs": [],
      "name": "REQUIRED_MIDFIELDERS",
      "outputs": [
        {
          "internalType": "uint256",
          "name": "",
          "type": "uint256"
        }
      ],
      "stateMutability": "view",
      "type": "function"
    },
    {
      "inputs": [],
      "name": "TEAM_SIZE",
      "outputs": [
        {
          "internalType": "uint256",
          "name": "",
          "type": "uint256"
        }
      ],
      "stateMutability": "view",
      "type": "function"
    },
    {
      "inputs": [
        {
          "internalType": "address",
          "name": "_user",
          "type": "address"
        },
        {
          "internalType": "uint256",
          "name": "_leagueId",
          "type": "uint256"
        }
      ],
      "name": "addUserLeague",
      "outputs": [],
      "stateMutability": "nonpayable",
      "type": "function"
    },
    {
      "inputs": [],
      "name": "admin",
      "outputs": [
        {
          "internalType": "address",
          "name": "",
          "type": "address"
        }
      ],
      "stateMutability": "view",
      "type": "function"
    },
    {
      "inputs": [
        {
          "internalType": "uint256[]",
          "name": "playerIds",
          "type": "uint256[]"
        }
      ],
      "name": "calculateTeamValue",
      "outputs": [
        {
          "internalType": "uint256",
          "name": "",
          "type": "uint256"
        }
      ],
      "stateMutability": "view",
      "type": "function"
    },
    {
      "inputs": [
        {
          "internalType": "string",
          "name": "_name",
          "type": "string"
        },
        {
          "internalType": "string",
          "name": "_club",
          "type": "string"
        },
        {
          "internalType": "uint256",
          "name": "_position",
          "type": "uint256"
        },
        {
          "internalType": "uint256",
          "name": "_price",
          "type": "uint256"
        }
      ],
      "name": "createPlayer",
      "outputs": [],
      "stateMutability": "nonpayable",
      "type": "function"
    },
    {
      "inputs": [],
      "name": "getBalance",
      "outputs": [
        {
          "internalType": "uint256",
          "name": "",
          "type": "uint256"
        }
      ],
      "stateMutability": "view",
      "type": "function"
    },
    {
      "inputs": [
        {
          "internalType": "uint256",
          "name": "_playerId",
          "type": "uint256"
        }
      ],
      "name": "getPlayer",
      "outputs": [
        {
          "internalType": "string",
          "name": "name",
          "type": "string"
        },
        {
          "internalType": "string",
          "name": "club",
          "type": "string"
        },
        {
          "internalType": "uint256",
          "name": "position",
          "type": "uint256"
        },
        {
          "internalType": "uint256",
          "name": "price",
          "type": "uint256"
        },
        {
          "internalType": "uint256",
          "name": "points",
          "type": "uint256"
        },
        {
          "internalType": "bool",
          "name": "isActive",
          "type": "bool"
        }
      ],
      "stateMutability": "view",
      "type": "function"
    },
    {
      "inputs": [
        {
          "internalType": "uint256",
          "name": "_playerId",
          "type": "uint256"
        },
        {
          "internalType": "uint256",
          "name": "_weekNumber",
          "type": "uint256"
        }
      ],
      "name": "getPlayerWeeklyPoints",
      "outputs": [
        {
          "internalType": "uint256",
          "name": "",
          "type": "uint256"
        }
      ],
      "stateMutability": "view",
      "type": "function"
    },
    {
      "inputs": [],
      "name": "playerCounter",
      "outputs": [
        {
          "internalType": "uint256",
          "name": "",
          "type": "uint256"
        }
      ],
      "stateMutability": "view",
      "type": "function"
    },
    {
      "inputs": [
        {
          "internalType": "string",
          "name": "",
          "type": "string"
        }
      ],
      "name": "playerNameExists",
      "outputs": [
        {
          "internalType": "bool",
          "name": "",
          "type": "bool"
        }
      ],
      "stateMutability": "view",
      "type": "function"
    },
    {
      "inputs": [
        {
          "internalType": "uint256",
          "name": "",
          "type": "uint256"
        }
      ],
      "name": "players",
      "outputs": [
        {
          "internalType": "uint256",
          "name": "playerId",
          "type": "uint256"
        },
        {
          "internalType": "string",
          "name": "name",
          "type": "string"
        },
        {
          "internalType": "string",
          "name": "club",
          "type": "string"
        },
        {
          "internalType": "uint256",
          "name": "position",
          "type": "uint256"
        },
        {
          "internalType": "uint256",
          "name": "price",
          "type": "uint256"
        },
        {
          "internalType": "uint256",
          "name": "points",
          "type": "uint256"
        },
        {
          "internalType": "bool",
          "name": "isActive",
          "type": "bool"
        }
      ],
      "stateMutability": "view",
      "type": "function"
    },
    {
      "inputs": [
        {
          "internalType": "string",
          "name": "_name",
          "type": "string"
        }
      ],
      "name": "registerUser",
      "outputs": [],
      "stateMutability": "nonpayable",
      "type": "function"
    },
    {
      "inputs": [
        {
          "internalType": "uint256",
          "name": "_playerId",
          "type": "uint256"
        },
        {
          "internalType": "string",
          "name": "_club",
          "type": "string"
        },
        {
          "internalType": "uint256",
          "name": "_position",
          "type": "uint256"
        },
        {
          "internalType": "uint256",
          "name": "_price",
          "type": "uint256"
        },
        {
          "internalType": "bool",
          "name": "_isActive",
          "type": "bool"
        }
      ],
      "name": "updatePlayer",
      "outputs": [],
      "stateMutability": "nonpayable",
      "type": "function"
    },
    {
      "inputs": [
        {
          "internalType": "uint256",
          "name": "_playerId",
          "type": "uint256"
        },
        {
          "internalType": "uint256",
          "name": "_weekNumber",
          "type": "uint256"
        },
        {
          "internalType": "uint256",
          "name": "_points",
          "type": "uint256"
        }
      ],
      "name": "updateWeeklyPoints",
      "outputs": [],
      "stateMutability": "nonpayable",
      "type": "function"
    },
    {
      "inputs": [
        {
          "internalType": "address",
          "name": "",
          "type": "address"
        }
      ],
      "name": "userBalances",
      "outputs": [
        {
          "internalType": "uint256",
          "name": "",
          "type": "uint256"
        }
      ],
      "stateMutability": "view",
      "type": "function"
    },
    {
      "inputs": [],
      "name": "userCounter",
      "outputs": [
        {
          "internalType": "uint256",
          "name": "",
          "type": "uint256"
        }
      ],
      "stateMutability": "view",
      "type": "function"
    },
    {
      "inputs": [
        {
          "internalType": "address",
          "name": "",
          "type": "address"
        },
        {
          "internalType": "uint256",
          "name": "",
          "type": "uint256"
        }
      ],
      "name": "userLeagues",
      "outputs": [
        {
          "internalType": "uint256",
          "name": "",
          "type": "uint256"
        }
      ],
      "stateMutability": "view",
      "type": "function"
    },
    {
      "inputs": [
        {
          "internalType": "address",
          "name": "",
          "type": "address"
        }
      ],
      "name": "users",
      "outputs": [
        {
          "internalType": "uint256",
          "name": "id",
          "type": "uint256"
        },
        {
          "internalType": "string",
          "name": "name",
          "type": "string"
        },
        {
          "internalType": "bool",
          "name": "isRegistered",
          "type": "bool"
        }
      ],
      "stateMutability": "view",
      "type": "function"
    },
    {
      "inputs": [
        {
          "internalType": "uint256[]",
          "name": "playerIds",
          "type": "uint256[]"
        }
      ],
      "name": "validateTeamPlayers",
      "outputs": [
        {
          "internalType": "bool",
          "name": "",
          "type": "bool"
        }
      ],
      "stateMutability": "view",
      "type": "function"
    },
    {
      "inputs": [
        {
          "internalType": "uint256",
          "name": "",
          "type": "uint256"
        },
        {
          "internalType": "uint256",
          "name": "",
          "type": "uint256"
        }
      ],
      "name": "weeklyPlayerPoints",
      "outputs": [
        {
          "internalType": "uint256",
          "name": "",
          "type": "uint256"
        }
      ],
      "stateMutability": "view",
      "type": "function"
    }
  ],
  "bytecode": "0x6080604052348015600f57600080fd5b50336000806101000a81548173ffffffffffffffffffffffffffffffffffffffff021916908373ffffffffffffffffffffffffffffffffffffffff1602179055506129e88061005f6000396000f3fe608060405234801561001057600080fd5b50600436106101585760003560e01c8063b6d7a2fc116100c3578063e55ae4e81161007c578063e55ae4e8146103f1578063ea2e83fb14610426578063f0c37a5914610442578063f28d718d14610460578063f71d96cb14610490578063f851a440146104c657610158565b8063b6d7a2fc14610309578063ba09b2c814610327578063c40717f614610345578063cff2bfc814610375578063de03fd35146103a5578063e4fc57dd146103d557610158565b8063704f1b9411610115578063704f1b94146102335780638c91efa71461024f578063a31ca4b51461026d578063a4e40e7314610289578063a79eb0d1146102b9578063a87430ba146102d757610158565b806307e153ae1461015d57806312065fe01461017b57806312d836d61461019957806326224c64146101c957806334aacb2e146101f9578063427e688614610217575b600080fd5b6101656104e4565b6040516101729190611870565b60405180910390f35b6101836104e9565b6040516101909190611870565b60405180910390f35b6101b360048036038101906101ae91906118cb565b610530565b6040516101c09190611870565b60405180910390f35b6101e360048036038101906101de9190611969565b610555565b6040516101f09190611870565b60405180910390f35b61020161056d565b60405161020e9190611870565b60405180910390f35b610231600480360381019061022c91906119fb565b610572565b005b61024d60048036038101906102489190611aa2565b610923565b005b610257610bba565b6040516102649190611870565b60405180910390f35b61028760048036038101906102829190611c68565b610bbf565b005b6102a3600480360381019061029e9190611cff565b610d21565b6040516102b09190611870565b60405180910390f35b6102c1610d52565b6040516102ce9190611870565b60405180910390f35b6102f160048036038101906102ec9190611969565b610d57565b60405161030093929190611dcd565b60405180910390f35b610311610e16565b60405161031e9190611870565b60405180910390f35b61032f610e1c565b60405161033c9190611870565b60405180910390f35b61035f600480360381019061035a9190611e61565b610e21565b60405161036c9190611eae565b60405180910390f35b61038f600480360381019061038a9190611e61565b61117f565b60405161039c9190611870565b60405180910390f35b6103bf60048036038101906103ba91906118cb565b611247565b6040516103cc9190611870565b60405180910390f35b6103ef60048036038101906103ea9190611cff565b6112bb565b005b61040b60048036038101906104069190611ec9565b611325565b60405161041d96959493929190611ef6565b60405180910390f35b610440600480360381019061043b9190611f65565b611530565b005b61044a611698565b6040516104579190611870565b60405180910390f35b61047a60048036038101906104759190611fb8565b61169e565b6040516104879190611eae565b60405180910390f35b6104aa60048036038101906104a59190611ec9565b6116d4565b6040516104bd9796959493929190612001565b60405180910390f35b6104ce611833565b6040516104db919061208d565b60405180910390f35b600381565b6000600460003373ffffffffffffffffffffffffffffffffffffffff1673ffffffffffffffffffffffffffffffffffffffff16815260200190815260200160002054905090565b6008602052816000526040600020602052806000526040600020600091509150505481565b60046020528060005260406000206000915090505481565b600f81565b60008054906101000a900473ffffffffffffffffffffffffffffffffffffffff1673ffffffffffffffffffffffffffffffffffffffff163373ffffffffffffffffffffffffffffffffffffffff1614610600576040517f08c379a00000000000000000000000000000000000000000000000000000000081526004016105f7906120f4565b60405180910390fd5b60008686905011610646576040517f08c379a000000000000000000000000000000000000000000000000000000000815260040161063d90612160565b60405180910390fd5b6000848490501161068c576040517f08c379a0000000000000000000000000000000000000000000000000000000008152600401610683906121cc565b60405180910390fd5b600081116106cf576040517f08c379a00000000000000000000000000000000000000000000000000000000081526004016106c690612238565b60405180910390fd5b600786866040516106e1929190612288565b908152602001604051809103902060009054906101000a900460ff161561073d576040517f08c379a0000000000000000000000000000000000000000000000000000000008152600401610734906122ed565b60405180910390fd5b600060026000815461074e9061233c565b91905081905590506040518060e0016040528082815260200188888080601f016020809104026020016040519081016040528093929190818152602001838380828437600081840152601f19601f82011690508083019250505050505050815260200186868080601f016020809104026020016040519081016040528093929190818152602001838380828437600081840152601f19601f8201169050808301925050505050505081526020018481526020018381526020016000815260200160011515815250600660008381526020019081526020016000206000820151816000015560208201518160010190816108479190612590565b50604082015181600201908161085d9190612590565b50606082015181600301556080820151816004015560a0820151816005015560c08201518160060160006101000a81548160ff0219169083151502179055509050506001600788886040516108b3929190612288565b908152602001604051809103902060006101000a81548160ff021916908315150217905550807fde362b42458bb62dc23b2691d14ba17e1eccb25e58e0ea2bf43fd8fa84322f628888888888886040516109129695949392919061268f565b60405180910390a250505050505050565b600073ffffffffffffffffffffffffffffffffffffffff163373ffffffffffffffffffffffffffffffffffffffff1603610992576040517f08c379a000000000000000000000000000000000000000000000000000000000815260040161098990612732565b60405180910390fd5b600360003373ffffffffffffffffffffffffffffffffffffffff1673ffffffffffffffffffffffffffffffffffffffff16815260200190815260200160002060020160009054906101000a900460ff1615610a22576040517f08c379a0000000000000000000000000000000000000000000000000000000008152600401610a199061279e565b60405180910390fd5b60008282905011610a68576040517f08c379a0000000000000000000000000000000000000000000000000000000008152600401610a5f90612160565b60405180910390fd5b6000600160008154610a799061233c565b9190508190559050604051806060016040528082815260200184848080601f016020809104026020016040519081016040528093929190818152602001838380828437600081840152601f19601f82011690508083019250505050505050815260200160011515815250600360003373ffffffffffffffffffffffffffffffffffffffff1673ffffffffffffffffffffffffffffffffffffffff168152602001908152602001600020600082015181600001556020820151816001019081610b419190612590565b5060408201518160020160006101000a81548160ff0219169083151502179055509050503373ffffffffffffffffffffffffffffffffffffffff167f48cac28ad4dc618e15f4c2dd5e97751182f166de97b25618318b2112aa951a2f8484604051610bad9291906127be565b60405180910390a2505050565b600281565b60008054906101000a900473ffffffffffffffffffffffffffffffffffffffff1673ffffffffffffffffffffffffffffffffffffffff163373ffffffffffffffffffffffffffffffffffffffff1614610c4d576040517f08c379a0000000000000000000000000000000000000000000000000000000008152600401610c44906120f4565b60405180910390fd5b600254851115610c92576040517f08c379a0000000000000000000000000000000000000000000000000000000008152600401610c899061282e565b60405180910390fd5b83600660008781526020019081526020016000206002019081610cb59190612590565b50826006600087815260200190815260200160002060030181905550816006600087815260200190815260200160002060040181905550806006600087815260200190815260200160002060060160006101000a81548160ff0219169083151502179055505050505050565b60056020528160005260406000208181548110610d3d57600080fd5b90600052602060002001600091509150505481565b600581565b6003602052806000526040600020600091509050806000015490806001018054610d80906123b3565b80601f0160208091040260200160405190810160405280929190818152602001828054610dac906123b3565b8015610df95780601f10610dce57610100808354040283529160200191610df9565b820191906000526020600020905b815481529060010190602001808311610ddc57829003601f168201915b5050505050908060020160009054906101000a900460ff16905083565b60025481565b600581565b6000600f8383905014610e69576040517f08c379a0000000000000000000000000000000000000000000000000000000008152600401610e609061289a565b60405180910390fd5b60008060008060005b8787905081101561114a57600254888883818110610e9357610e926128ba565b5b905060200201351115610edb576040517f08c379a0000000000000000000000000000000000000000000000000000000008152600401610ed29061282e565b60405180910390fd5b6000600660008a8a85818110610ef457610ef36128ba565b5b9050602002013581526020019081526020016000206040518060e001604052908160008201548152602001600182018054610f2e906123b3565b80601f0160208091040260200160405190810160405280929190818152602001828054610f5a906123b3565b8015610fa75780601f10610f7c57610100808354040283529160200191610fa7565b820191906000526020600020905b815481529060010190602001808311610f8a57829003601f168201915b50505050508152602001600282018054610fc0906123b3565b80601f0160208091040260200160405190810160405280929190818152602001828054610fec906123b3565b80156110395780601f1061100e57610100808354040283529160200191611039565b820191906000526020600020905b81548152906001019060200180831161101c57829003601f168201915b505050505081526020016003820154815260200160048201548152602001600582015481526020016006820160009054906101000a900460ff16151515158152505090508060c001516110c1576040517f08c379a00000000000000000000000000000000000000000000000000000000081526004016110b890612935565b60405180910390fd5b60018160600151036110e05785806110d89061233c565b96505061113c565b60028160600151036110ff5784806110f79061233c565b95505061113b565b600381606001510361111e5783806111169061233c565b94505061113a565b60048160600151036111395782806111359061233c565b9350505b5b5b5b508080600101915050610e72565b5060028414801561115b5750600583145b80156111675750600582145b80156111735750600381145b94505050505092915050565b6000806000905060005b8484905081101561123c576002548585838181106111aa576111a96128ba565b5b9050602002013511156111f2576040517f08c379a00000000000000000000000000000000000000000000000000000000081526004016111e99061282e565b60405180910390fd5b60066000868684818110611209576112086128ba565b5b905060200201358152602001908152602001600020600401548261122d9190612955565b91508080600101915050611189565b508091505092915050565b600060025483111561128e576040517f08c379a00000000000000000000000000000000000000000000000000000000081526004016112859061282e565b60405180910390fd5b60086000848152602001908152602001600020600083815260200190815260200160002054905092915050565b600560008373ffffffffffffffffffffffffffffffffffffffff1673ffffffffffffffffffffffffffffffffffffffff1681526020019081526020016000208190806001815401808255809150506001900390600052602060002001600090919091909150555050565b606080600080600080600254871115611373576040517f08c379a000000000000000000000000000000000000000000000000000000000815260040161136a9061282e565b60405180910390fd5b6000600660008981526020019081526020016000206040518060e0016040529081600082015481526020016001820180546113ad906123b3565b80601f01602080910402602001604051908101604052809291908181526020018280546113d9906123b3565b80156114265780601f106113fb57610100808354040283529160200191611426565b820191906000526020600020905b81548152906001019060200180831161140957829003601f168201915b5050505050815260200160028201805461143f906123b3565b80601f016020809104026020016040519081016040528092919081815260200182805461146b906123b3565b80156114b85780601f1061148d576101008083540402835291602001916114b8565b820191906000526020600020905b81548152906001019060200180831161149b57829003601f168201915b505050505081526020016003820154815260200160048201548152602001600582015481526020016006820160009054906101000a900460ff161515151581525050905080602001518160400151826060015183608001518460a001518560c001519650965096509650965096505091939550919395565b60008054906101000a900473ffffffffffffffffffffffffffffffffffffffff1673ffffffffffffffffffffffffffffffffffffffff163373ffffffffffffffffffffffffffffffffffffffff16146115be576040517f08c379a00000000000000000000000000000000000000000000000000000000081526004016115b5906120f4565b60405180910390fd5b600254831115611603576040517f08c379a00000000000000000000000000000000000000000000000000000000081526004016115fa9061282e565b60405180910390fd5b8060086000858152602001908152602001600020600084815260200190815260200160002081905550806006600085815260200190815260200160002060050160008282546116529190612955565b92505081905550827f1d9a35f98c6965b7850b651366a8028cd7c8de43cf3dfea4d9b26eabe886dcc3838360405161168b929190612989565b60405180910390a2505050565b60015481565b6007818051602081018201805184825260208301602085012081835280955050505050506000915054906101000a900460ff1681565b60066020528060005260406000206000915090508060000154908060010180546116fd906123b3565b80601f0160208091040260200160405190810160405280929190818152602001828054611729906123b3565b80156117765780601f1061174b57610100808354040283529160200191611776565b820191906000526020600020905b81548152906001019060200180831161175957829003601f168201915b50505050509080600201805461178b906123b3565b80601f01602080910402602001604051908101604052809291908181526020018280546117b7906123b3565b80156118045780601f106117d957610100808354040283529160200191611804565b820191906000526020600020905b8154815290600101906020018083116117e757829003601f168201915b5050505050908060030154908060040154908060050154908060060160009054906101000a900460ff16905087565b60008054906101000a900473ffffffffffffffffffffffffffffffffffffffff1681565b6000819050919050565b61186a81611857565b82525050565b60006020820190506118856000830184611861565b92915050565b6000604051905090565b600080fd5b600080fd5b6118a881611857565b81146118b357600080fd5b50565b6000813590506118c58161189f565b92915050565b600080604083850312156118e2576118e1611895565b5b60006118f0858286016118b6565b9250506020611901858286016118b6565b9150509250929050565b600073ffffffffffffffffffffffffffffffffffffffff82169050919050565b60006119368261190b565b9050919050565b6119468161192b565b811461195157600080fd5b50565b6000813590506119638161193d565b92915050565b60006020828403121561197f5761197e611895565b5b600061198d84828501611954565b91505092915050565b600080fd5b600080fd5b600080fd5b60008083601f8401126119bb576119ba611996565b5b8235905067ffffffffffffffff8111156119d8576119d761199b565b5b6020830191508360018202830111156119f4576119f36119a0565b5b9250929050565b60008060008060008060808789031215611a1857611a17611895565b5b600087013567ffffffffffffffff811115611a3657611a3561189a565b5b611a4289828a016119a5565b9650965050602087013567ffffffffffffffff811115611a6557611a6461189a565b5b611a7189828a016119a5565b94509450506040611a8489828a016118b6565b9250506060611a9589828a016118b6565b9150509295509295509295565b60008060208385031215611ab957611ab8611895565b5b600083013567ffffffffffffffff811115611ad757611ad661189a565b5b611ae3858286016119a5565b92509250509250929050565b600080fd5b6000601f19601f8301169050919050565b7f4e487b7100000000000000000000000000000000000000000000000000000000600052604160045260246000fd5b611b3d82611af4565b810181811067ffffffffffffffff82111715611b5c57611b5b611b05565b5b80604052505050565b6000611b6f61188b565b9050611b7b8282611b34565b919050565b600067ffffffffffffffff821115611b9b57611b9a611b05565b5b611ba482611af4565b9050602081019050919050565b82818337600083830152505050565b6000611bd3611bce84611b80565b611b65565b905082815260208101848484011115611bef57611bee611aef565b5b611bfa848285611bb1565b509392505050565b600082601f830112611c1757611c16611996565b5b8135611c27848260208601611bc0565b91505092915050565b60008115159050919050565b611c4581611c30565b8114611c5057600080fd5b50565b600081359050611c6281611c3c565b92915050565b600080600080600060a08688031215611c8457611c83611895565b5b6000611c92888289016118b6565b955050602086013567ffffffffffffffff811115611cb357611cb261189a565b5b611cbf88828901611c02565b9450506040611cd0888289016118b6565b9350506060611ce1888289016118b6565b9250506080611cf288828901611c53565b9150509295509295909350565b60008060408385031215611d1657611d15611895565b5b6000611d2485828601611954565b9250506020611d35858286016118b6565b9150509250929050565b600081519050919050565b600082825260208201905092915050565b60005b83811015611d79578082015181840152602081019050611d5e565b60008484015250505050565b6000611d9082611d3f565b611d9a8185611d4a565b9350611daa818560208601611d5b565b611db381611af4565b840191505092915050565b611dc781611c30565b82525050565b6000606082019050611de26000830186611861565b8181036020830152611df48185611d85565b9050611e036040830184611dbe565b949350505050565b60008083601f840112611e2157611e20611996565b5b8235905067ffffffffffffffff811115611e3e57611e3d61199b565b5b602083019150836020820283011115611e5a57611e596119a0565b5b9250929050565b60008060208385031215611e7857611e77611895565b5b600083013567ffffffffffffffff811115611e9657611e9561189a565b5b611ea285828601611e0b565b92509250509250929050565b6000602082019050611ec36000830184611dbe565b92915050565b600060208284031215611edf57611ede611895565b5b6000611eed848285016118b6565b91505092915050565b600060c0820190508181036000830152611f108189611d85565b90508181036020830152611f248188611d85565b9050611f336040830187611861565b611f406060830186611861565b611f4d6080830185611861565b611f5a60a0830184611dbe565b979650505050505050565b600080600060608486031215611f7e57611f7d611895565b5b6000611f8c868287016118b6565b9350506020611f9d868287016118b6565b9250506040611fae868287016118b6565b9150509250925092565b600060208284031215611fce57611fcd611895565b5b600082013567ffffffffffffffff811115611fec57611feb61189a565b5b611ff884828501611c02565b91505092915050565b600060e082019050612016600083018a611861565b81810360208301526120288189611d85565b9050818103604083015261203c8188611d85565b905061204b6060830187611861565b6120586080830186611861565b61206560a0830185611861565b61207260c0830184611dbe565b98975050505050505050565b6120878161192b565b82525050565b60006020820190506120a2600083018461207e565b92915050565b7f4f6e6c792061646d696e00000000000000000000000000000000000000000000600082015250565b60006120de600a83611d4a565b91506120e9826120a8565b602082019050919050565b6000602082019050818103600083015261210d816120d1565b9050919050565b7f456d707479206e616d6500000000000000000000000000000000000000000000600082015250565b600061214a600a83611d4a565b915061215582612114565b602082019050919050565b600060208201905081810360008301526121798161213d565b9050919050565b7f456d70747920636c756200000000000000000000000000000000000000000000600082015250565b60006121b6600a83611d4a565b91506121c182612180565b602082019050919050565b600060208201905081810360008301526121e5816121a9565b9050919050565b7f496e76616c696420707269636500000000000000000000000000000000000000600082015250565b6000612222600d83611d4a565b915061222d826121ec565b602082019050919050565b6000602082019050818103600083015261225181612215565b9050919050565b600081905092915050565b600061226f8385612258565b935061227c838584611bb1565b82840190509392505050565b6000612295828486612263565b91508190509392505050565b7f506c617965722065786973747300000000000000000000000000000000000000600082015250565b60006122d7600d83611d4a565b91506122e2826122a1565b602082019050919050565b60006020820190508181036000830152612306816122ca565b9050919050565b7f4e487b7100000000000000000000000000000000000000000000000000000000600052601160045260246000fd5b600061234782611857565b91507fffffffffffffffffffffffffffffffffffffffffffffffffffffffffffffffff82036123795761237861230d565b5b600182019050919050565b7f4e487b7100000000000000000000000000000000000000000000000000000000600052602260045260246000fd5b600060028204905060018216806123cb57607f821691505b6020821081036123de576123dd612384565b5b50919050565b60008190508160005260206000209050919050565b60006020601f8301049050919050565b600082821b905092915050565b6000600883026124467fffffffffffffffffffffffffffffffffffffffffffffffffffffffffffffffff82612409565b6124508683612409565b95508019841693508086168417925050509392505050565b6000819050919050565b600061248d61248861248384611857565b612468565b611857565b9050919050565b6000819050919050565b6124a783612472565b6124bb6124b382612494565b848454612416565b825550505050565b600090565b6124d06124c3565b6124db81848461249e565b505050565b5b818110156124ff576124f46000826124c8565b6001810190506124e1565b5050565b601f82111561254457612515816123e4565b61251e846123f9565b8101602085101561252d578190505b612541612539856123f9565b8301826124e0565b50505b505050565b600082821c905092915050565b600061256760001984600802612549565b1980831691505092915050565b60006125808383612556565b9150826002028217905092915050565b61259982611d3f565b67ffffffffffffffff8111156125b2576125b1611b05565b5b6125bc82546123b3565b6125c7828285612503565b600060209050601f8311600181146125fa57600084156125e8578287015190505b6125f28582612574565b86555061265a565b601f198416612608866123e4565b60005b828110156126305784890151825560018201915060208501945060208101905061260b565b8683101561264d5784890151612649601f891682612556565b8355505b6001600288020188555050505b505050505050565b600061266e8385611d4a565b935061267b838584611bb1565b61268483611af4565b840190509392505050565b600060808201905081810360008301526126aa81888a612662565b905081810360208301526126bf818688612662565b90506126ce6040830185611861565b6126db6060830184611861565b979650505050505050565b7f496e76616c696420616464726573730000000000000000000000000000000000600082015250565b600061271c600f83611d4a565b9150612727826126e6565b602082019050919050565b6000602082019050818103600083015261274b8161270f565b9050919050565b7f416c726561647920726567697374657265640000000000000000000000000000600082015250565b6000612788601283611d4a565b915061279382612752565b602082019050919050565b600060208201905081810360008301526127b78161277b565b9050919050565b600060208201905081810360008301526127d9818486612662565b90509392505050565b7f496e76616c696420706c61796572204944000000000000000000000000000000600082015250565b6000612818601183611d4a565b9150612823826127e2565b602082019050919050565b600060208201905081810360008301526128478161280b565b9050919050565b7f496e76616c6964207465616d2073697a65000000000000000000000000000000600082015250565b6000612884601183611d4a565b915061288f8261284e565b602082019050919050565b600060208201905081810360008301526128b381612877565b9050919050565b7f4e487b7100000000000000000000000000000000000000000000000000000000600052603260045260246000fd5b7f496e61637469766520706c617965720000000000000000000000000000000000600082015250565b600061291f600f83611d4a565b915061292a826128e9565b602082019050919050565b6000602082019050818103600083015261294e81612912565b9050919050565b600061296082611857565b915061296b83611857565b92508282019050808211156129835761298261230d565b5b92915050565b600060408201905061299e6000830185611861565b6129ab6020830184611861565b939250505056fea2646970667358221220f9e764f145b4dc42952f87298e70117ce587396b1bd043d1ea2b36903331247f64736f6c634300081b0033",
  "linkReferences": {},
  "deployedLinkReferences": {}
}