{
  "_format": "hh-sol-artifact-1",
  "contractName": "UserPlayerManager",
  "sourceName": "contracts/UserPlayerManager.sol",
  "abi": [
    {
      "inputs": [],
      "stateMutability": "nonpayable",
      "type": "constructor"
    },
    {
      "anonymous": false,
      "inputs": [
        {
          "indexed": true,
          "internalType": "address",
          "name": "sender",
          "type": "address"
        },
        {
          "indexed": false,
          "internalType": "uint256",
          "name": "amount",
          "type": "uint256"
        }
      ],
      "name": "DepositSuccessful",
      "type": "event"
    },
    {
      "anonymous": false,
      "inputs": [
        {
          "indexed": true,
          "internalType": "uint256",
          "name": "playerId",
          "type": "uint256"
        },
        {
          "indexed": false,
          "internalType": "string",
          "name": "name",
          "type": "string"
        },
        {
          "indexed": false,
          "internalType": "string",
          "name": "club",
          "type": "string"
        },
        {
          "indexed": false,
          "internalType": "uint256",
          "name": "position",
          "type": "uint256"
        },
        {
          "indexed": false,
          "internalType": "uint256",
          "name": "price",
          "type": "uint256"
        }
      ],
      "name": "PlayerCreated",
      "type": "event"
    },
    {
      "anonymous": false,
      "inputs": [
        {
          "indexed": true,
          "internalType": "address",
          "name": "player",
          "type": "address"
        },
        {
          "indexed": true,
          "internalType": "uint256",
          "name": "leagueId",
          "type": "uint256"
        },
        {
          "indexed": false,
          "internalType": "uint256",
          "name": "weekNumber",
          "type": "uint256"
        },
        {
          "indexed": false,
          "internalType": "uint256",
          "name": "points",
          "type": "uint256"
        }
      ],
      "name": "PlayerPointsUpdated",
      "type": "event"
    },
    {
      "anonymous": false,
      "inputs": [
        {
          "indexed": true,
          "internalType": "address",
          "name": "owner",
          "type": "address"
        },
        {
          "indexed": false,
          "internalType": "uint256",
          "name": "teamId",
          "type": "uint256"
        },
        {
          "indexed": false,
          "internalType": "uint256[]",
          "name": "playerIds",
          "type": "uint256[]"
        }
      ],
      "name": "TeamCreated",
      "type": "event"
    },
    {
      "anonymous": false,
      "inputs": [
        {
          "indexed": true,
          "internalType": "uint256",
          "name": "teamId",
          "type": "uint256"
        },
        {
          "indexed": true,
          "internalType": "address",
          "name": "owner",
          "type": "address"
        },
        {
          "indexed": true,
          "internalType": "uint256",
          "name": "leagueId",
          "type": "uint256"
        }
      ],
      "name": "TeamRegisteredInLeague",
      "type": "event"
    },
    {
      "anonymous": false,
      "inputs": [
        {
          "indexed": false,
          "internalType": "bytes32",
          "name": "txHash",
          "type": "bytes32"
        },
        {
          "indexed": true,
          "internalType": "uint256",
          "name": "id",
          "type": "uint256"
        },
        {
          "indexed": true,
          "internalType": "uint256",
          "name": "txType",
          "type": "uint256"
        },
        {
          "indexed": false,
          "internalType": "uint256",
          "name": "value",
          "type": "uint256"
        },
        {
          "indexed": true,
          "internalType": "address",
          "name": "sender",
          "type": "address"
        },
        {
          "indexed": false,
          "internalType": "address",
          "name": "receiver",
          "type": "address"
        },
        {
          "indexed": false,
          "internalType": "uint256",
          "name": "leagueId",
          "type": "uint256"
        }
      ],
      "name": "TransactionCreated",
      "type": "event"
    },
    {
      "anonymous": false,
      "inputs": [
        {
          "indexed": true,
          "internalType": "address",
          "name": "user",
          "type": "address"
        },
        {
          "indexed": false,
          "internalType": "string",
          "name": "name",
          "type": "string"
        }
      ],
      "name": "UserRegistered",
      "type": "event"
    },
    {
      "anonymous": false,
      "inputs": [
        {
          "indexed": true,
          "internalType": "address",
          "name": "receiver",
          "type": "address"
        },
        {
          "indexed": false,
          "internalType": "uint256",
          "name": "amount",
          "type": "uint256"
        }
      ],
      "name": "WithdrawSuccessful",
      "type": "event"
    },
    {
      "inputs": [],
      "name": "REQUIRED_DEFENDERS",
      "outputs": [
        {
          "internalType": "uint256",
          "name": "",
          "type": "uint256"
        }
      ],
      "stateMutability": "view",
      "type": "function"
    },
    {
      "inputs": [],
      "name": "REQUIRED_FORWARDS",
      "outputs": [
        {
          "internalType": "uint256",
          "name": "",
          "type": "uint256"
        }
      ],
      "stateMutability": "view",
      "type": "function"
    },
    {
      "inputs": [],
      "name": "REQUIRED_GOALKEEPERS",
      "outputs": [
        {
          "internalType": "uint256",
          "name": "",
          "type": "uint256"
        }
      ],
      "stateMutability": "view",
      "type": "function"
    },
    {
      "inputs": [],
      "name": "REQUIRED_MIDFIELDERS",
      "outputs": [
        {
          "internalType": "uint256",
          "name": "",
          "type": "uint256"
        }
      ],
      "stateMutability": "view",
      "type": "function"
    },
    {
      "inputs": [],
      "name": "TEAM_SIZE",
      "outputs": [
        {
          "internalType": "uint256",
          "name": "",
          "type": "uint256"
        }
      ],
      "stateMutability": "view",
      "type": "function"
    },
    {
      "inputs": [
        {
          "internalType": "address",
          "name": "_user",
          "type": "address"
        },
        {
          "internalType": "uint256",
          "name": "_teamId",
          "type": "uint256"
        }
      ],
      "name": "addTeamToUser",
      "outputs": [],
      "stateMutability": "nonpayable",
      "type": "function"
    },
    {
      "inputs": [
        {
          "internalType": "enum UserPlayerManager.TransactionType",
          "name": "_type",
          "type": "uint8"
        },
        {
          "internalType": "uint256",
          "name": "_value",
          "type": "uint256"
        },
        {
          "internalType": "address",
          "name": "_sender",
          "type": "address"
        },
        {
          "internalType": "address",
          "name": "_receiver",
          "type": "address"
        },
        {
          "internalType": "uint256",
          "name": "_leagueId",
          "type": "uint256"
        }
      ],
      "name": "addTransaction",
      "outputs": [
        {
          "internalType": "uint256",
          "name": "",
          "type": "uint256"
        }
      ],
      "stateMutability": "nonpayable",
      "type": "function"
    },
    {
      "inputs": [
        {
          "internalType": "address",
          "name": "_user",
          "type": "address"
        },
        {
          "internalType": "uint256",
          "name": "_leagueId",
          "type": "uint256"
        }
      ],
      "name": "addUserToLeague",
      "outputs": [],
      "stateMutability": "nonpayable",
      "type": "function"
    },
    {
      "inputs": [],
      "name": "admin",
      "outputs": [
        {
          "internalType": "address",
          "name": "",
          "type": "address"
        }
      ],
      "stateMutability": "view",
      "type": "function"
    },
    {
      "inputs": [
        {
          "internalType": "address",
          "name": "",
          "type": "address"
        },
        {
          "internalType": "uint256",
          "name": "teamId",
          "type": "uint256"
        }
      ],
      "name": "allTeams",
      "outputs": [
        {
          "internalType": "uint256",
          "name": "id",
          "type": "uint256"
        },
        {
          "internalType": "uint256",
          "name": "leagueId",
          "type": "uint256"
        },
        {
          "internalType": "uint256",
          "name": "points",
          "type": "uint256"
        },
        {
          "internalType": "address",
          "name": "owner",
          "type": "address"
        },
        {
          "internalType": "bool",
          "name": "exists",
          "type": "bool"
        },
        {
          "internalType": "bool",
          "name": "isRegistered",
          "type": "bool"
        }
      ],
      "stateMutability": "view",
      "type": "function"
    },
    {
      "inputs": [
        {
          "internalType": "uint256[]",
          "name": "playerIds",
          "type": "uint256[]"
        }
      ],
      "name": "calculateTeamValue",
      "outputs": [
        {
          "internalType": "uint256",
          "name": "",
          "type": "uint256"
        }
      ],
      "stateMutability": "view",
      "type": "function"
    },
    {
      "inputs": [
        {
          "internalType": "string",
          "name": "_name",
          "type": "string"
        },
        {
          "internalType": "string",
          "name": "_club",
          "type": "string"
        },
        {
          "internalType": "uint256",
          "name": "_position",
          "type": "uint256"
        },
        {
          "internalType": "uint256",
          "name": "_price",
          "type": "uint256"
        }
      ],
      "name": "createPlayer",
      "outputs": [],
      "stateMutability": "nonpayable",
      "type": "function"
    },
    {
      "inputs": [
        {
          "internalType": "uint256[]",
          "name": "_playerIds",
          "type": "uint256[]"
        }
      ],
      "name": "createTeam",
      "outputs": [],
      "stateMutability": "nonpayable",
      "type": "function"
    },
    {
      "inputs": [],
      "name": "deposit",
      "outputs": [],
      "stateMutability": "payable",
      "type": "function"
    },
    {
      "inputs": [
        {
          "internalType": "address",
          "name": "_user",
          "type": "address"
        }
      ],
      "name": "getBalance",
      "outputs": [
        {
          "internalType": "uint256",
          "name": "",
          "type": "uint256"
        }
      ],
      "stateMutability": "view",
      "type": "function"
    },
    {
      "inputs": [
        {
          "internalType": "uint256",
          "name": "_playerId",
          "type": "uint256"
        }
      ],
      "name": "getPlayer",
      "outputs": [
        {
          "components": [
            {
              "internalType": "uint256",
              "name": "playerId",
              "type": "uint256"
            },
            {
              "internalType": "string",
              "name": "name",
              "type": "string"
            },
            {
              "internalType": "string",
              "name": "club",
              "type": "string"
            },
            {
              "internalType": "uint256",
              "name": "position",
              "type": "uint256"
            },
            {
              "internalType": "uint256",
              "name": "price",
              "type": "uint256"
            },
            {
              "internalType": "uint256",
              "name": "points",
              "type": "uint256"
            },
            {
              "internalType": "bool",
              "name": "isActive",
              "type": "bool"
            }
          ],
          "internalType": "struct UserPlayerManager.Player",
          "name": "player",
          "type": "tuple"
        }
      ],
      "stateMutability": "view",
      "type": "function"
    },
    {
      "inputs": [
        {
          "internalType": "uint256",
          "name": "_playerId",
          "type": "uint256"
        },
        {
          "internalType": "uint256",
          "name": "_weekNumber",
          "type": "uint256"
        }
      ],
      "name": "getPlayerWeeklyPoints",
      "outputs": [
        {
          "internalType": "uint256",
          "name": "",
          "type": "uint256"
        }
      ],
      "stateMutability": "view",
      "type": "function"
    },
    {
      "inputs": [
        {
          "internalType": "address",
          "name": "_owner",
          "type": "address"
        },
        {
          "internalType": "uint256",
          "name": "_teamId",
          "type": "uint256"
        }
      ],
      "name": "getTeam",
      "outputs": [
        {
          "components": [
            {
              "internalType": "uint256",
              "name": "id",
              "type": "uint256"
            },
            {
              "internalType": "uint256",
              "name": "leagueId",
              "type": "uint256"
            },
            {
              "internalType": "uint256",
              "name": "points",
              "type": "uint256"
            },
            {
              "internalType": "address",
              "name": "owner",
              "type": "address"
            },
            {
              "internalType": "bool",
              "name": "exists",
              "type": "bool"
            },
            {
              "internalType": "bool",
              "name": "isRegistered",
              "type": "bool"
            },
            {
              "internalType": "uint256[]",
              "name": "playerIds",
              "type": "uint256[]"
            }
          ],
          "internalType": "struct UserPlayerManager.Team",
          "name": "",
          "type": "tuple"
        }
      ],
      "stateMutability": "view",
      "type": "function"
    },
    {
      "inputs": [],
      "name": "playerCounter",
      "outputs": [
        {
          "internalType": "uint256",
          "name": "",
          "type": "uint256"
        }
      ],
      "stateMutability": "view",
      "type": "function"
    },
    {
      "inputs": [
        {
          "internalType": "string",
          "name": "",
          "type": "string"
        }
      ],
      "name": "playerNameExists",
      "outputs": [
        {
          "internalType": "bool",
          "name": "",
          "type": "bool"
        }
      ],
      "stateMutability": "view",
      "type": "function"
    },
    {
      "inputs": [
        {
          "internalType": "uint256",
          "name": "",
          "type": "uint256"
        }
      ],
      "name": "players",
      "outputs": [
        {
          "internalType": "uint256",
          "name": "playerId",
          "type": "uint256"
        },
        {
          "internalType": "string",
          "name": "name",
          "type": "string"
        },
        {
          "internalType": "string",
          "name": "club",
          "type": "string"
        },
        {
          "internalType": "uint256",
          "name": "position",
          "type": "uint256"
        },
        {
          "internalType": "uint256",
          "name": "price",
          "type": "uint256"
        },
        {
          "internalType": "uint256",
          "name": "points",
          "type": "uint256"
        },
        {
          "internalType": "bool",
          "name": "isActive",
          "type": "bool"
        }
      ],
      "stateMutability": "view",
      "type": "function"
    },
    {
      "inputs": [
        {
          "internalType": "uint256",
          "name": "_teamId",
          "type": "uint256"
        },
        {
          "internalType": "address",
          "name": "_owner",
          "type": "address"
        },
        {
          "internalType": "uint256",
          "name": "_leagueId",
          "type": "uint256"
        }
      ],
      "name": "registerTeamInLeague",
      "outputs": [],
      "stateMutability": "nonpayable",
      "type": "function"
    },
    {
      "inputs": [],
      "name": "teamCounter",
      "outputs": [
        {
          "internalType": "uint256",
          "name": "",
          "type": "uint256"
        }
      ],
      "stateMutability": "view",
      "type": "function"
    },
    {
      "inputs": [],
      "name": "transactionCounter",
      "outputs": [
        {
          "internalType": "uint256",
          "name": "",
          "type": "uint256"
        }
      ],
      "stateMutability": "view",
      "type": "function"
    },
    {
      "inputs": [
        {
          "internalType": "uint256",
          "name": "_playerId",
          "type": "uint256"
        },
        {
          "internalType": "string",
          "name": "_club",
          "type": "string"
        },
        {
          "internalType": "uint256",
          "name": "_position",
          "type": "uint256"
        },
        {
          "internalType": "uint256",
          "name": "_price",
          "type": "uint256"
        },
        {
          "internalType": "bool",
          "name": "_isActive",
          "type": "bool"
        }
      ],
      "name": "updatePlayer",
      "outputs": [],
      "stateMutability": "nonpayable",
      "type": "function"
    },
    {
      "inputs": [
        {
          "internalType": "address",
          "name": "_user",
          "type": "address"
        },
        {
          "internalType": "uint256",
          "name": "_amount",
          "type": "uint256"
        }
      ],
      "name": "updateUserBalances",
      "outputs": [],
      "stateMutability": "nonpayable",
      "type": "function"
    },
    {
      "inputs": [
        {
          "internalType": "address",
          "name": "",
          "type": "address"
        }
      ],
      "name": "userBalances",
      "outputs": [
        {
          "internalType": "uint256",
          "name": "",
          "type": "uint256"
        }
      ],
      "stateMutability": "view",
      "type": "function"
    },
    {
      "inputs": [],
      "name": "userCounter",
      "outputs": [
        {
          "internalType": "uint256",
          "name": "",
          "type": "uint256"
        }
      ],
      "stateMutability": "view",
      "type": "function"
    },
    {
      "inputs": [
        {
          "internalType": "address",
          "name": "",
          "type": "address"
        },
        {
          "internalType": "uint256",
          "name": "",
          "type": "uint256"
        }
      ],
      "name": "userLeagues",
      "outputs": [
        {
          "internalType": "uint256",
          "name": "",
          "type": "uint256"
        }
      ],
      "stateMutability": "view",
      "type": "function"
    },
    {
      "inputs": [
        {
          "internalType": "address",
          "name": "",
          "type": "address"
        },
        {
          "internalType": "uint256",
          "name": "",
          "type": "uint256"
        }
      ],
      "name": "userTeams",
      "outputs": [
        {
          "internalType": "uint256",
          "name": "",
          "type": "uint256"
        }
      ],
      "stateMutability": "view",
      "type": "function"
    },
    {
      "inputs": [
        {
          "internalType": "address",
          "name": "",
          "type": "address"
        },
        {
          "internalType": "uint256",
          "name": "",
          "type": "uint256"
        }
      ],
      "name": "userTransactions",
      "outputs": [
        {
          "internalType": "bytes32",
          "name": "txHash",
          "type": "bytes32"
        },
        {
          "internalType": "uint256",
          "name": "id",
          "type": "uint256"
        },
        {
          "internalType": "enum UserPlayerManager.TransactionType",
          "name": "txType",
          "type": "uint8"
        },
        {
          "internalType": "uint256",
          "name": "value",
          "type": "uint256"
        },
        {
          "internalType": "uint256",
          "name": "timestamp",
          "type": "uint256"
        },
        {
          "internalType": "address",
          "name": "sender",
          "type": "address"
        },
        {
          "internalType": "address",
          "name": "receiver",
          "type": "address"
        },
        {
          "internalType": "uint256",
          "name": "leagueId",
          "type": "uint256"
        },
        {
          "internalType": "bool",
          "name": "processed",
          "type": "bool"
        }
      ],
      "stateMutability": "view",
      "type": "function"
    },
    {
      "inputs": [
        {
          "internalType": "address",
          "name": "",
          "type": "address"
        }
      ],
      "name": "users",
      "outputs": [
        {
          "internalType": "uint256",
          "name": "id",
          "type": "uint256"
        },
        {
          "internalType": "string",
          "name": "name",
          "type": "string"
        },
        {
          "internalType": "bool",
          "name": "isRegistered",
          "type": "bool"
        }
      ],
      "stateMutability": "view",
      "type": "function"
    },
    {
      "inputs": [
        {
          "internalType": "uint256[]",
          "name": "playerIds",
          "type": "uint256[]"
        }
      ],
      "name": "validateTeamPlayers",
      "outputs": [
        {
          "internalType": "bool",
          "name": "",
          "type": "bool"
        }
      ],
      "stateMutability": "view",
      "type": "function"
    },
    {
      "inputs": [
        {
          "internalType": "uint256",
          "name": "",
          "type": "uint256"
        },
        {
          "internalType": "uint256",
          "name": "",
          "type": "uint256"
        }
      ],
      "name": "weeklyPlayerPoints",
      "outputs": [
        {
          "internalType": "uint256",
          "name": "",
          "type": "uint256"
        }
      ],
      "stateMutability": "view",
      "type": "function"
    },
    {
      "inputs": [
        {
          "internalType": "uint256",
          "name": "_amount",
          "type": "uint256"
        }
      ],
      "name": "withdraw",
      "outputs": [],
      "stateMutability": "nonpayable",
      "type": "function"
    }
  ],
  "bytecode": "0x6080604052348015600f57600080fd5b50336000806101000a81548173ffffffffffffffffffffffffffffffffffffffff021916908373ffffffffffffffffffffffffffffffffffffffff1602179055506145248061005f6000396000f3fe6080604052600436106102045760003560e01c8063a4e40e7311610118578063dab63d08116100a0578063f0c37a591161006f578063f0c37a59146107db578063f28d718d14610806578063f71d96cb14610843578063f851a44014610886578063f8b2cb4f146108b157610204565b8063dab63d081461070f578063de03fd3514610738578063e55ae4e814610775578063e82aa31f146107b257610204565b8063b842ec44116100e7578063b842ec441461061b578063ba09b2c814610660578063c40717f61461068b578063cff2bfc8146106c8578063d0e30db01461070557610204565b8063a4e40e7314610549578063a79eb0d114610586578063a87430ba146105b1578063b6d7a2fc146105f057610204565b806335eb2be21161019b5780635d6585c11161016a5780635d6585c11461044d578063672cb78e1461047657806380f78b3f146104b85780638c91efa7146104f5578063a31ca4b51461052057610204565b806335eb2be214610393578063427e6886146103be57806351ab96f0146103e75780635511384e1461042457610204565b806324f38ebc116101d757806324f38ebc146102d957806326224c64146103025780632e1a7d4d1461033f57806334aacb2e1461036857610204565b806307e153ae1461020957806312d836d61461023457806314e887e81461027157806323d26f801461029c575b600080fd5b34801561021557600080fd5b5061021e6108ee565b60405161022b91906129cc565b60405180910390f35b34801561024057600080fd5b5061025b60048036038101906102569190612a27565b6108f3565b60405161026891906129cc565b60405180910390f35b34801561027d57600080fd5b50610286610918565b60405161029391906129cc565b60405180910390f35b3480156102a857600080fd5b506102c360048036038101906102be9190612ac5565b61091e565b6040516102d091906129cc565b60405180910390f35b3480156102e557600080fd5b5061030060048036038101906102fb9190612b05565b61094f565b005b34801561030e57600080fd5b5061032960048036038101906103249190612b58565b610bb8565b60405161033691906129cc565b60405180910390f35b34801561034b57600080fd5b5061036660048036038101906103619190612b85565b610bd0565b005b34801561037457600080fd5b5061037d610ebd565b60405161038a91906129cc565b60405180910390f35b34801561039f57600080fd5b506103a8610ec2565b6040516103b591906129cc565b60405180910390f35b3480156103ca57600080fd5b506103e560048036038101906103e09190612c17565b610ec8565b005b3480156103f357600080fd5b5061040e60048036038101906104099190612ce3565b611279565b60405161041b91906129cc565b60405180910390f35b34801561043057600080fd5b5061044b60048036038101906104469190612ac5565b611554565b005b34801561045957600080fd5b50610474600480360381019061046f9190612ac5565b6115ae565b005b34801561048257600080fd5b5061049d60048036038101906104989190612ac5565b611618565b6040516104af96959493929190612d88565b60405180910390f35b3480156104c457600080fd5b506104df60048036038101906104da9190612ac5565b61169b565b6040516104ec9190612f61565b60405180910390f35b34801561050157600080fd5b5061050a611852565b60405161051791906129cc565b60405180910390f35b34801561052c57600080fd5b50610547600480360381019061054291906130f0565b611857565b005b34801561055557600080fd5b50610570600480360381019061056b9190612ac5565b611989565b60405161057d91906129cc565b60405180910390f35b34801561059257600080fd5b5061059b6119ba565b6040516105a891906129cc565b60405180910390f35b3480156105bd57600080fd5b506105d860048036038101906105d39190612b58565b6119bf565b6040516105e793929190613206565b60405180910390f35b3480156105fc57600080fd5b50610605611a7e565b60405161061291906129cc565b60405180910390f35b34801561062757600080fd5b50610642600480360381019061063d9190612ac5565b611a84565b604051610657999897969594939291906132d4565b60405180910390f35b34801561066c57600080fd5b50610675611b49565b60405161068291906129cc565b60405180910390f35b34801561069757600080fd5b506106b260048036038101906106ad91906133b7565b611b4e565b6040516106bf9190613404565b60405180910390f35b3480156106d457600080fd5b506106ef60048036038101906106ea91906133b7565b611eac565b6040516106fc91906129cc565b60405180910390f35b61070d611f74565b005b34801561071b57600080fd5b5061073660048036038101906107319190612ac5565b612131565b005b34801561074457600080fd5b5061075f600480360381019061075a9190612a27565b61219b565b60405161076c91906129cc565b60405180910390f35b34801561078157600080fd5b5061079c60048036038101906107979190612b85565b61220f565b6040516107a9919061350c565b60405180910390f35b3480156107be57600080fd5b506107d960048036038101906107d491906133b7565b6123e8565b005b3480156107e757600080fd5b506107f06126ab565b6040516107fd91906129cc565b60405180910390f35b34801561081257600080fd5b5061082d6004803603810190610828919061352e565b6126b1565b60405161083a9190613404565b60405180910390f35b34801561084f57600080fd5b5061086a60048036038101906108659190612b85565b6126e7565b60405161087d9796959493929190613577565b60405180910390f35b34801561089257600080fd5b5061089b612846565b6040516108a891906135f4565b60405180910390f35b3480156108bd57600080fd5b506108d860048036038101906108d39190612b58565b61286a565b6040516108e591906129cc565b60405180910390f35b600381565b600e602052816000526040600020602052806000526040600020600091509150505481565b60045481565b6009602052816000526040600020818154811061093a57600080fd5b90600052602060002001600091509150505481565b600073ffffffffffffffffffffffffffffffffffffffff163373ffffffffffffffffffffffffffffffffffffffff16036109be576040517f08c379a00000000000000000000000000000000000000000000000000000000081526004016109b59061365b565b60405180910390fd5b6000600a60008473ffffffffffffffffffffffffffffffffffffffff1673ffffffffffffffffffffffffffffffffffffffff168152602001908152602001600020600085815260200190815260200160002090508060030160149054906101000a900460ff16610a63576040517f08c379a0000000000000000000000000000000000000000000000000000000008152600401610a5a906136c7565b60405180910390fd5b8060030160159054906101000a900460ff1615610ab5576040517f08c379a0000000000000000000000000000000000000000000000000000000008152600401610aac90613733565b60405180910390fd5b8273ffffffffffffffffffffffffffffffffffffffff168160030160009054906101000a900473ffffffffffffffffffffffffffffffffffffffff1673ffffffffffffffffffffffffffffffffffffffff1614610b47576040517f08c379a0000000000000000000000000000000000000000000000000000000008152600401610b3e9061379f565b60405180910390fd5b60018160030160156101000a81548160ff021916908315150217905550818160010181905550818373ffffffffffffffffffffffffffffffffffffffff16857fccab5bd9065bceb938c5912873f5212c913259200c29b1af53486e60b962ae6560405160405180910390a450505050565b60076020528060005260406000206000915090505481565b600260055403610c15576040517f08c379a0000000000000000000000000000000000000000000000000000000008152600401610c0c9061380b565b60405180910390fd5b6002600581905550600073ffffffffffffffffffffffffffffffffffffffff163373ffffffffffffffffffffffffffffffffffffffff1603610c8c576040517f08c379a0000000000000000000000000000000000000000000000000000000008152600401610c8390613877565b60405180910390fd5b60008111610ccf576040517f08c379a0000000000000000000000000000000000000000000000000000000008152600401610cc6906138e3565b60405180910390fd5b80600760003373ffffffffffffffffffffffffffffffffffffffff1673ffffffffffffffffffffffffffffffffffffffff168152602001908152602001600020541015610d51576040517f08c379a0000000000000000000000000000000000000000000000000000000008152600401610d489061394f565b60405180910390fd5b80600760003373ffffffffffffffffffffffffffffffffffffffff1673ffffffffffffffffffffffffffffffffffffffff1681526020019081526020016000206000828254610da0919061399e565b9250508190555060003373ffffffffffffffffffffffffffffffffffffffff1682604051610dcd90613a03565b60006040518083038185875af1925050503d8060008114610e0a576040519150601f19603f3d011682016040523d82523d6000602084013e610e0f565b606091505b5050905080610e53576040517f08c379a0000000000000000000000000000000000000000000000000000000008152600401610e4a90613a64565b60405180910390fd5b610e6260028333336000611279565b503373ffffffffffffffffffffffffffffffffffffffff167f84e742a3ea03623687a5febaa797636d728230721d4b3d1405d19fbbc16298d983604051610ea991906129cc565b60405180910390a250600160058190555050565b600f81565b60025481565b60008054906101000a900473ffffffffffffffffffffffffffffffffffffffff1673ffffffffffffffffffffffffffffffffffffffff163373ffffffffffffffffffffffffffffffffffffffff1614610f56576040517f08c379a0000000000000000000000000000000000000000000000000000000008152600401610f4d90613ad0565b60405180910390fd5b60008686905011610f9c576040517f08c379a0000000000000000000000000000000000000000000000000000000008152600401610f9390613b3c565b60405180910390fd5b60008484905011610fe2576040517f08c379a0000000000000000000000000000000000000000000000000000000008152600401610fd990613ba8565b60405180910390fd5b60008111611025576040517f08c379a000000000000000000000000000000000000000000000000000000000815260040161101c90613c14565b60405180910390fd5b600d8686604051611037929190613c64565b908152602001604051809103902060009054906101000a900460ff1615611093576040517f08c379a000000000000000000000000000000000000000000000000000000000815260040161108a90613cc9565b60405180910390fd5b60006003600081546110a490613ce9565b91905081905590506040518060e0016040528082815260200188888080601f016020809104026020016040519081016040528093929190818152602001838380828437600081840152601f19601f82011690508083019250505050505050815260200186868080601f016020809104026020016040519081016040528093929190818152602001838380828437600081840152601f19601f8201169050808301925050505050505081526020018481526020018381526020016000815260200160011515815250600c600083815260200190815260200160002060008201518160000155602082015181600101908161119d9190613f3d565b5060408201518160020190816111b39190613f3d565b50606082015181600301556080820151816004015560a0820151816005015560c08201518160060160006101000a81548160ff0219169083151502179055509050506001600d8888604051611209929190613c64565b908152602001604051809103902060006101000a81548160ff021916908315150217905550807fde362b42458bb62dc23b2691d14ba17e1eccb25e58e0ea2bf43fd8fa84322f628888888888886040516112689695949392919061403c565b60405180910390a250505050505050565b60008060046000815461128b90613ce9565b91905081905590506000818860038111156112a9576112a861325d565b5b88428989896040516020016112c497969594939291906140fc565b60405160208183030381529060405280519060200120905060006040518061012001604052808381526020018481526020018a60038111156113095761130861325d565b5b81526020018981526020014281526020018873ffffffffffffffffffffffffffffffffffffffff1681526020018773ffffffffffffffffffffffffffffffffffffffff168152602001868152602001600115158152509050600b60008873ffffffffffffffffffffffffffffffffffffffff1673ffffffffffffffffffffffffffffffffffffffff168152602001908152602001600020819080600181540180825580915050600190039060005260206000209060090201600090919091909150600082015181600001556020820151816001015560408201518160020160006101000a81548160ff021916908360038111156114095761140861325d565b5b0217905550606082015181600301556080820151816004015560a08201518160050160006101000a81548173ffffffffffffffffffffffffffffffffffffffff021916908373ffffffffffffffffffffffffffffffffffffffff16021790555060c08201518160060160006101000a81548173ffffffffffffffffffffffffffffffffffffffff021916908373ffffffffffffffffffffffffffffffffffffffff16021790555060e082015181600701556101008201518160080160006101000a81548160ff02191690831515021790555050508673ffffffffffffffffffffffffffffffffffffffff168960038111156115075761150661325d565b5b847f1b770a80b129a91fd953ff66026d1ae3348eee0e55f247d3b0a77b0ec6ebda39858c8b8b60405161153d949392919061417d565b60405180910390a482935050505095945050505050565b80600760008473ffffffffffffffffffffffffffffffffffffffff1673ffffffffffffffffffffffffffffffffffffffff16815260200190815260200160002060008282546115a391906141c2565b925050819055505050565b600960008373ffffffffffffffffffffffffffffffffffffffff1673ffffffffffffffffffffffffffffffffffffffff1681526020019081526020016000208190806001815401808255809150506001900390600052602060002001600090919091909150555050565b600a602052816000526040600020602052806000526040600020600091509150508060000154908060010154908060020154908060030160009054906101000a900473ffffffffffffffffffffffffffffffffffffffff16908060030160149054906101000a900460ff16908060030160159054906101000a900460ff16905086565b6116a36128b3565b6000600a60008573ffffffffffffffffffffffffffffffffffffffff1673ffffffffffffffffffffffffffffffffffffffff16815260200190815260200160002060008481526020019081526020016000206040518060e00160405290816000820154815260200160018201548152602001600282015481526020016003820160009054906101000a900473ffffffffffffffffffffffffffffffffffffffff1673ffffffffffffffffffffffffffffffffffffffff1673ffffffffffffffffffffffffffffffffffffffff1681526020016003820160149054906101000a900460ff161515151581526020016003820160159054906101000a900460ff16151515158152602001600482018054806020026020016040519081016040528092919081815260200182805480156117f957602002820191906000526020600020905b8154815260200190600101908083116117e5575b50505050508152505090508060800151611848576040517f08c379a000000000000000000000000000000000000000000000000000000000815260040161183f90614242565b60405180910390fd5b8091505092915050565b600281565b60008054906101000a900473ffffffffffffffffffffffffffffffffffffffff1673ffffffffffffffffffffffffffffffffffffffff163373ffffffffffffffffffffffffffffffffffffffff16146118e5576040517f08c379a00000000000000000000000000000000000000000000000000000000081526004016118dc90613ad0565b60405180910390fd5b60035485111561192a576040517f08c379a0000000000000000000000000000000000000000000000000000000008152600401611921906142ae565b60405180910390fd5b6000600c60008781526020019081526020016000209050848160020190816119529190613f3d565b50838160030181905550828160040181905550818160060160006101000a81548160ff021916908315150217905550505050505050565b600860205281600052604060002081815481106119a557600080fd5b90600052602060002001600091509150505481565b600581565b60066020528060005260406000206000915090508060000154908060010180546119e890613d60565b80601f0160208091040260200160405190810160405280929190818152602001828054611a1490613d60565b8015611a615780601f10611a3657610100808354040283529160200191611a61565b820191906000526020600020905b815481529060010190602001808311611a4457829003601f168201915b5050505050908060020160009054906101000a900460ff16905083565b60035481565b600b6020528160005260406000208181548110611aa057600080fd5b9060005260206000209060090201600091509150508060000154908060010154908060020160009054906101000a900460ff16908060030154908060040154908060050160009054906101000a900473ffffffffffffffffffffffffffffffffffffffff16908060060160009054906101000a900473ffffffffffffffffffffffffffffffffffffffff16908060070154908060080160009054906101000a900460ff16905089565b600581565b6000600f8383905014611b96576040517f08c379a0000000000000000000000000000000000000000000000000000000008152600401611b8d9061431a565b60405180910390fd5b60008060008060005b87879050811015611e7757600354888883818110611bc057611bbf61433a565b5b905060200201351115611c08576040517f08c379a0000000000000000000000000000000000000000000000000000000008152600401611bff906142ae565b60405180910390fd5b6000600c60008a8a85818110611c2157611c2061433a565b5b9050602002013581526020019081526020016000206040518060e001604052908160008201548152602001600182018054611c5b90613d60565b80601f0160208091040260200160405190810160405280929190818152602001828054611c8790613d60565b8015611cd45780601f10611ca957610100808354040283529160200191611cd4565b820191906000526020600020905b815481529060010190602001808311611cb757829003601f168201915b50505050508152602001600282018054611ced90613d60565b80601f0160208091040260200160405190810160405280929190818152602001828054611d1990613d60565b8015611d665780601f10611d3b57610100808354040283529160200191611d66565b820191906000526020600020905b815481529060010190602001808311611d4957829003601f168201915b505050505081526020016003820154815260200160048201548152602001600582015481526020016006820160009054906101000a900460ff16151515158152505090508060c00151611dee576040517f08c379a0000000000000000000000000000000000000000000000000000000008152600401611de5906143b5565b60405180910390fd5b6001816060015103611e0d578580611e0590613ce9565b965050611e69565b6002816060015103611e2c578480611e2490613ce9565b955050611e68565b6003816060015103611e4b578380611e4390613ce9565b945050611e67565b6004816060015103611e66578280611e6290613ce9565b9350505b5b5b5b508080600101915050611b9f565b50600284148015611e885750600583145b8015611e945750600582145b8015611ea05750600381145b94505050505092915050565b6000806000905060005b84849050811015611f6957600354858583818110611ed757611ed661433a565b5b905060200201351115611f1f576040517f08c379a0000000000000000000000000000000000000000000000000000000008152600401611f16906142ae565b60405180910390fd5b600c6000868684818110611f3657611f3561433a565b5b9050602002013581526020019081526020016000206004015482611f5a91906141c2565b91508080600101915050611eb6565b508091505092915050565b600260055403611fb9576040517f08c379a0000000000000000000000000000000000000000000000000000000008152600401611fb09061380b565b60405180910390fd5b6002600581905550600073ffffffffffffffffffffffffffffffffffffffff163373ffffffffffffffffffffffffffffffffffffffff1603612030576040517f08c379a000000000000000000000000000000000000000000000000000000000815260040161202790613877565b60405180910390fd5b60003411612073576040517f08c379a000000000000000000000000000000000000000000000000000000000815260040161206a90614421565b60405180910390fd5b34600760003373ffffffffffffffffffffffffffffffffffffffff1673ffffffffffffffffffffffffffffffffffffffff16815260200190815260200160002060008282546120c291906141c2565b925050819055506120d860013433306000611279565b503373ffffffffffffffffffffffffffffffffffffffff167fb3ef81558ed1a50072a492984535a009da8b129c749500b387f1e5f4886bdde53460405161211f91906129cc565b60405180910390a26001600581905550565b600860008373ffffffffffffffffffffffffffffffffffffffff1673ffffffffffffffffffffffffffffffffffffffff1681526020019081526020016000208190806001815401808255809150506001900390600052602060002001600090919091909150555050565b60006003548311156121e2576040517f08c379a00000000000000000000000000000000000000000000000000000000081526004016121d9906142ae565b60405180910390fd5b600e6000848152602001908152602001600020600083815260200190815260200160002054905092915050565b61221761290a565b60035482111561225c576040517f08c379a0000000000000000000000000000000000000000000000000000000008152600401612253906142ae565b60405180910390fd5b600c60008381526020019081526020016000206040518060e00160405290816000820154815260200160018201805461229490613d60565b80601f01602080910402602001604051908101604052809291908181526020018280546122c090613d60565b801561230d5780601f106122e25761010080835404028352916020019161230d565b820191906000526020600020905b8154815290600101906020018083116122f057829003601f168201915b5050505050815260200160028201805461232690613d60565b80601f016020809104026020016040519081016040528092919081815260200182805461235290613d60565b801561239f5780601f106123745761010080835404028352916020019161239f565b820191906000526020600020905b81548152906001019060200180831161238257829003601f168201915b505050505081526020016003820154815260200160048201548152602001600582015481526020016006820160009054906101000a900460ff1615151515815250509050919050565b600f828290501461242e576040517f08c379a00000000000000000000000000000000000000000000000000000000081526004016124259061431a565b60405180910390fd5b600060026000815461243f90613ce9565b91905081905590506040518060e0016040528082815260200160008152602001600081526020013373ffffffffffffffffffffffffffffffffffffffff168152602001600115158152602001600015158152602001848480806020026020016040519081016040528093929190818152602001838360200280828437600081840152601f19601f82011690508083019250505050505050815250600a60003373ffffffffffffffffffffffffffffffffffffffff1673ffffffffffffffffffffffffffffffffffffffff168152602001908152602001600020600083815260200190815260200160002060008201518160000155602082015181600101556040820151816002015560608201518160030160006101000a81548173ffffffffffffffffffffffffffffffffffffffff021916908373ffffffffffffffffffffffffffffffffffffffff16021790555060808201518160030160146101000a81548160ff02191690831515021790555060a08201518160030160156101000a81548160ff02191690831515021790555060c08201518160040190805190602001906125ea929190612949565b50905050600960003373ffffffffffffffffffffffffffffffffffffffff1673ffffffffffffffffffffffffffffffffffffffff1681526020019081526020016000208190806001815401808255809150506001900390600052602060002001600090919091909150553373ffffffffffffffffffffffffffffffffffffffff167fa0fe123019ee531d372c509e3e25503540cef5e04283a77dec746880b414c42a82858560405161269e939291906144bc565b60405180910390a2505050565b60015481565b600d818051602081018201805184825260208301602085012081835280955050505050506000915054906101000a900460ff1681565b600c60205280600052604060002060009150905080600001549080600101805461271090613d60565b80601f016020809104026020016040519081016040528092919081815260200182805461273c90613d60565b80156127895780601f1061275e57610100808354040283529160200191612789565b820191906000526020600020905b81548152906001019060200180831161276c57829003601f168201915b50505050509080600201805461279e90613d60565b80601f01602080910402602001604051908101604052809291908181526020018280546127ca90613d60565b80156128175780601f106127ec57610100808354040283529160200191612817565b820191906000526020600020905b8154815290600101906020018083116127fa57829003601f168201915b5050505050908060030154908060040154908060050154908060060160009054906101000a900460ff16905087565b60008054906101000a900473ffffffffffffffffffffffffffffffffffffffff1681565b6000600760008373ffffffffffffffffffffffffffffffffffffffff1673ffffffffffffffffffffffffffffffffffffffff168152602001908152602001600020549050919050565b6040518060e00160405280600081526020016000815260200160008152602001600073ffffffffffffffffffffffffffffffffffffffff168152602001600015158152602001600015158152602001606081525090565b6040518060e001604052806000815260200160608152602001606081526020016000815260200160008152602001600081526020016000151581525090565b828054828255906000526020600020908101928215612985579160200282015b82811115612984578251825591602001919060010190612969565b5b5090506129929190612996565b5090565b5b808211156129af576000816000905550600101612997565b5090565b6000819050919050565b6129c6816129b3565b82525050565b60006020820190506129e160008301846129bd565b92915050565b6000604051905090565b600080fd5b600080fd5b612a04816129b3565b8114612a0f57600080fd5b50565b600081359050612a21816129fb565b92915050565b60008060408385031215612a3e57612a3d6129f1565b5b6000612a4c85828601612a12565b9250506020612a5d85828601612a12565b9150509250929050565b600073ffffffffffffffffffffffffffffffffffffffff82169050919050565b6000612a9282612a67565b9050919050565b612aa281612a87565b8114612aad57600080fd5b50565b600081359050612abf81612a99565b92915050565b60008060408385031215612adc57612adb6129f1565b5b6000612aea85828601612ab0565b9250506020612afb85828601612a12565b9150509250929050565b600080600060608486031215612b1e57612b1d6129f1565b5b6000612b2c86828701612a12565b9350506020612b3d86828701612ab0565b9250506040612b4e86828701612a12565b9150509250925092565b600060208284031215612b6e57612b6d6129f1565b5b6000612b7c84828501612ab0565b91505092915050565b600060208284031215612b9b57612b9a6129f1565b5b6000612ba984828501612a12565b91505092915050565b600080fd5b600080fd5b600080fd5b60008083601f840112612bd757612bd6612bb2565b5b8235905067ffffffffffffffff811115612bf457612bf3612bb7565b5b602083019150836001820283011115612c1057612c0f612bbc565b5b9250929050565b60008060008060008060808789031215612c3457612c336129f1565b5b600087013567ffffffffffffffff811115612c5257612c516129f6565b5b612c5e89828a01612bc1565b9650965050602087013567ffffffffffffffff811115612c8157612c806129f6565b5b612c8d89828a01612bc1565b94509450506040612ca089828a01612a12565b9250506060612cb189828a01612a12565b9150509295509295509295565b60048110612ccb57600080fd5b50565b600081359050612cdd81612cbe565b92915050565b600080600080600060a08688031215612cff57612cfe6129f1565b5b6000612d0d88828901612cce565b9550506020612d1e88828901612a12565b9450506040612d2f88828901612ab0565b9350506060612d4088828901612ab0565b9250506080612d5188828901612a12565b9150509295509295909350565b612d6781612a87565b82525050565b60008115159050919050565b612d8281612d6d565b82525050565b600060c082019050612d9d60008301896129bd565b612daa60208301886129bd565b612db760408301876129bd565b612dc46060830186612d5e565b612dd16080830185612d79565b612dde60a0830184612d79565b979650505050505050565b612df2816129b3565b82525050565b612e0181612a87565b82525050565b612e1081612d6d565b82525050565b600081519050919050565b600082825260208201905092915050565b6000819050602082019050919050565b6000612e4e8383612de9565b60208301905092915050565b6000602082019050919050565b6000612e7282612e16565b612e7c8185612e21565b9350612e8783612e32565b8060005b83811015612eb8578151612e9f8882612e42565b9750612eaa83612e5a565b925050600181019050612e8b565b5085935050505092915050565b600060e083016000830151612edd6000860182612de9565b506020830151612ef06020860182612de9565b506040830151612f036040860182612de9565b506060830151612f166060860182612df8565b506080830151612f296080860182612e07565b5060a0830151612f3c60a0860182612e07565b5060c083015184820360c0860152612f548282612e67565b9150508091505092915050565b60006020820190508181036000830152612f7b8184612ec5565b905092915050565b600080fd5b6000601f19601f8301169050919050565b7f4e487b7100000000000000000000000000000000000000000000000000000000600052604160045260246000fd5b612fd182612f88565b810181811067ffffffffffffffff82111715612ff057612fef612f99565b5b80604052505050565b60006130036129e7565b905061300f8282612fc8565b919050565b600067ffffffffffffffff82111561302f5761302e612f99565b5b61303882612f88565b9050602081019050919050565b82818337600083830152505050565b600061306761306284613014565b612ff9565b90508281526020810184848401111561308357613082612f83565b5b61308e848285613045565b509392505050565b600082601f8301126130ab576130aa612bb2565b5b81356130bb848260208601613054565b91505092915050565b6130cd81612d6d565b81146130d857600080fd5b50565b6000813590506130ea816130c4565b92915050565b600080600080600060a0868803121561310c5761310b6129f1565b5b600061311a88828901612a12565b955050602086013567ffffffffffffffff81111561313b5761313a6129f6565b5b61314788828901613096565b945050604061315888828901612a12565b935050606061316988828901612a12565b925050608061317a888289016130db565b9150509295509295909350565b600081519050919050565b600082825260208201905092915050565b60005b838110156131c15780820151818401526020810190506131a6565b60008484015250505050565b60006131d882613187565b6131e28185613192565b93506131f28185602086016131a3565b6131fb81612f88565b840191505092915050565b600060608201905061321b60008301866129bd565b818103602083015261322d81856131cd565b905061323c6040830184612d79565b949350505050565b6000819050919050565b61325781613244565b82525050565b7f4e487b7100000000000000000000000000000000000000000000000000000000600052602160045260246000fd5b6004811061329d5761329c61325d565b5b50565b60008190506132ae8261328c565b919050565b60006132be826132a0565b9050919050565b6132ce816132b3565b82525050565b6000610120820190506132ea600083018c61324e565b6132f7602083018b6129bd565b613304604083018a6132c5565b61331160608301896129bd565b61331e60808301886129bd565b61332b60a0830187612d5e565b61333860c0830186612d5e565b61334560e08301856129bd565b613353610100830184612d79565b9a9950505050505050505050565b60008083601f84011261337757613376612bb2565b5b8235905067ffffffffffffffff81111561339457613393612bb7565b5b6020830191508360208202830111156133b0576133af612bbc565b5b9250929050565b600080602083850312156133ce576133cd6129f1565b5b600083013567ffffffffffffffff8111156133ec576133eb6129f6565b5b6133f885828601613361565b92509250509250929050565b60006020820190506134196000830184612d79565b92915050565b600082825260208201905092915050565b600061343b82613187565b613445818561341f565b93506134558185602086016131a3565b61345e81612f88565b840191505092915050565b600060e0830160008301516134816000860182612de9565b50602083015184820360208601526134998282613430565b915050604083015184820360408601526134b38282613430565b91505060608301516134c86060860182612de9565b5060808301516134db6080860182612de9565b5060a08301516134ee60a0860182612de9565b5060c083015161350160c0860182612e07565b508091505092915050565b600060208201905081810360008301526135268184613469565b905092915050565b600060208284031215613544576135436129f1565b5b600082013567ffffffffffffffff811115613562576135616129f6565b5b61356e84828501613096565b91505092915050565b600060e08201905061358c600083018a6129bd565b818103602083015261359e81896131cd565b905081810360408301526135b281886131cd565b90506135c160608301876129bd565b6135ce60808301866129bd565b6135db60a08301856129bd565b6135e860c0830184612d79565b98975050505050505050565b60006020820190506136096000830184612d5e565b92915050565b7f5a65726f20416464726573732064657465637465640000000000000000000000600082015250565b6000613645601583613192565b91506136508261360f565b602082019050919050565b6000602082019050818103600083015261367481613638565b9050919050565b7f5465616d20646f6573206e6f7420657869737400000000000000000000000000600082015250565b60006136b1601383613192565b91506136bc8261367b565b602082019050919050565b600060208201905081810360008301526136e0816136a4565b9050919050565b7f5465616d20616c72656164792072656769737465726564000000000000000000600082015250565b600061371d601783613192565b9150613728826136e7565b602082019050919050565b6000602082019050818103600083015261374c81613710565b9050919050565b7f4e6f74207465616d206f776e6572000000000000000000000000000000000000600082015250565b6000613789600e83613192565b915061379482613753565b602082019050919050565b600060208201905081810360008301526137b88161377c565b9050919050565b7f5265656e7472616e637947756172643a205265656e7472616e742063616c6c00600082015250565b60006137f5601f83613192565b9150613800826137bf565b602082019050919050565b60006020820190508181036000830152613824816137e8565b9050919050565b7f5a65726f20616464726573732064657465637465642100000000000000000000600082015250565b6000613861601683613192565b915061386c8261382b565b602082019050919050565b6000602082019050818103600083015261389081613854565b9050919050565b7f43616e6e6f74207769746864726177207a65726f210000000000000000000000600082015250565b60006138cd601583613192565b91506138d882613897565b602082019050919050565b600060208201905081810360008301526138fc816138c0565b9050919050565b7f496e73756666696369656e742066756e64732100000000000000000000000000600082015250565b6000613939601383613192565b915061394482613903565b602082019050919050565b600060208201905081810360008301526139688161392c565b9050919050565b7f4e487b7100000000000000000000000000000000000000000000000000000000600052601160045260246000fd5b60006139a9826129b3565b91506139b4836129b3565b92508282039050818111156139cc576139cb61396f565b5b92915050565b600081905092915050565b50565b60006139ed6000836139d2565b91506139f8826139dd565b600082019050919050565b6000613a0e826139e0565b9150819050919050565b7f4574686572207472616e73666572206661696c65642100000000000000000000600082015250565b6000613a4e601683613192565b9150613a5982613a18565b602082019050919050565b60006020820190508181036000830152613a7d81613a41565b9050919050565b7f4f6e6c792061646d696e00000000000000000000000000000000000000000000600082015250565b6000613aba600a83613192565b9150613ac582613a84565b602082019050919050565b60006020820190508181036000830152613ae981613aad565b9050919050565b7f456d707479206e616d6500000000000000000000000000000000000000000000600082015250565b6000613b26600a83613192565b9150613b3182613af0565b602082019050919050565b60006020820190508181036000830152613b5581613b19565b9050919050565b7f456d70747920636c756200000000000000000000000000000000000000000000600082015250565b6000613b92600a83613192565b9150613b9d82613b5c565b602082019050919050565b60006020820190508181036000830152613bc181613b85565b9050919050565b7f496e76616c696420707269636500000000000000000000000000000000000000600082015250565b6000613bfe600d83613192565b9150613c0982613bc8565b602082019050919050565b60006020820190508181036000830152613c2d81613bf1565b9050919050565b600081905092915050565b6000613c4b8385613c34565b9350613c58838584613045565b82840190509392505050565b6000613c71828486613c3f565b91508190509392505050565b7f506c617965722065786973747300000000000000000000000000000000000000600082015250565b6000613cb3600d83613192565b9150613cbe82613c7d565b602082019050919050565b60006020820190508181036000830152613ce281613ca6565b9050919050565b6000613cf4826129b3565b91507fffffffffffffffffffffffffffffffffffffffffffffffffffffffffffffffff8203613d2657613d2561396f565b5b600182019050919050565b7f4e487b7100000000000000000000000000000000000000000000000000000000600052602260045260246000fd5b60006002820490506001821680613d7857607f821691505b602082108103613d8b57613d8a613d31565b5b50919050565b60008190508160005260206000209050919050565b60006020601f8301049050919050565b600082821b905092915050565b600060088302613df37fffffffffffffffffffffffffffffffffffffffffffffffffffffffffffffffff82613db6565b613dfd8683613db6565b95508019841693508086168417925050509392505050565b6000819050919050565b6000613e3a613e35613e30846129b3565b613e15565b6129b3565b9050919050565b6000819050919050565b613e5483613e1f565b613e68613e6082613e41565b848454613dc3565b825550505050565b600090565b613e7d613e70565b613e88818484613e4b565b505050565b5b81811015613eac57613ea1600082613e75565b600181019050613e8e565b5050565b601f821115613ef157613ec281613d91565b613ecb84613da6565b81016020851015613eda578190505b613eee613ee685613da6565b830182613e8d565b50505b505050565b600082821c905092915050565b6000613f1460001984600802613ef6565b1980831691505092915050565b6000613f2d8383613f03565b9150826002028217905092915050565b613f4682613187565b67ffffffffffffffff811115613f5f57613f5e612f99565b5b613f698254613d60565b613f74828285613eb0565b600060209050601f831160018114613fa75760008415613f95578287015190505b613f9f8582613f21565b865550614007565b601f198416613fb586613d91565b60005b82811015613fdd57848901518255600182019150602085019450602081019050613fb8565b86831015613ffa5784890151613ff6601f891682613f03565b8355505b6001600288020188555050505b505050505050565b600061401b8385613192565b9350614028838584613045565b61403183612f88565b840190509392505050565b6000608082019050818103600083015261405781888a61400f565b9050818103602083015261406c81868861400f565b905061407b60408301856129bd565b61408860608301846129bd565b979650505050505050565b6000819050919050565b6140ae6140a9826129b3565b614093565b82525050565b60008160601b9050919050565b60006140cc826140b4565b9050919050565b60006140de826140c1565b9050919050565b6140f66140f182612a87565b6140d3565b82525050565b6000614108828a61409d565b602082019150614118828961409d565b602082019150614128828861409d565b602082019150614138828761409d565b60208201915061414882866140e5565b60148201915061415882856140e5565b601482019150614168828461409d565b60208201915081905098975050505050505050565b6000608082019050614192600083018761324e565b61419f60208301866129bd565b6141ac6040830185612d5e565b6141b960608301846129bd565b95945050505050565b60006141cd826129b3565b91506141d8836129b3565b92508282019050808211156141f0576141ef61396f565b5b92915050565b7f5465616d206e6f7420666f756e64000000000000000000000000000000000000600082015250565b600061422c600e83613192565b9150614237826141f6565b602082019050919050565b6000602082019050818103600083015261425b8161421f565b9050919050565b7f496e76616c696420706c61796572204944000000000000000000000000000000600082015250565b6000614298601183613192565b91506142a382614262565b602082019050919050565b600060208201905081810360008301526142c78161428b565b9050919050565b7f496e76616c6964207465616d2073697a65000000000000000000000000000000600082015250565b6000614304601183613192565b915061430f826142ce565b602082019050919050565b60006020820190508181036000830152614333816142f7565b9050919050565b7f4e487b7100000000000000000000000000000000000000000000000000000000600052603260045260246000fd5b7f496e61637469766520706c617965720000000000000000000000000000000000600082015250565b600061439f600f83613192565b91506143aa82614369565b602082019050919050565b600060208201905081810360008301526143ce81614392565b9050919050565b7f43616e6e6f74206465706f736974207a65726f21000000000000000000000000600082015250565b600061440b601483613192565b9150614416826143d5565b602082019050919050565b6000602082019050818103600083015261443a816143fe565b9050919050565b600082825260208201905092915050565b600080fd5b82818337505050565b600061446c8385614441565b93507f07ffffffffffffffffffffffffffffffffffffffffffffffffffffffffffffff83111561449f5761449e614452565b5b6020830292506144b0838584614457565b82840190509392505050565b60006040820190506144d160008301866129bd565b81810360208301526144e4818486614460565b905094935050505056fea26469706673582212206d256b93f15dda8b5d9d93c7c1a03cfe60d187e05b6f799a7d36970dba43afa364736f6c634300081b0033",
  "linkReferences": {},
  "deployedLinkReferences": {}
}