{
  "_format": "hh-sol-artifact-1",
  "contractName": "LeagueFactory",
  "sourceName": "contracts/LeagueFactory.sol",
  "abi": [
    {
      "inputs": [
        {
          "internalType": "address",
          "name": "_userPlayerManager",
          "type": "address"
        }
      ],
      "stateMutability": "nonpayable",
      "type": "constructor"
    },
    {
      "anonymous": false,
      "inputs": [
        {
          "indexed": true,
          "internalType": "uint256",
          "name": "leagueId",
          "type": "uint256"
        },
        {
          "indexed": false,
          "internalType": "address",
          "name": "leagueAddress",
          "type": "address"
        },
        {
          "indexed": false,
          "internalType": "string",
          "name": "name",
          "type": "string"
        },
        {
          "indexed": false,
          "internalType": "address",
          "name": "owner",
          "type": "address"
        }
      ],
      "name": "LeagueCreated",
      "type": "event"
    },
    {
      "inputs": [],
      "name": "admin",
      "outputs": [
        {
          "internalType": "address",
          "name": "",
          "type": "address"
        }
      ],
      "stateMutability": "view",
      "type": "function"
    },
    {
      "inputs": [
        {
          "internalType": "string",
          "name": "name",
          "type": "string"
        },
        {
          "internalType": "uint256",
          "name": "entryFee",
          "type": "uint256"
        },
        {
          "internalType": "uint256",
          "name": "maxTeams",
          "type": "uint256"
        },
        {
          "internalType": "uint256",
          "name": "startTime",
          "type": "uint256"
        },
        {
          "internalType": "uint256",
          "name": "endTime",
          "type": "uint256"
        }
      ],
      "name": "createLeague",
      "outputs": [
        {
          "internalType": "address",
          "name": "",
          "type": "address"
        }
      ],
      "stateMutability": "nonpayable",
      "type": "function"
    },
    {
      "inputs": [],
      "name": "getCurrentLeagueId",
      "outputs": [
        {
          "internalType": "uint256",
          "name": "",
          "type": "uint256"
        }
      ],
      "stateMutability": "view",
      "type": "function"
    },
    {
      "inputs": [
        {
          "internalType": "uint256",
          "name": "leagueId",
          "type": "uint256"
        }
      ],
      "name": "getLeague",
      "outputs": [
        {
          "internalType": "address",
          "name": "",
          "type": "address"
        }
      ],
      "stateMutability": "view",
      "type": "function"
    },
    {
      "inputs": [
        {
          "internalType": "uint256",
          "name": "",
          "type": "uint256"
        }
      ],
      "name": "leagues",
      "outputs": [
        {
          "internalType": "address",
          "name": "",
          "type": "address"
        }
      ],
      "stateMutability": "view",
      "type": "function"
    },
    {
      "inputs": [],
      "name": "userPlayerManager",
      "outputs": [
        {
          "internalType": "contract UserPlayerManager",
          "name": "",
          "type": "address"
        }
      ],
      "stateMutability": "view",
      "type": "function"
    }
  ],
  "bytecode": "0x608060405234801561001057600080fd5b50604051613a49380380613a498339818101604052810190610032919061018b565b600073ffffffffffffffffffffffffffffffffffffffff168173ffffffffffffffffffffffffffffffffffffffff16036100a1576040517f08c379a000000000000000000000000000000000000000000000000000000000815260040161009890610215565b60405180910390fd5b806000806101000a81548173ffffffffffffffffffffffffffffffffffffffff021916908373ffffffffffffffffffffffffffffffffffffffff16021790555033600160006101000a81548173ffffffffffffffffffffffffffffffffffffffff021916908373ffffffffffffffffffffffffffffffffffffffff16021790555050610235565b600080fd5b600073ffffffffffffffffffffffffffffffffffffffff82169050919050565b60006101588261012d565b9050919050565b6101688161014d565b811461017357600080fd5b50565b6000815190506101858161015f565b92915050565b6000602082840312156101a1576101a0610128565b5b60006101af84828501610176565b91505092915050565b600082825260208201905092915050565b7f496e76616c69642055736572506c617965724d616e6167657200000000000000600082015250565b60006101ff6019836101b8565b915061020a826101c9565b602082019050919050565b6000602082019050818103600083015261022e816101f2565b9050919050565b613805806102446000396000f3fe608060405234801561001057600080fd5b50600436106100625760003560e01c806345516aaa146100675780635858f1ce146100975780638a1af815146100c7578063c648fefe146100e5578063f851a44014610115578063f983afd214610133575b600080fd5b610081600480360381019061007c91906104ed565b610151565b60405161008e919061055b565b60405180910390f35b6100b160048036038101906100ac91906106bc565b6101de565b6040516100be919061055b565b60405180910390f35b6100cf61040f565b6040516100dc91906107b2565b60405180910390f35b6100ff60048036038101906100fa91906104ed565b610433565b60405161010c919061055b565b60405180910390f35b61011d610466565b60405161012a919061055b565b60405180910390f35b61013b61048c565b60405161014891906107dc565b60405180910390f35b6000808211801561016457506002548211155b6101a3576040517f08c379a000000000000000000000000000000000000000000000000000000000815260040161019a90610854565b60405180910390fd5b6003600083815260200190815260200160002060009054906101000a900473ffffffffffffffffffffffffffffffffffffffff169050919050565b600080865111610223576040517f08c379a000000000000000000000000000000000000000000000000000000000815260040161021a906108c0565b60405180910390fd5b428311610265576040517f08c379a000000000000000000000000000000000000000000000000000000000815260040161025c9061092c565b60405180910390fd5b8282116102a7576040517f08c379a000000000000000000000000000000000000000000000000000000000815260040161029e90610998565b60405180910390fd5b600084116102ea576040517f08c379a00000000000000000000000000000000000000000000000000000000081526004016102e190610a04565b60405180910390fd5b600260008154809291906102fd90610a53565b9190505550600060025487338888888860008054906101000a900473ffffffffffffffffffffffffffffffffffffffff1660405161033a90610496565b61034b989796959493929190610b09565b604051809103906000f080158015610367573d6000803e3d6000fd5b50905060008190508060036000600254815260200190815260200160002060006101000a81548173ffffffffffffffffffffffffffffffffffffffff021916908373ffffffffffffffffffffffffffffffffffffffff1602179055506002547f34ef2f18b56ed366b97f4893496a42bda57019393602c6d97b9a44545aa17243828a336040516103f993929190610b8e565b60405180910390a2809250505095945050505050565b60008054906101000a900473ffffffffffffffffffffffffffffffffffffffff1681565b60036020528060005260406000206000915054906101000a900473ffffffffffffffffffffffffffffffffffffffff1681565b600160009054906101000a900473ffffffffffffffffffffffffffffffffffffffff1681565b6000600254905090565b612c0380610bcd83390190565b6000604051905090565b600080fd5b600080fd5b6000819050919050565b6104ca816104b7565b81146104d557600080fd5b50565b6000813590506104e7816104c1565b92915050565b600060208284031215610503576105026104ad565b5b6000610511848285016104d8565b91505092915050565b600073ffffffffffffffffffffffffffffffffffffffff82169050919050565b60006105458261051a565b9050919050565b6105558161053a565b82525050565b6000602082019050610570600083018461054c565b92915050565b600080fd5b600080fd5b6000601f19601f8301169050919050565b7f4e487b7100000000000000000000000000000000000000000000000000000000600052604160045260246000fd5b6105c982610580565b810181811067ffffffffffffffff821117156105e8576105e7610591565b5b80604052505050565b60006105fb6104a3565b905061060782826105c0565b919050565b600067ffffffffffffffff82111561062757610626610591565b5b61063082610580565b9050602081019050919050565b82818337600083830152505050565b600061065f61065a8461060c565b6105f1565b90508281526020810184848401111561067b5761067a61057b565b5b61068684828561063d565b509392505050565b600082601f8301126106a3576106a2610576565b5b81356106b384826020860161064c565b91505092915050565b600080600080600060a086880312156106d8576106d76104ad565b5b600086013567ffffffffffffffff8111156106f6576106f56104b2565b5b6107028882890161068e565b9550506020610713888289016104d8565b9450506040610724888289016104d8565b9350506060610735888289016104d8565b9250506080610746888289016104d8565b9150509295509295909350565b6000819050919050565b600061077861077361076e8461051a565b610753565b61051a565b9050919050565b600061078a8261075d565b9050919050565b600061079c8261077f565b9050919050565b6107ac81610791565b82525050565b60006020820190506107c760008301846107a3565b92915050565b6107d6816104b7565b82525050565b60006020820190506107f160008301846107cd565b92915050565b600082825260208201905092915050565b7f496e76616c6964206c6561677565204944000000000000000000000000000000600082015250565b600061083e6011836107f7565b915061084982610808565b602082019050919050565b6000602082019050818103600083015261086d81610831565b9050919050565b7f456d707479206e616d6500000000000000000000000000000000000000000000600082015250565b60006108aa600a836107f7565b91506108b582610874565b602082019050919050565b600060208201905081810360008301526108d98161089d565b9050919050565b7f53746172742074696d65206d7573742062652066757475726500000000000000600082015250565b60006109166019836107f7565b9150610921826108e0565b602082019050919050565b6000602082019050818103600083015261094581610909565b9050919050565b7f456e642074696d65206d75737420626520616674657220737461727400000000600082015250565b6000610982601c836107f7565b915061098d8261094c565b602082019050919050565b600060208201905081810360008301526109b181610975565b9050919050565b7f496e76616c6964206d6178207465616d73000000000000000000000000000000600082015250565b60006109ee6011836107f7565b91506109f9826109b8565b602082019050919050565b60006020820190508181036000830152610a1d816109e1565b9050919050565b7f4e487b7100000000000000000000000000000000000000000000000000000000600052601160045260246000fd5b6000610a5e826104b7565b91507fffffffffffffffffffffffffffffffffffffffffffffffffffffffffffffffff8203610a9057610a8f610a24565b5b600182019050919050565b600081519050919050565b60005b83811015610ac4578082015181840152602081019050610aa9565b60008484015250505050565b6000610adb82610a9b565b610ae581856107f7565b9350610af5818560208601610aa6565b610afe81610580565b840191505092915050565b600061010082019050610b1f600083018b6107cd565b8181036020830152610b31818a610ad0565b9050610b40604083018961054c565b610b4d60608301886107cd565b610b5a60808301876107cd565b610b6760a08301866107cd565b610b7460c08301856107cd565b610b8160e083018461054c565b9998505050505050505050565b6000606082019050610ba3600083018661054c565b8181036020830152610bb58185610ad0565b9050610bc4604083018461054c565b94935050505056fe608060405234801561001057600080fd5b50604051612c03380380612c0383398181016040528101906100329190610320565b8760008190555086600190816100489190610609565b5085600260006101000a81548173ffffffffffffffffffffffffffffffffffffffff021916908373ffffffffffffffffffffffffffffffffffffffff160217905550846003819055508360048190555082600581905550816006819055506001600860006101000a81548160ff02191690831515021790555080600860016101000a81548173ffffffffffffffffffffffffffffffffffffffff021916908373ffffffffffffffffffffffffffffffffffffffff1602179055506001600e8190555050505050505050506106db565b6000604051905090565b600080fd5b600080fd5b6000819050919050565b61013e8161012b565b811461014957600080fd5b50565b60008151905061015b81610135565b92915050565b600080fd5b600080fd5b6000601f19601f8301169050919050565b7f4e487b7100000000000000000000000000000000000000000000000000000000600052604160045260246000fd5b6101b48261016b565b810181811067ffffffffffffffff821117156101d3576101d261017c565b5b80604052505050565b60006101e6610117565b90506101f282826101ab565b919050565b600067ffffffffffffffff8211156102125761021161017c565b5b61021b8261016b565b9050602081019050919050565b60005b8381101561024657808201518184015260208101905061022b565b60008484015250505050565b6000610265610260846101f7565b6101dc565b90508281526020810184848401111561028157610280610166565b5b61028c848285610228565b509392505050565b600082601f8301126102a9576102a8610161565b5b81516102b9848260208601610252565b91505092915050565b600073ffffffffffffffffffffffffffffffffffffffff82169050919050565b60006102ed826102c2565b9050919050565b6102fd816102e2565b811461030857600080fd5b50565b60008151905061031a816102f4565b92915050565b600080600080600080600080610100898b03121561034157610340610121565b5b600061034f8b828c0161014c565b985050602089015167ffffffffffffffff8111156103705761036f610126565b5b61037c8b828c01610294565b975050604061038d8b828c0161030b565b965050606061039e8b828c0161014c565b95505060806103af8b828c0161014c565b94505060a06103c08b828c0161014c565b93505060c06103d18b828c0161014c565b92505060e06103e28b828c0161030b565b9150509295985092959890939650565b600081519050919050565b7f4e487b7100000000000000000000000000000000000000000000000000000000600052602260045260246000fd5b6000600282049050600182168061044457607f821691505b602082108103610457576104566103fd565b5b50919050565b60008190508160005260206000209050919050565b60006020601f8301049050919050565b600082821b905092915050565b6000600883026104bf7fffffffffffffffffffffffffffffffffffffffffffffffffffffffffffffffff82610482565b6104c98683610482565b95508019841693508086168417925050509392505050565b6000819050919050565b60006105066105016104fc8461012b565b6104e1565b61012b565b9050919050565b6000819050919050565b610520836104eb565b61053461052c8261050d565b84845461048f565b825550505050565b600090565b61054961053c565b610554818484610517565b505050565b5b818110156105785761056d600082610541565b60018101905061055a565b5050565b601f8211156105bd5761058e8161045d565b61059784610472565b810160208510156105a6578190505b6105ba6105b285610472565b830182610559565b50505b505050565b600082821c905092915050565b60006105e0600019846008026105c2565b1980831691505092915050565b60006105f983836105cf565b9150826002028217905092915050565b610612826103f2565b67ffffffffffffffff81111561062b5761062a61017c565b5b610635825461042c565b61064082828561057c565b600060209050601f8311600181146106735760008415610661578287015190505b61066b85826105ed565b8655506106d3565b601f1984166106818661045d565b60005b828110156106a957848901518255600182019150602085019450602081019050610684565b868310156106c657848901516106c2601f8916826105cf565b8355505b6001600288020188555050505b505050505050565b612519806106ea6000396000f3fe6080604052600436106101355760003560e01c8063464800af116100ab57806378e979251161006f57806378e979251461041f5780638a1af8151461044a5780638da5cb5b146104755780639a7c1fd1146104a0578063c4583240146104dd578063f93d81241461051c57610135565b8063464800af146103455780634861df70146103705780634e39c22c1461038c5780636eb227ce146103c957806376f5f700146103f457610135565b80630a3f5a42116100fd5780630a3f5a4214610221578063224404d31461024a578063287e4a5f146102755780633197cbb6146102b257806335c1d349146102dd578063398ab9a71461031a57610135565b806302fb0c5e1461013a578063061a2f501461016557806306fdde03146101a2578063072ea61c146101cd57806309648b26146101f8575b600080fd5b34801561014657600080fd5b5061014f610545565b60405161015c919061177f565b60405180910390f35b34801561017157600080fd5b5061018c60048036038101906101879190611838565b610558565b6040516101999190611887565b60405180910390f35b3480156101ae57600080fd5b506101b7610769565b6040516101c49190611932565b60405180910390f35b3480156101d957600080fd5b506101e26107f7565b6040516101ef9190611887565b60405180910390f35b34801561020457600080fd5b5061021f600480360381019061021a9190611954565b6107fd565b005b34801561022d57600080fd5b5061024860048036038101906102439190611954565b6109f4565b005b34801561025657600080fd5b5061025f610c56565b60405161026c9190611887565b60405180910390f35b34801561028157600080fd5b5061029c60048036038101906102979190611954565b610c5c565b6040516102a99190611887565b60405180910390f35b3480156102be57600080fd5b506102c7610c74565b6040516102d49190611887565b60405180910390f35b3480156102e957600080fd5b5061030460048036038101906102ff9190611954565b610c7a565b6040516103119190611990565b60405180910390f35b34801561032657600080fd5b5061032f610cb9565b60405161033c9190611887565b60405180910390f35b34801561035157600080fd5b5061035a610cbf565b6040516103679190611887565b60405180910390f35b61038a60048036038101906103859190611a10565b610cc5565b005b34801561039857600080fd5b506103b360048036038101906103ae9190611954565b61123a565b6040516103c09190611990565b60405180910390f35b3480156103d557600080fd5b506103de61126d565b6040516103eb9190611887565b60405180910390f35b34801561040057600080fd5b506104096112a4565b6040516104169190611887565b60405180910390f35b34801561042b57600080fd5b506104346112ab565b6040516104419190611887565b60405180910390f35b34801561045657600080fd5b5061045f6112b1565b60405161046c9190611abc565b60405180910390f35b34801561048157600080fd5b5061048a6112d7565b6040516104979190611990565b60405180910390f35b3480156104ac57600080fd5b506104c760048036038101906104c29190611954565b6112fd565b6040516104d4919061177f565b60405180910390f35b3480156104e957600080fd5b5061050460048036038101906104ff9190611ad7565b61131d565b60405161051393929190611b04565b60405180910390f35b34801561052857600080fd5b50610543600480360381019061053e9190611954565b611374565b005b600860009054906101000a900460ff1681565b6000600960008473ffffffffffffffffffffffffffffffffffffffff1673ffffffffffffffffffffffffffffffffffffffff16815260200190815260200160002060030160009054906101000a900460ff166105e9576040517f08c379a00000000000000000000000000000000000000000000000000000000081526004016105e090611b87565b60405180910390fd5b600080600960008673ffffffffffffffffffffffffffffffffffffffff1673ffffffffffffffffffffffffffffffffffffffff16815260200190815260200160002060010180548060200260200160405190810160405280929190818152602001828054801561067857602002820191906000526020600020905b815481526020019060010190808311610664575b5050505050905060005b815181101561075d57600860019054906101000a900473ffffffffffffffffffffffffffffffffffffffff1673ffffffffffffffffffffffffffffffffffffffff1663de03fd358383815181106106dc576106db611ba7565b5b6020026020010151876040518363ffffffff1660e01b8152600401610702929190611bd6565b602060405180830381865afa15801561071f573d6000803e3d6000fd5b505050506040513d601f19601f820116820180604052508101906107439190611c14565b8361074e9190611c70565b92508080600101915050610682565b50819250505092915050565b6001805461077690611cd3565b80601f01602080910402602001604051908101604052809291908181526020018280546107a290611cd3565b80156107ef5780601f106107c4576101008083540402835291602001916107ef565b820191906000526020600020905b8154815290600101906020018083116107d257829003601f168201915b505050505081565b60035481565b600260009054906101000a900473ffffffffffffffffffffffffffffffffffffffff1673ffffffffffffffffffffffffffffffffffffffff163373ffffffffffffffffffffffffffffffffffffffff161461088d576040517f08c379a000000000000000000000000000000000000000000000000000000000815260040161088490611d50565b60405180910390fd5b62093a808161089c9190611d70565b6005546108a99190611c70565b4210156108eb576040517f08c379a00000000000000000000000000000000000000000000000000000000081526004016108e290611dfe565b60405180910390fd5b60005b600a805490508110156109f0576000600a828154811061091157610910611ba7565b5b9060005260206000200160009054906101000a900473ffffffffffffffffffffffffffffffffffffffff169050600061094a8285610558565b905080600960008473ffffffffffffffffffffffffffffffffffffffff1673ffffffffffffffffffffffffffffffffffffffff168152602001908152602001600020600201819055508173ffffffffffffffffffffffffffffffffffffffff167fa05f39e6d8d4e060324edb900f0f5909de621fd93f19ccf65ba74e5965c98c36826040516109d99190611887565b60405180910390a2505080806001019150506108ee565b5050565b6002600e5403610a39576040517f08c379a0000000000000000000000000000000000000000000000000000000008152600401610a3090611e6a565b60405180910390fd5b6002600e81905550600c600082815260200190815260200160002060009054906101000a900460ff16610aa1576040517f08c379a0000000000000000000000000000000000000000000000000000000008152600401610a9890611ed6565b60405180910390fd5b3373ffffffffffffffffffffffffffffffffffffffff16600b600083815260200190815260200160002060009054906101000a900473ffffffffffffffffffffffffffffffffffffffff1673ffffffffffffffffffffffffffffffffffffffff1614610b42576040517f08c379a0000000000000000000000000000000000000000000000000000000008152600401610b3990611f42565b60405180910390fd5b6000600d60008381526020019081526020016000205411610b98576040517f08c379a0000000000000000000000000000000000000000000000000000000008152600401610b8f90611fae565b60405180910390fd5b6000600d60008381526020019081526020016000205490506000600d6000848152602001908152602001600020819055503373ffffffffffffffffffffffffffffffffffffffff166108fc829081150290604051600060405180830381858888f19350505050158015610c0f573d6000803e3d6000fd5b50817f24b5efa61dd1cfc659205a97fb8ed868f3cb8c81922bab2b96423e5de1de2cb73383604051610c42929190611fce565b60405180910390a2506001600e8190555050565b60045481565b600d6020528060005260406000206000915090505481565b60065481565b600a8181548110610c8a57600080fd5b906000526020600020016000915054906101000a900473ffffffffffffffffffffffffffffffffffffffff1681565b60075481565b60005481565b6002600e5403610d0a576040517f08c379a0000000000000000000000000000000000000000000000000000000008152600401610d0190611e6a565b60405180910390fd5b6002600e81905550600860009054906101000a900460ff16610d61576040517f08c379a0000000000000000000000000000000000000000000000000000000008152600401610d5890612043565b60405180910390fd5b6005544210610da5576040517f08c379a0000000000000000000000000000000000000000000000000000000008152600401610d9c906120af565b60405180910390fd5b6003543414610de9576040517f08c379a0000000000000000000000000000000000000000000000000000000008152600401610de09061211b565b60405180910390fd5b600454600a8054905010610e32576040517f08c379a0000000000000000000000000000000000000000000000000000000008152600401610e2990612187565b60405180910390fd5b600960003373ffffffffffffffffffffffffffffffffffffffff1673ffffffffffffffffffffffffffffffffffffffff16815260200190815260200160002060030160009054906101000a900460ff1615610ec2576040517f08c379a0000000000000000000000000000000000000000000000000000000008152600401610eb9906121f3565b60405180910390fd5b600860019054906101000a900473ffffffffffffffffffffffffffffffffffffffff1673ffffffffffffffffffffffffffffffffffffffff1663c40717f683836040518363ffffffff1660e01b8152600401610f1f92919061228e565b602060405180830381865afa158015610f3c573d6000803e3d6000fd5b505050506040513d601f19601f82011682018060405250810190610f6091906122de565b610f9f576040517f08c379a0000000000000000000000000000000000000000000000000000000008152600401610f9690612357565b60405180910390fd5b60405180608001604052803373ffffffffffffffffffffffffffffffffffffffff168152602001838380806020026020016040519081016040528093929190818152602001838360200280828437600081840152601f19601f8201169050808301925050505050505081526020016000815260200160011515815250600960003373ffffffffffffffffffffffffffffffffffffffff1673ffffffffffffffffffffffffffffffffffffffff16815260200190815260200160002060008201518160000160006101000a81548173ffffffffffffffffffffffffffffffffffffffff021916908373ffffffffffffffffffffffffffffffffffffffff16021790555060208201518160010190805190602001906110bd9291906116fa565b506040820151816002015560608201518160030160006101000a81548160ff021916908315150217905550905050600a339080600181540180825580915050600190039060005260206000200160009091909190916101000a81548173ffffffffffffffffffffffffffffffffffffffff021916908373ffffffffffffffffffffffffffffffffffffffff16021790555034600760008282546111609190611c70565b92505081905550600062093a8060055460065461117d9190612377565b61118791906123da565b90506000814761119791906123da565b905060005b828110156111db5781600d600083815260200190815260200160002060008282546111c79190611c70565b92505081905550808060010191505061119c565b503373ffffffffffffffffffffffffffffffffffffffff167f06f957774f9db1179719c2fe74b52ae0dc4e6829120a3b65cf4cce07edfbd3b9858560405161122492919061228e565b60405180910390a250506001600e819055505050565b600b6020528060005260406000206000915054906101000a900473ffffffffffffffffffffffffffffffffffffffff1681565b600060055442101561128257600090506112a1565b62093a80600554426112949190612377565b61129e91906123da565b90505b90565b62093a8081565b60055481565b600860019054906101000a900473ffffffffffffffffffffffffffffffffffffffff1681565b600260009054906101000a900473ffffffffffffffffffffffffffffffffffffffff1681565b600c6020528060005260406000206000915054906101000a900460ff1681565b60096020528060005260406000206000915090508060000160009054906101000a900473ffffffffffffffffffffffffffffffffffffffff16908060020154908060030160009054906101000a900460ff16905083565b600260009054906101000a900473ffffffffffffffffffffffffffffffffffffffff1673ffffffffffffffffffffffffffffffffffffffff163373ffffffffffffffffffffffffffffffffffffffff1614611404576040517f08c379a00000000000000000000000000000000000000000000000000000000081526004016113fb90611d50565b60405180910390fd5b62093a80816114139190611d70565b6005546114209190611c70565b421015611462576040517f08c379a000000000000000000000000000000000000000000000000000000000815260040161145990611dfe565b60405180910390fd5b600c600082815260200190815260200160002060009054906101000a900460ff16156114c3576040517f08c379a00000000000000000000000000000000000000000000000000000000081526004016114ba90612457565b60405180910390fd5b60008060005b600a805490508110156115ba576000600a82815481106114ec576114eb611ba7565b5b9060005260206000200160009054906101000a900473ffffffffffffffffffffffffffffffffffffffff16905082600960008373ffffffffffffffffffffffffffffffffffffffff1673ffffffffffffffffffffffffffffffffffffffff1681526020019081526020016000206002015411156115ac57600960008273ffffffffffffffffffffffffffffffffffffffff1673ffffffffffffffffffffffffffffffffffffffff1681526020019081526020016000206002015492508093505b5080806001019150506114c9565b50600073ffffffffffffffffffffffffffffffffffffffff168273ffffffffffffffffffffffffffffffffffffffff160361162a576040517f08c379a0000000000000000000000000000000000000000000000000000000008152600401611621906124c3565b60405180910390fd5b81600b600085815260200190815260200160002060006101000a81548173ffffffffffffffffffffffffffffffffffffffff021916908373ffffffffffffffffffffffffffffffffffffffff1602179055506001600c600085815260200190815260200160002060006101000a81548160ff021916908315150217905550827f9e8a46942c293ec4ea2406e2a6e4316c256cb47656af7d5b260188d95b7de74983600d6000878152602001908152602001600020546040516116ed929190611fce565b60405180910390a2505050565b828054828255906000526020600020908101928215611736579160200282015b8281111561173557825182559160200191906001019061171a565b5b5090506117439190611747565b5090565b5b80821115611760576000816000905550600101611748565b5090565b60008115159050919050565b61177981611764565b82525050565b60006020820190506117946000830184611770565b92915050565b600080fd5b600080fd5b600073ffffffffffffffffffffffffffffffffffffffff82169050919050565b60006117cf826117a4565b9050919050565b6117df816117c4565b81146117ea57600080fd5b50565b6000813590506117fc816117d6565b92915050565b6000819050919050565b61181581611802565b811461182057600080fd5b50565b6000813590506118328161180c565b92915050565b6000806040838503121561184f5761184e61179a565b5b600061185d858286016117ed565b925050602061186e85828601611823565b9150509250929050565b61188181611802565b82525050565b600060208201905061189c6000830184611878565b92915050565b600081519050919050565b600082825260208201905092915050565b60005b838110156118dc5780820151818401526020810190506118c1565b60008484015250505050565b6000601f19601f8301169050919050565b6000611904826118a2565b61190e81856118ad565b935061191e8185602086016118be565b611927816118e8565b840191505092915050565b6000602082019050818103600083015261194c81846118f9565b905092915050565b60006020828403121561196a5761196961179a565b5b600061197884828501611823565b91505092915050565b61198a816117c4565b82525050565b60006020820190506119a56000830184611981565b92915050565b600080fd5b600080fd5b600080fd5b60008083601f8401126119d0576119cf6119ab565b5b8235905067ffffffffffffffff8111156119ed576119ec6119b0565b5b602083019150836020820283011115611a0957611a086119b5565b5b9250929050565b60008060208385031215611a2757611a2661179a565b5b600083013567ffffffffffffffff811115611a4557611a4461179f565b5b611a51858286016119ba565b92509250509250929050565b6000819050919050565b6000611a82611a7d611a78846117a4565b611a5d565b6117a4565b9050919050565b6000611a9482611a67565b9050919050565b6000611aa682611a89565b9050919050565b611ab681611a9b565b82525050565b6000602082019050611ad16000830184611aad565b92915050565b600060208284031215611aed57611aec61179a565b5b6000611afb848285016117ed565b91505092915050565b6000606082019050611b196000830186611981565b611b266020830185611878565b611b336040830184611770565b949350505050565b7f5465616d206e6f74207265676973746572656400000000000000000000000000600082015250565b6000611b716013836118ad565b9150611b7c82611b3b565b602082019050919050565b60006020820190508181036000830152611ba081611b64565b9050919050565b7f4e487b7100000000000000000000000000000000000000000000000000000000600052603260045260246000fd5b6000604082019050611beb6000830185611878565b611bf86020830184611878565b9392505050565b600081519050611c0e8161180c565b92915050565b600060208284031215611c2a57611c2961179a565b5b6000611c3884828501611bff565b91505092915050565b7f4e487b7100000000000000000000000000000000000000000000000000000000600052601160045260246000fd5b6000611c7b82611802565b9150611c8683611802565b9250828201905080821115611c9e57611c9d611c41565b5b92915050565b7f4e487b7100000000000000000000000000000000000000000000000000000000600052602260045260246000fd5b60006002820490506001821680611ceb57607f821691505b602082108103611cfe57611cfd611ca4565b5b50919050565b7f4f6e6c79206f776e65722063616e2063616c6c00000000000000000000000000600082015250565b6000611d3a6013836118ad565b9150611d4582611d04565b602082019050919050565b60006020820190508181036000830152611d6981611d2d565b9050919050565b6000611d7b82611802565b9150611d8683611802565b9250828202611d9481611802565b91508282048414831517611dab57611daa611c41565b5b5092915050565b7f5765656b206e6f742066696e6973686564000000000000000000000000000000600082015250565b6000611de86011836118ad565b9150611df382611db2565b602082019050919050565b60006020820190508181036000830152611e1781611ddb565b9050919050565b7f5265656e7472616e637947756172643a207265656e7472616e742063616c6c00600082015250565b6000611e54601f836118ad565b9150611e5f82611e1e565b602082019050919050565b60006020820190508181036000830152611e8381611e47565b9050919050565b7f57696e6e6572206e6f74206465636c6172656400000000000000000000000000600082015250565b6000611ec06013836118ad565b9150611ecb82611e8a565b602082019050919050565b60006020820190508181036000830152611eef81611eb3565b9050919050565b7f4e6f74207468652077696e6e6572000000000000000000000000000000000000600082015250565b6000611f2c600e836118ad565b9150611f3782611ef6565b602082019050919050565b60006020820190508181036000830152611f5b81611f1f565b9050919050565b7f4e6f207072697a6520746f20636c61696d000000000000000000000000000000600082015250565b6000611f986011836118ad565b9150611fa382611f62565b602082019050919050565b60006020820190508181036000830152611fc781611f8b565b9050919050565b6000604082019050611fe36000830185611981565b611ff06020830184611878565b9392505050565b7f4c6561677565206973206e6f7420616374697665000000000000000000000000600082015250565b600061202d6014836118ad565b915061203882611ff7565b602082019050919050565b6000602082019050818103600083015261205c81612020565b9050919050565b7f4c65616775652068617320737461727465640000000000000000000000000000600082015250565b60006120996012836118ad565b91506120a482612063565b602082019050919050565b600060208201905081810360008301526120c88161208c565b9050919050565b7f496e636f727265637420656e7472792066656500000000000000000000000000600082015250565b60006121056013836118ad565b9150612110826120cf565b602082019050919050565b60006020820190508181036000830152612134816120f8565b9050919050565b7f4c65616775652069732066756c6c000000000000000000000000000000000000600082015250565b6000612171600e836118ad565b915061217c8261213b565b602082019050919050565b600060208201905081810360008301526121a081612164565b9050919050565b7f5465616d20616c72656164792072656769737465726564000000000000000000600082015250565b60006121dd6017836118ad565b91506121e8826121a7565b602082019050919050565b6000602082019050818103600083015261220c816121d0565b9050919050565b600082825260208201905092915050565b600080fd5b82818337505050565b600061223e8385612213565b93507f07ffffffffffffffffffffffffffffffffffffffffffffffffffffffffffffff83111561227157612270612224565b5b602083029250612282838584612229565b82840190509392505050565b600060208201905081810360008301526122a9818486612232565b90509392505050565b6122bb81611764565b81146122c657600080fd5b50565b6000815190506122d8816122b2565b92915050565b6000602082840312156122f4576122f361179a565b5b6000612302848285016122c9565b91505092915050565b7f496e76616c6964207465616d0000000000000000000000000000000000000000600082015250565b6000612341600c836118ad565b915061234c8261230b565b602082019050919050565b6000602082019050818103600083015261237081612334565b9050919050565b600061238282611802565b915061238d83611802565b92508282039050818111156123a5576123a4611c41565b5b92915050565b7f4e487b7100000000000000000000000000000000000000000000000000000000600052601260045260246000fd5b60006123e582611802565b91506123f083611802565b925082612400576123ff6123ab565b5b828204905092915050565b7f416c7265616479206465636c6172656400000000000000000000000000000000600082015250565b60006124416010836118ad565b915061244c8261240b565b602082019050919050565b6000602082019050818103600083015261247081612434565b9050919050565b7f4e6f2077696e6e657220666f756e640000000000000000000000000000000000600082015250565b60006124ad600f836118ad565b91506124b882612477565b602082019050919050565b600060208201905081810360008301526124dc816124a0565b905091905056fea2646970667358221220947d82be014327cf970712ad5d71abdb2987c08cd1efe1b068b7979e4e08421764736f6c634300081b0033a2646970667358221220c03aff46f68dad38d47bf74c93057f4407fff54cbce538df670f8f67dd12813764736f6c634300081b0033",
  "linkReferences": {},
  "deployedLinkReferences": {}
}