{
  "_format": "hh-sol-artifact-1",
  "contractName": "UserPlayerManager",
  "sourceName": "contracts/UserPlayerManager.sol",
  "abi": [
    {
      "inputs": [],
      "stateMutability": "nonpayable",
      "type": "constructor"
    },
    {
      "anonymous": false,
      "inputs": [
        {
          "indexed": true,
          "internalType": "address",
          "name": "sender",
          "type": "address"
        },
        {
          "indexed": false,
          "internalType": "uint256",
          "name": "amount",
          "type": "uint256"
        }
      ],
      "name": "DepositSuccessful",
      "type": "event"
    },
    {
      "anonymous": false,
      "inputs": [
        {
          "indexed": true,
          "internalType": "uint256",
          "name": "playerId",
          "type": "uint256"
        },
        {
          "indexed": false,
          "internalType": "string",
          "name": "name",
          "type": "string"
        },
        {
          "indexed": false,
          "internalType": "string",
          "name": "club",
          "type": "string"
        },
        {
          "indexed": false,
          "internalType": "uint256",
          "name": "position",
          "type": "uint256"
        },
        {
          "indexed": false,
          "internalType": "uint256",
          "name": "price",
          "type": "uint256"
        }
      ],
      "name": "PlayerCreated",
      "type": "event"
    },
    {
      "anonymous": false,
      "inputs": [
        {
          "indexed": true,
          "internalType": "uint256",
          "name": "playerId",
          "type": "uint256"
        },
        {
          "indexed": false,
          "internalType": "uint256",
          "name": "weekNumber",
          "type": "uint256"
        },
        {
          "indexed": false,
          "internalType": "uint256",
          "name": "points",
          "type": "uint256"
        }
      ],
      "name": "PlayerPointsUpdated",
      "type": "event"
    },
    {
      "anonymous": false,
      "inputs": [
        {
          "indexed": true,
          "internalType": "address",
          "name": "user",
          "type": "address"
        },
        {
          "indexed": false,
          "internalType": "string",
          "name": "name",
          "type": "string"
        }
      ],
      "name": "UserRegistered",
      "type": "event"
    },
    {
      "anonymous": false,
      "inputs": [
        {
          "indexed": true,
          "internalType": "address",
          "name": "receiver",
          "type": "address"
        },
        {
          "indexed": false,
          "internalType": "uint256",
          "name": "amount",
          "type": "uint256"
        }
      ],
      "name": "WithdrawSuccessful",
      "type": "event"
    },
    {
      "inputs": [],
      "name": "REQUIRED_DEFENDERS",
      "outputs": [
        {
          "internalType": "uint256",
          "name": "",
          "type": "uint256"
        }
      ],
      "stateMutability": "view",
      "type": "function"
    },
    {
      "inputs": [],
      "name": "REQUIRED_FORWARDS",
      "outputs": [
        {
          "internalType": "uint256",
          "name": "",
          "type": "uint256"
        }
      ],
      "stateMutability": "view",
      "type": "function"
    },
    {
      "inputs": [],
      "name": "REQUIRED_GOALKEEPERS",
      "outputs": [
        {
          "internalType": "uint256",
          "name": "",
          "type": "uint256"
        }
      ],
      "stateMutability": "view",
      "type": "function"
    },
    {
      "inputs": [],
      "name": "REQUIRED_MIDFIELDERS",
      "outputs": [
        {
          "internalType": "uint256",
          "name": "",
          "type": "uint256"
        }
      ],
      "stateMutability": "view",
      "type": "function"
    },
    {
      "inputs": [],
      "name": "TEAM_SIZE",
      "outputs": [
        {
          "internalType": "uint256",
          "name": "",
          "type": "uint256"
        }
      ],
      "stateMutability": "view",
      "type": "function"
    },
    {
      "inputs": [
        {
          "internalType": "address",
          "name": "_user",
          "type": "address"
        },
        {
          "internalType": "uint256",
          "name": "_leagueId",
          "type": "uint256"
        }
      ],
      "name": "addUserLeague",
      "outputs": [],
      "stateMutability": "nonpayable",
      "type": "function"
    },
    {
      "inputs": [],
      "name": "admin",
      "outputs": [
        {
          "internalType": "address",
          "name": "",
          "type": "address"
        }
      ],
      "stateMutability": "view",
      "type": "function"
    },
    {
      "inputs": [
        {
          "internalType": "uint256[]",
          "name": "playerIds",
          "type": "uint256[]"
        }
      ],
      "name": "calculateTeamValue",
      "outputs": [
        {
          "internalType": "uint256",
          "name": "",
          "type": "uint256"
        }
      ],
      "stateMutability": "view",
      "type": "function"
    },
    {
      "inputs": [
        {
          "internalType": "string",
          "name": "_name",
          "type": "string"
        },
        {
          "internalType": "string",
          "name": "_club",
          "type": "string"
        },
        {
          "internalType": "uint256",
          "name": "_position",
          "type": "uint256"
        },
        {
          "internalType": "uint256",
          "name": "_price",
          "type": "uint256"
        }
      ],
      "name": "createPlayer",
      "outputs": [],
      "stateMutability": "nonpayable",
      "type": "function"
    },
    {
      "inputs": [],
      "name": "deposit",
      "outputs": [],
      "stateMutability": "payable",
      "type": "function"
    },
    {
      "inputs": [
        {
          "internalType": "address",
          "name": "_user",
          "type": "address"
        }
      ],
      "name": "getBalance",
      "outputs": [
        {
          "internalType": "uint256",
          "name": "",
          "type": "uint256"
        }
      ],
      "stateMutability": "view",
      "type": "function"
    },
    {
      "inputs": [
        {
          "internalType": "uint256",
          "name": "_playerId",
          "type": "uint256"
        }
      ],
      "name": "getPlayer",
      "outputs": [
        {
          "internalType": "string",
          "name": "name",
          "type": "string"
        },
        {
          "internalType": "string",
          "name": "club",
          "type": "string"
        },
        {
          "internalType": "uint256",
          "name": "position",
          "type": "uint256"
        },
        {
          "internalType": "uint256",
          "name": "price",
          "type": "uint256"
        },
        {
          "internalType": "uint256",
          "name": "points",
          "type": "uint256"
        },
        {
          "internalType": "bool",
          "name": "isActive",
          "type": "bool"
        }
      ],
      "stateMutability": "view",
      "type": "function"
    },
    {
      "inputs": [
        {
          "internalType": "uint256",
          "name": "_playerId",
          "type": "uint256"
        },
        {
          "internalType": "uint256",
          "name": "_weekNumber",
          "type": "uint256"
        }
      ],
      "name": "getPlayerWeeklyPoints",
      "outputs": [
        {
          "internalType": "uint256",
          "name": "",
          "type": "uint256"
        }
      ],
      "stateMutability": "view",
      "type": "function"
    },
    {
      "inputs": [],
      "name": "playerCounter",
      "outputs": [
        {
          "internalType": "uint256",
          "name": "",
          "type": "uint256"
        }
      ],
      "stateMutability": "view",
      "type": "function"
    },
    {
      "inputs": [
        {
          "internalType": "string",
          "name": "",
          "type": "string"
        }
      ],
      "name": "playerNameExists",
      "outputs": [
        {
          "internalType": "bool",
          "name": "",
          "type": "bool"
        }
      ],
      "stateMutability": "view",
      "type": "function"
    },
    {
      "inputs": [
        {
          "internalType": "uint256",
          "name": "",
          "type": "uint256"
        }
      ],
      "name": "players",
      "outputs": [
        {
          "internalType": "uint256",
          "name": "playerId",
          "type": "uint256"
        },
        {
          "internalType": "string",
          "name": "name",
          "type": "string"
        },
        {
          "internalType": "string",
          "name": "club",
          "type": "string"
        },
        {
          "internalType": "uint256",
          "name": "position",
          "type": "uint256"
        },
        {
          "internalType": "uint256",
          "name": "price",
          "type": "uint256"
        },
        {
          "internalType": "uint256",
          "name": "points",
          "type": "uint256"
        },
        {
          "internalType": "bool",
          "name": "isActive",
          "type": "bool"
        }
      ],
      "stateMutability": "view",
      "type": "function"
    },
    {
      "inputs": [
        {
          "internalType": "string",
          "name": "_name",
          "type": "string"
        }
      ],
      "name": "registerUser",
      "outputs": [],
      "stateMutability": "nonpayable",
      "type": "function"
    },
    {
      "inputs": [
        {
          "internalType": "uint256",
          "name": "_playerId",
          "type": "uint256"
        },
        {
          "internalType": "string",
          "name": "_club",
          "type": "string"
        },
        {
          "internalType": "uint256",
          "name": "_position",
          "type": "uint256"
        },
        {
          "internalType": "uint256",
          "name": "_price",
          "type": "uint256"
        },
        {
          "internalType": "bool",
          "name": "_isActive",
          "type": "bool"
        }
      ],
      "name": "updatePlayer",
      "outputs": [],
      "stateMutability": "nonpayable",
      "type": "function"
    },
    {
      "inputs": [
        {
          "internalType": "address",
          "name": "_user",
          "type": "address"
        },
        {
          "internalType": "uint256",
          "name": "_amount",
          "type": "uint256"
        }
      ],
      "name": "updateUserBalances",
      "outputs": [],
      "stateMutability": "nonpayable",
      "type": "function"
    },
    {
      "inputs": [
        {
          "internalType": "uint256",
          "name": "_playerId",
          "type": "uint256"
        },
        {
          "internalType": "uint256",
          "name": "_weekNumber",
          "type": "uint256"
        },
        {
          "internalType": "uint256",
          "name": "_points",
          "type": "uint256"
        }
      ],
      "name": "updateWeeklyPoints",
      "outputs": [],
      "stateMutability": "nonpayable",
      "type": "function"
    },
    {
      "inputs": [
        {
          "internalType": "address",
          "name": "",
          "type": "address"
        }
      ],
      "name": "userBalances",
      "outputs": [
        {
          "internalType": "uint256",
          "name": "",
          "type": "uint256"
        }
      ],
      "stateMutability": "view",
      "type": "function"
    },
    {
      "inputs": [],
      "name": "userCounter",
      "outputs": [
        {
          "internalType": "uint256",
          "name": "",
          "type": "uint256"
        }
      ],
      "stateMutability": "view",
      "type": "function"
    },
    {
      "inputs": [
        {
          "internalType": "address",
          "name": "",
          "type": "address"
        },
        {
          "internalType": "uint256",
          "name": "",
          "type": "uint256"
        }
      ],
      "name": "userLeagues",
      "outputs": [
        {
          "internalType": "uint256",
          "name": "",
          "type": "uint256"
        }
      ],
      "stateMutability": "view",
      "type": "function"
    },
    {
      "inputs": [
        {
          "internalType": "address",
          "name": "",
          "type": "address"
        }
      ],
      "name": "users",
      "outputs": [
        {
          "internalType": "uint256",
          "name": "id",
          "type": "uint256"
        },
        {
          "internalType": "string",
          "name": "name",
          "type": "string"
        },
        {
          "internalType": "bool",
          "name": "isRegistered",
          "type": "bool"
        }
      ],
      "stateMutability": "view",
      "type": "function"
    },
    {
      "inputs": [
        {
          "internalType": "uint256[]",
          "name": "playerIds",
          "type": "uint256[]"
        }
      ],
      "name": "validateTeamPlayers",
      "outputs": [
        {
          "internalType": "bool",
          "name": "",
          "type": "bool"
        }
      ],
      "stateMutability": "view",
      "type": "function"
    },
    {
      "inputs": [
        {
          "internalType": "uint256",
          "name": "",
          "type": "uint256"
        },
        {
          "internalType": "uint256",
          "name": "",
          "type": "uint256"
        }
      ],
      "name": "weeklyPlayerPoints",
      "outputs": [
        {
          "internalType": "uint256",
          "name": "",
          "type": "uint256"
        }
      ],
      "stateMutability": "view",
      "type": "function"
    },
    {
      "inputs": [
        {
          "internalType": "uint256",
          "name": "_amount",
          "type": "uint256"
        }
      ],
      "name": "withdraw",
      "outputs": [],
      "stateMutability": "nonpayable",
      "type": "function"
    }
  ],
  "bytecode": "0x6080604052348015600f57600080fd5b50336000806101000a81548173ffffffffffffffffffffffffffffffffffffffff021916908373ffffffffffffffffffffffffffffffffffffffff16021790555061338a8061005f6000396000f3fe60806040526004361061019c5760003560e01c8063b6d7a2fc116100ec578063e55ae4e81161008a578063f28d718d11610064578063f28d718d146105e6578063f71d96cb14610623578063f851a44014610666578063f8b2cb4f146106915761019c565b8063e55ae4e814610550578063ea2e83fb14610592578063f0c37a59146105bb5761019c565b8063cff2bfc8116100c6578063cff2bfc8146104a3578063d0e30db0146104e0578063de03fd35146104ea578063e4fc57dd146105275761019c565b8063b6d7a2fc14610410578063ba09b2c81461043b578063c40717f6146104665761019c565b80635511384e11610159578063a31ca4b511610133578063a31ca4b514610340578063a4e40e7314610369578063a79eb0d1146103a6578063a87430ba146103d15761019c565b80635511384e146102c3578063704f1b94146102ec5780638c91efa7146103155761019c565b806307e153ae146101a157806312d836d6146101cc57806326224c64146102095780632e1a7d4d1461024657806334aacb2e1461026f578063427e68861461029a575b600080fd5b3480156101ad57600080fd5b506101b66106ce565b6040516101c39190611f10565b60405180910390f35b3480156101d857600080fd5b506101f360048036038101906101ee9190611f6b565b6106d3565b6040516102009190611f10565b60405180910390f35b34801561021557600080fd5b50610230600480360381019061022b9190612009565b6106f8565b60405161023d9190611f10565b60405180910390f35b34801561025257600080fd5b5061026d60048036038101906102689190612036565b610710565b005b34801561027b57600080fd5b506102846109ed565b6040516102919190611f10565b60405180910390f35b3480156102a657600080fd5b506102c160048036038101906102bc91906120c8565b6109f2565b005b3480156102cf57600080fd5b506102ea60048036038101906102e5919061216f565b610da3565b005b3480156102f857600080fd5b50610313600480360381019061030e91906121af565b610dfd565b005b34801561032157600080fd5b5061032a611094565b6040516103379190611f10565b60405180910390f35b34801561034c57600080fd5b5061036760048036038101906103629190612375565b611099565b005b34801561037557600080fd5b50610390600480360381019061038b919061216f565b6111cb565b60405161039d9190611f10565b60405180910390f35b3480156103b257600080fd5b506103bb6111fc565b6040516103c89190611f10565b60405180910390f35b3480156103dd57600080fd5b506103f860048036038101906103f39190612009565b611201565b6040516104079392919061249a565b60405180910390f35b34801561041c57600080fd5b506104256112c0565b6040516104329190611f10565b60405180910390f35b34801561044757600080fd5b506104506112c6565b60405161045d9190611f10565b60405180910390f35b34801561047257600080fd5b5061048d6004803603810190610488919061252e565b6112cb565b60405161049a919061257b565b60405180910390f35b3480156104af57600080fd5b506104ca60048036038101906104c5919061252e565b611629565b6040516104d79190611f10565b60405180910390f35b6104e86116f1565b005b3480156104f657600080fd5b50610511600480360381019061050c9190611f6b565b61189e565b60405161051e9190611f10565b60405180910390f35b34801561053357600080fd5b5061054e6004803603810190610549919061216f565b611912565b005b34801561055c57600080fd5b5061057760048036038101906105729190612036565b61197c565b60405161058996959493929190612596565b60405180910390f35b34801561059e57600080fd5b506105b960048036038101906105b49190612605565b611b87565b005b3480156105c757600080fd5b506105d0611cef565b6040516105dd9190611f10565b60405180910390f35b3480156105f257600080fd5b5061060d60048036038101906106089190612658565b611cf5565b60405161061a919061257b565b60405180910390f35b34801561062f57600080fd5b5061064a60048036038101906106459190612036565b611d2b565b60405161065d97969594939291906126a1565b60405180910390f35b34801561067257600080fd5b5061067b611e8a565b604051610688919061272d565b60405180910390f35b34801561069d57600080fd5b506106b860048036038101906106b39190612009565b611eae565b6040516106c59190611f10565b60405180910390f35b600381565b6009602052816000526040600020602052806000526040600020600091509150505481565b60056020528060005260406000206000915090505481565b600260035403610755576040517f08c379a000000000000000000000000000000000000000000000000000000000815260040161074c90612794565b60405180910390fd5b6002600381905550600073ffffffffffffffffffffffffffffffffffffffff163373ffffffffffffffffffffffffffffffffffffffff16036107cc576040517f08c379a00000000000000000000000000000000000000000000000000000000081526004016107c390612800565b60405180910390fd5b6000811161080f576040517f08c379a00000000000000000000000000000000000000000000000000000000081526004016108069061286c565b60405180910390fd5b80600560003373ffffffffffffffffffffffffffffffffffffffff1673ffffffffffffffffffffffffffffffffffffffff168152602001908152602001600020541015610891576040517f08c379a0000000000000000000000000000000000000000000000000000000008152600401610888906128d8565b60405180910390fd5b80600560003373ffffffffffffffffffffffffffffffffffffffff1673ffffffffffffffffffffffffffffffffffffffff16815260200190815260200160002060008282546108e09190612927565b9250508190555060003373ffffffffffffffffffffffffffffffffffffffff168260405161090d9061298c565b60006040518083038185875af1925050503d806000811461094a576040519150601f19603f3d011682016040523d82523d6000602084013e61094f565b606091505b5050905080610993576040517f08c379a000000000000000000000000000000000000000000000000000000000815260040161098a906129ed565b60405180910390fd5b3373ffffffffffffffffffffffffffffffffffffffff167f84e742a3ea03623687a5febaa797636d728230721d4b3d1405d19fbbc16298d9836040516109d99190611f10565b60405180910390a250600160038190555050565b600f81565b60008054906101000a900473ffffffffffffffffffffffffffffffffffffffff1673ffffffffffffffffffffffffffffffffffffffff163373ffffffffffffffffffffffffffffffffffffffff1614610a80576040517f08c379a0000000000000000000000000000000000000000000000000000000008152600401610a7790612a59565b60405180910390fd5b60008686905011610ac6576040517f08c379a0000000000000000000000000000000000000000000000000000000008152600401610abd90612ac5565b60405180910390fd5b60008484905011610b0c576040517f08c379a0000000000000000000000000000000000000000000000000000000008152600401610b0390612b31565b60405180910390fd5b60008111610b4f576040517f08c379a0000000000000000000000000000000000000000000000000000000008152600401610b4690612b9d565b60405180910390fd5b60088686604051610b61929190612bed565b908152602001604051809103902060009054906101000a900460ff1615610bbd576040517f08c379a0000000000000000000000000000000000000000000000000000000008152600401610bb490612c52565b60405180910390fd5b6000600260008154610bce90612c72565b91905081905590506040518060e0016040528082815260200188888080601f016020809104026020016040519081016040528093929190818152602001838380828437600081840152601f19601f82011690508083019250505050505050815260200186868080601f016020809104026020016040519081016040528093929190818152602001838380828437600081840152601f19601f820116905080830192505050505050508152602001848152602001838152602001600081526020016001151581525060076000838152602001908152602001600020600082015181600001556020820151816001019081610cc79190612ec6565b506040820151816002019081610cdd9190612ec6565b50606082015181600301556080820151816004015560a0820151816005015560c08201518160060160006101000a81548160ff021916908315150217905550905050600160088888604051610d33929190612bed565b908152602001604051809103902060006101000a81548160ff021916908315150217905550807fde362b42458bb62dc23b2691d14ba17e1eccb25e58e0ea2bf43fd8fa84322f62888888888888604051610d9296959493929190612fc5565b60405180910390a250505050505050565b80600560008473ffffffffffffffffffffffffffffffffffffffff1673ffffffffffffffffffffffffffffffffffffffff1681526020019081526020016000206000828254610df2919061301c565b925050819055505050565b600073ffffffffffffffffffffffffffffffffffffffff163373ffffffffffffffffffffffffffffffffffffffff1603610e6c576040517f08c379a0000000000000000000000000000000000000000000000000000000008152600401610e639061309c565b60405180910390fd5b600460003373ffffffffffffffffffffffffffffffffffffffff1673ffffffffffffffffffffffffffffffffffffffff16815260200190815260200160002060020160009054906101000a900460ff1615610efc576040517f08c379a0000000000000000000000000000000000000000000000000000000008152600401610ef390613108565b60405180910390fd5b60008282905011610f42576040517f08c379a0000000000000000000000000000000000000000000000000000000008152600401610f3990612ac5565b60405180910390fd5b6000600160008154610f5390612c72565b9190508190559050604051806060016040528082815260200184848080601f016020809104026020016040519081016040528093929190818152602001838380828437600081840152601f19601f82011690508083019250505050505050815260200160011515815250600460003373ffffffffffffffffffffffffffffffffffffffff1673ffffffffffffffffffffffffffffffffffffffff16815260200190815260200160002060008201518160000155602082015181600101908161101b9190612ec6565b5060408201518160020160006101000a81548160ff0219169083151502179055509050503373ffffffffffffffffffffffffffffffffffffffff167f48cac28ad4dc618e15f4c2dd5e97751182f166de97b25618318b2112aa951a2f8484604051611087929190613128565b60405180910390a2505050565b600281565b60008054906101000a900473ffffffffffffffffffffffffffffffffffffffff1673ffffffffffffffffffffffffffffffffffffffff163373ffffffffffffffffffffffffffffffffffffffff1614611127576040517f08c379a000000000000000000000000000000000000000000000000000000000815260040161111e90612a59565b60405180910390fd5b60025485111561116c576040517f08c379a000000000000000000000000000000000000000000000000000000000815260040161116390613198565b60405180910390fd5b6000600760008781526020019081526020016000209050848160020190816111949190612ec6565b50838160030181905550828160040181905550818160060160006101000a81548160ff021916908315150217905550505050505050565b600660205281600052604060002081815481106111e757600080fd5b90600052602060002001600091509150505481565b600581565b600460205280600052604060002060009150905080600001549080600101805461122a90612ce9565b80601f016020809104026020016040519081016040528092919081815260200182805461125690612ce9565b80156112a35780601f10611278576101008083540402835291602001916112a3565b820191906000526020600020905b81548152906001019060200180831161128657829003601f168201915b5050505050908060020160009054906101000a900460ff16905083565b60025481565b600581565b6000600f8383905014611313576040517f08c379a000000000000000000000000000000000000000000000000000000000815260040161130a90613204565b60405180910390fd5b60008060008060005b878790508110156115f45760025488888381811061133d5761133c613224565b5b905060200201351115611385576040517f08c379a000000000000000000000000000000000000000000000000000000000815260040161137c90613198565b60405180910390fd5b6000600760008a8a8581811061139e5761139d613224565b5b9050602002013581526020019081526020016000206040518060e0016040529081600082015481526020016001820180546113d890612ce9565b80601f016020809104026020016040519081016040528092919081815260200182805461140490612ce9565b80156114515780601f1061142657610100808354040283529160200191611451565b820191906000526020600020905b81548152906001019060200180831161143457829003601f168201915b5050505050815260200160028201805461146a90612ce9565b80601f016020809104026020016040519081016040528092919081815260200182805461149690612ce9565b80156114e35780601f106114b8576101008083540402835291602001916114e3565b820191906000526020600020905b8154815290600101906020018083116114c657829003601f168201915b505050505081526020016003820154815260200160048201548152602001600582015481526020016006820160009054906101000a900460ff16151515158152505090508060c0015161156b576040517f08c379a00000000000000000000000000000000000000000000000000000000081526004016115629061329f565b60405180910390fd5b600181606001510361158a57858061158290612c72565b9650506115e6565b60028160600151036115a95784806115a190612c72565b9550506115e5565b60038160600151036115c85783806115c090612c72565b9450506115e4565b60048160600151036115e35782806115df90612c72565b9350505b5b5b5b50808060010191505061131c565b506002841480156116055750600583145b80156116115750600582145b801561161d5750600381145b94505050505092915050565b6000806000905060005b848490508110156116e65760025485858381811061165457611653613224565b5b90506020020135111561169c576040517f08c379a000000000000000000000000000000000000000000000000000000000815260040161169390613198565b60405180910390fd5b600760008686848181106116b3576116b2613224565b5b90506020020135815260200190815260200160002060040154826116d7919061301c565b91508080600101915050611633565b508091505092915050565b600260035403611736576040517f08c379a000000000000000000000000000000000000000000000000000000000815260040161172d90612794565b60405180910390fd5b6002600381905550600073ffffffffffffffffffffffffffffffffffffffff163373ffffffffffffffffffffffffffffffffffffffff16036117ad576040517f08c379a00000000000000000000000000000000000000000000000000000000081526004016117a490612800565b60405180910390fd5b600034116117f0576040517f08c379a00000000000000000000000000000000000000000000000000000000081526004016117e79061330b565b60405180910390fd5b34600560003373ffffffffffffffffffffffffffffffffffffffff1673ffffffffffffffffffffffffffffffffffffffff168152602001908152602001600020600082825461183f919061301c565b925050819055503373ffffffffffffffffffffffffffffffffffffffff167fb3ef81558ed1a50072a492984535a009da8b129c749500b387f1e5f4886bdde53460405161188c9190611f10565b60405180910390a26001600381905550565b60006002548311156118e5576040517f08c379a00000000000000000000000000000000000000000000000000000000081526004016118dc90613198565b60405180910390fd5b60096000848152602001908152602001600020600083815260200190815260200160002054905092915050565b600660008373ffffffffffffffffffffffffffffffffffffffff1673ffffffffffffffffffffffffffffffffffffffff1681526020019081526020016000208190806001815401808255809150506001900390600052602060002001600090919091909150555050565b6060806000806000806002548711156119ca576040517f08c379a00000000000000000000000000000000000000000000000000000000081526004016119c190613198565b60405180910390fd5b6000600760008981526020019081526020016000206040518060e001604052908160008201548152602001600182018054611a0490612ce9565b80601f0160208091040260200160405190810160405280929190818152602001828054611a3090612ce9565b8015611a7d5780601f10611a5257610100808354040283529160200191611a7d565b820191906000526020600020905b815481529060010190602001808311611a6057829003601f168201915b50505050508152602001600282018054611a9690612ce9565b80601f0160208091040260200160405190810160405280929190818152602001828054611ac290612ce9565b8015611b0f5780601f10611ae457610100808354040283529160200191611b0f565b820191906000526020600020905b815481529060010190602001808311611af257829003601f168201915b505050505081526020016003820154815260200160048201548152602001600582015481526020016006820160009054906101000a900460ff161515151581525050905080602001518160400151826060015183608001518460a001518560c001519650965096509650965096505091939550919395565b60008054906101000a900473ffffffffffffffffffffffffffffffffffffffff1673ffffffffffffffffffffffffffffffffffffffff163373ffffffffffffffffffffffffffffffffffffffff1614611c15576040517f08c379a0000000000000000000000000000000000000000000000000000000008152600401611c0c90612a59565b60405180910390fd5b600254831115611c5a576040517f08c379a0000000000000000000000000000000000000000000000000000000008152600401611c5190613198565b60405180910390fd5b806009600085815260200190815260200160002060008481526020019081526020016000208190555080600760008581526020019081526020016000206005016000828254611ca9919061301c565b92505081905550827f1d9a35f98c6965b7850b651366a8028cd7c8de43cf3dfea4d9b26eabe886dcc38383604051611ce292919061332b565b60405180910390a2505050565b60015481565b6008818051602081018201805184825260208301602085012081835280955050505050506000915054906101000a900460ff1681565b6007602052806000526040600020600091509050806000015490806001018054611d5490612ce9565b80601f0160208091040260200160405190810160405280929190818152602001828054611d8090612ce9565b8015611dcd5780601f10611da257610100808354040283529160200191611dcd565b820191906000526020600020905b815481529060010190602001808311611db057829003601f168201915b505050505090806002018054611de290612ce9565b80601f0160208091040260200160405190810160405280929190818152602001828054611e0e90612ce9565b8015611e5b5780601f10611e3057610100808354040283529160200191611e5b565b820191906000526020600020905b815481529060010190602001808311611e3e57829003601f168201915b5050505050908060030154908060040154908060050154908060060160009054906101000a900460ff16905087565b60008054906101000a900473ffffffffffffffffffffffffffffffffffffffff1681565b6000600560008373ffffffffffffffffffffffffffffffffffffffff1673ffffffffffffffffffffffffffffffffffffffff168152602001908152602001600020549050919050565b6000819050919050565b611f0a81611ef7565b82525050565b6000602082019050611f256000830184611f01565b92915050565b6000604051905090565b600080fd5b600080fd5b611f4881611ef7565b8114611f5357600080fd5b50565b600081359050611f6581611f3f565b92915050565b60008060408385031215611f8257611f81611f35565b5b6000611f9085828601611f56565b9250506020611fa185828601611f56565b9150509250929050565b600073ffffffffffffffffffffffffffffffffffffffff82169050919050565b6000611fd682611fab565b9050919050565b611fe681611fcb565b8114611ff157600080fd5b50565b60008135905061200381611fdd565b92915050565b60006020828403121561201f5761201e611f35565b5b600061202d84828501611ff4565b91505092915050565b60006020828403121561204c5761204b611f35565b5b600061205a84828501611f56565b91505092915050565b600080fd5b600080fd5b600080fd5b60008083601f84011261208857612087612063565b5b8235905067ffffffffffffffff8111156120a5576120a4612068565b5b6020830191508360018202830111156120c1576120c061206d565b5b9250929050565b600080600080600080608087890312156120e5576120e4611f35565b5b600087013567ffffffffffffffff81111561210357612102611f3a565b5b61210f89828a01612072565b9650965050602087013567ffffffffffffffff81111561213257612131611f3a565b5b61213e89828a01612072565b9450945050604061215189828a01611f56565b925050606061216289828a01611f56565b9150509295509295509295565b6000806040838503121561218657612185611f35565b5b600061219485828601611ff4565b92505060206121a585828601611f56565b9150509250929050565b600080602083850312156121c6576121c5611f35565b5b600083013567ffffffffffffffff8111156121e4576121e3611f3a565b5b6121f085828601612072565b92509250509250929050565b600080fd5b6000601f19601f8301169050919050565b7f4e487b7100000000000000000000000000000000000000000000000000000000600052604160045260246000fd5b61224a82612201565b810181811067ffffffffffffffff8211171561226957612268612212565b5b80604052505050565b600061227c611f2b565b90506122888282612241565b919050565b600067ffffffffffffffff8211156122a8576122a7612212565b5b6122b182612201565b9050602081019050919050565b82818337600083830152505050565b60006122e06122db8461228d565b612272565b9050828152602081018484840111156122fc576122fb6121fc565b5b6123078482856122be565b509392505050565b600082601f83011261232457612323612063565b5b81356123348482602086016122cd565b91505092915050565b60008115159050919050565b6123528161233d565b811461235d57600080fd5b50565b60008135905061236f81612349565b92915050565b600080600080600060a0868803121561239157612390611f35565b5b600061239f88828901611f56565b955050602086013567ffffffffffffffff8111156123c0576123bf611f3a565b5b6123cc8882890161230f565b94505060406123dd88828901611f56565b93505060606123ee88828901611f56565b92505060806123ff88828901612360565b9150509295509295909350565b600081519050919050565b600082825260208201905092915050565b60005b8381101561244657808201518184015260208101905061242b565b60008484015250505050565b600061245d8261240c565b6124678185612417565b9350612477818560208601612428565b61248081612201565b840191505092915050565b6124948161233d565b82525050565b60006060820190506124af6000830186611f01565b81810360208301526124c18185612452565b90506124d0604083018461248b565b949350505050565b60008083601f8401126124ee576124ed612063565b5b8235905067ffffffffffffffff81111561250b5761250a612068565b5b6020830191508360208202830111156125275761252661206d565b5b9250929050565b6000806020838503121561254557612544611f35565b5b600083013567ffffffffffffffff81111561256357612562611f3a565b5b61256f858286016124d8565b92509250509250929050565b6000602082019050612590600083018461248b565b92915050565b600060c08201905081810360008301526125b08189612452565b905081810360208301526125c48188612452565b90506125d36040830187611f01565b6125e06060830186611f01565b6125ed6080830185611f01565b6125fa60a083018461248b565b979650505050505050565b60008060006060848603121561261e5761261d611f35565b5b600061262c86828701611f56565b935050602061263d86828701611f56565b925050604061264e86828701611f56565b9150509250925092565b60006020828403121561266e5761266d611f35565b5b600082013567ffffffffffffffff81111561268c5761268b611f3a565b5b6126988482850161230f565b91505092915050565b600060e0820190506126b6600083018a611f01565b81810360208301526126c88189612452565b905081810360408301526126dc8188612452565b90506126eb6060830187611f01565b6126f86080830186611f01565b61270560a0830185611f01565b61271260c083018461248b565b98975050505050505050565b61272781611fcb565b82525050565b6000602082019050612742600083018461271e565b92915050565b7f5265656e7472616e637947756172643a205265656e7472616e742063616c6c00600082015250565b600061277e601f83612417565b915061278982612748565b602082019050919050565b600060208201905081810360008301526127ad81612771565b9050919050565b7f5a65726f20616464726573732064657465637465642100000000000000000000600082015250565b60006127ea601683612417565b91506127f5826127b4565b602082019050919050565b60006020820190508181036000830152612819816127dd565b9050919050565b7f5a65726f20616d6f756e74206465746563746564210000000000000000000000600082015250565b6000612856601583612417565b915061286182612820565b602082019050919050565b6000602082019050818103600083015261288581612849565b9050919050565b7f496e73756666696369656e742066756e64732100000000000000000000000000600082015250565b60006128c2601383612417565b91506128cd8261288c565b602082019050919050565b600060208201905081810360008301526128f1816128b5565b9050919050565b7f4e487b7100000000000000000000000000000000000000000000000000000000600052601160045260246000fd5b600061293282611ef7565b915061293d83611ef7565b9250828203905081811115612955576129546128f8565b5b92915050565b600081905092915050565b50565b600061297660008361295b565b915061298182612966565b600082019050919050565b600061299782612969565b9150819050919050565b7f4574686572207472616e73666572206661696c65642100000000000000000000600082015250565b60006129d7601683612417565b91506129e2826129a1565b602082019050919050565b60006020820190508181036000830152612a06816129ca565b9050919050565b7f4f6e6c792061646d696e00000000000000000000000000000000000000000000600082015250565b6000612a43600a83612417565b9150612a4e82612a0d565b602082019050919050565b60006020820190508181036000830152612a7281612a36565b9050919050565b7f456d707479206e616d6500000000000000000000000000000000000000000000600082015250565b6000612aaf600a83612417565b9150612aba82612a79565b602082019050919050565b60006020820190508181036000830152612ade81612aa2565b9050919050565b7f456d70747920636c756200000000000000000000000000000000000000000000600082015250565b6000612b1b600a83612417565b9150612b2682612ae5565b602082019050919050565b60006020820190508181036000830152612b4a81612b0e565b9050919050565b7f496e76616c696420707269636500000000000000000000000000000000000000600082015250565b6000612b87600d83612417565b9150612b9282612b51565b602082019050919050565b60006020820190508181036000830152612bb681612b7a565b9050919050565b600081905092915050565b6000612bd48385612bbd565b9350612be18385846122be565b82840190509392505050565b6000612bfa828486612bc8565b91508190509392505050565b7f506c617965722065786973747300000000000000000000000000000000000000600082015250565b6000612c3c600d83612417565b9150612c4782612c06565b602082019050919050565b60006020820190508181036000830152612c6b81612c2f565b9050919050565b6000612c7d82611ef7565b91507fffffffffffffffffffffffffffffffffffffffffffffffffffffffffffffffff8203612caf57612cae6128f8565b5b600182019050919050565b7f4e487b7100000000000000000000000000000000000000000000000000000000600052602260045260246000fd5b60006002820490506001821680612d0157607f821691505b602082108103612d1457612d13612cba565b5b50919050565b60008190508160005260206000209050919050565b60006020601f8301049050919050565b600082821b905092915050565b600060088302612d7c7fffffffffffffffffffffffffffffffffffffffffffffffffffffffffffffffff82612d3f565b612d868683612d3f565b95508019841693508086168417925050509392505050565b6000819050919050565b6000612dc3612dbe612db984611ef7565b612d9e565b611ef7565b9050919050565b6000819050919050565b612ddd83612da8565b612df1612de982612dca565b848454612d4c565b825550505050565b600090565b612e06612df9565b612e11818484612dd4565b505050565b5b81811015612e3557612e2a600082612dfe565b600181019050612e17565b5050565b601f821115612e7a57612e4b81612d1a565b612e5484612d2f565b81016020851015612e63578190505b612e77612e6f85612d2f565b830182612e16565b50505b505050565b600082821c905092915050565b6000612e9d60001984600802612e7f565b1980831691505092915050565b6000612eb68383612e8c565b9150826002028217905092915050565b612ecf8261240c565b67ffffffffffffffff811115612ee857612ee7612212565b5b612ef28254612ce9565b612efd828285612e39565b600060209050601f831160018114612f305760008415612f1e578287015190505b612f288582612eaa565b865550612f90565b601f198416612f3e86612d1a565b60005b82811015612f6657848901518255600182019150602085019450602081019050612f41565b86831015612f835784890151612f7f601f891682612e8c565b8355505b6001600288020188555050505b505050505050565b6000612fa48385612417565b9350612fb18385846122be565b612fba83612201565b840190509392505050565b60006080820190508181036000830152612fe081888a612f98565b90508181036020830152612ff5818688612f98565b90506130046040830185611f01565b6130116060830184611f01565b979650505050505050565b600061302782611ef7565b915061303283611ef7565b925082820190508082111561304a576130496128f8565b5b92915050565b7f496e76616c696420616464726573730000000000000000000000000000000000600082015250565b6000613086600f83612417565b915061309182613050565b602082019050919050565b600060208201905081810360008301526130b581613079565b9050919050565b7f416c726561647920726567697374657265640000000000000000000000000000600082015250565b60006130f2601283612417565b91506130fd826130bc565b602082019050919050565b60006020820190508181036000830152613121816130e5565b9050919050565b60006020820190508181036000830152613143818486612f98565b90509392505050565b7f496e76616c696420706c61796572204944000000000000000000000000000000600082015250565b6000613182601183612417565b915061318d8261314c565b602082019050919050565b600060208201905081810360008301526131b181613175565b9050919050565b7f496e76616c6964207465616d2073697a65000000000000000000000000000000600082015250565b60006131ee601183612417565b91506131f9826131b8565b602082019050919050565b6000602082019050818103600083015261321d816131e1565b9050919050565b7f4e487b7100000000000000000000000000000000000000000000000000000000600052603260045260246000fd5b7f496e61637469766520706c617965720000000000000000000000000000000000600082015250565b6000613289600f83612417565b915061329482613253565b602082019050919050565b600060208201905081810360008301526132b88161327c565b9050919050565b7f43616e6e6f74206465706f736974207a65726f21000000000000000000000000600082015250565b60006132f5601483612417565b9150613300826132bf565b602082019050919050565b60006020820190508181036000830152613324816132e8565b9050919050565b60006040820190506133406000830185611f01565b61334d6020830184611f01565b939250505056fea26469706673582212202a3b40769dcc4419bd76fc2f5da7d0a1fc8cbc5e536fa76ecdce5350ebd4b83764736f6c634300081b0033",
  "linkReferences": {},
  "deployedLinkReferences": {}
}